{
  "transactions": [
    {
      "hash": "0x4bc4f61335096d1072334ca7340fbb95e00cfc04e1ea8e5789d5295531115209",
      "transactionType": "CALL",
      "contractName": null,
      "contractAddress": "0xc3a43060cA8633c3D9f0BA5eb0eFc935A57a582e",
      "function": "ownerMint(uint256)",
      "arguments": [
        "10"
      ],
      "transaction": {
        "type": "0x02",
        "from": "0xe540a4e03adefb734ece9d67e1a86199ee907caa",
        "to": "0xc3a43060ca8633c3d9f0ba5eb0efc935a57a582e",
        "gas": "0x21133e",
        "value": "0x0",
        "data": "0xf19e75d4000000000000000000000000000000000000000000000000000000000000000a",
        "nonce": "0x25",
        "accessList": []
      },
      "additionalContracts": [],
      "isFixedGasLimit": false
    },
    {
      "hash": "0xa326e1fef5861938b7607bdc71eec3df7082453e769f532af22dc49252992d07",
      "transactionType": "CALL",
      "contractName": null,
      "contractAddress": "0xc3a43060cA8633c3D9f0BA5eb0eFc935A57a582e",
      "function": "ownerMint(uint256)",
      "arguments": [
        "10"
      ],
      "transaction": {
        "type": "0x02",
        "from": "0xe540a4e03adefb734ece9d67e1a86199ee907caa",
        "to": "0xc3a43060ca8633c3d9f0ba5eb0efc935a57a582e",
        "gas": "0x21133e",
        "value": "0x0",
        "data": "0xf19e75d4000000000000000000000000000000000000000000000000000000000000000a",
        "nonce": "0x26",
        "accessList": []
      },
      "additionalContracts": [],
      "isFixedGasLimit": false
    },
    {
      "hash": "0xd0ec96a136a058c645932bf800157fd00c418c9533b17b25b812e15bb2bfb337",
      "transactionType": "CALL",
      "contractName": null,
      "contractAddress": "0xc3a43060cA8633c3D9f0BA5eb0eFc935A57a582e",
      "function": "ownerMint(uint256)",
      "arguments": [
        "10"
      ],
      "transaction": {
        "type": "0x02",
        "from": "0xe540a4e03adefb734ece9d67e1a86199ee907caa",
        "to": "0xc3a43060ca8633c3d9f0ba5eb0efc935a57a582e",
        "gas": "0x21133e",
        "value": "0x0",
        "data": "0xf19e75d4000000000000000000000000000000000000000000000000000000000000000a",
        "nonce": "0x27",
        "accessList": []
      },
      "additionalContracts": [],
      "isFixedGasLimit": false
    },
    {
      "hash": null,
      "transactionType": "CALL",
      "contractName": null,
      "contractAddress": "0xc3a43060cA8633c3D9f0BA5eb0eFc935A57a582e",
      "function": "ownerMint(uint256)",
      "arguments": [
        "10"
      ],
      "transaction": {
        "type": "0x02",
        "from": "0xe540a4e03adefb734ece9d67e1a86199ee907caa",
        "to": "0xc3a43060ca8633c3d9f0ba5eb0efc935a57a582e",
        "gas": "0x21133e",
        "value": "0x0",
        "data": "0xf19e75d4000000000000000000000000000000000000000000000000000000000000000a",
        "nonce": "0x28",
        "accessList": []
      },
      "additionalContracts": [],
      "isFixedGasLimit": false
    },
    {
      "hash": null,
      "transactionType": "CALL",
      "contractName": null,
      "contractAddress": "0xc3a43060cA8633c3D9f0BA5eb0eFc935A57a582e",
      "function": "ownerMint(uint256)",
      "arguments": [
        "10"
      ],
      "transaction": {
        "type": "0x02",
        "from": "0xe540a4e03adefb734ece9d67e1a86199ee907caa",
        "to": "0xc3a43060ca8633c3d9f0ba5eb0efc935a57a582e",
        "gas": "0x21133e",
        "value": "0x0",
        "data": "0xf19e75d4000000000000000000000000000000000000000000000000000000000000000a",
        "nonce": "0x29",
        "accessList": []
      },
      "additionalContracts": [],
      "isFixedGasLimit": false
    }
  ],
  "receipts": [],
  "libraries": [],
  "pending": [
    "0x4bc4f61335096d1072334ca7340fbb95e00cfc04e1ea8e5789d5295531115209",
    "0xa326e1fef5861938b7607bdc71eec3df7082453e769f532af22dc49252992d07",
    "0xd0ec96a136a058c645932bf800157fd00c418c9533b17b25b812e15bb2bfb337"
  ],
  "returns": {},
  "timestamp": 1704838565,
  "chain": 80001,
  "multi": false,
  "commit": "368bc48"
}