{
  "transactions": [
    {
      "hash": "0x129f94918d7b57626a77a02e5acec9628f95ec1e90c0061c4642f3af200f833d",
      "transactionType": "CALL",
      "contractName": null,
      "contractAddress": "0x8263007844439F1A1423AE633994B6245e4508Bc",
      "function": "ownerMint(uint256)",
      "arguments": [
        "10"
      ],
      "transaction": {
        "type": "0x02",
        "from": "0xe540a4e03adefb734ece9d67e1a86199ee907caa",
        "to": "0x8263007844439f1a1423ae633994b6245e4508bc",
        "gas": "0x1f5a56",
        "value": "0x0",
        "data": "0xf19e75d4000000000000000000000000000000000000000000000000000000000000000a",
        "nonce": "0x52",
        "accessList": []
      },
      "additionalContracts": [],
      "isFixedGasLimit": false
    },
    {
      "hash": "0x3331693481d3c77817942b20bf4288c077227c5147f056c69a58a2d9196cbe9b",
      "transactionType": "CALL",
      "contractName": null,
      "contractAddress": "0x8263007844439F1A1423AE633994B6245e4508Bc",
      "function": "ownerMint(uint256)",
      "arguments": [
        "10"
      ],
      "transaction": {
        "type": "0x02",
        "from": "0xe540a4e03adefb734ece9d67e1a86199ee907caa",
        "to": "0x8263007844439f1a1423ae633994b6245e4508bc",
        "gas": "0x1f5a56",
        "value": "0x0",
        "data": "0xf19e75d4000000000000000000000000000000000000000000000000000000000000000a",
        "nonce": "0x53",
        "accessList": []
      },
      "additionalContracts": [],
      "isFixedGasLimit": false
    },
    {
      "hash": "0x79d3da9fc95a7b99d5b5655d890fdce1be602fd635c336ccf056865c6bc09d86",
      "transactionType": "CALL",
      "contractName": null,
      "contractAddress": "0x8263007844439F1A1423AE633994B6245e4508Bc",
      "function": "ownerMint(uint256)",
      "arguments": [
        "10"
      ],
      "transaction": {
        "type": "0x02",
        "from": "0xe540a4e03adefb734ece9d67e1a86199ee907caa",
        "to": "0x8263007844439f1a1423ae633994b6245e4508bc",
        "gas": "0x1f5a56",
        "value": "0x0",
        "data": "0xf19e75d4000000000000000000000000000000000000000000000000000000000000000a",
        "nonce": "0x54",
        "accessList": []
      },
      "additionalContracts": [],
      "isFixedGasLimit": false
    },
    {
      "hash": "0x5311f4d8c6df550fe1088abaf3530ea67b67d345e583b5e30ac97f0bfce7549f",
      "transactionType": "CALL",
      "contractName": null,
      "contractAddress": "0x8263007844439F1A1423AE633994B6245e4508Bc",
      "function": "ownerMint(uint256)",
      "arguments": [
        "10"
      ],
      "transaction": {
        "type": "0x02",
        "from": "0xe540a4e03adefb734ece9d67e1a86199ee907caa",
        "to": "0x8263007844439f1a1423ae633994b6245e4508bc",
        "gas": "0x1f5a56",
        "value": "0x0",
        "data": "0xf19e75d4000000000000000000000000000000000000000000000000000000000000000a",
        "nonce": "0x55",
        "accessList": []
      },
      "additionalContracts": [],
      "isFixedGasLimit": false
    },
    {
      "hash": "0x3b2e6da50fedafcbb9ab6936e5a4c59c237aa20dc930015d9e14ad089b919f83",
      "transactionType": "CALL",
      "contractName": null,
      "contractAddress": "0x8263007844439F1A1423AE633994B6245e4508Bc",
      "function": "ownerMint(uint256)",
      "arguments": [
        "10"
      ],
      "transaction": {
        "type": "0x02",
        "from": "0xe540a4e03adefb734ece9d67e1a86199ee907caa",
        "to": "0x8263007844439f1a1423ae633994b6245e4508bc",
        "gas": "0x1f5a56",
        "value": "0x0",
        "data": "0xf19e75d4000000000000000000000000000000000000000000000000000000000000000a",
        "nonce": "0x56",
        "accessList": []
      },
      "additionalContracts": [],
      "isFixedGasLimit": false
    }
  ],
  "receipts": [],
  "libraries": [],
  "pending": [
    "0x129f94918d7b57626a77a02e5acec9628f95ec1e90c0061c4642f3af200f833d",
    "0x3331693481d3c77817942b20bf4288c077227c5147f056c69a58a2d9196cbe9b",
    "0x79d3da9fc95a7b99d5b5655d890fdce1be602fd635c336ccf056865c6bc09d86",
    "0x5311f4d8c6df550fe1088abaf3530ea67b67d345e583b5e30ac97f0bfce7549f",
    "0x3b2e6da50fedafcbb9ab6936e5a4c59c237aa20dc930015d9e14ad089b919f83"
  ],
  "returns": {},
  "timestamp": 1704853849,
  "chain": 80001,
  "multi": false,
  "commit": "8bdd4f4"
}