{
  "transactions": [
    {
      "hash": "0xc714108597b2295f5e28322468a38086450fc6f3b64c356c61f08ab29b440971",
      "transactionType": "CALL",
      "contractName": null,
      "contractAddress": "0x8263007844439F1A1423AE633994B6245e4508Bc",
      "function": "ownerMint(uint256)",
      "arguments": [
        "10"
      ],
      "transaction": {
        "type": "0x02",
        "from": "0xe540a4e03adefb734ece9d67e1a86199ee907caa",
        "to": "0x8263007844439f1a1423ae633994b6245e4508bc",
        "gas": "0x1f5a56",
        "value": "0x0",
        "data": "0xf19e75d4000000000000000000000000000000000000000000000000000000000000000a",
        "nonce": "0x48",
        "accessList": []
      },
      "additionalContracts": [],
      "isFixedGasLimit": false
    },
    {
      "hash": "0xa8645646c0c6096dd572affaad3c707830321ad82ff8d31b14688515c0753fef",
      "transactionType": "CALL",
      "contractName": null,
      "contractAddress": "0x8263007844439F1A1423AE633994B6245e4508Bc",
      "function": "ownerMint(uint256)",
      "arguments": [
        "10"
      ],
      "transaction": {
        "type": "0x02",
        "from": "0xe540a4e03adefb734ece9d67e1a86199ee907caa",
        "to": "0x8263007844439f1a1423ae633994b6245e4508bc",
        "gas": "0x1f5a56",
        "value": "0x0",
        "data": "0xf19e75d4000000000000000000000000000000000000000000000000000000000000000a",
        "nonce": "0x49",
        "accessList": []
      },
      "additionalContracts": [],
      "isFixedGasLimit": false
    },
    {
      "hash": "0xf93e428e7cca7da16a548a6a8fed314d956bdba1118a8bc3c8ad905a974bb2ee",
      "transactionType": "CALL",
      "contractName": null,
      "contractAddress": "0x8263007844439F1A1423AE633994B6245e4508Bc",
      "function": "ownerMint(uint256)",
      "arguments": [
        "10"
      ],
      "transaction": {
        "type": "0x02",
        "from": "0xe540a4e03adefb734ece9d67e1a86199ee907caa",
        "to": "0x8263007844439f1a1423ae633994b6245e4508bc",
        "gas": "0x1f5a56",
        "value": "0x0",
        "data": "0xf19e75d4000000000000000000000000000000000000000000000000000000000000000a",
        "nonce": "0x4a",
        "accessList": []
      },
      "additionalContracts": [],
      "isFixedGasLimit": false
    },
    {
      "hash": "0xde53deb721214fbff883de4aa7052463bbfdae0c2d6d1c2db361de72ae2fed19",
      "transactionType": "CALL",
      "contractName": null,
      "contractAddress": "0x8263007844439F1A1423AE633994B6245e4508Bc",
      "function": "ownerMint(uint256)",
      "arguments": [
        "10"
      ],
      "transaction": {
        "type": "0x02",
        "from": "0xe540a4e03adefb734ece9d67e1a86199ee907caa",
        "to": "0x8263007844439f1a1423ae633994b6245e4508bc",
        "gas": "0x1f5a56",
        "value": "0x0",
        "data": "0xf19e75d4000000000000000000000000000000000000000000000000000000000000000a",
        "nonce": "0x4b",
        "accessList": []
      },
      "additionalContracts": [],
      "isFixedGasLimit": false
    },
    {
      "hash": "0x2d32ed598c2a6c2cd5f3c8d87eb014dbf615bd3be89e14e7a3685dce77ef700d",
      "transactionType": "CALL",
      "contractName": null,
      "contractAddress": "0x8263007844439F1A1423AE633994B6245e4508Bc",
      "function": "ownerMint(uint256)",
      "arguments": [
        "10"
      ],
      "transaction": {
        "type": "0x02",
        "from": "0xe540a4e03adefb734ece9d67e1a86199ee907caa",
        "to": "0x8263007844439f1a1423ae633994b6245e4508bc",
        "gas": "0x1f5a56",
        "value": "0x0",
        "data": "0xf19e75d4000000000000000000000000000000000000000000000000000000000000000a",
        "nonce": "0x4c",
        "accessList": []
      },
      "additionalContracts": [],
      "isFixedGasLimit": false
    }
  ],
  "receipts": [],
  "libraries": [],
  "pending": [
    "0xc714108597b2295f5e28322468a38086450fc6f3b64c356c61f08ab29b440971",
    "0xa8645646c0c6096dd572affaad3c707830321ad82ff8d31b14688515c0753fef",
    "0xf93e428e7cca7da16a548a6a8fed314d956bdba1118a8bc3c8ad905a974bb2ee",
    "0xde53deb721214fbff883de4aa7052463bbfdae0c2d6d1c2db361de72ae2fed19",
    "0x2d32ed598c2a6c2cd5f3c8d87eb014dbf615bd3be89e14e7a3685dce77ef700d"
  ],
  "returns": {},
  "timestamp": 1704853727,
  "chain": 80001,
  "multi": false,
  "commit": "8bdd4f4"
}