{
  "transactions": [
    {
      "hash": "0x3568d66294bfe1171dfd82fdca1132fd87088bf02d91f2e72cc826e8dc9c1411",
      "transactionType": "CALL",
      "contractName": null,
      "contractAddress": "0xc3a43060cA8633c3D9f0BA5eb0eFc935A57a582e",
      "function": "ownerMint(uint256)",
      "arguments": [
        "10"
      ],
      "transaction": {
        "type": "0x02",
        "from": "0xe540a4e03adefb734ece9d67e1a86199ee907caa",
        "to": "0xc3a43060ca8633c3d9f0ba5eb0efc935a57a582e",
        "gas": "0x21133e",
        "value": "0x0",
        "data": "0xf19e75d4000000000000000000000000000000000000000000000000000000000000000a",
        "nonce": "0x35",
        "accessList": []
      },
      "additionalContracts": [],
      "isFixedGasLimit": false
    },
    {
      "hash": "0x348aad0bc95f0cc878c5dc0bb2134e64ad26d77926a854a07b5a47368497ef98",
      "transactionType": "CALL",
      "contractName": null,
      "contractAddress": "0xc3a43060cA8633c3D9f0BA5eb0eFc935A57a582e",
      "function": "ownerMint(uint256)",
      "arguments": [
        "10"
      ],
      "transaction": {
        "type": "0x02",
        "from": "0xe540a4e03adefb734ece9d67e1a86199ee907caa",
        "to": "0xc3a43060ca8633c3d9f0ba5eb0efc935a57a582e",
        "gas": "0x21133e",
        "value": "0x0",
        "data": "0xf19e75d4000000000000000000000000000000000000000000000000000000000000000a",
        "nonce": "0x36",
        "accessList": []
      },
      "additionalContracts": [],
      "isFixedGasLimit": false
    },
    {
      "hash": "0xd4fce50d13f9785418f2bed475aa3edec929df9b15c5200d182e797e763bb39d",
      "transactionType": "CALL",
      "contractName": null,
      "contractAddress": "0xc3a43060cA8633c3D9f0BA5eb0eFc935A57a582e",
      "function": "ownerMint(uint256)",
      "arguments": [
        "10"
      ],
      "transaction": {
        "type": "0x02",
        "from": "0xe540a4e03adefb734ece9d67e1a86199ee907caa",
        "to": "0xc3a43060ca8633c3d9f0ba5eb0efc935a57a582e",
        "gas": "0x21133e",
        "value": "0x0",
        "data": "0xf19e75d4000000000000000000000000000000000000000000000000000000000000000a",
        "nonce": "0x37",
        "accessList": []
      },
      "additionalContracts": [],
      "isFixedGasLimit": false
    },
    {
      "hash": "0x847e46a25498cbe328bba9ea4e108bf1f81190748cd16be3fd957746eae97484",
      "transactionType": "CALL",
      "contractName": null,
      "contractAddress": "0xc3a43060cA8633c3D9f0BA5eb0eFc935A57a582e",
      "function": "ownerMint(uint256)",
      "arguments": [
        "10"
      ],
      "transaction": {
        "type": "0x02",
        "from": "0xe540a4e03adefb734ece9d67e1a86199ee907caa",
        "to": "0xc3a43060ca8633c3d9f0ba5eb0efc935a57a582e",
        "gas": "0x21133e",
        "value": "0x0",
        "data": "0xf19e75d4000000000000000000000000000000000000000000000000000000000000000a",
        "nonce": "0x38",
        "accessList": []
      },
      "additionalContracts": [],
      "isFixedGasLimit": false
    },
    {
      "hash": "0xd7c9d9d9aa2e5d492311a2c415dc1a2b1e1c77d3922c1ac6285b9034e39b787a",
      "transactionType": "CALL",
      "contractName": null,
      "contractAddress": "0xc3a43060cA8633c3D9f0BA5eb0eFc935A57a582e",
      "function": "ownerMint(uint256)",
      "arguments": [
        "10"
      ],
      "transaction": {
        "type": "0x02",
        "from": "0xe540a4e03adefb734ece9d67e1a86199ee907caa",
        "to": "0xc3a43060ca8633c3d9f0ba5eb0efc935a57a582e",
        "gas": "0x21133e",
        "value": "0x0",
        "data": "0xf19e75d4000000000000000000000000000000000000000000000000000000000000000a",
        "nonce": "0x39",
        "accessList": []
      },
      "additionalContracts": [],
      "isFixedGasLimit": false
    }
  ],
  "receipts": [],
  "libraries": [],
  "pending": [
    "0x3568d66294bfe1171dfd82fdca1132fd87088bf02d91f2e72cc826e8dc9c1411",
    "0x348aad0bc95f0cc878c5dc0bb2134e64ad26d77926a854a07b5a47368497ef98",
    "0xd4fce50d13f9785418f2bed475aa3edec929df9b15c5200d182e797e763bb39d",
    "0x847e46a25498cbe328bba9ea4e108bf1f81190748cd16be3fd957746eae97484",
    "0xd7c9d9d9aa2e5d492311a2c415dc1a2b1e1c77d3922c1ac6285b9034e39b787a"
  ],
  "returns": {},
  "timestamp": 1704838877,
  "chain": 80001,
  "multi": false,
  "commit": "368bc48"
}