{
  "transactions": [
    {
      "hash": "0x30408a907d92a140e9e54dd7b70d5a605bb87c2d61e5587b6e28905fad6275d6",
      "transactionType": "CALL",
      "contractName": null,
      "contractAddress": "0xc3a43060cA8633c3D9f0BA5eb0eFc935A57a582e",
      "function": "ownerMint(uint256)",
      "arguments": [
        "10"
      ],
      "transaction": {
        "type": "0x02",
        "from": "0xe540a4e03adefb734ece9d67e1a86199ee907caa",
        "to": "0xc3a43060ca8633c3d9f0ba5eb0efc935a57a582e",
        "gas": "0x21133e",
        "value": "0x0",
        "data": "0xf19e75d4000000000000000000000000000000000000000000000000000000000000000a",
        "nonce": "0x12",
        "accessList": []
      },
      "additionalContracts": [],
      "isFixedGasLimit": false
    },
    {
      "hash": "0x434650f9d04f6a0e11ed17928fc3a2ab60e8c2c2e6081b027363a379f12fedba",
      "transactionType": "CALL",
      "contractName": null,
      "contractAddress": "0xc3a43060cA8633c3D9f0BA5eb0eFc935A57a582e",
      "function": "ownerMint(uint256)",
      "arguments": [
        "10"
      ],
      "transaction": {
        "type": "0x02",
        "from": "0xe540a4e03adefb734ece9d67e1a86199ee907caa",
        "to": "0xc3a43060ca8633c3d9f0ba5eb0efc935a57a582e",
        "gas": "0x21133e",
        "value": "0x0",
        "data": "0xf19e75d4000000000000000000000000000000000000000000000000000000000000000a",
        "nonce": "0x13",
        "accessList": []
      },
      "additionalContracts": [],
      "isFixedGasLimit": false
    },
    {
      "hash": "0x16dfec4bbce297e62f3a908e47f60396aff5c4d7d074df19bd27a958c407871d",
      "transactionType": "CALL",
      "contractName": null,
      "contractAddress": "0xc3a43060cA8633c3D9f0BA5eb0eFc935A57a582e",
      "function": "ownerMint(uint256)",
      "arguments": [
        "10"
      ],
      "transaction": {
        "type": "0x02",
        "from": "0xe540a4e03adefb734ece9d67e1a86199ee907caa",
        "to": "0xc3a43060ca8633c3d9f0ba5eb0efc935a57a582e",
        "gas": "0x21133e",
        "value": "0x0",
        "data": "0xf19e75d4000000000000000000000000000000000000000000000000000000000000000a",
        "nonce": "0x14",
        "accessList": []
      },
      "additionalContracts": [],
      "isFixedGasLimit": false
    },
    {
      "hash": "0x814b99cec264116b39cbcbb9bc2716de43e746b248ef42f896d127e458fef2f5",
      "transactionType": "CALL",
      "contractName": null,
      "contractAddress": "0xc3a43060cA8633c3D9f0BA5eb0eFc935A57a582e",
      "function": "ownerMint(uint256)",
      "arguments": [
        "10"
      ],
      "transaction": {
        "type": "0x02",
        "from": "0xe540a4e03adefb734ece9d67e1a86199ee907caa",
        "to": "0xc3a43060ca8633c3d9f0ba5eb0efc935a57a582e",
        "gas": "0x21133e",
        "value": "0x0",
        "data": "0xf19e75d4000000000000000000000000000000000000000000000000000000000000000a",
        "nonce": "0x15",
        "accessList": []
      },
      "additionalContracts": [],
      "isFixedGasLimit": false
    },
    {
      "hash": "0xa05c397be4b1004b8fdf5125942e6e2c0115a3aff7d8e71968af8bb185d8ea70",
      "transactionType": "CALL",
      "contractName": null,
      "contractAddress": "0xc3a43060cA8633c3D9f0BA5eb0eFc935A57a582e",
      "function": "ownerMint(uint256)",
      "arguments": [
        "10"
      ],
      "transaction": {
        "type": "0x02",
        "from": "0xe540a4e03adefb734ece9d67e1a86199ee907caa",
        "to": "0xc3a43060ca8633c3d9f0ba5eb0efc935a57a582e",
        "gas": "0x21133e",
        "value": "0x0",
        "data": "0xf19e75d4000000000000000000000000000000000000000000000000000000000000000a",
        "nonce": "0x16",
        "accessList": []
      },
      "additionalContracts": [],
      "isFixedGasLimit": false
    },
    {
      "hash": "0x0a9bd5af6244d25611d6023fe6a4e1c1ccf321dd8e2f65c6298cb6ed93f0710d",
      "transactionType": "CALL",
      "contractName": null,
      "contractAddress": "0xc3a43060cA8633c3D9f0BA5eb0eFc935A57a582e",
      "function": "ownerMint(uint256)",
      "arguments": [
        "10"
      ],
      "transaction": {
        "type": "0x02",
        "from": "0xe540a4e03adefb734ece9d67e1a86199ee907caa",
        "to": "0xc3a43060ca8633c3d9f0ba5eb0efc935a57a582e",
        "gas": "0x21133e",
        "value": "0x0",
        "data": "0xf19e75d4000000000000000000000000000000000000000000000000000000000000000a",
        "nonce": "0x17",
        "accessList": []
      },
      "additionalContracts": [],
      "isFixedGasLimit": false
    },
    {
      "hash": "0x23669d8e3674c43f501bb57b6977c4685e4984a9083e594afb7acf578af8d448",
      "transactionType": "CALL",
      "contractName": null,
      "contractAddress": "0xc3a43060cA8633c3D9f0BA5eb0eFc935A57a582e",
      "function": "ownerMint(uint256)",
      "arguments": [
        "10"
      ],
      "transaction": {
        "type": "0x02",
        "from": "0xe540a4e03adefb734ece9d67e1a86199ee907caa",
        "to": "0xc3a43060ca8633c3d9f0ba5eb0efc935a57a582e",
        "gas": "0x21133e",
        "value": "0x0",
        "data": "0xf19e75d4000000000000000000000000000000000000000000000000000000000000000a",
        "nonce": "0x18",
        "accessList": []
      },
      "additionalContracts": [],
      "isFixedGasLimit": false
    },
    {
      "hash": "0xf505d3d2c928ddb9d91f9dd22084dd823181c00025ca4a9b59b66daea15373b4",
      "transactionType": "CALL",
      "contractName": null,
      "contractAddress": "0xc3a43060cA8633c3D9f0BA5eb0eFc935A57a582e",
      "function": "ownerMint(uint256)",
      "arguments": [
        "10"
      ],
      "transaction": {
        "type": "0x02",
        "from": "0xe540a4e03adefb734ece9d67e1a86199ee907caa",
        "to": "0xc3a43060ca8633c3d9f0ba5eb0efc935a57a582e",
        "gas": "0x21133e",
        "value": "0x0",
        "data": "0xf19e75d4000000000000000000000000000000000000000000000000000000000000000a",
        "nonce": "0x19",
        "accessList": []
      },
      "additionalContracts": [],
      "isFixedGasLimit": false
    },
    {
      "hash": "0xff3d8e175908c27c33a0878ec961dff1da36bd4ac7434b06d3aaa4aab2460a01",
      "transactionType": "CALL",
      "contractName": null,
      "contractAddress": "0xc3a43060cA8633c3D9f0BA5eb0eFc935A57a582e",
      "function": "ownerMint(uint256)",
      "arguments": [
        "10"
      ],
      "transaction": {
        "type": "0x02",
        "from": "0xe540a4e03adefb734ece9d67e1a86199ee907caa",
        "to": "0xc3a43060ca8633c3d9f0ba5eb0efc935a57a582e",
        "gas": "0x21133e",
        "value": "0x0",
        "data": "0xf19e75d4000000000000000000000000000000000000000000000000000000000000000a",
        "nonce": "0x1a",
        "accessList": []
      },
      "additionalContracts": [],
      "isFixedGasLimit": false
    },
    {
      "hash": "0x3206ec510b95d70f161a1923f76c499e02bd36d6c8c959a745a064d1e1799f28",
      "transactionType": "CALL",
      "contractName": null,
      "contractAddress": "0xc3a43060cA8633c3D9f0BA5eb0eFc935A57a582e",
      "function": "ownerMint(uint256)",
      "arguments": [
        "10"
      ],
      "transaction": {
        "type": "0x02",
        "from": "0xe540a4e03adefb734ece9d67e1a86199ee907caa",
        "to": "0xc3a43060ca8633c3d9f0ba5eb0efc935a57a582e",
        "gas": "0x21133e",
        "value": "0x0",
        "data": "0xf19e75d4000000000000000000000000000000000000000000000000000000000000000a",
        "nonce": "0x1b",
        "accessList": []
      },
      "additionalContracts": [],
      "isFixedGasLimit": false
    },
    {
      "hash": "0x3c8df5efb3fcd1a8fae768216c0ed80009e7d2e8751e6df7ef654c7bccc41481",
      "transactionType": "CALL",
      "contractName": null,
      "contractAddress": "0xc3a43060cA8633c3D9f0BA5eb0eFc935A57a582e",
      "function": "ownerMint(uint256)",
      "arguments": [
        "10"
      ],
      "transaction": {
        "type": "0x02",
        "from": "0xe540a4e03adefb734ece9d67e1a86199ee907caa",
        "to": "0xc3a43060ca8633c3d9f0ba5eb0efc935a57a582e",
        "gas": "0x21133e",
        "value": "0x0",
        "data": "0xf19e75d4000000000000000000000000000000000000000000000000000000000000000a",
        "nonce": "0x1c",
        "accessList": []
      },
      "additionalContracts": [],
      "isFixedGasLimit": false
    },
    {
      "hash": "0xed1301aae6737ad20154ec60646623255475e5519ca560c97ba4dd3d4a1ea159",
      "transactionType": "CALL",
      "contractName": null,
      "contractAddress": "0xc3a43060cA8633c3D9f0BA5eb0eFc935A57a582e",
      "function": "ownerMint(uint256)",
      "arguments": [
        "10"
      ],
      "transaction": {
        "type": "0x02",
        "from": "0xe540a4e03adefb734ece9d67e1a86199ee907caa",
        "to": "0xc3a43060ca8633c3d9f0ba5eb0efc935a57a582e",
        "gas": "0x21133e",
        "value": "0x0",
        "data": "0xf19e75d4000000000000000000000000000000000000000000000000000000000000000a",
        "nonce": "0x1d",
        "accessList": []
      },
      "additionalContracts": [],
      "isFixedGasLimit": false
    },
    {
      "hash": "0xe49fca2783539389388a624b5f2b0a69591b6fbd338cdd22bab9e8f35000c605",
      "transactionType": "CALL",
      "contractName": null,
      "contractAddress": "0xc3a43060cA8633c3D9f0BA5eb0eFc935A57a582e",
      "function": "ownerMint(uint256)",
      "arguments": [
        "10"
      ],
      "transaction": {
        "type": "0x02",
        "from": "0xe540a4e03adefb734ece9d67e1a86199ee907caa",
        "to": "0xc3a43060ca8633c3d9f0ba5eb0efc935a57a582e",
        "gas": "0x21133e",
        "value": "0x0",
        "data": "0xf19e75d4000000000000000000000000000000000000000000000000000000000000000a",
        "nonce": "0x1e",
        "accessList": []
      },
      "additionalContracts": [],
      "isFixedGasLimit": false
    },
    {
      "hash": "0x8938d3c33c364c21c3b2506b137ab708aa40456199931f87fdffc4cf334eaf70",
      "transactionType": "CALL",
      "contractName": null,
      "contractAddress": "0xc3a43060cA8633c3D9f0BA5eb0eFc935A57a582e",
      "function": "ownerMint(uint256)",
      "arguments": [
        "10"
      ],
      "transaction": {
        "type": "0x02",
        "from": "0xe540a4e03adefb734ece9d67e1a86199ee907caa",
        "to": "0xc3a43060ca8633c3d9f0ba5eb0efc935a57a582e",
        "gas": "0x21133e",
        "value": "0x0",
        "data": "0xf19e75d4000000000000000000000000000000000000000000000000000000000000000a",
        "nonce": "0x1f",
        "accessList": []
      },
      "additionalContracts": [],
      "isFixedGasLimit": false
    },
    {
      "hash": "0xe3ef9f70dda450a731ac01e575a36171c92e9cd7902b3545669b53925c6b1ff9",
      "transactionType": "CALL",
      "contractName": null,
      "contractAddress": "0xc3a43060cA8633c3D9f0BA5eb0eFc935A57a582e",
      "function": "ownerMint(uint256)",
      "arguments": [
        "10"
      ],
      "transaction": {
        "type": "0x02",
        "from": "0xe540a4e03adefb734ece9d67e1a86199ee907caa",
        "to": "0xc3a43060ca8633c3d9f0ba5eb0efc935a57a582e",
        "gas": "0x21133e",
        "value": "0x0",
        "data": "0xf19e75d4000000000000000000000000000000000000000000000000000000000000000a",
        "nonce": "0x20",
        "accessList": []
      },
      "additionalContracts": [],
      "isFixedGasLimit": false
    },
    {
      "hash": "0x3cad26921b318d8c4e07cb9af0635dc7ffa1c228573f42c86369e62f16cb653c",
      "transactionType": "CALL",
      "contractName": null,
      "contractAddress": "0xc3a43060cA8633c3D9f0BA5eb0eFc935A57a582e",
      "function": "ownerMint(uint256)",
      "arguments": [
        "10"
      ],
      "transaction": {
        "type": "0x02",
        "from": "0xe540a4e03adefb734ece9d67e1a86199ee907caa",
        "to": "0xc3a43060ca8633c3d9f0ba5eb0efc935a57a582e",
        "gas": "0x21133e",
        "value": "0x0",
        "data": "0xf19e75d4000000000000000000000000000000000000000000000000000000000000000a",
        "nonce": "0x21",
        "accessList": []
      },
      "additionalContracts": [],
      "isFixedGasLimit": false
    },
    {
      "hash": "0x6851e8a29f010deb5a4b5012c3001b998f1c9aa50f08633342662994320ac1b8",
      "transactionType": "CALL",
      "contractName": null,
      "contractAddress": "0xc3a43060cA8633c3D9f0BA5eb0eFc935A57a582e",
      "function": "ownerMint(uint256)",
      "arguments": [
        "10"
      ],
      "transaction": {
        "type": "0x02",
        "from": "0xe540a4e03adefb734ece9d67e1a86199ee907caa",
        "to": "0xc3a43060ca8633c3d9f0ba5eb0efc935a57a582e",
        "gas": "0x21133e",
        "value": "0x0",
        "data": "0xf19e75d4000000000000000000000000000000000000000000000000000000000000000a",
        "nonce": "0x22",
        "accessList": []
      },
      "additionalContracts": [],
      "isFixedGasLimit": false
    },
    {
      "hash": "0xd48ce7eb96c43f2630ab12b06ec2046e96b0009243fe39f4931ff3a45fd7eb6f",
      "transactionType": "CALL",
      "contractName": null,
      "contractAddress": "0xc3a43060cA8633c3D9f0BA5eb0eFc935A57a582e",
      "function": "ownerMint(uint256)",
      "arguments": [
        "10"
      ],
      "transaction": {
        "type": "0x02",
        "from": "0xe540a4e03adefb734ece9d67e1a86199ee907caa",
        "to": "0xc3a43060ca8633c3d9f0ba5eb0efc935a57a582e",
        "gas": "0x21133e",
        "value": "0x0",
        "data": "0xf19e75d4000000000000000000000000000000000000000000000000000000000000000a",
        "nonce": "0x23",
        "accessList": []
      },
      "additionalContracts": [],
      "isFixedGasLimit": false
    },
    {
      "hash": "0x6d46b4efd0947f3f4e72321648a257ab273f39635aadb5d053e2b6558c323859",
      "transactionType": "CALL",
      "contractName": null,
      "contractAddress": "0xc3a43060cA8633c3D9f0BA5eb0eFc935A57a582e",
      "function": "ownerMint(uint256)",
      "arguments": [
        "10"
      ],
      "transaction": {
        "type": "0x02",
        "from": "0xe540a4e03adefb734ece9d67e1a86199ee907caa",
        "to": "0xc3a43060ca8633c3d9f0ba5eb0efc935a57a582e",
        "gas": "0x21133e",
        "value": "0x0",
        "data": "0xf19e75d4000000000000000000000000000000000000000000000000000000000000000a",
        "nonce": "0x24",
        "accessList": []
      },
      "additionalContracts": [],
      "isFixedGasLimit": false
    },
    {
      "hash": "0x4bc4f61335096d1072334ca7340fbb95e00cfc04e1ea8e5789d5295531115209",
      "transactionType": "CALL",
      "contractName": null,
      "contractAddress": "0xc3a43060cA8633c3D9f0BA5eb0eFc935A57a582e",
      "function": "ownerMint(uint256)",
      "arguments": [
        "10"
      ],
      "transaction": {
        "type": "0x02",
        "from": "0xe540a4e03adefb734ece9d67e1a86199ee907caa",
        "to": "0xc3a43060ca8633c3d9f0ba5eb0efc935a57a582e",
        "gas": "0x21133e",
        "value": "0x0",
        "data": "0xf19e75d4000000000000000000000000000000000000000000000000000000000000000a",
        "nonce": "0x25",
        "accessList": []
      },
      "additionalContracts": [],
      "isFixedGasLimit": false
    },
    {
      "hash": "0xa326e1fef5861938b7607bdc71eec3df7082453e769f532af22dc49252992d07",
      "transactionType": "CALL",
      "contractName": null,
      "contractAddress": "0xc3a43060cA8633c3D9f0BA5eb0eFc935A57a582e",
      "function": "ownerMint(uint256)",
      "arguments": [
        "10"
      ],
      "transaction": {
        "type": "0x02",
        "from": "0xe540a4e03adefb734ece9d67e1a86199ee907caa",
        "to": "0xc3a43060ca8633c3d9f0ba5eb0efc935a57a582e",
        "gas": "0x21133e",
        "value": "0x0",
        "data": "0xf19e75d4000000000000000000000000000000000000000000000000000000000000000a",
        "nonce": "0x26",
        "accessList": []
      },
      "additionalContracts": [],
      "isFixedGasLimit": false
    },
    {
      "hash": "0xd0ec96a136a058c645932bf800157fd00c418c9533b17b25b812e15bb2bfb337",
      "transactionType": "CALL",
      "contractName": null,
      "contractAddress": "0xc3a43060cA8633c3D9f0BA5eb0eFc935A57a582e",
      "function": "ownerMint(uint256)",
      "arguments": [
        "10"
      ],
      "transaction": {
        "type": "0x02",
        "from": "0xe540a4e03adefb734ece9d67e1a86199ee907caa",
        "to": "0xc3a43060ca8633c3d9f0ba5eb0efc935a57a582e",
        "gas": "0x21133e",
        "value": "0x0",
        "data": "0xf19e75d4000000000000000000000000000000000000000000000000000000000000000a",
        "nonce": "0x27",
        "accessList": []
      },
      "additionalContracts": [],
      "isFixedGasLimit": false
    },
    {
      "hash": "0xd55eb4c4d4c150b4768b65c29b148c653e5305fe166db75959fade9c9e500b01",
      "transactionType": "CALL",
      "contractName": null,
      "contractAddress": "0xc3a43060cA8633c3D9f0BA5eb0eFc935A57a582e",
      "function": "ownerMint(uint256)",
      "arguments": [
        "10"
      ],
      "transaction": {
        "type": "0x02",
        "from": "0xe540a4e03adefb734ece9d67e1a86199ee907caa",
        "to": "0xc3a43060ca8633c3d9f0ba5eb0efc935a57a582e",
        "gas": "0x21133e",
        "value": "0x0",
        "data": "0xf19e75d4000000000000000000000000000000000000000000000000000000000000000a",
        "nonce": "0x28",
        "accessList": []
      },
      "additionalContracts": [],
      "isFixedGasLimit": false
    },
    {
      "hash": "0xe43aeefb8d92dcde669331713e25554b8de12cc2179707df774fafe8965a6f1a",
      "transactionType": "CALL",
      "contractName": null,
      "contractAddress": "0xc3a43060cA8633c3D9f0BA5eb0eFc935A57a582e",
      "function": "ownerMint(uint256)",
      "arguments": [
        "10"
      ],
      "transaction": {
        "type": "0x02",
        "from": "0xe540a4e03adefb734ece9d67e1a86199ee907caa",
        "to": "0xc3a43060ca8633c3d9f0ba5eb0efc935a57a582e",
        "gas": "0x21133e",
        "value": "0x0",
        "data": "0xf19e75d4000000000000000000000000000000000000000000000000000000000000000a",
        "nonce": "0x29",
        "accessList": []
      },
      "additionalContracts": [],
      "isFixedGasLimit": false
    },
    {
      "hash": "0x03052f435f05b33f764a6a7a930d876445db80fccf7b558240646bdafdfcae5e",
      "transactionType": "CALL",
      "contractName": null,
      "contractAddress": "0xc3a43060cA8633c3D9f0BA5eb0eFc935A57a582e",
      "function": "ownerMint(uint256)",
      "arguments": [
        "10"
      ],
      "transaction": {
        "type": "0x02",
        "from": "0xe540a4e03adefb734ece9d67e1a86199ee907caa",
        "to": "0xc3a43060ca8633c3d9f0ba5eb0efc935a57a582e",
        "gas": "0x21133e",
        "value": "0x0",
        "data": "0xf19e75d4000000000000000000000000000000000000000000000000000000000000000a",
        "nonce": "0x2a",
        "accessList": []
      },
      "additionalContracts": [],
      "isFixedGasLimit": false
    },
    {
      "hash": "0x15d753ebde0e3f1a9551d8cec9ce7fcfaec6ac978a94d69c9548130620ae9c78",
      "transactionType": "CALL",
      "contractName": null,
      "contractAddress": "0xc3a43060cA8633c3D9f0BA5eb0eFc935A57a582e",
      "function": "ownerMint(uint256)",
      "arguments": [
        "10"
      ],
      "transaction": {
        "type": "0x02",
        "from": "0xe540a4e03adefb734ece9d67e1a86199ee907caa",
        "to": "0xc3a43060ca8633c3d9f0ba5eb0efc935a57a582e",
        "gas": "0x21133e",
        "value": "0x0",
        "data": "0xf19e75d4000000000000000000000000000000000000000000000000000000000000000a",
        "nonce": "0x2b",
        "accessList": []
      },
      "additionalContracts": [],
      "isFixedGasLimit": false
    },
    {
      "hash": "0xf28a80c4a29e4a1cdba8dba26335345b6de26cf9fc7e7b2505b79c58ed1d1cc2",
      "transactionType": "CALL",
      "contractName": null,
      "contractAddress": "0xc3a43060cA8633c3D9f0BA5eb0eFc935A57a582e",
      "function": "ownerMint(uint256)",
      "arguments": [
        "10"
      ],
      "transaction": {
        "type": "0x02",
        "from": "0xe540a4e03adefb734ece9d67e1a86199ee907caa",
        "to": "0xc3a43060ca8633c3d9f0ba5eb0efc935a57a582e",
        "gas": "0x21133e",
        "value": "0x0",
        "data": "0xf19e75d4000000000000000000000000000000000000000000000000000000000000000a",
        "nonce": "0x2c",
        "accessList": []
      },
      "additionalContracts": [],
      "isFixedGasLimit": false
    },
    {
      "hash": "0xa56505abd535d6d35249d73562238a89894db7a413f6761cc708b96b402852c1",
      "transactionType": "CALL",
      "contractName": null,
      "contractAddress": "0xc3a43060cA8633c3D9f0BA5eb0eFc935A57a582e",
      "function": "ownerMint(uint256)",
      "arguments": [
        "10"
      ],
      "transaction": {
        "type": "0x02",
        "from": "0xe540a4e03adefb734ece9d67e1a86199ee907caa",
        "to": "0xc3a43060ca8633c3d9f0ba5eb0efc935a57a582e",
        "gas": "0x21133e",
        "value": "0x0",
        "data": "0xf19e75d4000000000000000000000000000000000000000000000000000000000000000a",
        "nonce": "0x2d",
        "accessList": []
      },
      "additionalContracts": [],
      "isFixedGasLimit": false
    },
    {
      "hash": "0x7121c89621eddb6fa0acaac157628bfba06cec8b117b6cac2d016290737bff09",
      "transactionType": "CALL",
      "contractName": null,
      "contractAddress": "0xc3a43060cA8633c3D9f0BA5eb0eFc935A57a582e",
      "function": "ownerMint(uint256)",
      "arguments": [
        "10"
      ],
      "transaction": {
        "type": "0x02",
        "from": "0xe540a4e03adefb734ece9d67e1a86199ee907caa",
        "to": "0xc3a43060ca8633c3d9f0ba5eb0efc935a57a582e",
        "gas": "0x21133e",
        "value": "0x0",
        "data": "0xf19e75d4000000000000000000000000000000000000000000000000000000000000000a",
        "nonce": "0x2e",
        "accessList": []
      },
      "additionalContracts": [],
      "isFixedGasLimit": false
    },
    {
      "hash": "0x3b2362bafcd54a53d32c0fb2bb317b3b3bcd574583954d43a595b3cf0f78c954",
      "transactionType": "CALL",
      "contractName": null,
      "contractAddress": "0xc3a43060cA8633c3D9f0BA5eb0eFc935A57a582e",
      "function": "ownerMint(uint256)",
      "arguments": [
        "10"
      ],
      "transaction": {
        "type": "0x02",
        "from": "0xe540a4e03adefb734ece9d67e1a86199ee907caa",
        "to": "0xc3a43060ca8633c3d9f0ba5eb0efc935a57a582e",
        "gas": "0x21133e",
        "value": "0x0",
        "data": "0xf19e75d4000000000000000000000000000000000000000000000000000000000000000a",
        "nonce": "0x2f",
        "accessList": []
      },
      "additionalContracts": [],
      "isFixedGasLimit": false
    },
    {
      "hash": "0x22bac2a463e38d5eda93e2aaeaf1cb0e9ecffee3cc44b6792991cb731c30e673",
      "transactionType": "CALL",
      "contractName": null,
      "contractAddress": "0xc3a43060cA8633c3D9f0BA5eb0eFc935A57a582e",
      "function": "ownerMint(uint256)",
      "arguments": [
        "10"
      ],
      "transaction": {
        "type": "0x02",
        "from": "0xe540a4e03adefb734ece9d67e1a86199ee907caa",
        "to": "0xc3a43060ca8633c3d9f0ba5eb0efc935a57a582e",
        "gas": "0x21133e",
        "value": "0x0",
        "data": "0xf19e75d4000000000000000000000000000000000000000000000000000000000000000a",
        "nonce": "0x30",
        "accessList": []
      },
      "additionalContracts": [],
      "isFixedGasLimit": false
    },
    {
      "hash": "0x6fb3a458792279acdb0d7321ad85d98f9fa3b3999335702b26a43e168befbcd2",
      "transactionType": "CALL",
      "contractName": null,
      "contractAddress": "0xc3a43060cA8633c3D9f0BA5eb0eFc935A57a582e",
      "function": "ownerMint(uint256)",
      "arguments": [
        "10"
      ],
      "transaction": {
        "type": "0x02",
        "from": "0xe540a4e03adefb734ece9d67e1a86199ee907caa",
        "to": "0xc3a43060ca8633c3d9f0ba5eb0efc935a57a582e",
        "gas": "0x21133e",
        "value": "0x0",
        "data": "0xf19e75d4000000000000000000000000000000000000000000000000000000000000000a",
        "nonce": "0x31",
        "accessList": []
      },
      "additionalContracts": [],
      "isFixedGasLimit": false
    },
    {
      "hash": "0x5de852345bf6ed4b4b2f8fa7b4c56933d2a767646ba3e5e0d7fad22f400f434d",
      "transactionType": "CALL",
      "contractName": null,
      "contractAddress": "0xc3a43060cA8633c3D9f0BA5eb0eFc935A57a582e",
      "function": "ownerMint(uint256)",
      "arguments": [
        "10"
      ],
      "transaction": {
        "type": "0x02",
        "from": "0xe540a4e03adefb734ece9d67e1a86199ee907caa",
        "to": "0xc3a43060ca8633c3d9f0ba5eb0efc935a57a582e",
        "gas": "0x21133e",
        "value": "0x0",
        "data": "0xf19e75d4000000000000000000000000000000000000000000000000000000000000000a",
        "nonce": "0x32",
        "accessList": []
      },
      "additionalContracts": [],
      "isFixedGasLimit": false
    },
    {
      "hash": "0xbc22e0c362fcbb5fd9b7ccf390e65bd7f25daab3c927b01ae2e2abdc4c95b630",
      "transactionType": "CALL",
      "contractName": null,
      "contractAddress": "0xc3a43060cA8633c3D9f0BA5eb0eFc935A57a582e",
      "function": "ownerMint(uint256)",
      "arguments": [
        "10"
      ],
      "transaction": {
        "type": "0x02",
        "from": "0xe540a4e03adefb734ece9d67e1a86199ee907caa",
        "to": "0xc3a43060ca8633c3d9f0ba5eb0efc935a57a582e",
        "gas": "0x21133e",
        "value": "0x0",
        "data": "0xf19e75d4000000000000000000000000000000000000000000000000000000000000000a",
        "nonce": "0x33",
        "accessList": []
      },
      "additionalContracts": [],
      "isFixedGasLimit": false
    },
    {
      "hash": "0x8f0d432221af819bfb34b67434b46ba74718dec4c563f4ffae961270906df8df",
      "transactionType": "CALL",
      "contractName": null,
      "contractAddress": "0xc3a43060cA8633c3D9f0BA5eb0eFc935A57a582e",
      "function": "ownerMint(uint256)",
      "arguments": [
        "10"
      ],
      "transaction": {
        "type": "0x02",
        "from": "0xe540a4e03adefb734ece9d67e1a86199ee907caa",
        "to": "0xc3a43060ca8633c3d9f0ba5eb0efc935a57a582e",
        "gas": "0x21133e",
        "value": "0x0",
        "data": "0xf19e75d4000000000000000000000000000000000000000000000000000000000000000a",
        "nonce": "0x34",
        "accessList": []
      },
      "additionalContracts": [],
      "isFixedGasLimit": false
    },
    {
      "hash": "0x3568d66294bfe1171dfd82fdca1132fd87088bf02d91f2e72cc826e8dc9c1411",
      "transactionType": "CALL",
      "contractName": null,
      "contractAddress": "0xc3a43060cA8633c3D9f0BA5eb0eFc935A57a582e",
      "function": "ownerMint(uint256)",
      "arguments": [
        "10"
      ],
      "transaction": {
        "type": "0x02",
        "from": "0xe540a4e03adefb734ece9d67e1a86199ee907caa",
        "to": "0xc3a43060ca8633c3d9f0ba5eb0efc935a57a582e",
        "gas": "0x21133e",
        "value": "0x0",
        "data": "0xf19e75d4000000000000000000000000000000000000000000000000000000000000000a",
        "nonce": "0x35",
        "accessList": []
      },
      "additionalContracts": [],
      "isFixedGasLimit": false
    },
    {
      "hash": "0x348aad0bc95f0cc878c5dc0bb2134e64ad26d77926a854a07b5a47368497ef98",
      "transactionType": "CALL",
      "contractName": null,
      "contractAddress": "0xc3a43060cA8633c3D9f0BA5eb0eFc935A57a582e",
      "function": "ownerMint(uint256)",
      "arguments": [
        "10"
      ],
      "transaction": {
        "type": "0x02",
        "from": "0xe540a4e03adefb734ece9d67e1a86199ee907caa",
        "to": "0xc3a43060ca8633c3d9f0ba5eb0efc935a57a582e",
        "gas": "0x21133e",
        "value": "0x0",
        "data": "0xf19e75d4000000000000000000000000000000000000000000000000000000000000000a",
        "nonce": "0x36",
        "accessList": []
      },
      "additionalContracts": [],
      "isFixedGasLimit": false
    },
    {
      "hash": "0xd4fce50d13f9785418f2bed475aa3edec929df9b15c5200d182e797e763bb39d",
      "transactionType": "CALL",
      "contractName": null,
      "contractAddress": "0xc3a43060cA8633c3D9f0BA5eb0eFc935A57a582e",
      "function": "ownerMint(uint256)",
      "arguments": [
        "10"
      ],
      "transaction": {
        "type": "0x02",
        "from": "0xe540a4e03adefb734ece9d67e1a86199ee907caa",
        "to": "0xc3a43060ca8633c3d9f0ba5eb0efc935a57a582e",
        "gas": "0x21133e",
        "value": "0x0",
        "data": "0xf19e75d4000000000000000000000000000000000000000000000000000000000000000a",
        "nonce": "0x37",
        "accessList": []
      },
      "additionalContracts": [],
      "isFixedGasLimit": false
    },
    {
      "hash": "0x847e46a25498cbe328bba9ea4e108bf1f81190748cd16be3fd957746eae97484",
      "transactionType": "CALL",
      "contractName": null,
      "contractAddress": "0xc3a43060cA8633c3D9f0BA5eb0eFc935A57a582e",
      "function": "ownerMint(uint256)",
      "arguments": [
        "10"
      ],
      "transaction": {
        "type": "0x02",
        "from": "0xe540a4e03adefb734ece9d67e1a86199ee907caa",
        "to": "0xc3a43060ca8633c3d9f0ba5eb0efc935a57a582e",
        "gas": "0x21133e",
        "value": "0x0",
        "data": "0xf19e75d4000000000000000000000000000000000000000000000000000000000000000a",
        "nonce": "0x38",
        "accessList": []
      },
      "additionalContracts": [],
      "isFixedGasLimit": false
    },
    {
      "hash": "0xd7c9d9d9aa2e5d492311a2c415dc1a2b1e1c77d3922c1ac6285b9034e39b787a",
      "transactionType": "CALL",
      "contractName": null,
      "contractAddress": "0xc3a43060cA8633c3D9f0BA5eb0eFc935A57a582e",
      "function": "ownerMint(uint256)",
      "arguments": [
        "10"
      ],
      "transaction": {
        "type": "0x02",
        "from": "0xe540a4e03adefb734ece9d67e1a86199ee907caa",
        "to": "0xc3a43060ca8633c3d9f0ba5eb0efc935a57a582e",
        "gas": "0x21133e",
        "value": "0x0",
        "data": "0xf19e75d4000000000000000000000000000000000000000000000000000000000000000a",
        "nonce": "0x39",
        "accessList": []
      },
      "additionalContracts": [],
      "isFixedGasLimit": false
    },
    {
      "hash": "0x97fba036e7e1746bd79b3ca3209862f312cbd48d29428b144b50bd5f1f46308f",
      "transactionType": "CALL",
      "contractName": null,
      "contractAddress": "0xc3a43060cA8633c3D9f0BA5eb0eFc935A57a582e",
      "function": "ownerMint(uint256)",
      "arguments": [
        "10"
      ],
      "transaction": {
        "type": "0x02",
        "from": "0xe540a4e03adefb734ece9d67e1a86199ee907caa",
        "to": "0xc3a43060ca8633c3d9f0ba5eb0efc935a57a582e",
        "gas": "0x21133e",
        "value": "0x0",
        "data": "0xf19e75d4000000000000000000000000000000000000000000000000000000000000000a",
        "nonce": "0x3a",
        "accessList": []
      },
      "additionalContracts": [],
      "isFixedGasLimit": false
    },
    {
      "hash": "0x263eb5f0117d02443526b1189f930ffeda4880ecd7ecb99d18978c8edd4f7bc1",
      "transactionType": "CALL",
      "contractName": null,
      "contractAddress": "0xc3a43060cA8633c3D9f0BA5eb0eFc935A57a582e",
      "function": "ownerMint(uint256)",
      "arguments": [
        "10"
      ],
      "transaction": {
        "type": "0x02",
        "from": "0xe540a4e03adefb734ece9d67e1a86199ee907caa",
        "to": "0xc3a43060ca8633c3d9f0ba5eb0efc935a57a582e",
        "gas": "0x21133e",
        "value": "0x0",
        "data": "0xf19e75d4000000000000000000000000000000000000000000000000000000000000000a",
        "nonce": "0x3b",
        "accessList": []
      },
      "additionalContracts": [],
      "isFixedGasLimit": false
    },
    {
      "hash": "0x3a4589136aadf825760cff4c981fc01945cf457f8d70dca67a383bea8b98411e",
      "transactionType": "CALL",
      "contractName": null,
      "contractAddress": "0xc3a43060cA8633c3D9f0BA5eb0eFc935A57a582e",
      "function": "ownerMint(uint256)",
      "arguments": [
        "10"
      ],
      "transaction": {
        "type": "0x02",
        "from": "0xe540a4e03adefb734ece9d67e1a86199ee907caa",
        "to": "0xc3a43060ca8633c3d9f0ba5eb0efc935a57a582e",
        "gas": "0x21133e",
        "value": "0x0",
        "data": "0xf19e75d4000000000000000000000000000000000000000000000000000000000000000a",
        "nonce": "0x3c",
        "accessList": []
      },
      "additionalContracts": [],
      "isFixedGasLimit": false
    },
    {
      "hash": "0x2e92c908a6edebf7b8a6f2fdc896047756395af8acdb92d076b8100b44f8627c",
      "transactionType": "CALL",
      "contractName": null,
      "contractAddress": "0xc3a43060cA8633c3D9f0BA5eb0eFc935A57a582e",
      "function": "ownerMint(uint256)",
      "arguments": [
        "10"
      ],
      "transaction": {
        "type": "0x02",
        "from": "0xe540a4e03adefb734ece9d67e1a86199ee907caa",
        "to": "0xc3a43060ca8633c3d9f0ba5eb0efc935a57a582e",
        "gas": "0x21133e",
        "value": "0x0",
        "data": "0xf19e75d4000000000000000000000000000000000000000000000000000000000000000a",
        "nonce": "0x3d",
        "accessList": []
      },
      "additionalContracts": [],
      "isFixedGasLimit": false
    },
    {
      "hash": "0x5f3babea8642c1750314fe5ad16d83f106ced5c06b472357234ec7564395d1fd",
      "transactionType": "CALL",
      "contractName": null,
      "contractAddress": "0xc3a43060cA8633c3D9f0BA5eb0eFc935A57a582e",
      "function": "ownerMint(uint256)",
      "arguments": [
        "10"
      ],
      "transaction": {
        "type": "0x02",
        "from": "0xe540a4e03adefb734ece9d67e1a86199ee907caa",
        "to": "0xc3a43060ca8633c3d9f0ba5eb0efc935a57a582e",
        "gas": "0x21133e",
        "value": "0x0",
        "data": "0xf19e75d4000000000000000000000000000000000000000000000000000000000000000a",
        "nonce": "0x3e",
        "accessList": []
      },
      "additionalContracts": [],
      "isFixedGasLimit": false
    },
    {
      "hash": "0xbf6f642c2c5f910e2a01b91f365b404f353137fa0061ef29f7bf8166f77340ef",
      "transactionType": "CALL",
      "contractName": null,
      "contractAddress": "0xc3a43060cA8633c3D9f0BA5eb0eFc935A57a582e",
      "function": "ownerMint(uint256)",
      "arguments": [
        "10"
      ],
      "transaction": {
        "type": "0x02",
        "from": "0xe540a4e03adefb734ece9d67e1a86199ee907caa",
        "to": "0xc3a43060ca8633c3d9f0ba5eb0efc935a57a582e",
        "gas": "0x21133e",
        "value": "0x0",
        "data": "0xf19e75d4000000000000000000000000000000000000000000000000000000000000000a",
        "nonce": "0x3f",
        "accessList": []
      },
      "additionalContracts": [],
      "isFixedGasLimit": false
    },
    {
      "hash": "0x9efde5b7f91cb51f0183124b89b07204be18b42ccd3c34789464b3fb3666b6cc",
      "transactionType": "CALL",
      "contractName": null,
      "contractAddress": "0xc3a43060cA8633c3D9f0BA5eb0eFc935A57a582e",
      "function": "ownerMint(uint256)",
      "arguments": [
        "10"
      ],
      "transaction": {
        "type": "0x02",
        "from": "0xe540a4e03adefb734ece9d67e1a86199ee907caa",
        "to": "0xc3a43060ca8633c3d9f0ba5eb0efc935a57a582e",
        "gas": "0x21133e",
        "value": "0x0",
        "data": "0xf19e75d4000000000000000000000000000000000000000000000000000000000000000a",
        "nonce": "0x40",
        "accessList": []
      },
      "additionalContracts": [],
      "isFixedGasLimit": false
    },
    {
      "hash": "0x6243b51a3b88106f41ed4e5b8070120dd6a7c991f1857ff53b177fb869c2acb5",
      "transactionType": "CALL",
      "contractName": null,
      "contractAddress": "0xc3a43060cA8633c3D9f0BA5eb0eFc935A57a582e",
      "function": "ownerMint(uint256)",
      "arguments": [
        "10"
      ],
      "transaction": {
        "type": "0x02",
        "from": "0xe540a4e03adefb734ece9d67e1a86199ee907caa",
        "to": "0xc3a43060ca8633c3d9f0ba5eb0efc935a57a582e",
        "gas": "0x21133e",
        "value": "0x0",
        "data": "0xf19e75d4000000000000000000000000000000000000000000000000000000000000000a",
        "nonce": "0x41",
        "accessList": []
      },
      "additionalContracts": [],
      "isFixedGasLimit": false
    },
    {
      "hash": "0xc1fbfcf512c33933373e2732c3d562556d45c7bd8bbba0d21682f5a4b10b09e4",
      "transactionType": "CALL",
      "contractName": null,
      "contractAddress": "0xc3a43060cA8633c3D9f0BA5eb0eFc935A57a582e",
      "function": "ownerMint(uint256)",
      "arguments": [
        "10"
      ],
      "transaction": {
        "type": "0x02",
        "from": "0xe540a4e03adefb734ece9d67e1a86199ee907caa",
        "to": "0xc3a43060ca8633c3d9f0ba5eb0efc935a57a582e",
        "gas": "0x21133e",
        "value": "0x0",
        "data": "0xf19e75d4000000000000000000000000000000000000000000000000000000000000000a",
        "nonce": "0x42",
        "accessList": []
      },
      "additionalContracts": [],
      "isFixedGasLimit": false
    }
  ],
  "receipts": [],
  "libraries": [],
  "pending": [
    "0x30408a907d92a140e9e54dd7b70d5a605bb87c2d61e5587b6e28905fad6275d6",
    "0x434650f9d04f6a0e11ed17928fc3a2ab60e8c2c2e6081b027363a379f12fedba",
    "0x16dfec4bbce297e62f3a908e47f60396aff5c4d7d074df19bd27a958c407871d",
    "0x814b99cec264116b39cbcbb9bc2716de43e746b248ef42f896d127e458fef2f5",
    "0xa05c397be4b1004b8fdf5125942e6e2c0115a3aff7d8e71968af8bb185d8ea70",
    "0x0a9bd5af6244d25611d6023fe6a4e1c1ccf321dd8e2f65c6298cb6ed93f0710d",
    "0x23669d8e3674c43f501bb57b6977c4685e4984a9083e594afb7acf578af8d448",
    "0xf505d3d2c928ddb9d91f9dd22084dd823181c00025ca4a9b59b66daea15373b4",
    "0xff3d8e175908c27c33a0878ec961dff1da36bd4ac7434b06d3aaa4aab2460a01",
    "0x3206ec510b95d70f161a1923f76c499e02bd36d6c8c959a745a064d1e1799f28",
    "0x3c8df5efb3fcd1a8fae768216c0ed80009e7d2e8751e6df7ef654c7bccc41481",
    "0xed1301aae6737ad20154ec60646623255475e5519ca560c97ba4dd3d4a1ea159",
    "0xe49fca2783539389388a624b5f2b0a69591b6fbd338cdd22bab9e8f35000c605",
    "0x8938d3c33c364c21c3b2506b137ab708aa40456199931f87fdffc4cf334eaf70",
    "0xe3ef9f70dda450a731ac01e575a36171c92e9cd7902b3545669b53925c6b1ff9",
    "0x3cad26921b318d8c4e07cb9af0635dc7ffa1c228573f42c86369e62f16cb653c",
    "0x6851e8a29f010deb5a4b5012c3001b998f1c9aa50f08633342662994320ac1b8",
    "0xd48ce7eb96c43f2630ab12b06ec2046e96b0009243fe39f4931ff3a45fd7eb6f",
    "0x6d46b4efd0947f3f4e72321648a257ab273f39635aadb5d053e2b6558c323859",
    "0x4bc4f61335096d1072334ca7340fbb95e00cfc04e1ea8e5789d5295531115209",
    "0xa326e1fef5861938b7607bdc71eec3df7082453e769f532af22dc49252992d07",
    "0xd0ec96a136a058c645932bf800157fd00c418c9533b17b25b812e15bb2bfb337",
    "0xd55eb4c4d4c150b4768b65c29b148c653e5305fe166db75959fade9c9e500b01",
    "0xe43aeefb8d92dcde669331713e25554b8de12cc2179707df774fafe8965a6f1a",
    "0x03052f435f05b33f764a6a7a930d876445db80fccf7b558240646bdafdfcae5e",
    "0x15d753ebde0e3f1a9551d8cec9ce7fcfaec6ac978a94d69c9548130620ae9c78",
    "0xf28a80c4a29e4a1cdba8dba26335345b6de26cf9fc7e7b2505b79c58ed1d1cc2",
    "0xa56505abd535d6d35249d73562238a89894db7a413f6761cc708b96b402852c1",
    "0x7121c89621eddb6fa0acaac157628bfba06cec8b117b6cac2d016290737bff09",
    "0x3b2362bafcd54a53d32c0fb2bb317b3b3bcd574583954d43a595b3cf0f78c954",
    "0x22bac2a463e38d5eda93e2aaeaf1cb0e9ecffee3cc44b6792991cb731c30e673",
    "0x6fb3a458792279acdb0d7321ad85d98f9fa3b3999335702b26a43e168befbcd2",
    "0x5de852345bf6ed4b4b2f8fa7b4c56933d2a767646ba3e5e0d7fad22f400f434d",
    "0xbc22e0c362fcbb5fd9b7ccf390e65bd7f25daab3c927b01ae2e2abdc4c95b630",
    "0x8f0d432221af819bfb34b67434b46ba74718dec4c563f4ffae961270906df8df",
    "0x3568d66294bfe1171dfd82fdca1132fd87088bf02d91f2e72cc826e8dc9c1411",
    "0x348aad0bc95f0cc878c5dc0bb2134e64ad26d77926a854a07b5a47368497ef98",
    "0xd4fce50d13f9785418f2bed475aa3edec929df9b15c5200d182e797e763bb39d",
    "0x847e46a25498cbe328bba9ea4e108bf1f81190748cd16be3fd957746eae97484",
    "0xd7c9d9d9aa2e5d492311a2c415dc1a2b1e1c77d3922c1ac6285b9034e39b787a",
    "0x97fba036e7e1746bd79b3ca3209862f312cbd48d29428b144b50bd5f1f46308f",
    "0x263eb5f0117d02443526b1189f930ffeda4880ecd7ecb99d18978c8edd4f7bc1",
    "0x3a4589136aadf825760cff4c981fc01945cf457f8d70dca67a383bea8b98411e",
    "0x2e92c908a6edebf7b8a6f2fdc896047756395af8acdb92d076b8100b44f8627c",
    "0x5f3babea8642c1750314fe5ad16d83f106ced5c06b472357234ec7564395d1fd",
    "0xbf6f642c2c5f910e2a01b91f365b404f353137fa0061ef29f7bf8166f77340ef",
    "0x9efde5b7f91cb51f0183124b89b07204be18b42ccd3c34789464b3fb3666b6cc",
    "0x6243b51a3b88106f41ed4e5b8070120dd6a7c991f1857ff53b177fb869c2acb5",
    "0xc1fbfcf512c33933373e2732c3d562556d45c7bd8bbba0d21682f5a4b10b09e4"
  ],
  "returns": {},
  "timestamp": 1704836787,
  "chain": 80001,
  "multi": false,
  "commit": "368bc48"
}