{
  "transactions": [
    {
      "hash": "0x0694cf80b126d1210ef4d430f99aad2bf8c90a22fdf836fb998c22cd1f297931",
      "transactionType": "CALL",
      "contractName": null,
      "contractAddress": "0x8263007844439F1A1423AE633994B6245e4508Bc",
      "function": "ownerMint(uint256)",
      "arguments": [
        "10"
      ],
      "transaction": {
        "type": "0x02",
        "from": "0xe540a4e03adefb734ece9d67e1a86199ee907caa",
        "to": "0x8263007844439f1a1423ae633994b6245e4508bc",
        "gas": "0x1f5a56",
        "value": "0x0",
        "data": "0xf19e75d4000000000000000000000000000000000000000000000000000000000000000a",
        "nonce": "0x4d",
        "accessList": []
      },
      "additionalContracts": [],
      "isFixedGasLimit": false
    },
    {
      "hash": "0x255c3ffa3f8c50ed61f3bbdf20f9e6ffdc3498ad5de19082f0dcbe0dfc681ccf",
      "transactionType": "CALL",
      "contractName": null,
      "contractAddress": "0x8263007844439F1A1423AE633994B6245e4508Bc",
      "function": "ownerMint(uint256)",
      "arguments": [
        "10"
      ],
      "transaction": {
        "type": "0x02",
        "from": "0xe540a4e03adefb734ece9d67e1a86199ee907caa",
        "to": "0x8263007844439f1a1423ae633994b6245e4508bc",
        "gas": "0x1f5a56",
        "value": "0x0",
        "data": "0xf19e75d4000000000000000000000000000000000000000000000000000000000000000a",
        "nonce": "0x4e",
        "accessList": []
      },
      "additionalContracts": [],
      "isFixedGasLimit": false
    },
    {
      "hash": "0xe3e531f0292b1a2bdea221a997f7c91a9daa95f3b365502b309587269a5ca90d",
      "transactionType": "CALL",
      "contractName": null,
      "contractAddress": "0x8263007844439F1A1423AE633994B6245e4508Bc",
      "function": "ownerMint(uint256)",
      "arguments": [
        "10"
      ],
      "transaction": {
        "type": "0x02",
        "from": "0xe540a4e03adefb734ece9d67e1a86199ee907caa",
        "to": "0x8263007844439f1a1423ae633994b6245e4508bc",
        "gas": "0x1f5a56",
        "value": "0x0",
        "data": "0xf19e75d4000000000000000000000000000000000000000000000000000000000000000a",
        "nonce": "0x4f",
        "accessList": []
      },
      "additionalContracts": [],
      "isFixedGasLimit": false
    },
    {
      "hash": "0xa9ed56d21e37e5e1411707d485f3c795342c0f0c844e04592f3c3417a42f3b50",
      "transactionType": "CALL",
      "contractName": null,
      "contractAddress": "0x8263007844439F1A1423AE633994B6245e4508Bc",
      "function": "ownerMint(uint256)",
      "arguments": [
        "10"
      ],
      "transaction": {
        "type": "0x02",
        "from": "0xe540a4e03adefb734ece9d67e1a86199ee907caa",
        "to": "0x8263007844439f1a1423ae633994b6245e4508bc",
        "gas": "0x1f5a56",
        "value": "0x0",
        "data": "0xf19e75d4000000000000000000000000000000000000000000000000000000000000000a",
        "nonce": "0x50",
        "accessList": []
      },
      "additionalContracts": [],
      "isFixedGasLimit": false
    },
    {
      "hash": "0x9b3ab069964ef82f3757fbbbf010ed89821bf595412b2cd3c0fcfc01a47120d4",
      "transactionType": "CALL",
      "contractName": null,
      "contractAddress": "0x8263007844439F1A1423AE633994B6245e4508Bc",
      "function": "ownerMint(uint256)",
      "arguments": [
        "10"
      ],
      "transaction": {
        "type": "0x02",
        "from": "0xe540a4e03adefb734ece9d67e1a86199ee907caa",
        "to": "0x8263007844439f1a1423ae633994b6245e4508bc",
        "gas": "0x1f5a56",
        "value": "0x0",
        "data": "0xf19e75d4000000000000000000000000000000000000000000000000000000000000000a",
        "nonce": "0x51",
        "accessList": []
      },
      "additionalContracts": [],
      "isFixedGasLimit": false
    }
  ],
  "receipts": [],
  "libraries": [],
  "pending": [
    "0x0694cf80b126d1210ef4d430f99aad2bf8c90a22fdf836fb998c22cd1f297931",
    "0x255c3ffa3f8c50ed61f3bbdf20f9e6ffdc3498ad5de19082f0dcbe0dfc681ccf",
    "0xe3e531f0292b1a2bdea221a997f7c91a9daa95f3b365502b309587269a5ca90d",
    "0xa9ed56d21e37e5e1411707d485f3c795342c0f0c844e04592f3c3417a42f3b50",
    "0x9b3ab069964ef82f3757fbbbf010ed89821bf595412b2cd3c0fcfc01a47120d4"
  ],
  "returns": {},
  "timestamp": 1704853784,
  "chain": 80001,
  "multi": false,
  "commit": "8bdd4f4"
}