{
  "transactions": [
    {
      "hash": "0xcc249f07eb71683a539930456140aceb552b0e22045ba2adb154b7c488cfcdfd",
      "transactionType": "CALL",
      "contractName": null,
      "contractAddress": "0x8263007844439F1A1423AE633994B6245e4508Bc",
      "function": "ownerMint(uint256)",
      "arguments": [
        "10"
      ],
      "transaction": {
        "type": "0x02",
        "from": "0xe540a4e03adefb734ece9d67e1a86199ee907caa",
        "to": "0x8263007844439f1a1423ae633994b6245e4508bc",
        "gas": "0x1f5a56",
        "value": "0x0",
        "data": "0xf19e75d4000000000000000000000000000000000000000000000000000000000000000a",
        "nonce": "0x61",
        "accessList": []
      },
      "additionalContracts": [],
      "isFixedGasLimit": false
    },
    {
      "hash": "0x20e7ed1cc9d2e207042dcaed08ed5cc9d66abe4b70757c62099fc5f6ec70535b",
      "transactionType": "CALL",
      "contractName": null,
      "contractAddress": "0x8263007844439F1A1423AE633994B6245e4508Bc",
      "function": "ownerMint(uint256)",
      "arguments": [
        "10"
      ],
      "transaction": {
        "type": "0x02",
        "from": "0xe540a4e03adefb734ece9d67e1a86199ee907caa",
        "to": "0x8263007844439f1a1423ae633994b6245e4508bc",
        "gas": "0x1f5a56",
        "value": "0x0",
        "data": "0xf19e75d4000000000000000000000000000000000000000000000000000000000000000a",
        "nonce": "0x62",
        "accessList": []
      },
      "additionalContracts": [],
      "isFixedGasLimit": false
    },
    {
      "hash": "0x886e85630e6837401375015bd40609ef69e3d95e0d3af928ce6568808e787483",
      "transactionType": "CALL",
      "contractName": null,
      "contractAddress": "0x8263007844439F1A1423AE633994B6245e4508Bc",
      "function": "ownerMint(uint256)",
      "arguments": [
        "10"
      ],
      "transaction": {
        "type": "0x02",
        "from": "0xe540a4e03adefb734ece9d67e1a86199ee907caa",
        "to": "0x8263007844439f1a1423ae633994b6245e4508bc",
        "gas": "0x1f5a56",
        "value": "0x0",
        "data": "0xf19e75d4000000000000000000000000000000000000000000000000000000000000000a",
        "nonce": "0x63",
        "accessList": []
      },
      "additionalContracts": [],
      "isFixedGasLimit": false
    },
    {
      "hash": "0x95c998d1d3e619a2a4002dad02981fe4671cb5860e8ee139625e639c4eec1845",
      "transactionType": "CALL",
      "contractName": null,
      "contractAddress": "0x8263007844439F1A1423AE633994B6245e4508Bc",
      "function": "ownerMint(uint256)",
      "arguments": [
        "10"
      ],
      "transaction": {
        "type": "0x02",
        "from": "0xe540a4e03adefb734ece9d67e1a86199ee907caa",
        "to": "0x8263007844439f1a1423ae633994b6245e4508bc",
        "gas": "0x1f5a56",
        "value": "0x0",
        "data": "0xf19e75d4000000000000000000000000000000000000000000000000000000000000000a",
        "nonce": "0x64",
        "accessList": []
      },
      "additionalContracts": [],
      "isFixedGasLimit": false
    },
    {
      "hash": "0x6de564a6e4d5d5216f59d0a34be82ae68f863c7eebfb47d357225fdddf435e02",
      "transactionType": "CALL",
      "contractName": null,
      "contractAddress": "0x8263007844439F1A1423AE633994B6245e4508Bc",
      "function": "ownerMint(uint256)",
      "arguments": [
        "10"
      ],
      "transaction": {
        "type": "0x02",
        "from": "0xe540a4e03adefb734ece9d67e1a86199ee907caa",
        "to": "0x8263007844439f1a1423ae633994b6245e4508bc",
        "gas": "0x1f5a56",
        "value": "0x0",
        "data": "0xf19e75d4000000000000000000000000000000000000000000000000000000000000000a",
        "nonce": "0x65",
        "accessList": []
      },
      "additionalContracts": [],
      "isFixedGasLimit": false
    }
  ],
  "receipts": [],
  "libraries": [],
  "pending": [
    "0xcc249f07eb71683a539930456140aceb552b0e22045ba2adb154b7c488cfcdfd",
    "0x20e7ed1cc9d2e207042dcaed08ed5cc9d66abe4b70757c62099fc5f6ec70535b",
    "0x886e85630e6837401375015bd40609ef69e3d95e0d3af928ce6568808e787483",
    "0x95c998d1d3e619a2a4002dad02981fe4671cb5860e8ee139625e639c4eec1845",
    "0x6de564a6e4d5d5216f59d0a34be82ae68f863c7eebfb47d357225fdddf435e02"
  ],
  "returns": {},
  "timestamp": 1704854178,
  "chain": 80001,
  "multi": false,
  "commit": "8bdd4f4"
}