{
  "transactions": [
    {
      "hash": "0xb39a6186c2911b18c8cf62bd6f529f516ade07f1d2fbf0132a6720e15498a8be",
      "transactionType": "CALL",
      "contractName": null,
      "contractAddress": "0x8263007844439F1A1423AE633994B6245e4508Bc",
      "function": "ownerMint(uint256)",
      "arguments": [
        "10"
      ],
      "transaction": {
        "type": "0x02",
        "from": "0xe540a4e03adefb734ece9d67e1a86199ee907caa",
        "to": "0x8263007844439f1a1423ae633994b6245e4508bc",
        "gas": "0x1f5a56",
        "value": "0x0",
        "data": "0xf19e75d4000000000000000000000000000000000000000000000000000000000000000a",
        "nonce": "0x6b",
        "accessList": []
      },
      "additionalContracts": [],
      "isFixedGasLimit": false
    },
    {
      "hash": "0x7c383f6553a48c9fcf3716cfd669a0a6cfb23dc1503f6d1a29695ae544dde01d",
      "transactionType": "CALL",
      "contractName": null,
      "contractAddress": "0x8263007844439F1A1423AE633994B6245e4508Bc",
      "function": "ownerMint(uint256)",
      "arguments": [
        "10"
      ],
      "transaction": {
        "type": "0x02",
        "from": "0xe540a4e03adefb734ece9d67e1a86199ee907caa",
        "to": "0x8263007844439f1a1423ae633994b6245e4508bc",
        "gas": "0x1f5a56",
        "value": "0x0",
        "data": "0xf19e75d4000000000000000000000000000000000000000000000000000000000000000a",
        "nonce": "0x6c",
        "accessList": []
      },
      "additionalContracts": [],
      "isFixedGasLimit": false
    },
    {
      "hash": "0xe34282f6fc97cb08794b0b4b767abca6ab0cc7ecc32e829924f58f9a4bfb7a24",
      "transactionType": "CALL",
      "contractName": null,
      "contractAddress": "0x8263007844439F1A1423AE633994B6245e4508Bc",
      "function": "ownerMint(uint256)",
      "arguments": [
        "10"
      ],
      "transaction": {
        "type": "0x02",
        "from": "0xe540a4e03adefb734ece9d67e1a86199ee907caa",
        "to": "0x8263007844439f1a1423ae633994b6245e4508bc",
        "gas": "0x1f5a56",
        "value": "0x0",
        "data": "0xf19e75d4000000000000000000000000000000000000000000000000000000000000000a",
        "nonce": "0x6d",
        "accessList": []
      },
      "additionalContracts": [],
      "isFixedGasLimit": false
    },
    {
      "hash": "0xaba90cb91f803a0cb45612f486db29d852af45884f268f40fd26ae7622d24baa",
      "transactionType": "CALL",
      "contractName": null,
      "contractAddress": "0x8263007844439F1A1423AE633994B6245e4508Bc",
      "function": "ownerMint(uint256)",
      "arguments": [
        "10"
      ],
      "transaction": {
        "type": "0x02",
        "from": "0xe540a4e03adefb734ece9d67e1a86199ee907caa",
        "to": "0x8263007844439f1a1423ae633994b6245e4508bc",
        "gas": "0x1f5a56",
        "value": "0x0",
        "data": "0xf19e75d4000000000000000000000000000000000000000000000000000000000000000a",
        "nonce": "0x6e",
        "accessList": []
      },
      "additionalContracts": [],
      "isFixedGasLimit": false
    },
    {
      "hash": "0x0c9e8acd83ab7d057b75110627d4d91e232d5ef30e26c159aad53b50316d21dc",
      "transactionType": "CALL",
      "contractName": null,
      "contractAddress": "0x8263007844439F1A1423AE633994B6245e4508Bc",
      "function": "ownerMint(uint256)",
      "arguments": [
        "10"
      ],
      "transaction": {
        "type": "0x02",
        "from": "0xe540a4e03adefb734ece9d67e1a86199ee907caa",
        "to": "0x8263007844439f1a1423ae633994b6245e4508bc",
        "gas": "0x1f5a56",
        "value": "0x0",
        "data": "0xf19e75d4000000000000000000000000000000000000000000000000000000000000000a",
        "nonce": "0x6f",
        "accessList": []
      },
      "additionalContracts": [],
      "isFixedGasLimit": false
    }
  ],
  "receipts": [],
  "libraries": [],
  "pending": [
    "0xb39a6186c2911b18c8cf62bd6f529f516ade07f1d2fbf0132a6720e15498a8be",
    "0x7c383f6553a48c9fcf3716cfd669a0a6cfb23dc1503f6d1a29695ae544dde01d",
    "0xe34282f6fc97cb08794b0b4b767abca6ab0cc7ecc32e829924f58f9a4bfb7a24",
    "0xaba90cb91f803a0cb45612f486db29d852af45884f268f40fd26ae7622d24baa",
    "0x0c9e8acd83ab7d057b75110627d4d91e232d5ef30e26c159aad53b50316d21dc"
  ],
  "returns": {},
  "timestamp": 1704854289,
  "chain": 80001,
  "multi": false,
  "commit": "8bdd4f4"
}