{
  "transactions": [
    {
      "hash": "0x06f5342248eeff0156cb3cc2f6d0b05fe2edf49c10a6db49778030458e67713a",
      "transactionType": "CALL",
      "contractName": null,
      "contractAddress": "0x8263007844439F1A1423AE633994B6245e4508Bc",
      "function": "mint(address,uint256)",
      "arguments": [
        "0x298334B4895392b0BA15261194cF1642A4adf9Fc",
        "10"
      ],
      "transaction": {
        "type": "0x02",
        "from": "0x298334b4895392b0ba15261194cf1642a4adf9fc",
        "to": "0x8263007844439f1a1423ae633994b6245e4508bc",
        "gas": "0x20069e",
        "value": "0x1d3857f75df850",
        "data": "0x40c10f19000000000000000000000000298334b4895392b0ba15261194cf1642a4adf9fc000000000000000000000000000000000000000000000000000000000000000a",
        "nonce": "0x60",
        "accessList": []
      },
      "additionalContracts": [],
      "isFixedGasLimit": false
    },
    {
      "hash": "0xc1a4c992c94961c34beb173594f353248b286d081d51e887b6de6261df8914e3",
      "transactionType": "CALL",
      "contractName": null,
      "contractAddress": "0x8263007844439F1A1423AE633994B6245e4508Bc",
      "function": "mint(address,uint256)",
      "arguments": [
        "0xF92D18CdFa0EE4C76701d54dEd6fB20ca635F1A2",
        "10"
      ],
      "transaction": {
        "type": "0x02",
        "from": "0xf92d18cdfa0ee4c76701d54ded6fb20ca635f1a2",
        "to": "0x8263007844439f1a1423ae633994b6245e4508bc",
        "gas": "0x20069e",
        "value": "0x1d3857f75df850",
        "data": "0x40c10f19000000000000000000000000f92d18cdfa0ee4c76701d54ded6fb20ca635f1a2000000000000000000000000000000000000000000000000000000000000000a",
        "nonce": "0x59",
        "accessList": []
      },
      "additionalContracts": [],
      "isFixedGasLimit": false
    },
    {
      "hash": null,
      "transactionType": "CALL",
      "contractName": null,
      "contractAddress": "0x8263007844439F1A1423AE633994B6245e4508Bc",
      "function": "mint(address,uint256)",
      "arguments": [
        "0xD4C7E8652c97127EE260057e2dC245D42F21DDA7",
        "10"
      ],
      "transaction": {
        "type": "0x02",
        "from": "0xd4c7e8652c97127ee260057e2dc245d42f21dda7",
        "to": "0x8263007844439f1a1423ae633994b6245e4508bc",
        "gas": "0x20069e",
        "value": "0x1d3857f75df850",
        "data": "0x40c10f19000000000000000000000000d4c7e8652c97127ee260057e2dc245d42f21dda7000000000000000000000000000000000000000000000000000000000000000a",
        "nonce": "0x66",
        "accessList": []
      },
      "additionalContracts": [],
      "isFixedGasLimit": false
    },
    {
      "hash": null,
      "transactionType": "CALL",
      "contractName": null,
      "contractAddress": "0x8263007844439F1A1423AE633994B6245e4508Bc",
      "function": "mint(address,uint256)",
      "arguments": [
        "0x298334B4895392b0BA15261194cF1642A4adf9Fc",
        "10"
      ],
      "transaction": {
        "type": "0x02",
        "from": "0x298334b4895392b0ba15261194cf1642a4adf9fc",
        "to": "0x8263007844439f1a1423ae633994b6245e4508bc",
        "gas": "0x20069e",
        "value": "0x1d3857f75df850",
        "data": "0x40c10f19000000000000000000000000298334b4895392b0ba15261194cf1642a4adf9fc000000000000000000000000000000000000000000000000000000000000000a",
        "nonce": "0x61",
        "accessList": []
      },
      "additionalContracts": [],
      "isFixedGasLimit": false
    },
    {
      "hash": null,
      "transactionType": "CALL",
      "contractName": null,
      "contractAddress": "0x8263007844439F1A1423AE633994B6245e4508Bc",
      "function": "mint(address,uint256)",
      "arguments": [
        "0xF92D18CdFa0EE4C76701d54dEd6fB20ca635F1A2",
        "10"
      ],
      "transaction": {
        "type": "0x02",
        "from": "0xf92d18cdfa0ee4c76701d54ded6fb20ca635f1a2",
        "to": "0x8263007844439f1a1423ae633994b6245e4508bc",
        "gas": "0x20069e",
        "value": "0x1d3857f75df850",
        "data": "0x40c10f19000000000000000000000000f92d18cdfa0ee4c76701d54ded6fb20ca635f1a2000000000000000000000000000000000000000000000000000000000000000a",
        "nonce": "0x5a",
        "accessList": []
      },
      "additionalContracts": [],
      "isFixedGasLimit": false
    },
    {
      "hash": null,
      "transactionType": "CALL",
      "contractName": null,
      "contractAddress": "0x8263007844439F1A1423AE633994B6245e4508Bc",
      "function": "mint(address,uint256)",
      "arguments": [
        "0xD4C7E8652c97127EE260057e2dC245D42F21DDA7",
        "10"
      ],
      "transaction": {
        "type": "0x02",
        "from": "0xd4c7e8652c97127ee260057e2dc245d42f21dda7",
        "to": "0x8263007844439f1a1423ae633994b6245e4508bc",
        "gas": "0x20069e",
        "value": "0x1d3857f75df850",
        "data": "0x40c10f19000000000000000000000000d4c7e8652c97127ee260057e2dc245d42f21dda7000000000000000000000000000000000000000000000000000000000000000a",
        "nonce": "0x67",
        "accessList": []
      },
      "additionalContracts": [],
      "isFixedGasLimit": false
    },
    {
      "hash": null,
      "transactionType": "CALL",
      "contractName": null,
      "contractAddress": "0x8263007844439F1A1423AE633994B6245e4508Bc",
      "function": "mint(address,uint256)",
      "arguments": [
        "0x298334B4895392b0BA15261194cF1642A4adf9Fc",
        "10"
      ],
      "transaction": {
        "type": "0x02",
        "from": "0x298334b4895392b0ba15261194cf1642a4adf9fc",
        "to": "0x8263007844439f1a1423ae633994b6245e4508bc",
        "gas": "0x20069e",
        "value": "0x1d3857f75df850",
        "data": "0x40c10f19000000000000000000000000298334b4895392b0ba15261194cf1642a4adf9fc000000000000000000000000000000000000000000000000000000000000000a",
        "nonce": "0x62",
        "accessList": []
      },
      "additionalContracts": [],
      "isFixedGasLimit": false
    },
    {
      "hash": null,
      "transactionType": "CALL",
      "contractName": null,
      "contractAddress": "0x8263007844439F1A1423AE633994B6245e4508Bc",
      "function": "mint(address,uint256)",
      "arguments": [
        "0xF92D18CdFa0EE4C76701d54dEd6fB20ca635F1A2",
        "10"
      ],
      "transaction": {
        "type": "0x02",
        "from": "0xf92d18cdfa0ee4c76701d54ded6fb20ca635f1a2",
        "to": "0x8263007844439f1a1423ae633994b6245e4508bc",
        "gas": "0x20069e",
        "value": "0x1d3857f75df850",
        "data": "0x40c10f19000000000000000000000000f92d18cdfa0ee4c76701d54ded6fb20ca635f1a2000000000000000000000000000000000000000000000000000000000000000a",
        "nonce": "0x5b",
        "accessList": []
      },
      "additionalContracts": [],
      "isFixedGasLimit": false
    },
    {
      "hash": null,
      "transactionType": "CALL",
      "contractName": null,
      "contractAddress": "0x8263007844439F1A1423AE633994B6245e4508Bc",
      "function": "mint(address,uint256)",
      "arguments": [
        "0xD4C7E8652c97127EE260057e2dC245D42F21DDA7",
        "10"
      ],
      "transaction": {
        "type": "0x02",
        "from": "0xd4c7e8652c97127ee260057e2dc245d42f21dda7",
        "to": "0x8263007844439f1a1423ae633994b6245e4508bc",
        "gas": "0x20069e",
        "value": "0x1d3857f75df850",
        "data": "0x40c10f19000000000000000000000000d4c7e8652c97127ee260057e2dc245d42f21dda7000000000000000000000000000000000000000000000000000000000000000a",
        "nonce": "0x68",
        "accessList": []
      },
      "additionalContracts": [],
      "isFixedGasLimit": false
    }
  ],
  "receipts": [
    {
      "transactionHash": "0x06f5342248eeff0156cb3cc2f6d0b05fe2edf49c10a6db49778030458e67713a",
      "transactionIndex": "0x5",
      "blockHash": "0x0c77332e323d980c81f7402b9245e60db8b438aacd2be64e0fe8db8418265a5b",
      "blockNumber": "0x2ae8a20",
      "from": "0x298334B4895392b0BA15261194cF1642A4adf9Fc",
      "to": "0x8263007844439F1A1423AE633994B6245e4508Bc",
      "cumulativeGasUsed": "0x23f6e2",
      "gasUsed": "0x172fa7",
      "contractAddress": null,
      "logs": [
        {
          "address": "0x0000000000000000000000000000000000001010",
          "topics": [
            "0xe6497e3ee548a3372136af2fcb0696db31fc6cf20260707645068bd3fe97f3c4",
            "0x0000000000000000000000000000000000000000000000000000000000001010",
            "0x000000000000000000000000298334b4895392b0ba15261194cf1642a4adf9fc",
            "0x0000000000000000000000008263007844439f1a1423ae633994b6245e4508bc"
          ],
          "data": "0x000000000000000000000000000000000000000000000000001d3857f75df85000000000000000000000000000000000000000000000000020385104b13345da0000000000000000000000000000000000000000000000000000000000000000000000000000000000000000000000000000000000000000201b18acb9d54d8a000000000000000000000000000000000000000000000000001d3857f75df850",
          "blockHash": "0x0c77332e323d980c81f7402b9245e60db8b438aacd2be64e0fe8db8418265a5b",
          "blockNumber": "0x2ae8a20",
          "transactionHash": "0x06f5342248eeff0156cb3cc2f6d0b05fe2edf49c10a6db49778030458e67713a",
          "transactionIndex": "0x5",
          "logIndex": "0x12",
          "removed": false
        },
        {
          "address": "0x0000000000000000000000000000000000001010",
          "topics": [
            "0xe6497e3ee548a3372136af2fcb0696db31fc6cf20260707645068bd3fe97f3c4",
            "0x0000000000000000000000000000000000000000000000000000000000001010",
            "0x0000000000000000000000008263007844439f1a1423ae633994b6245e4508bc",
            "0x0000000000000000000000003f512308d9312d184e8e2a13e47c99d1c9a6956a"
          ],
          "data": "0x000000000000000000000000000000000000000000000000001d3857f75df850000000000000000000000000000000000000000000000000001d3857f75df850000000000000000000000000000000000000000000000000213c26e7fec34cc6000000000000000000000000000000000000000000000000000000000000000000000000000000000000000000000000000000000000000021595f3ff6214516",
          "blockHash": "0x0c77332e323d980c81f7402b9245e60db8b438aacd2be64e0fe8db8418265a5b",
          "blockNumber": "0x2ae8a20",
          "transactionHash": "0x06f5342248eeff0156cb3cc2f6d0b05fe2edf49c10a6db49778030458e67713a",
          "transactionIndex": "0x5",
          "logIndex": "0x13",
          "removed": false
        },
        {
          "address": "0x3f512308d9312d184E8E2a13E47C99D1c9A6956A",
          "topics": [
            "0x8e47b87b0ef542cdfa1659c551d88bad38aa7f452d2bbb349ab7530dfec8be8f"
          ],
          "data": "0x0000000000000000000000008263007844439f1a1423ae633994b6245e4508bc000000000000000000000000000000000000000000000000001d3857f75df850",
          "blockHash": "0x0c77332e323d980c81f7402b9245e60db8b438aacd2be64e0fe8db8418265a5b",
          "blockNumber": "0x2ae8a20",
          "transactionHash": "0x06f5342248eeff0156cb3cc2f6d0b05fe2edf49c10a6db49778030458e67713a",
          "transactionIndex": "0x5",
          "logIndex": "0x14",
          "removed": false
        },
        {
          "address": "0x7a1BaC17Ccc5b313516C5E16fb24f7659aA5ebed",
          "topics": [
            "0x63373d1c4696214b898952999c9aaec57dac1ee2723cec59bea6888f489a9772",
            "0x4b09e658ed251bcafeebbc69400383d49f344ace09b9576fe248bb02c003fe9f",
            "0x0000000000000000000000000000000000000000000000000000000000000b33",
            "0x0000000000000000000000008263007844439f1a1423ae633994b6245e4508bc"
          ],
          "data": "0x0ab36ff3680ca8974a50d42445c9da7b05d7632064fb62c51c427ced70877a01c60de1d66caf0b90181ee1b7c187ae233050e74f0051b228df759c534efd9ff2000000000000000000000000000000000000000000000000000000000000000300000000000000000000000000000000000000000000000000000000000f42400000000000000000000000000000000000000000000000000000000000000001",
          "blockHash": "0x0c77332e323d980c81f7402b9245e60db8b438aacd2be64e0fe8db8418265a5b",
          "blockNumber": "0x2ae8a20",
          "transactionHash": "0x06f5342248eeff0156cb3cc2f6d0b05fe2edf49c10a6db49778030458e67713a",
          "transactionIndex": "0x5",
          "logIndex": "0x15",
          "removed": false
        },
        {
          "address": "0x8263007844439F1A1423AE633994B6245e4508Bc",
          "topics": [
            "0xf2dc9a29f1b257c57ef50cb6c0230cacc6af60a01e5e51bde6ee1657f214a347"
          ],
          "data": "0x0ab36ff3680ca8974a50d42445c9da7b05d7632064fb62c51c427ced70877a01",
          "blockHash": "0x0c77332e323d980c81f7402b9245e60db8b438aacd2be64e0fe8db8418265a5b",
          "blockNumber": "0x2ae8a20",
          "transactionHash": "0x06f5342248eeff0156cb3cc2f6d0b05fe2edf49c10a6db49778030458e67713a",
          "transactionIndex": "0x5",
          "logIndex": "0x16",
          "removed": false
        },
        {
          "address": "0x8263007844439F1A1423AE633994B6245e4508Bc",
          "topics": [
            "0xddf252ad1be2c89b69c2b068fc378daa952ba7f163c4a11628f55a4df523b3ef",
            "0x0000000000000000000000000000000000000000000000000000000000000000",
            "0x000000000000000000000000298334b4895392b0ba15261194cf1642a4adf9fc",
            "0x0000000000000000000000000000000000000000000000000000000000000dfc"
          ],
          "data": "0x",
          "blockHash": "0x0c77332e323d980c81f7402b9245e60db8b438aacd2be64e0fe8db8418265a5b",
          "blockNumber": "0x2ae8a20",
          "transactionHash": "0x06f5342248eeff0156cb3cc2f6d0b05fe2edf49c10a6db49778030458e67713a",
          "transactionIndex": "0x5",
          "logIndex": "0x17",
          "removed": false
        },
        {
          "address": "0x8263007844439F1A1423AE633994B6245e4508Bc",
          "topics": [
            "0xddf252ad1be2c89b69c2b068fc378daa952ba7f163c4a11628f55a4df523b3ef",
            "0x0000000000000000000000000000000000000000000000000000000000000000",
            "0x000000000000000000000000298334b4895392b0ba15261194cf1642a4adf9fc",
            "0x0000000000000000000000000000000000000000000000000000000000000dfd"
          ],
          "data": "0x",
          "blockHash": "0x0c77332e323d980c81f7402b9245e60db8b438aacd2be64e0fe8db8418265a5b",
          "blockNumber": "0x2ae8a20",
          "transactionHash": "0x06f5342248eeff0156cb3cc2f6d0b05fe2edf49c10a6db49778030458e67713a",
          "transactionIndex": "0x5",
          "logIndex": "0x18",
          "removed": false
        },
        {
          "address": "0x8263007844439F1A1423AE633994B6245e4508Bc",
          "topics": [
            "0xddf252ad1be2c89b69c2b068fc378daa952ba7f163c4a11628f55a4df523b3ef",
            "0x0000000000000000000000000000000000000000000000000000000000000000",
            "0x000000000000000000000000298334b4895392b0ba15261194cf1642a4adf9fc",
            "0x0000000000000000000000000000000000000000000000000000000000000dfe"
          ],
          "data": "0x",
          "blockHash": "0x0c77332e323d980c81f7402b9245e60db8b438aacd2be64e0fe8db8418265a5b",
          "blockNumber": "0x2ae8a20",
          "transactionHash": "0x06f5342248eeff0156cb3cc2f6d0b05fe2edf49c10a6db49778030458e67713a",
          "transactionIndex": "0x5",
          "logIndex": "0x19",
          "removed": false
        },
        {
          "address": "0x8263007844439F1A1423AE633994B6245e4508Bc",
          "topics": [
            "0xddf252ad1be2c89b69c2b068fc378daa952ba7f163c4a11628f55a4df523b3ef",
            "0x0000000000000000000000000000000000000000000000000000000000000000",
            "0x000000000000000000000000298334b4895392b0ba15261194cf1642a4adf9fc",
            "0x0000000000000000000000000000000000000000000000000000000000000dff"
          ],
          "data": "0x",
          "blockHash": "0x0c77332e323d980c81f7402b9245e60db8b438aacd2be64e0fe8db8418265a5b",
          "blockNumber": "0x2ae8a20",
          "transactionHash": "0x06f5342248eeff0156cb3cc2f6d0b05fe2edf49c10a6db49778030458e67713a",
          "transactionIndex": "0x5",
          "logIndex": "0x1a",
          "removed": false
        },
        {
          "address": "0x8263007844439F1A1423AE633994B6245e4508Bc",
          "topics": [
            "0xddf252ad1be2c89b69c2b068fc378daa952ba7f163c4a11628f55a4df523b3ef",
            "0x0000000000000000000000000000000000000000000000000000000000000000",
            "0x000000000000000000000000298334b4895392b0ba15261194cf1642a4adf9fc",
            "0x0000000000000000000000000000000000000000000000000000000000000e00"
          ],
          "data": "0x",
          "blockHash": "0x0c77332e323d980c81f7402b9245e60db8b438aacd2be64e0fe8db8418265a5b",
          "blockNumber": "0x2ae8a20",
          "transactionHash": "0x06f5342248eeff0156cb3cc2f6d0b05fe2edf49c10a6db49778030458e67713a",
          "transactionIndex": "0x5",
          "logIndex": "0x1b",
          "removed": false
        },
        {
          "address": "0x8263007844439F1A1423AE633994B6245e4508Bc",
          "topics": [
            "0xddf252ad1be2c89b69c2b068fc378daa952ba7f163c4a11628f55a4df523b3ef",
            "0x0000000000000000000000000000000000000000000000000000000000000000",
            "0x000000000000000000000000298334b4895392b0ba15261194cf1642a4adf9fc",
            "0x0000000000000000000000000000000000000000000000000000000000000e01"
          ],
          "data": "0x",
          "blockHash": "0x0c77332e323d980c81f7402b9245e60db8b438aacd2be64e0fe8db8418265a5b",
          "blockNumber": "0x2ae8a20",
          "transactionHash": "0x06f5342248eeff0156cb3cc2f6d0b05fe2edf49c10a6db49778030458e67713a",
          "transactionIndex": "0x5",
          "logIndex": "0x1c",
          "removed": false
        },
        {
          "address": "0x8263007844439F1A1423AE633994B6245e4508Bc",
          "topics": [
            "0xddf252ad1be2c89b69c2b068fc378daa952ba7f163c4a11628f55a4df523b3ef",
            "0x0000000000000000000000000000000000000000000000000000000000000000",
            "0x000000000000000000000000298334b4895392b0ba15261194cf1642a4adf9fc",
            "0x0000000000000000000000000000000000000000000000000000000000000e02"
          ],
          "data": "0x",
          "blockHash": "0x0c77332e323d980c81f7402b9245e60db8b438aacd2be64e0fe8db8418265a5b",
          "blockNumber": "0x2ae8a20",
          "transactionHash": "0x06f5342248eeff0156cb3cc2f6d0b05fe2edf49c10a6db49778030458e67713a",
          "transactionIndex": "0x5",
          "logIndex": "0x1d",
          "removed": false
        },
        {
          "address": "0x8263007844439F1A1423AE633994B6245e4508Bc",
          "topics": [
            "0xddf252ad1be2c89b69c2b068fc378daa952ba7f163c4a11628f55a4df523b3ef",
            "0x0000000000000000000000000000000000000000000000000000000000000000",
            "0x000000000000000000000000298334b4895392b0ba15261194cf1642a4adf9fc",
            "0x0000000000000000000000000000000000000000000000000000000000000e03"
          ],
          "data": "0x",
          "blockHash": "0x0c77332e323d980c81f7402b9245e60db8b438aacd2be64e0fe8db8418265a5b",
          "blockNumber": "0x2ae8a20",
          "transactionHash": "0x06f5342248eeff0156cb3cc2f6d0b05fe2edf49c10a6db49778030458e67713a",
          "transactionIndex": "0x5",
          "logIndex": "0x1e",
          "removed": false
        },
        {
          "address": "0x8263007844439F1A1423AE633994B6245e4508Bc",
          "topics": [
            "0xddf252ad1be2c89b69c2b068fc378daa952ba7f163c4a11628f55a4df523b3ef",
            "0x0000000000000000000000000000000000000000000000000000000000000000",
            "0x000000000000000000000000298334b4895392b0ba15261194cf1642a4adf9fc",
            "0x0000000000000000000000000000000000000000000000000000000000000e04"
          ],
          "data": "0x",
          "blockHash": "0x0c77332e323d980c81f7402b9245e60db8b438aacd2be64e0fe8db8418265a5b",
          "blockNumber": "0x2ae8a20",
          "transactionHash": "0x06f5342248eeff0156cb3cc2f6d0b05fe2edf49c10a6db49778030458e67713a",
          "transactionIndex": "0x5",
          "logIndex": "0x1f",
          "removed": false
        },
        {
          "address": "0x8263007844439F1A1423AE633994B6245e4508Bc",
          "topics": [
            "0xddf252ad1be2c89b69c2b068fc378daa952ba7f163c4a11628f55a4df523b3ef",
            "0x0000000000000000000000000000000000000000000000000000000000000000",
            "0x000000000000000000000000298334b4895392b0ba15261194cf1642a4adf9fc",
            "0x0000000000000000000000000000000000000000000000000000000000000e05"
          ],
          "data": "0x",
          "blockHash": "0x0c77332e323d980c81f7402b9245e60db8b438aacd2be64e0fe8db8418265a5b",
          "blockNumber": "0x2ae8a20",
          "transactionHash": "0x06f5342248eeff0156cb3cc2f6d0b05fe2edf49c10a6db49778030458e67713a",
          "transactionIndex": "0x5",
          "logIndex": "0x20",
          "removed": false
        },
        {
          "address": "0x0000000000000000000000000000000000001010",
          "topics": [
            "0x4dfe1bbbcf077ddc3e01291eea2d5c70c2b422b415d95645b9adcfd678cb1d63",
            "0x0000000000000000000000000000000000000000000000000000000000001010",
            "0x000000000000000000000000298334b4895392b0ba15261194cf1642a4adf9fc",
            "0x000000000000000000000000244c9aa5d417e0dc869ee5ab9b7430402368e2b2"
          ],
          "data": "0x00000000000000000000000000000000000000000000000000a1f40d7bc20459000000000000000000000000000000000000000000000000211803b2a71fd11c000000000000000000000000000000000000000000000021f566f865e6d8760100000000000000000000000000000000000000000000000020760fa52b5dccc3000000000000000000000000000000000000000000000021f608ec73629a7a5a",
          "blockHash": "0x0c77332e323d980c81f7402b9245e60db8b438aacd2be64e0fe8db8418265a5b",
          "blockNumber": "0x2ae8a20",
          "transactionHash": "0x06f5342248eeff0156cb3cc2f6d0b05fe2edf49c10a6db49778030458e67713a",
          "transactionIndex": "0x5",
          "logIndex": "0x21",
          "removed": false
        }
      ],
      "status": "0x1",
      "logsBloom": "0x020001000000000004040020000001080404000001000000000010000000041400000000000001000000001000000010200080100000000002080000000000090000008010000008000000080000228000008020000010000001000000000000000000a0020008000000000100010800000004200000000080000410000000000000000008000000000000000000001000000000004000000000000000000000200000000000400002000000000000000010000000000000000000020000004000001002408050000001000100004000000000000020800000128000000120000008000000000100000120000200000000080000000000010000000000180000",
      "type": "0x2",
      "effectiveGasPrice": "0x6fc23ac0f"
    }
  ],
  "libraries": [],
  "pending": [],
  "returns": {},
  "timestamp": 1705808510,
  "chain": 80001,
  "multi": false,
  "commit": "9935aef"
}