{
  "transactions": [
    {
      "hash": "0x8370161f6130782bfbf74faaccb45465b39c876ef80070ade56e01168481f816",
      "transactionType": "CALL",
      "contractName": null,
      "contractAddress": "0x8263007844439F1A1423AE633994B6245e4508Bc",
      "function": "mint(address,uint256)",
      "arguments": [
        "0x298334B4895392b0BA15261194cF1642A4adf9Fc",
        "10"
      ],
      "transaction": {
        "type": "0x02",
        "from": "0x298334b4895392b0ba15261194cf1642a4adf9fc",
        "to": "0x8263007844439f1a1423ae633994b6245e4508bc",
        "gas": "0x20069e",
        "value": "0x1b26dee898c930",
        "data": "0x40c10f19000000000000000000000000298334b4895392b0ba15261194cf1642a4adf9fc000000000000000000000000000000000000000000000000000000000000000a",
        "nonce": "0x30",
        "accessList": []
      },
      "additionalContracts": [],
      "isFixedGasLimit": false
    },
    {
      "hash": "0xb237981ea4c839fe2dec13f02390c7a8e5da962f16436335c76511a4bf890a0e",
      "transactionType": "CALL",
      "contractName": null,
      "contractAddress": "0x8263007844439F1A1423AE633994B6245e4508Bc",
      "function": "mint(address,uint256)",
      "arguments": [
        "0xF92D18CdFa0EE4C76701d54dEd6fB20ca635F1A2",
        "10"
      ],
      "transaction": {
        "type": "0x02",
        "from": "0xf92d18cdfa0ee4c76701d54ded6fb20ca635f1a2",
        "to": "0x8263007844439f1a1423ae633994b6245e4508bc",
        "gas": "0x20069e",
        "value": "0x1b26dee898c930",
        "data": "0x40c10f19000000000000000000000000f92d18cdfa0ee4c76701d54ded6fb20ca635f1a2000000000000000000000000000000000000000000000000000000000000000a",
        "nonce": "0x2b",
        "accessList": []
      },
      "additionalContracts": [],
      "isFixedGasLimit": false
    },
    {
      "hash": "0x7869c6a8e1928343499424e4655ca6be6a4dd606badf8de2c7ac417b1f6a9c22",
      "transactionType": "CALL",
      "contractName": null,
      "contractAddress": "0x8263007844439F1A1423AE633994B6245e4508Bc",
      "function": "mint(address,uint256)",
      "arguments": [
        "0xD4C7E8652c97127EE260057e2dC245D42F21DDA7",
        "10"
      ],
      "transaction": {
        "type": "0x02",
        "from": "0xd4c7e8652c97127ee260057e2dc245d42f21dda7",
        "to": "0x8263007844439f1a1423ae633994b6245e4508bc",
        "gas": "0x20069e",
        "value": "0x1b26dee898c930",
        "data": "0x40c10f19000000000000000000000000d4c7e8652c97127ee260057e2dc245d42f21dda7000000000000000000000000000000000000000000000000000000000000000a",
        "nonce": "0x3d",
        "accessList": []
      },
      "additionalContracts": [],
      "isFixedGasLimit": false
    },
    {
      "hash": "0x86aa22619284d083f60424ce2c529b388ed93ff888dac320b28610ff21f63694",
      "transactionType": "CALL",
      "contractName": null,
      "contractAddress": "0x8263007844439F1A1423AE633994B6245e4508Bc",
      "function": "mint(address,uint256)",
      "arguments": [
        "0x298334B4895392b0BA15261194cF1642A4adf9Fc",
        "10"
      ],
      "transaction": {
        "type": "0x02",
        "from": "0x298334b4895392b0ba15261194cf1642a4adf9fc",
        "to": "0x8263007844439f1a1423ae633994b6245e4508bc",
        "gas": "0x20069e",
        "value": "0x1b26dee898c930",
        "data": "0x40c10f19000000000000000000000000298334b4895392b0ba15261194cf1642a4adf9fc000000000000000000000000000000000000000000000000000000000000000a",
        "nonce": "0x31",
        "accessList": []
      },
      "additionalContracts": [],
      "isFixedGasLimit": false
    },
    {
      "hash": "0x5e3a32c4b51f2a4df218c0a5c5af55c532bc08a68a6a546e171bbb275de1612e",
      "transactionType": "CALL",
      "contractName": null,
      "contractAddress": "0x8263007844439F1A1423AE633994B6245e4508Bc",
      "function": "mint(address,uint256)",
      "arguments": [
        "0xF92D18CdFa0EE4C76701d54dEd6fB20ca635F1A2",
        "10"
      ],
      "transaction": {
        "type": "0x02",
        "from": "0xf92d18cdfa0ee4c76701d54ded6fb20ca635f1a2",
        "to": "0x8263007844439f1a1423ae633994b6245e4508bc",
        "gas": "0x20069e",
        "value": "0x1b26dee898c930",
        "data": "0x40c10f19000000000000000000000000f92d18cdfa0ee4c76701d54ded6fb20ca635f1a2000000000000000000000000000000000000000000000000000000000000000a",
        "nonce": "0x2c",
        "accessList": []
      },
      "additionalContracts": [],
      "isFixedGasLimit": false
    },
    {
      "hash": "0x2edfe1a8bf5215d72727b66b3c2373a96f0763228846f532e3dc2d04401f5d00",
      "transactionType": "CALL",
      "contractName": null,
      "contractAddress": "0x8263007844439F1A1423AE633994B6245e4508Bc",
      "function": "mint(address,uint256)",
      "arguments": [
        "0xD4C7E8652c97127EE260057e2dC245D42F21DDA7",
        "10"
      ],
      "transaction": {
        "type": "0x02",
        "from": "0xd4c7e8652c97127ee260057e2dc245d42f21dda7",
        "to": "0x8263007844439f1a1423ae633994b6245e4508bc",
        "gas": "0x20069e",
        "value": "0x1b26dee898c930",
        "data": "0x40c10f19000000000000000000000000d4c7e8652c97127ee260057e2dc245d42f21dda7000000000000000000000000000000000000000000000000000000000000000a",
        "nonce": "0x3e",
        "accessList": []
      },
      "additionalContracts": [],
      "isFixedGasLimit": false
    },
    {
      "hash": "0x15b04a48ce531a15db0724a086966099fff94fff9af116b68b8a603116715bcf",
      "transactionType": "CALL",
      "contractName": null,
      "contractAddress": "0x8263007844439F1A1423AE633994B6245e4508Bc",
      "function": "mint(address,uint256)",
      "arguments": [
        "0x298334B4895392b0BA15261194cF1642A4adf9Fc",
        "10"
      ],
      "transaction": {
        "type": "0x02",
        "from": "0x298334b4895392b0ba15261194cf1642a4adf9fc",
        "to": "0x8263007844439f1a1423ae633994b6245e4508bc",
        "gas": "0x20069e",
        "value": "0x1b26dee898c930",
        "data": "0x40c10f19000000000000000000000000298334b4895392b0ba15261194cf1642a4adf9fc000000000000000000000000000000000000000000000000000000000000000a",
        "nonce": "0x32",
        "accessList": []
      },
      "additionalContracts": [],
      "isFixedGasLimit": false
    },
    {
      "hash": "0xcaa50a49bf55c43785461967385796b6ba78838061748484f31c05b7a50f2966",
      "transactionType": "CALL",
      "contractName": null,
      "contractAddress": "0x8263007844439F1A1423AE633994B6245e4508Bc",
      "function": "mint(address,uint256)",
      "arguments": [
        "0xF92D18CdFa0EE4C76701d54dEd6fB20ca635F1A2",
        "10"
      ],
      "transaction": {
        "type": "0x02",
        "from": "0xf92d18cdfa0ee4c76701d54ded6fb20ca635f1a2",
        "to": "0x8263007844439f1a1423ae633994b6245e4508bc",
        "gas": "0x20069e",
        "value": "0x1b26dee898c930",
        "data": "0x40c10f19000000000000000000000000f92d18cdfa0ee4c76701d54ded6fb20ca635f1a2000000000000000000000000000000000000000000000000000000000000000a",
        "nonce": "0x2d",
        "accessList": []
      },
      "additionalContracts": [],
      "isFixedGasLimit": false
    },
    {
      "hash": null,
      "transactionType": "CALL",
      "contractName": null,
      "contractAddress": "0x8263007844439F1A1423AE633994B6245e4508Bc",
      "function": "mint(address,uint256)",
      "arguments": [
        "0xD4C7E8652c97127EE260057e2dC245D42F21DDA7",
        "10"
      ],
      "transaction": {
        "type": "0x02",
        "from": "0xd4c7e8652c97127ee260057e2dc245d42f21dda7",
        "to": "0x8263007844439f1a1423ae633994b6245e4508bc",
        "gas": "0x20069e",
        "value": "0x1b26dee898c930",
        "data": "0x40c10f19000000000000000000000000d4c7e8652c97127ee260057e2dc245d42f21dda7000000000000000000000000000000000000000000000000000000000000000a",
        "nonce": "0x3f",
        "accessList": []
      },
      "additionalContracts": [],
      "isFixedGasLimit": false
    }
  ],
  "receipts": [
    {
      "transactionHash": "0x8370161f6130782bfbf74faaccb45465b39c876ef80070ade56e01168481f816",
      "transactionIndex": "0x1",
      "blockHash": "0xd98e4667288388cb7a9e8712fdfa7b3230a10645676d8a977b7505398908a584",
      "blockNumber": "0x2ab4adb",
      "from": "0x298334B4895392b0BA15261194cF1642A4adf9Fc",
      "to": "0x8263007844439F1A1423AE633994B6245e4508Bc",
      "cumulativeGasUsed": "0x18a5f5",
      "gasUsed": "0x172fa7",
      "contractAddress": null,
      "logs": [
        {
          "address": "0x0000000000000000000000000000000000001010",
          "topics": [
            "0xe6497e3ee548a3372136af2fcb0696db31fc6cf20260707645068bd3fe97f3c4",
            "0x0000000000000000000000000000000000000000000000000000000000001010",
            "0x000000000000000000000000298334b4895392b0ba15261194cf1642a4adf9fc",
            "0x0000000000000000000000008263007844439f1a1423ae633994b6245e4508bc"
          ],
          "data": "0x000000000000000000000000000000000000000000000000001b26dee898c93000000000000000000000000000000000000000000000000041e0a13242b3f229000000000000000000000000000000000000000000000000000000000000000000000000000000000000000000000000000000000000000041c57a535a1b28f9000000000000000000000000000000000000000000000000001b26dee898c930",
          "blockHash": "0xd98e4667288388cb7a9e8712fdfa7b3230a10645676d8a977b7505398908a584",
          "blockNumber": "0x2ab4adb",
          "transactionHash": "0x8370161f6130782bfbf74faaccb45465b39c876ef80070ade56e01168481f816",
          "transactionIndex": "0x1",
          "logIndex": "0x2",
          "removed": false
        },
        {
          "address": "0x0000000000000000000000000000000000001010",
          "topics": [
            "0xe6497e3ee548a3372136af2fcb0696db31fc6cf20260707645068bd3fe97f3c4",
            "0x0000000000000000000000000000000000000000000000000000000000001010",
            "0x0000000000000000000000008263007844439f1a1423ae633994b6245e4508bc",
            "0x0000000000000000000000003f512308d9312d184e8e2a13e47c99d1c9a6956a"
          ],
          "data": "0x000000000000000000000000000000000000000000000000001b26dee898c930000000000000000000000000000000000000000000000000001b26dee898c93000000000000000000000000000000000000000000000000012860cefc3eb1876000000000000000000000000000000000000000000000000000000000000000000000000000000000000000000000000000000000000000012a133ceac83e1a6",
          "blockHash": "0xd98e4667288388cb7a9e8712fdfa7b3230a10645676d8a977b7505398908a584",
          "blockNumber": "0x2ab4adb",
          "transactionHash": "0x8370161f6130782bfbf74faaccb45465b39c876ef80070ade56e01168481f816",
          "transactionIndex": "0x1",
          "logIndex": "0x3",
          "removed": false
        },
        {
          "address": "0x3f512308d9312d184E8E2a13E47C99D1c9A6956A",
          "topics": [
            "0x8e47b87b0ef542cdfa1659c551d88bad38aa7f452d2bbb349ab7530dfec8be8f"
          ],
          "data": "0x0000000000000000000000008263007844439f1a1423ae633994b6245e4508bc000000000000000000000000000000000000000000000000001b26dee898c930",
          "blockHash": "0xd98e4667288388cb7a9e8712fdfa7b3230a10645676d8a977b7505398908a584",
          "blockNumber": "0x2ab4adb",
          "transactionHash": "0x8370161f6130782bfbf74faaccb45465b39c876ef80070ade56e01168481f816",
          "transactionIndex": "0x1",
          "logIndex": "0x4",
          "removed": false
        },
        {
          "address": "0x7a1BaC17Ccc5b313516C5E16fb24f7659aA5ebed",
          "topics": [
            "0x63373d1c4696214b898952999c9aaec57dac1ee2723cec59bea6888f489a9772",
            "0x4b09e658ed251bcafeebbc69400383d49f344ace09b9576fe248bb02c003fe9f",
            "0x0000000000000000000000000000000000000000000000000000000000000b33",
            "0x0000000000000000000000008263007844439f1a1423ae633994b6245e4508bc"
          ],
          "data": "0x9a1c9f02cbaff1ad3c0031fae28e3c87c832a3e7c7ca5a3d1fb1c5d7f7195182a15b7b60abaebac1ed91a55b038dd186bcbe3b6dc283401f20d9ca7dfc31140d000000000000000000000000000000000000000000000000000000000000000300000000000000000000000000000000000000000000000000000000000f42400000000000000000000000000000000000000000000000000000000000000001",
          "blockHash": "0xd98e4667288388cb7a9e8712fdfa7b3230a10645676d8a977b7505398908a584",
          "blockNumber": "0x2ab4adb",
          "transactionHash": "0x8370161f6130782bfbf74faaccb45465b39c876ef80070ade56e01168481f816",
          "transactionIndex": "0x1",
          "logIndex": "0x5",
          "removed": false
        },
        {
          "address": "0x8263007844439F1A1423AE633994B6245e4508Bc",
          "topics": [
            "0xf2dc9a29f1b257c57ef50cb6c0230cacc6af60a01e5e51bde6ee1657f214a347"
          ],
          "data": "0x9a1c9f02cbaff1ad3c0031fae28e3c87c832a3e7c7ca5a3d1fb1c5d7f7195182",
          "blockHash": "0xd98e4667288388cb7a9e8712fdfa7b3230a10645676d8a977b7505398908a584",
          "blockNumber": "0x2ab4adb",
          "transactionHash": "0x8370161f6130782bfbf74faaccb45465b39c876ef80070ade56e01168481f816",
          "transactionIndex": "0x1",
          "logIndex": "0x6",
          "removed": false
        },
        {
          "address": "0x8263007844439F1A1423AE633994B6245e4508Bc",
          "topics": [
            "0xddf252ad1be2c89b69c2b068fc378daa952ba7f163c4a11628f55a4df523b3ef",
            "0x0000000000000000000000000000000000000000000000000000000000000000",
            "0x000000000000000000000000298334b4895392b0ba15261194cf1642a4adf9fc",
            "0x00000000000000000000000000000000000000000000000000000000000008f1"
          ],
          "data": "0x",
          "blockHash": "0xd98e4667288388cb7a9e8712fdfa7b3230a10645676d8a977b7505398908a584",
          "blockNumber": "0x2ab4adb",
          "transactionHash": "0x8370161f6130782bfbf74faaccb45465b39c876ef80070ade56e01168481f816",
          "transactionIndex": "0x1",
          "logIndex": "0x7",
          "removed": false
        },
        {
          "address": "0x8263007844439F1A1423AE633994B6245e4508Bc",
          "topics": [
            "0xddf252ad1be2c89b69c2b068fc378daa952ba7f163c4a11628f55a4df523b3ef",
            "0x0000000000000000000000000000000000000000000000000000000000000000",
            "0x000000000000000000000000298334b4895392b0ba15261194cf1642a4adf9fc",
            "0x00000000000000000000000000000000000000000000000000000000000008f2"
          ],
          "data": "0x",
          "blockHash": "0xd98e4667288388cb7a9e8712fdfa7b3230a10645676d8a977b7505398908a584",
          "blockNumber": "0x2ab4adb",
          "transactionHash": "0x8370161f6130782bfbf74faaccb45465b39c876ef80070ade56e01168481f816",
          "transactionIndex": "0x1",
          "logIndex": "0x8",
          "removed": false
        },
        {
          "address": "0x8263007844439F1A1423AE633994B6245e4508Bc",
          "topics": [
            "0xddf252ad1be2c89b69c2b068fc378daa952ba7f163c4a11628f55a4df523b3ef",
            "0x0000000000000000000000000000000000000000000000000000000000000000",
            "0x000000000000000000000000298334b4895392b0ba15261194cf1642a4adf9fc",
            "0x00000000000000000000000000000000000000000000000000000000000008f3"
          ],
          "data": "0x",
          "blockHash": "0xd98e4667288388cb7a9e8712fdfa7b3230a10645676d8a977b7505398908a584",
          "blockNumber": "0x2ab4adb",
          "transactionHash": "0x8370161f6130782bfbf74faaccb45465b39c876ef80070ade56e01168481f816",
          "transactionIndex": "0x1",
          "logIndex": "0x9",
          "removed": false
        },
        {
          "address": "0x8263007844439F1A1423AE633994B6245e4508Bc",
          "topics": [
            "0xddf252ad1be2c89b69c2b068fc378daa952ba7f163c4a11628f55a4df523b3ef",
            "0x0000000000000000000000000000000000000000000000000000000000000000",
            "0x000000000000000000000000298334b4895392b0ba15261194cf1642a4adf9fc",
            "0x00000000000000000000000000000000000000000000000000000000000008f4"
          ],
          "data": "0x",
          "blockHash": "0xd98e4667288388cb7a9e8712fdfa7b3230a10645676d8a977b7505398908a584",
          "blockNumber": "0x2ab4adb",
          "transactionHash": "0x8370161f6130782bfbf74faaccb45465b39c876ef80070ade56e01168481f816",
          "transactionIndex": "0x1",
          "logIndex": "0xa",
          "removed": false
        },
        {
          "address": "0x8263007844439F1A1423AE633994B6245e4508Bc",
          "topics": [
            "0xddf252ad1be2c89b69c2b068fc378daa952ba7f163c4a11628f55a4df523b3ef",
            "0x0000000000000000000000000000000000000000000000000000000000000000",
            "0x000000000000000000000000298334b4895392b0ba15261194cf1642a4adf9fc",
            "0x00000000000000000000000000000000000000000000000000000000000008f5"
          ],
          "data": "0x",
          "blockHash": "0xd98e4667288388cb7a9e8712fdfa7b3230a10645676d8a977b7505398908a584",
          "blockNumber": "0x2ab4adb",
          "transactionHash": "0x8370161f6130782bfbf74faaccb45465b39c876ef80070ade56e01168481f816",
          "transactionIndex": "0x1",
          "logIndex": "0xb",
          "removed": false
        },
        {
          "address": "0x8263007844439F1A1423AE633994B6245e4508Bc",
          "topics": [
            "0xddf252ad1be2c89b69c2b068fc378daa952ba7f163c4a11628f55a4df523b3ef",
            "0x0000000000000000000000000000000000000000000000000000000000000000",
            "0x000000000000000000000000298334b4895392b0ba15261194cf1642a4adf9fc",
            "0x00000000000000000000000000000000000000000000000000000000000008f6"
          ],
          "data": "0x",
          "blockHash": "0xd98e4667288388cb7a9e8712fdfa7b3230a10645676d8a977b7505398908a584",
          "blockNumber": "0x2ab4adb",
          "transactionHash": "0x8370161f6130782bfbf74faaccb45465b39c876ef80070ade56e01168481f816",
          "transactionIndex": "0x1",
          "logIndex": "0xc",
          "removed": false
        },
        {
          "address": "0x8263007844439F1A1423AE633994B6245e4508Bc",
          "topics": [
            "0xddf252ad1be2c89b69c2b068fc378daa952ba7f163c4a11628f55a4df523b3ef",
            "0x0000000000000000000000000000000000000000000000000000000000000000",
            "0x000000000000000000000000298334b4895392b0ba15261194cf1642a4adf9fc",
            "0x00000000000000000000000000000000000000000000000000000000000008f7"
          ],
          "data": "0x",
          "blockHash": "0xd98e4667288388cb7a9e8712fdfa7b3230a10645676d8a977b7505398908a584",
          "blockNumber": "0x2ab4adb",
          "transactionHash": "0x8370161f6130782bfbf74faaccb45465b39c876ef80070ade56e01168481f816",
          "transactionIndex": "0x1",
          "logIndex": "0xd",
          "removed": false
        },
        {
          "address": "0x8263007844439F1A1423AE633994B6245e4508Bc",
          "topics": [
            "0xddf252ad1be2c89b69c2b068fc378daa952ba7f163c4a11628f55a4df523b3ef",
            "0x0000000000000000000000000000000000000000000000000000000000000000",
            "0x000000000000000000000000298334b4895392b0ba15261194cf1642a4adf9fc",
            "0x00000000000000000000000000000000000000000000000000000000000008f8"
          ],
          "data": "0x",
          "blockHash": "0xd98e4667288388cb7a9e8712fdfa7b3230a10645676d8a977b7505398908a584",
          "blockNumber": "0x2ab4adb",
          "transactionHash": "0x8370161f6130782bfbf74faaccb45465b39c876ef80070ade56e01168481f816",
          "transactionIndex": "0x1",
          "logIndex": "0xe",
          "removed": false
        },
        {
          "address": "0x8263007844439F1A1423AE633994B6245e4508Bc",
          "topics": [
            "0xddf252ad1be2c89b69c2b068fc378daa952ba7f163c4a11628f55a4df523b3ef",
            "0x0000000000000000000000000000000000000000000000000000000000000000",
            "0x000000000000000000000000298334b4895392b0ba15261194cf1642a4adf9fc",
            "0x00000000000000000000000000000000000000000000000000000000000008f9"
          ],
          "data": "0x",
          "blockHash": "0xd98e4667288388cb7a9e8712fdfa7b3230a10645676d8a977b7505398908a584",
          "blockNumber": "0x2ab4adb",
          "transactionHash": "0x8370161f6130782bfbf74faaccb45465b39c876ef80070ade56e01168481f816",
          "transactionIndex": "0x1",
          "logIndex": "0xf",
          "removed": false
        },
        {
          "address": "0x8263007844439F1A1423AE633994B6245e4508Bc",
          "topics": [
            "0xddf252ad1be2c89b69c2b068fc378daa952ba7f163c4a11628f55a4df523b3ef",
            "0x0000000000000000000000000000000000000000000000000000000000000000",
            "0x000000000000000000000000298334b4895392b0ba15261194cf1642a4adf9fc",
            "0x00000000000000000000000000000000000000000000000000000000000008fa"
          ],
          "data": "0x",
          "blockHash": "0xd98e4667288388cb7a9e8712fdfa7b3230a10645676d8a977b7505398908a584",
          "blockNumber": "0x2ab4adb",
          "transactionHash": "0x8370161f6130782bfbf74faaccb45465b39c876ef80070ade56e01168481f816",
          "transactionIndex": "0x1",
          "logIndex": "0x10",
          "removed": false
        },
        {
          "address": "0x0000000000000000000000000000000000001010",
          "topics": [
            "0x4dfe1bbbcf077ddc3e01291eea2d5c70c2b422b415d95645b9adcfd678cb1d63",
            "0x0000000000000000000000000000000000000000000000000000000000001010",
            "0x000000000000000000000000298334b4895392b0ba15261194cf1642a4adf9fc",
            "0x000000000000000000000000c275dc8be39f50d12f66b6a63629c39da5bae5bd"
          ],
          "data": "0x00000000000000000000000000000000000000000000000000a1f40d7bd9340000000000000000000000000000000000000000000000000042c053e038c084090000000000000000000000000000000000000000000013ed4bda5c163702ff5f000000000000000000000000000000000000000000000000421e5fd2bce750090000000000000000000000000000000000000000000013ed4c7c5023b2dc335f",
          "blockHash": "0xd98e4667288388cb7a9e8712fdfa7b3230a10645676d8a977b7505398908a584",
          "blockNumber": "0x2ab4adb",
          "transactionHash": "0x8370161f6130782bfbf74faaccb45465b39c876ef80070ade56e01168481f816",
          "transactionIndex": "0x1",
          "logIndex": "0x11",
          "removed": false
        }
      ],
      "status": "0x1",
      "logsBloom": "0x0200000002000000040408200000010804000000000001400040000000000400000000000000000004000010008000012000800000200000000800000000000000000080000000080000000a0004228000000800000010000401000000000000000000a0020000000800000100000800000004200000000080000010000000000000000000000000000200000000001000000000004000000000000000000400200020042040400000000000000040004014000000000000000040000000804000001002000010000001000000004000000000000000800800128000000020000008400000000100000100000209000000080840000000010000000020100000",
      "type": "0x2",
      "effectiveGasPrice": "0x6fc23ac10"
    },
    {
      "transactionHash": "0xb237981ea4c839fe2dec13f02390c7a8e5da962f16436335c76511a4bf890a0e",
      "transactionIndex": "0x0",
      "blockHash": "0xcd966a0c86823a77e6e4ac8be1460f90e8403d1ac079d1bf6d2b20f2cf493a1d",
      "blockNumber": "0x2ab4adf",
      "from": "0xF92D18CdFa0EE4C76701d54dEd6fB20ca635F1A2",
      "to": "0x8263007844439F1A1423AE633994B6245e4508Bc",
      "cumulativeGasUsed": "0x172fa7",
      "gasUsed": "0x172fa7",
      "contractAddress": null,
      "logs": [
        {
          "address": "0x0000000000000000000000000000000000001010",
          "topics": [
            "0xe6497e3ee548a3372136af2fcb0696db31fc6cf20260707645068bd3fe97f3c4",
            "0x0000000000000000000000000000000000000000000000000000000000001010",
            "0x000000000000000000000000f92d18cdfa0ee4c76701d54ded6fb20ca635f1a2",
            "0x0000000000000000000000008263007844439f1a1423ae633994b6245e4508bc"
          ],
          "data": "0x000000000000000000000000000000000000000000000000001b26dee898c93000000000000000000000000000000000000000000000000011f47178517afab0000000000000000000000000000000000000000000000000000000000000000000000000000000000000000000000000000000000000000011d94a9968e23180000000000000000000000000000000000000000000000000001b26dee898c930",
          "blockHash": "0xcd966a0c86823a77e6e4ac8be1460f90e8403d1ac079d1bf6d2b20f2cf493a1d",
          "blockNumber": "0x2ab4adf",
          "transactionHash": "0xb237981ea4c839fe2dec13f02390c7a8e5da962f16436335c76511a4bf890a0e",
          "transactionIndex": "0x0",
          "logIndex": "0x0",
          "removed": false
        },
        {
          "address": "0x0000000000000000000000000000000000001010",
          "topics": [
            "0xe6497e3ee548a3372136af2fcb0696db31fc6cf20260707645068bd3fe97f3c4",
            "0x0000000000000000000000000000000000000000000000000000000000001010",
            "0x0000000000000000000000008263007844439f1a1423ae633994b6245e4508bc",
            "0x0000000000000000000000003f512308d9312d184e8e2a13e47c99d1c9a6956a"
          ],
          "data": "0x000000000000000000000000000000000000000000000000001b26dee898c930000000000000000000000000000000000000000000000000001b26dee898c93000000000000000000000000000000000000000000000000012a133ceac83e1a6000000000000000000000000000000000000000000000000000000000000000000000000000000000000000000000000000000000000000012bc5aad951caad6",
          "blockHash": "0xcd966a0c86823a77e6e4ac8be1460f90e8403d1ac079d1bf6d2b20f2cf493a1d",
          "blockNumber": "0x2ab4adf",
          "transactionHash": "0xb237981ea4c839fe2dec13f02390c7a8e5da962f16436335c76511a4bf890a0e",
          "transactionIndex": "0x0",
          "logIndex": "0x1",
          "removed": false
        },
        {
          "address": "0x3f512308d9312d184E8E2a13E47C99D1c9A6956A",
          "topics": [
            "0x8e47b87b0ef542cdfa1659c551d88bad38aa7f452d2bbb349ab7530dfec8be8f"
          ],
          "data": "0x0000000000000000000000008263007844439f1a1423ae633994b6245e4508bc000000000000000000000000000000000000000000000000001b26dee898c930",
          "blockHash": "0xcd966a0c86823a77e6e4ac8be1460f90e8403d1ac079d1bf6d2b20f2cf493a1d",
          "blockNumber": "0x2ab4adf",
          "transactionHash": "0xb237981ea4c839fe2dec13f02390c7a8e5da962f16436335c76511a4bf890a0e",
          "transactionIndex": "0x0",
          "logIndex": "0x2",
          "removed": false
        },
        {
          "address": "0x7a1BaC17Ccc5b313516C5E16fb24f7659aA5ebed",
          "topics": [
            "0x63373d1c4696214b898952999c9aaec57dac1ee2723cec59bea6888f489a9772",
            "0x4b09e658ed251bcafeebbc69400383d49f344ace09b9576fe248bb02c003fe9f",
            "0x0000000000000000000000000000000000000000000000000000000000000b33",
            "0x0000000000000000000000008263007844439f1a1423ae633994b6245e4508bc"
          ],
          "data": "0xd2c8c5eb9dda0813fbdc2a79f5e34a53c5f00afdb862e816dcf311c20a6d89c0e5d566b50946f9ff4ecf78154e7c446ab8b65f3fa0b0c532973734b72d65cc33000000000000000000000000000000000000000000000000000000000000000300000000000000000000000000000000000000000000000000000000000f42400000000000000000000000000000000000000000000000000000000000000001",
          "blockHash": "0xcd966a0c86823a77e6e4ac8be1460f90e8403d1ac079d1bf6d2b20f2cf493a1d",
          "blockNumber": "0x2ab4adf",
          "transactionHash": "0xb237981ea4c839fe2dec13f02390c7a8e5da962f16436335c76511a4bf890a0e",
          "transactionIndex": "0x0",
          "logIndex": "0x3",
          "removed": false
        },
        {
          "address": "0x8263007844439F1A1423AE633994B6245e4508Bc",
          "topics": [
            "0xf2dc9a29f1b257c57ef50cb6c0230cacc6af60a01e5e51bde6ee1657f214a347"
          ],
          "data": "0xd2c8c5eb9dda0813fbdc2a79f5e34a53c5f00afdb862e816dcf311c20a6d89c0",
          "blockHash": "0xcd966a0c86823a77e6e4ac8be1460f90e8403d1ac079d1bf6d2b20f2cf493a1d",
          "blockNumber": "0x2ab4adf",
          "transactionHash": "0xb237981ea4c839fe2dec13f02390c7a8e5da962f16436335c76511a4bf890a0e",
          "transactionIndex": "0x0",
          "logIndex": "0x4",
          "removed": false
        },
        {
          "address": "0x8263007844439F1A1423AE633994B6245e4508Bc",
          "topics": [
            "0xddf252ad1be2c89b69c2b068fc378daa952ba7f163c4a11628f55a4df523b3ef",
            "0x0000000000000000000000000000000000000000000000000000000000000000",
            "0x000000000000000000000000f92d18cdfa0ee4c76701d54ded6fb20ca635f1a2",
            "0x00000000000000000000000000000000000000000000000000000000000008fb"
          ],
          "data": "0x",
          "blockHash": "0xcd966a0c86823a77e6e4ac8be1460f90e8403d1ac079d1bf6d2b20f2cf493a1d",
          "blockNumber": "0x2ab4adf",
          "transactionHash": "0xb237981ea4c839fe2dec13f02390c7a8e5da962f16436335c76511a4bf890a0e",
          "transactionIndex": "0x0",
          "logIndex": "0x5",
          "removed": false
        },
        {
          "address": "0x8263007844439F1A1423AE633994B6245e4508Bc",
          "topics": [
            "0xddf252ad1be2c89b69c2b068fc378daa952ba7f163c4a11628f55a4df523b3ef",
            "0x0000000000000000000000000000000000000000000000000000000000000000",
            "0x000000000000000000000000f92d18cdfa0ee4c76701d54ded6fb20ca635f1a2",
            "0x00000000000000000000000000000000000000000000000000000000000008fc"
          ],
          "data": "0x",
          "blockHash": "0xcd966a0c86823a77e6e4ac8be1460f90e8403d1ac079d1bf6d2b20f2cf493a1d",
          "blockNumber": "0x2ab4adf",
          "transactionHash": "0xb237981ea4c839fe2dec13f02390c7a8e5da962f16436335c76511a4bf890a0e",
          "transactionIndex": "0x0",
          "logIndex": "0x6",
          "removed": false
        },
        {
          "address": "0x8263007844439F1A1423AE633994B6245e4508Bc",
          "topics": [
            "0xddf252ad1be2c89b69c2b068fc378daa952ba7f163c4a11628f55a4df523b3ef",
            "0x0000000000000000000000000000000000000000000000000000000000000000",
            "0x000000000000000000000000f92d18cdfa0ee4c76701d54ded6fb20ca635f1a2",
            "0x00000000000000000000000000000000000000000000000000000000000008fd"
          ],
          "data": "0x",
          "blockHash": "0xcd966a0c86823a77e6e4ac8be1460f90e8403d1ac079d1bf6d2b20f2cf493a1d",
          "blockNumber": "0x2ab4adf",
          "transactionHash": "0xb237981ea4c839fe2dec13f02390c7a8e5da962f16436335c76511a4bf890a0e",
          "transactionIndex": "0x0",
          "logIndex": "0x7",
          "removed": false
        },
        {
          "address": "0x8263007844439F1A1423AE633994B6245e4508Bc",
          "topics": [
            "0xddf252ad1be2c89b69c2b068fc378daa952ba7f163c4a11628f55a4df523b3ef",
            "0x0000000000000000000000000000000000000000000000000000000000000000",
            "0x000000000000000000000000f92d18cdfa0ee4c76701d54ded6fb20ca635f1a2",
            "0x00000000000000000000000000000000000000000000000000000000000008fe"
          ],
          "data": "0x",
          "blockHash": "0xcd966a0c86823a77e6e4ac8be1460f90e8403d1ac079d1bf6d2b20f2cf493a1d",
          "blockNumber": "0x2ab4adf",
          "transactionHash": "0xb237981ea4c839fe2dec13f02390c7a8e5da962f16436335c76511a4bf890a0e",
          "transactionIndex": "0x0",
          "logIndex": "0x8",
          "removed": false
        },
        {
          "address": "0x8263007844439F1A1423AE633994B6245e4508Bc",
          "topics": [
            "0xddf252ad1be2c89b69c2b068fc378daa952ba7f163c4a11628f55a4df523b3ef",
            "0x0000000000000000000000000000000000000000000000000000000000000000",
            "0x000000000000000000000000f92d18cdfa0ee4c76701d54ded6fb20ca635f1a2",
            "0x00000000000000000000000000000000000000000000000000000000000008ff"
          ],
          "data": "0x",
          "blockHash": "0xcd966a0c86823a77e6e4ac8be1460f90e8403d1ac079d1bf6d2b20f2cf493a1d",
          "blockNumber": "0x2ab4adf",
          "transactionHash": "0xb237981ea4c839fe2dec13f02390c7a8e5da962f16436335c76511a4bf890a0e",
          "transactionIndex": "0x0",
          "logIndex": "0x9",
          "removed": false
        },
        {
          "address": "0x8263007844439F1A1423AE633994B6245e4508Bc",
          "topics": [
            "0xddf252ad1be2c89b69c2b068fc378daa952ba7f163c4a11628f55a4df523b3ef",
            "0x0000000000000000000000000000000000000000000000000000000000000000",
            "0x000000000000000000000000f92d18cdfa0ee4c76701d54ded6fb20ca635f1a2",
            "0x0000000000000000000000000000000000000000000000000000000000000900"
          ],
          "data": "0x",
          "blockHash": "0xcd966a0c86823a77e6e4ac8be1460f90e8403d1ac079d1bf6d2b20f2cf493a1d",
          "blockNumber": "0x2ab4adf",
          "transactionHash": "0xb237981ea4c839fe2dec13f02390c7a8e5da962f16436335c76511a4bf890a0e",
          "transactionIndex": "0x0",
          "logIndex": "0xa",
          "removed": false
        },
        {
          "address": "0x8263007844439F1A1423AE633994B6245e4508Bc",
          "topics": [
            "0xddf252ad1be2c89b69c2b068fc378daa952ba7f163c4a11628f55a4df523b3ef",
            "0x0000000000000000000000000000000000000000000000000000000000000000",
            "0x000000000000000000000000f92d18cdfa0ee4c76701d54ded6fb20ca635f1a2",
            "0x0000000000000000000000000000000000000000000000000000000000000901"
          ],
          "data": "0x",
          "blockHash": "0xcd966a0c86823a77e6e4ac8be1460f90e8403d1ac079d1bf6d2b20f2cf493a1d",
          "blockNumber": "0x2ab4adf",
          "transactionHash": "0xb237981ea4c839fe2dec13f02390c7a8e5da962f16436335c76511a4bf890a0e",
          "transactionIndex": "0x0",
          "logIndex": "0xb",
          "removed": false
        },
        {
          "address": "0x8263007844439F1A1423AE633994B6245e4508Bc",
          "topics": [
            "0xddf252ad1be2c89b69c2b068fc378daa952ba7f163c4a11628f55a4df523b3ef",
            "0x0000000000000000000000000000000000000000000000000000000000000000",
            "0x000000000000000000000000f92d18cdfa0ee4c76701d54ded6fb20ca635f1a2",
            "0x0000000000000000000000000000000000000000000000000000000000000902"
          ],
          "data": "0x",
          "blockHash": "0xcd966a0c86823a77e6e4ac8be1460f90e8403d1ac079d1bf6d2b20f2cf493a1d",
          "blockNumber": "0x2ab4adf",
          "transactionHash": "0xb237981ea4c839fe2dec13f02390c7a8e5da962f16436335c76511a4bf890a0e",
          "transactionIndex": "0x0",
          "logIndex": "0xc",
          "removed": false
        },
        {
          "address": "0x8263007844439F1A1423AE633994B6245e4508Bc",
          "topics": [
            "0xddf252ad1be2c89b69c2b068fc378daa952ba7f163c4a11628f55a4df523b3ef",
            "0x0000000000000000000000000000000000000000000000000000000000000000",
            "0x000000000000000000000000f92d18cdfa0ee4c76701d54ded6fb20ca635f1a2",
            "0x0000000000000000000000000000000000000000000000000000000000000903"
          ],
          "data": "0x",
          "blockHash": "0xcd966a0c86823a77e6e4ac8be1460f90e8403d1ac079d1bf6d2b20f2cf493a1d",
          "blockNumber": "0x2ab4adf",
          "transactionHash": "0xb237981ea4c839fe2dec13f02390c7a8e5da962f16436335c76511a4bf890a0e",
          "transactionIndex": "0x0",
          "logIndex": "0xd",
          "removed": false
        },
        {
          "address": "0x8263007844439F1A1423AE633994B6245e4508Bc",
          "topics": [
            "0xddf252ad1be2c89b69c2b068fc378daa952ba7f163c4a11628f55a4df523b3ef",
            "0x0000000000000000000000000000000000000000000000000000000000000000",
            "0x000000000000000000000000f92d18cdfa0ee4c76701d54ded6fb20ca635f1a2",
            "0x0000000000000000000000000000000000000000000000000000000000000904"
          ],
          "data": "0x",
          "blockHash": "0xcd966a0c86823a77e6e4ac8be1460f90e8403d1ac079d1bf6d2b20f2cf493a1d",
          "blockNumber": "0x2ab4adf",
          "transactionHash": "0xb237981ea4c839fe2dec13f02390c7a8e5da962f16436335c76511a4bf890a0e",
          "transactionIndex": "0x0",
          "logIndex": "0xe",
          "removed": false
        },
        {
          "address": "0x0000000000000000000000000000000000001010",
          "topics": [
            "0x4dfe1bbbcf077ddc3e01291eea2d5c70c2b422b415d95645b9adcfd678cb1d63",
            "0x0000000000000000000000000000000000000000000000000000000000001010",
            "0x000000000000000000000000f92d18cdfa0ee4c76701d54ded6fb20ca635f1a2",
            "0x000000000000000000000000c275dc8be39f50d12f66b6a63629c39da5bae5bd"
          ],
          "data": "0x00000000000000000000000000000000000000000000000000a1f40d7bd9340000000000000000000000000000000000000000000000000012d4242647878c900000000000000000000000000000000000000000000013ed4d2669fb4d4e7a3600000000000000000000000000000000000000000000000012323018cbae58900000000000000000000000000000000000000000000013ed4dc85e08c927ae36",
          "blockHash": "0xcd966a0c86823a77e6e4ac8be1460f90e8403d1ac079d1bf6d2b20f2cf493a1d",
          "blockNumber": "0x2ab4adf",
          "transactionHash": "0xb237981ea4c839fe2dec13f02390c7a8e5da962f16436335c76511a4bf890a0e",
          "transactionIndex": "0x0",
          "logIndex": "0xf",
          "removed": false
        }
      ],
      "status": "0x1",
      "logsBloom": "0x0302000000000000040400200000000804400000000000000000110000000400000000000080000000000018000000002000c00000201000001820000000000000000080000000080000000800002280000200000000100004010000000000000000008002000000000000110000080000000420002400008000001000000000000000000000400000000000200000100000000000400000000004020000000020000000000040000000000000000000001002000000000040c040000000004000000002000010000001000000004000100000000000880000128000000020000008000000000100040100000200200000080000000000100040000000100800",
      "type": "0x2",
      "effectiveGasPrice": "0x6fc23ac10"
    },
    {
      "transactionHash": "0x7869c6a8e1928343499424e4655ca6be6a4dd606badf8de2c7ac417b1f6a9c22",
      "transactionIndex": "0x2",
      "blockHash": "0xeb4ff152f1c974141e1afdb5fdd441212bff725c650e6eb6637d84d926549259",
      "blockNumber": "0x2ab4ae1",
      "from": "0xD4C7E8652c97127EE260057e2dC245D42F21DDA7",
      "to": "0x8263007844439F1A1423AE633994B6245e4508Bc",
      "cumulativeGasUsed": "0x194a84",
      "gasUsed": "0x172fa7",
      "contractAddress": null,
      "logs": [
        {
          "address": "0x0000000000000000000000000000000000001010",
          "topics": [
            "0xe6497e3ee548a3372136af2fcb0696db31fc6cf20260707645068bd3fe97f3c4",
            "0x0000000000000000000000000000000000000000000000000000000000001010",
            "0x000000000000000000000000d4c7e8652c97127ee260057e2dc245d42f21dda7",
            "0x0000000000000000000000008263007844439f1a1423ae633994b6245e4508bc"
          ],
          "data": "0x000000000000000000000000000000000000000000000000001b26dee898c9300000000000000000000000000000000000000000000000001b080142d87c3aae00000000000000000000000000000000000000000000000000000000000000000000000000000000000000000000000000000000000000001aecda63efe3717e000000000000000000000000000000000000000000000000001b26dee898c930",
          "blockHash": "0xeb4ff152f1c974141e1afdb5fdd441212bff725c650e6eb6637d84d926549259",
          "blockNumber": "0x2ab4ae1",
          "transactionHash": "0x7869c6a8e1928343499424e4655ca6be6a4dd606badf8de2c7ac417b1f6a9c22",
          "transactionIndex": "0x2",
          "logIndex": "0x5",
          "removed": false
        },
        {
          "address": "0x0000000000000000000000000000000000001010",
          "topics": [
            "0xe6497e3ee548a3372136af2fcb0696db31fc6cf20260707645068bd3fe97f3c4",
            "0x0000000000000000000000000000000000000000000000000000000000001010",
            "0x0000000000000000000000008263007844439f1a1423ae633994b6245e4508bc",
            "0x0000000000000000000000003f512308d9312d184e8e2a13e47c99d1c9a6956a"
          ],
          "data": "0x000000000000000000000000000000000000000000000000001b26dee898c930000000000000000000000000000000000000000000000000001b26dee898c93000000000000000000000000000000000000000000000000012bc5aad951caad6000000000000000000000000000000000000000000000000000000000000000000000000000000000000000000000000000000000000000012d7818c7db57406",
          "blockHash": "0xeb4ff152f1c974141e1afdb5fdd441212bff725c650e6eb6637d84d926549259",
          "blockNumber": "0x2ab4ae1",
          "transactionHash": "0x7869c6a8e1928343499424e4655ca6be6a4dd606badf8de2c7ac417b1f6a9c22",
          "transactionIndex": "0x2",
          "logIndex": "0x6",
          "removed": false
        },
        {
          "address": "0x3f512308d9312d184E8E2a13E47C99D1c9A6956A",
          "topics": [
            "0x8e47b87b0ef542cdfa1659c551d88bad38aa7f452d2bbb349ab7530dfec8be8f"
          ],
          "data": "0x0000000000000000000000008263007844439f1a1423ae633994b6245e4508bc000000000000000000000000000000000000000000000000001b26dee898c930",
          "blockHash": "0xeb4ff152f1c974141e1afdb5fdd441212bff725c650e6eb6637d84d926549259",
          "blockNumber": "0x2ab4ae1",
          "transactionHash": "0x7869c6a8e1928343499424e4655ca6be6a4dd606badf8de2c7ac417b1f6a9c22",
          "transactionIndex": "0x2",
          "logIndex": "0x7",
          "removed": false
        },
        {
          "address": "0x7a1BaC17Ccc5b313516C5E16fb24f7659aA5ebed",
          "topics": [
            "0x63373d1c4696214b898952999c9aaec57dac1ee2723cec59bea6888f489a9772",
            "0x4b09e658ed251bcafeebbc69400383d49f344ace09b9576fe248bb02c003fe9f",
            "0x0000000000000000000000000000000000000000000000000000000000000b33",
            "0x0000000000000000000000008263007844439f1a1423ae633994b6245e4508bc"
          ],
          "data": "0xd0ba79fb85a4e2afb6c07bdc8b33fabaebc39574b5f2ba7ec0b997781344bb6de7023d44d2041123703613f3dd6dce527515682a93e5dcfc0c41d3f2f0b13a06000000000000000000000000000000000000000000000000000000000000000300000000000000000000000000000000000000000000000000000000000f42400000000000000000000000000000000000000000000000000000000000000001",
          "blockHash": "0xeb4ff152f1c974141e1afdb5fdd441212bff725c650e6eb6637d84d926549259",
          "blockNumber": "0x2ab4ae1",
          "transactionHash": "0x7869c6a8e1928343499424e4655ca6be6a4dd606badf8de2c7ac417b1f6a9c22",
          "transactionIndex": "0x2",
          "logIndex": "0x8",
          "removed": false
        },
        {
          "address": "0x8263007844439F1A1423AE633994B6245e4508Bc",
          "topics": [
            "0xf2dc9a29f1b257c57ef50cb6c0230cacc6af60a01e5e51bde6ee1657f214a347"
          ],
          "data": "0xd0ba79fb85a4e2afb6c07bdc8b33fabaebc39574b5f2ba7ec0b997781344bb6d",
          "blockHash": "0xeb4ff152f1c974141e1afdb5fdd441212bff725c650e6eb6637d84d926549259",
          "blockNumber": "0x2ab4ae1",
          "transactionHash": "0x7869c6a8e1928343499424e4655ca6be6a4dd606badf8de2c7ac417b1f6a9c22",
          "transactionIndex": "0x2",
          "logIndex": "0x9",
          "removed": false
        },
        {
          "address": "0x8263007844439F1A1423AE633994B6245e4508Bc",
          "topics": [
            "0xddf252ad1be2c89b69c2b068fc378daa952ba7f163c4a11628f55a4df523b3ef",
            "0x0000000000000000000000000000000000000000000000000000000000000000",
            "0x000000000000000000000000d4c7e8652c97127ee260057e2dc245d42f21dda7",
            "0x0000000000000000000000000000000000000000000000000000000000000905"
          ],
          "data": "0x",
          "blockHash": "0xeb4ff152f1c974141e1afdb5fdd441212bff725c650e6eb6637d84d926549259",
          "blockNumber": "0x2ab4ae1",
          "transactionHash": "0x7869c6a8e1928343499424e4655ca6be6a4dd606badf8de2c7ac417b1f6a9c22",
          "transactionIndex": "0x2",
          "logIndex": "0xa",
          "removed": false
        },
        {
          "address": "0x8263007844439F1A1423AE633994B6245e4508Bc",
          "topics": [
            "0xddf252ad1be2c89b69c2b068fc378daa952ba7f163c4a11628f55a4df523b3ef",
            "0x0000000000000000000000000000000000000000000000000000000000000000",
            "0x000000000000000000000000d4c7e8652c97127ee260057e2dc245d42f21dda7",
            "0x0000000000000000000000000000000000000000000000000000000000000906"
          ],
          "data": "0x",
          "blockHash": "0xeb4ff152f1c974141e1afdb5fdd441212bff725c650e6eb6637d84d926549259",
          "blockNumber": "0x2ab4ae1",
          "transactionHash": "0x7869c6a8e1928343499424e4655ca6be6a4dd606badf8de2c7ac417b1f6a9c22",
          "transactionIndex": "0x2",
          "logIndex": "0xb",
          "removed": false
        },
        {
          "address": "0x8263007844439F1A1423AE633994B6245e4508Bc",
          "topics": [
            "0xddf252ad1be2c89b69c2b068fc378daa952ba7f163c4a11628f55a4df523b3ef",
            "0x0000000000000000000000000000000000000000000000000000000000000000",
            "0x000000000000000000000000d4c7e8652c97127ee260057e2dc245d42f21dda7",
            "0x0000000000000000000000000000000000000000000000000000000000000907"
          ],
          "data": "0x",
          "blockHash": "0xeb4ff152f1c974141e1afdb5fdd441212bff725c650e6eb6637d84d926549259",
          "blockNumber": "0x2ab4ae1",
          "transactionHash": "0x7869c6a8e1928343499424e4655ca6be6a4dd606badf8de2c7ac417b1f6a9c22",
          "transactionIndex": "0x2",
          "logIndex": "0xc",
          "removed": false
        },
        {
          "address": "0x8263007844439F1A1423AE633994B6245e4508Bc",
          "topics": [
            "0xddf252ad1be2c89b69c2b068fc378daa952ba7f163c4a11628f55a4df523b3ef",
            "0x0000000000000000000000000000000000000000000000000000000000000000",
            "0x000000000000000000000000d4c7e8652c97127ee260057e2dc245d42f21dda7",
            "0x0000000000000000000000000000000000000000000000000000000000000908"
          ],
          "data": "0x",
          "blockHash": "0xeb4ff152f1c974141e1afdb5fdd441212bff725c650e6eb6637d84d926549259",
          "blockNumber": "0x2ab4ae1",
          "transactionHash": "0x7869c6a8e1928343499424e4655ca6be6a4dd606badf8de2c7ac417b1f6a9c22",
          "transactionIndex": "0x2",
          "logIndex": "0xd",
          "removed": false
        },
        {
          "address": "0x8263007844439F1A1423AE633994B6245e4508Bc",
          "topics": [
            "0xddf252ad1be2c89b69c2b068fc378daa952ba7f163c4a11628f55a4df523b3ef",
            "0x0000000000000000000000000000000000000000000000000000000000000000",
            "0x000000000000000000000000d4c7e8652c97127ee260057e2dc245d42f21dda7",
            "0x0000000000000000000000000000000000000000000000000000000000000909"
          ],
          "data": "0x",
          "blockHash": "0xeb4ff152f1c974141e1afdb5fdd441212bff725c650e6eb6637d84d926549259",
          "blockNumber": "0x2ab4ae1",
          "transactionHash": "0x7869c6a8e1928343499424e4655ca6be6a4dd606badf8de2c7ac417b1f6a9c22",
          "transactionIndex": "0x2",
          "logIndex": "0xe",
          "removed": false
        },
        {
          "address": "0x8263007844439F1A1423AE633994B6245e4508Bc",
          "topics": [
            "0xddf252ad1be2c89b69c2b068fc378daa952ba7f163c4a11628f55a4df523b3ef",
            "0x0000000000000000000000000000000000000000000000000000000000000000",
            "0x000000000000000000000000d4c7e8652c97127ee260057e2dc245d42f21dda7",
            "0x000000000000000000000000000000000000000000000000000000000000090a"
          ],
          "data": "0x",
          "blockHash": "0xeb4ff152f1c974141e1afdb5fdd441212bff725c650e6eb6637d84d926549259",
          "blockNumber": "0x2ab4ae1",
          "transactionHash": "0x7869c6a8e1928343499424e4655ca6be6a4dd606badf8de2c7ac417b1f6a9c22",
          "transactionIndex": "0x2",
          "logIndex": "0xf",
          "removed": false
        },
        {
          "address": "0x8263007844439F1A1423AE633994B6245e4508Bc",
          "topics": [
            "0xddf252ad1be2c89b69c2b068fc378daa952ba7f163c4a11628f55a4df523b3ef",
            "0x0000000000000000000000000000000000000000000000000000000000000000",
            "0x000000000000000000000000d4c7e8652c97127ee260057e2dc245d42f21dda7",
            "0x000000000000000000000000000000000000000000000000000000000000090b"
          ],
          "data": "0x",
          "blockHash": "0xeb4ff152f1c974141e1afdb5fdd441212bff725c650e6eb6637d84d926549259",
          "blockNumber": "0x2ab4ae1",
          "transactionHash": "0x7869c6a8e1928343499424e4655ca6be6a4dd606badf8de2c7ac417b1f6a9c22",
          "transactionIndex": "0x2",
          "logIndex": "0x10",
          "removed": false
        },
        {
          "address": "0x8263007844439F1A1423AE633994B6245e4508Bc",
          "topics": [
            "0xddf252ad1be2c89b69c2b068fc378daa952ba7f163c4a11628f55a4df523b3ef",
            "0x0000000000000000000000000000000000000000000000000000000000000000",
            "0x000000000000000000000000d4c7e8652c97127ee260057e2dc245d42f21dda7",
            "0x000000000000000000000000000000000000000000000000000000000000090c"
          ],
          "data": "0x",
          "blockHash": "0xeb4ff152f1c974141e1afdb5fdd441212bff725c650e6eb6637d84d926549259",
          "blockNumber": "0x2ab4ae1",
          "transactionHash": "0x7869c6a8e1928343499424e4655ca6be6a4dd606badf8de2c7ac417b1f6a9c22",
          "transactionIndex": "0x2",
          "logIndex": "0x11",
          "removed": false
        },
        {
          "address": "0x8263007844439F1A1423AE633994B6245e4508Bc",
          "topics": [
            "0xddf252ad1be2c89b69c2b068fc378daa952ba7f163c4a11628f55a4df523b3ef",
            "0x0000000000000000000000000000000000000000000000000000000000000000",
            "0x000000000000000000000000d4c7e8652c97127ee260057e2dc245d42f21dda7",
            "0x000000000000000000000000000000000000000000000000000000000000090d"
          ],
          "data": "0x",
          "blockHash": "0xeb4ff152f1c974141e1afdb5fdd441212bff725c650e6eb6637d84d926549259",
          "blockNumber": "0x2ab4ae1",
          "transactionHash": "0x7869c6a8e1928343499424e4655ca6be6a4dd606badf8de2c7ac417b1f6a9c22",
          "transactionIndex": "0x2",
          "logIndex": "0x12",
          "removed": false
        },
        {
          "address": "0x8263007844439F1A1423AE633994B6245e4508Bc",
          "topics": [
            "0xddf252ad1be2c89b69c2b068fc378daa952ba7f163c4a11628f55a4df523b3ef",
            "0x0000000000000000000000000000000000000000000000000000000000000000",
            "0x000000000000000000000000d4c7e8652c97127ee260057e2dc245d42f21dda7",
            "0x000000000000000000000000000000000000000000000000000000000000090e"
          ],
          "data": "0x",
          "blockHash": "0xeb4ff152f1c974141e1afdb5fdd441212bff725c650e6eb6637d84d926549259",
          "blockNumber": "0x2ab4ae1",
          "transactionHash": "0x7869c6a8e1928343499424e4655ca6be6a4dd606badf8de2c7ac417b1f6a9c22",
          "transactionIndex": "0x2",
          "logIndex": "0x13",
          "removed": false
        },
        {
          "address": "0x0000000000000000000000000000000000001010",
          "topics": [
            "0x4dfe1bbbcf077ddc3e01291eea2d5c70c2b422b415d95645b9adcfd678cb1d63",
            "0x0000000000000000000000000000000000000000000000000000000000001010",
            "0x000000000000000000000000d4c7e8652c97127ee260057e2dc245d42f21dda7",
            "0x000000000000000000000000f903ba9e006193c1527bfbe65fe2123704ea3f99"
          ],
          "data": "0x00000000000000000000000000000000000000000000000000a1f40d7bd934000000000000000000000000000000000000000000000000001be7b3f0ce88cc8e0000000000000000000000000000000000000000000012a23ebfffe494dde3460000000000000000000000000000000000000000000000001b45bfe352af988e0000000000000000000000000000000000000000000012a23f61f3f210b71746",
          "blockHash": "0xeb4ff152f1c974141e1afdb5fdd441212bff725c650e6eb6637d84d926549259",
          "blockNumber": "0x2ab4ae1",
          "transactionHash": "0x7869c6a8e1928343499424e4655ca6be6a4dd606badf8de2c7ac417b1f6a9c22",
          "transactionIndex": "0x2",
          "logIndex": "0x14",
          "removed": false
        }
      ],
      "status": "0x1",
      "logsBloom": "0x0200000000000200040400a000000008040000000000000000000010800004000020000000000020004000100000000060408000000010000008000000000000000440800000000800000008040122800000000000001000000100000000000000000080020000000000000100005800100004200080000080000012000000000000000808000000800000000000001000000800085000000000000100080000200000000000400000000000000008000010000040000000000000000000004000000802000010000001000000004000100000000000800000128000001020000008000000000100000100000200000000080000000000000020001000100000",
      "type": "0x2",
      "effectiveGasPrice": "0x6fc23ac10"
    },
    {
      "transactionHash": "0x86aa22619284d083f60424ce2c529b388ed93ff888dac320b28610ff21f63694",
      "transactionIndex": "0x0",
      "blockHash": "0x970be86a8eef0a16234ab29d408774c6c099be97b2a093660835e1274569d73a",
      "blockNumber": "0x2ab4ae4",
      "from": "0x298334B4895392b0BA15261194cF1642A4adf9Fc",
      "to": "0x8263007844439F1A1423AE633994B6245e4508Bc",
      "cumulativeGasUsed": "0x172fa7",
      "gasUsed": "0x172fa7",
      "contractAddress": null,
      "logs": [
        {
          "address": "0x0000000000000000000000000000000000001010",
          "topics": [
            "0xe6497e3ee548a3372136af2fcb0696db31fc6cf20260707645068bd3fe97f3c4",
            "0x0000000000000000000000000000000000000000000000000000000000001010",
            "0x000000000000000000000000298334b4895392b0ba15261194cf1642a4adf9fc",
            "0x0000000000000000000000008263007844439f1a1423ae633994b6245e4508bc"
          ],
          "data": "0x000000000000000000000000000000000000000000000000001b26dee898c93000000000000000000000000000000000000000000000000041238645dccefa89000000000000000000000000000000000000000000000000000000000000000000000000000000000000000000000000000000000000000041085f66f4363159000000000000000000000000000000000000000000000000001b26dee898c930",
          "blockHash": "0x970be86a8eef0a16234ab29d408774c6c099be97b2a093660835e1274569d73a",
          "blockNumber": "0x2ab4ae4",
          "transactionHash": "0x86aa22619284d083f60424ce2c529b388ed93ff888dac320b28610ff21f63694",
          "transactionIndex": "0x0",
          "logIndex": "0x0",
          "removed": false
        },
        {
          "address": "0x0000000000000000000000000000000000001010",
          "topics": [
            "0xe6497e3ee548a3372136af2fcb0696db31fc6cf20260707645068bd3fe97f3c4",
            "0x0000000000000000000000000000000000000000000000000000000000001010",
            "0x0000000000000000000000008263007844439f1a1423ae633994b6245e4508bc",
            "0x0000000000000000000000003f512308d9312d184e8e2a13e47c99d1c9a6956a"
          ],
          "data": "0x000000000000000000000000000000000000000000000000001b26dee898c930000000000000000000000000000000000000000000000000001b26dee898c93000000000000000000000000000000000000000000000000012d7818c7db57406000000000000000000000000000000000000000000000000000000000000000000000000000000000000000000000000000000000000000012f2a86b664e3d36",
          "blockHash": "0x970be86a8eef0a16234ab29d408774c6c099be97b2a093660835e1274569d73a",
          "blockNumber": "0x2ab4ae4",
          "transactionHash": "0x86aa22619284d083f60424ce2c529b388ed93ff888dac320b28610ff21f63694",
          "transactionIndex": "0x0",
          "logIndex": "0x1",
          "removed": false
        },
        {
          "address": "0x3f512308d9312d184E8E2a13E47C99D1c9A6956A",
          "topics": [
            "0x8e47b87b0ef542cdfa1659c551d88bad38aa7f452d2bbb349ab7530dfec8be8f"
          ],
          "data": "0x0000000000000000000000008263007844439f1a1423ae633994b6245e4508bc000000000000000000000000000000000000000000000000001b26dee898c930",
          "blockHash": "0x970be86a8eef0a16234ab29d408774c6c099be97b2a093660835e1274569d73a",
          "blockNumber": "0x2ab4ae4",
          "transactionHash": "0x86aa22619284d083f60424ce2c529b388ed93ff888dac320b28610ff21f63694",
          "transactionIndex": "0x0",
          "logIndex": "0x2",
          "removed": false
        },
        {
          "address": "0x7a1BaC17Ccc5b313516C5E16fb24f7659aA5ebed",
          "topics": [
            "0x63373d1c4696214b898952999c9aaec57dac1ee2723cec59bea6888f489a9772",
            "0x4b09e658ed251bcafeebbc69400383d49f344ace09b9576fe248bb02c003fe9f",
            "0x0000000000000000000000000000000000000000000000000000000000000b33",
            "0x0000000000000000000000008263007844439f1a1423ae633994b6245e4508bc"
          ],
          "data": "0xc0c176a3d2a9fdc9ffb4e78ad2e12f7b291c6e46fad4c14bf574e4aa74022df36dcffdadda092670d2108d15633bd4877d0fdd94a9366189dc21f5115efdac6e000000000000000000000000000000000000000000000000000000000000000300000000000000000000000000000000000000000000000000000000000f42400000000000000000000000000000000000000000000000000000000000000001",
          "blockHash": "0x970be86a8eef0a16234ab29d408774c6c099be97b2a093660835e1274569d73a",
          "blockNumber": "0x2ab4ae4",
          "transactionHash": "0x86aa22619284d083f60424ce2c529b388ed93ff888dac320b28610ff21f63694",
          "transactionIndex": "0x0",
          "logIndex": "0x3",
          "removed": false
        },
        {
          "address": "0x8263007844439F1A1423AE633994B6245e4508Bc",
          "topics": [
            "0xf2dc9a29f1b257c57ef50cb6c0230cacc6af60a01e5e51bde6ee1657f214a347"
          ],
          "data": "0xc0c176a3d2a9fdc9ffb4e78ad2e12f7b291c6e46fad4c14bf574e4aa74022df3",
          "blockHash": "0x970be86a8eef0a16234ab29d408774c6c099be97b2a093660835e1274569d73a",
          "blockNumber": "0x2ab4ae4",
          "transactionHash": "0x86aa22619284d083f60424ce2c529b388ed93ff888dac320b28610ff21f63694",
          "transactionIndex": "0x0",
          "logIndex": "0x4",
          "removed": false
        },
        {
          "address": "0x8263007844439F1A1423AE633994B6245e4508Bc",
          "topics": [
            "0xddf252ad1be2c89b69c2b068fc378daa952ba7f163c4a11628f55a4df523b3ef",
            "0x0000000000000000000000000000000000000000000000000000000000000000",
            "0x000000000000000000000000298334b4895392b0ba15261194cf1642a4adf9fc",
            "0x000000000000000000000000000000000000000000000000000000000000090f"
          ],
          "data": "0x",
          "blockHash": "0x970be86a8eef0a16234ab29d408774c6c099be97b2a093660835e1274569d73a",
          "blockNumber": "0x2ab4ae4",
          "transactionHash": "0x86aa22619284d083f60424ce2c529b388ed93ff888dac320b28610ff21f63694",
          "transactionIndex": "0x0",
          "logIndex": "0x5",
          "removed": false
        },
        {
          "address": "0x8263007844439F1A1423AE633994B6245e4508Bc",
          "topics": [
            "0xddf252ad1be2c89b69c2b068fc378daa952ba7f163c4a11628f55a4df523b3ef",
            "0x0000000000000000000000000000000000000000000000000000000000000000",
            "0x000000000000000000000000298334b4895392b0ba15261194cf1642a4adf9fc",
            "0x0000000000000000000000000000000000000000000000000000000000000910"
          ],
          "data": "0x",
          "blockHash": "0x970be86a8eef0a16234ab29d408774c6c099be97b2a093660835e1274569d73a",
          "blockNumber": "0x2ab4ae4",
          "transactionHash": "0x86aa22619284d083f60424ce2c529b388ed93ff888dac320b28610ff21f63694",
          "transactionIndex": "0x0",
          "logIndex": "0x6",
          "removed": false
        },
        {
          "address": "0x8263007844439F1A1423AE633994B6245e4508Bc",
          "topics": [
            "0xddf252ad1be2c89b69c2b068fc378daa952ba7f163c4a11628f55a4df523b3ef",
            "0x0000000000000000000000000000000000000000000000000000000000000000",
            "0x000000000000000000000000298334b4895392b0ba15261194cf1642a4adf9fc",
            "0x0000000000000000000000000000000000000000000000000000000000000911"
          ],
          "data": "0x",
          "blockHash": "0x970be86a8eef0a16234ab29d408774c6c099be97b2a093660835e1274569d73a",
          "blockNumber": "0x2ab4ae4",
          "transactionHash": "0x86aa22619284d083f60424ce2c529b388ed93ff888dac320b28610ff21f63694",
          "transactionIndex": "0x0",
          "logIndex": "0x7",
          "removed": false
        },
        {
          "address": "0x8263007844439F1A1423AE633994B6245e4508Bc",
          "topics": [
            "0xddf252ad1be2c89b69c2b068fc378daa952ba7f163c4a11628f55a4df523b3ef",
            "0x0000000000000000000000000000000000000000000000000000000000000000",
            "0x000000000000000000000000298334b4895392b0ba15261194cf1642a4adf9fc",
            "0x0000000000000000000000000000000000000000000000000000000000000912"
          ],
          "data": "0x",
          "blockHash": "0x970be86a8eef0a16234ab29d408774c6c099be97b2a093660835e1274569d73a",
          "blockNumber": "0x2ab4ae4",
          "transactionHash": "0x86aa22619284d083f60424ce2c529b388ed93ff888dac320b28610ff21f63694",
          "transactionIndex": "0x0",
          "logIndex": "0x8",
          "removed": false
        },
        {
          "address": "0x8263007844439F1A1423AE633994B6245e4508Bc",
          "topics": [
            "0xddf252ad1be2c89b69c2b068fc378daa952ba7f163c4a11628f55a4df523b3ef",
            "0x0000000000000000000000000000000000000000000000000000000000000000",
            "0x000000000000000000000000298334b4895392b0ba15261194cf1642a4adf9fc",
            "0x0000000000000000000000000000000000000000000000000000000000000913"
          ],
          "data": "0x",
          "blockHash": "0x970be86a8eef0a16234ab29d408774c6c099be97b2a093660835e1274569d73a",
          "blockNumber": "0x2ab4ae4",
          "transactionHash": "0x86aa22619284d083f60424ce2c529b388ed93ff888dac320b28610ff21f63694",
          "transactionIndex": "0x0",
          "logIndex": "0x9",
          "removed": false
        },
        {
          "address": "0x8263007844439F1A1423AE633994B6245e4508Bc",
          "topics": [
            "0xddf252ad1be2c89b69c2b068fc378daa952ba7f163c4a11628f55a4df523b3ef",
            "0x0000000000000000000000000000000000000000000000000000000000000000",
            "0x000000000000000000000000298334b4895392b0ba15261194cf1642a4adf9fc",
            "0x0000000000000000000000000000000000000000000000000000000000000914"
          ],
          "data": "0x",
          "blockHash": "0x970be86a8eef0a16234ab29d408774c6c099be97b2a093660835e1274569d73a",
          "blockNumber": "0x2ab4ae4",
          "transactionHash": "0x86aa22619284d083f60424ce2c529b388ed93ff888dac320b28610ff21f63694",
          "transactionIndex": "0x0",
          "logIndex": "0xa",
          "removed": false
        },
        {
          "address": "0x8263007844439F1A1423AE633994B6245e4508Bc",
          "topics": [
            "0xddf252ad1be2c89b69c2b068fc378daa952ba7f163c4a11628f55a4df523b3ef",
            "0x0000000000000000000000000000000000000000000000000000000000000000",
            "0x000000000000000000000000298334b4895392b0ba15261194cf1642a4adf9fc",
            "0x0000000000000000000000000000000000000000000000000000000000000915"
          ],
          "data": "0x",
          "blockHash": "0x970be86a8eef0a16234ab29d408774c6c099be97b2a093660835e1274569d73a",
          "blockNumber": "0x2ab4ae4",
          "transactionHash": "0x86aa22619284d083f60424ce2c529b388ed93ff888dac320b28610ff21f63694",
          "transactionIndex": "0x0",
          "logIndex": "0xb",
          "removed": false
        },
        {
          "address": "0x8263007844439F1A1423AE633994B6245e4508Bc",
          "topics": [
            "0xddf252ad1be2c89b69c2b068fc378daa952ba7f163c4a11628f55a4df523b3ef",
            "0x0000000000000000000000000000000000000000000000000000000000000000",
            "0x000000000000000000000000298334b4895392b0ba15261194cf1642a4adf9fc",
            "0x0000000000000000000000000000000000000000000000000000000000000916"
          ],
          "data": "0x",
          "blockHash": "0x970be86a8eef0a16234ab29d408774c6c099be97b2a093660835e1274569d73a",
          "blockNumber": "0x2ab4ae4",
          "transactionHash": "0x86aa22619284d083f60424ce2c529b388ed93ff888dac320b28610ff21f63694",
          "transactionIndex": "0x0",
          "logIndex": "0xc",
          "removed": false
        },
        {
          "address": "0x8263007844439F1A1423AE633994B6245e4508Bc",
          "topics": [
            "0xddf252ad1be2c89b69c2b068fc378daa952ba7f163c4a11628f55a4df523b3ef",
            "0x0000000000000000000000000000000000000000000000000000000000000000",
            "0x000000000000000000000000298334b4895392b0ba15261194cf1642a4adf9fc",
            "0x0000000000000000000000000000000000000000000000000000000000000917"
          ],
          "data": "0x",
          "blockHash": "0x970be86a8eef0a16234ab29d408774c6c099be97b2a093660835e1274569d73a",
          "blockNumber": "0x2ab4ae4",
          "transactionHash": "0x86aa22619284d083f60424ce2c529b388ed93ff888dac320b28610ff21f63694",
          "transactionIndex": "0x0",
          "logIndex": "0xd",
          "removed": false
        },
        {
          "address": "0x8263007844439F1A1423AE633994B6245e4508Bc",
          "topics": [
            "0xddf252ad1be2c89b69c2b068fc378daa952ba7f163c4a11628f55a4df523b3ef",
            "0x0000000000000000000000000000000000000000000000000000000000000000",
            "0x000000000000000000000000298334b4895392b0ba15261194cf1642a4adf9fc",
            "0x0000000000000000000000000000000000000000000000000000000000000918"
          ],
          "data": "0x",
          "blockHash": "0x970be86a8eef0a16234ab29d408774c6c099be97b2a093660835e1274569d73a",
          "blockNumber": "0x2ab4ae4",
          "transactionHash": "0x86aa22619284d083f60424ce2c529b388ed93ff888dac320b28610ff21f63694",
          "transactionIndex": "0x0",
          "logIndex": "0xe",
          "removed": false
        },
        {
          "address": "0x0000000000000000000000000000000000001010",
          "topics": [
            "0x4dfe1bbbcf077ddc3e01291eea2d5c70c2b422b415d95645b9adcfd678cb1d63",
            "0x0000000000000000000000000000000000000000000000000000000000001010",
            "0x000000000000000000000000298334b4895392b0ba15261194cf1642a4adf9fc",
            "0x000000000000000000000000f903ba9e006193c1527bfbe65fe2123704ea3f99"
          ],
          "data": "0x00000000000000000000000000000000000000000000000000a1f40d7bd93400000000000000000000000000000000000000000000000000420338f3d2db8c690000000000000000000000000000000000000000000012a23f7cdfbfe78f11e8000000000000000000000000000000000000000000000000416144e6570258690000000000000000000000000000000000000000000012a2401ed3cd636845e8",
          "blockHash": "0x970be86a8eef0a16234ab29d408774c6c099be97b2a093660835e1274569d73a",
          "blockNumber": "0x2ab4ae4",
          "transactionHash": "0x86aa22619284d083f60424ce2c529b388ed93ff888dac320b28610ff21f63694",
          "transactionIndex": "0x0",
          "logIndex": "0xf",
          "removed": false
        }
      ],
      "status": "0x1",
      "logsBloom": "0x420002000000000204040020000000080400000000000000000000100000040000004002000000600000003000000000200080100000000000080000000000000008008000000088000000080000228000000000000010000001000000010800000000a0020000000000000100800800000804200000000084000010008000000000000000000000000000000000001000000000004000101000000200000000200000000000400000000000000000000010000000000000000000000000004100001002000010000001000000024000000000000000800000128000001020000008000000040100000100000200000000080408000200010000008000100000",
      "type": "0x2",
      "effectiveGasPrice": "0x6fc23ac10"
    },
    {
      "transactionHash": "0x5e3a32c4b51f2a4df218c0a5c5af55c532bc08a68a6a546e171bbb275de1612e",
      "transactionIndex": "0x0",
      "blockHash": "0x47149e81737423858c825fbe5e9f25254aae28ec23ac9b7b0d9d3cfacc51fc7a",
      "blockNumber": "0x2ab4ae8",
      "from": "0xF92D18CdFa0EE4C76701d54dEd6fB20ca635F1A2",
      "to": "0x8263007844439F1A1423AE633994B6245e4508Bc",
      "cumulativeGasUsed": "0x172fa7",
      "gasUsed": "0x172fa7",
      "contractAddress": null,
      "logs": [
        {
          "address": "0x0000000000000000000000000000000000001010",
          "topics": [
            "0xe6497e3ee548a3372136af2fcb0696db31fc6cf20260707645068bd3fe97f3c4",
            "0x0000000000000000000000000000000000000000000000000000000000001010",
            "0x000000000000000000000000f92d18cdfa0ee4c76701d54ded6fb20ca635f1a2",
            "0x0000000000000000000000008263007844439f1a1423ae633994b6245e4508bc"
          ],
          "data": "0x000000000000000000000000000000000000000000000000001b26dee898c9300000000000000000000000000000000000000000000000001137568beb9603100000000000000000000000000000000000000000000000000000000000000000000000000000000000000000000000000000000000000000111c2fad02fd39e0000000000000000000000000000000000000000000000000001b26dee898c930",
          "blockHash": "0x47149e81737423858c825fbe5e9f25254aae28ec23ac9b7b0d9d3cfacc51fc7a",
          "blockNumber": "0x2ab4ae8",
          "transactionHash": "0x5e3a32c4b51f2a4df218c0a5c5af55c532bc08a68a6a546e171bbb275de1612e",
          "transactionIndex": "0x0",
          "logIndex": "0x0",
          "removed": false
        },
        {
          "address": "0x0000000000000000000000000000000000001010",
          "topics": [
            "0xe6497e3ee548a3372136af2fcb0696db31fc6cf20260707645068bd3fe97f3c4",
            "0x0000000000000000000000000000000000000000000000000000000000001010",
            "0x0000000000000000000000008263007844439f1a1423ae633994b6245e4508bc",
            "0x0000000000000000000000003f512308d9312d184e8e2a13e47c99d1c9a6956a"
          ],
          "data": "0x000000000000000000000000000000000000000000000000001b26dee898c930000000000000000000000000000000000000000000000000001b26dee898c93000000000000000000000000000000000000000000000000012f2a86b664e3d360000000000000000000000000000000000000000000000000000000000000000000000000000000000000000000000000000000000000000130dcf4a4ee70666",
          "blockHash": "0x47149e81737423858c825fbe5e9f25254aae28ec23ac9b7b0d9d3cfacc51fc7a",
          "blockNumber": "0x2ab4ae8",
          "transactionHash": "0x5e3a32c4b51f2a4df218c0a5c5af55c532bc08a68a6a546e171bbb275de1612e",
          "transactionIndex": "0x0",
          "logIndex": "0x1",
          "removed": false
        },
        {
          "address": "0x3f512308d9312d184E8E2a13E47C99D1c9A6956A",
          "topics": [
            "0x8e47b87b0ef542cdfa1659c551d88bad38aa7f452d2bbb349ab7530dfec8be8f"
          ],
          "data": "0x0000000000000000000000008263007844439f1a1423ae633994b6245e4508bc000000000000000000000000000000000000000000000000001b26dee898c930",
          "blockHash": "0x47149e81737423858c825fbe5e9f25254aae28ec23ac9b7b0d9d3cfacc51fc7a",
          "blockNumber": "0x2ab4ae8",
          "transactionHash": "0x5e3a32c4b51f2a4df218c0a5c5af55c532bc08a68a6a546e171bbb275de1612e",
          "transactionIndex": "0x0",
          "logIndex": "0x2",
          "removed": false
        },
        {
          "address": "0x7a1BaC17Ccc5b313516C5E16fb24f7659aA5ebed",
          "topics": [
            "0x63373d1c4696214b898952999c9aaec57dac1ee2723cec59bea6888f489a9772",
            "0x4b09e658ed251bcafeebbc69400383d49f344ace09b9576fe248bb02c003fe9f",
            "0x0000000000000000000000000000000000000000000000000000000000000b33",
            "0x0000000000000000000000008263007844439f1a1423ae633994b6245e4508bc"
          ],
          "data": "0xf79086064431ad2bac73c38738beda66ce341b223979920dd8d5f74e4367aa450cbb0bb74be4de8b571a7acfa63a56082e3b8908b7dca6ce8bc3401439e9b8b5000000000000000000000000000000000000000000000000000000000000000300000000000000000000000000000000000000000000000000000000000f42400000000000000000000000000000000000000000000000000000000000000001",
          "blockHash": "0x47149e81737423858c825fbe5e9f25254aae28ec23ac9b7b0d9d3cfacc51fc7a",
          "blockNumber": "0x2ab4ae8",
          "transactionHash": "0x5e3a32c4b51f2a4df218c0a5c5af55c532bc08a68a6a546e171bbb275de1612e",
          "transactionIndex": "0x0",
          "logIndex": "0x3",
          "removed": false
        },
        {
          "address": "0x8263007844439F1A1423AE633994B6245e4508Bc",
          "topics": [
            "0xf2dc9a29f1b257c57ef50cb6c0230cacc6af60a01e5e51bde6ee1657f214a347"
          ],
          "data": "0xf79086064431ad2bac73c38738beda66ce341b223979920dd8d5f74e4367aa45",
          "blockHash": "0x47149e81737423858c825fbe5e9f25254aae28ec23ac9b7b0d9d3cfacc51fc7a",
          "blockNumber": "0x2ab4ae8",
          "transactionHash": "0x5e3a32c4b51f2a4df218c0a5c5af55c532bc08a68a6a546e171bbb275de1612e",
          "transactionIndex": "0x0",
          "logIndex": "0x4",
          "removed": false
        },
        {
          "address": "0x8263007844439F1A1423AE633994B6245e4508Bc",
          "topics": [
            "0xddf252ad1be2c89b69c2b068fc378daa952ba7f163c4a11628f55a4df523b3ef",
            "0x0000000000000000000000000000000000000000000000000000000000000000",
            "0x000000000000000000000000f92d18cdfa0ee4c76701d54ded6fb20ca635f1a2",
            "0x0000000000000000000000000000000000000000000000000000000000000919"
          ],
          "data": "0x",
          "blockHash": "0x47149e81737423858c825fbe5e9f25254aae28ec23ac9b7b0d9d3cfacc51fc7a",
          "blockNumber": "0x2ab4ae8",
          "transactionHash": "0x5e3a32c4b51f2a4df218c0a5c5af55c532bc08a68a6a546e171bbb275de1612e",
          "transactionIndex": "0x0",
          "logIndex": "0x5",
          "removed": false
        },
        {
          "address": "0x8263007844439F1A1423AE633994B6245e4508Bc",
          "topics": [
            "0xddf252ad1be2c89b69c2b068fc378daa952ba7f163c4a11628f55a4df523b3ef",
            "0x0000000000000000000000000000000000000000000000000000000000000000",
            "0x000000000000000000000000f92d18cdfa0ee4c76701d54ded6fb20ca635f1a2",
            "0x000000000000000000000000000000000000000000000000000000000000091a"
          ],
          "data": "0x",
          "blockHash": "0x47149e81737423858c825fbe5e9f25254aae28ec23ac9b7b0d9d3cfacc51fc7a",
          "blockNumber": "0x2ab4ae8",
          "transactionHash": "0x5e3a32c4b51f2a4df218c0a5c5af55c532bc08a68a6a546e171bbb275de1612e",
          "transactionIndex": "0x0",
          "logIndex": "0x6",
          "removed": false
        },
        {
          "address": "0x8263007844439F1A1423AE633994B6245e4508Bc",
          "topics": [
            "0xddf252ad1be2c89b69c2b068fc378daa952ba7f163c4a11628f55a4df523b3ef",
            "0x0000000000000000000000000000000000000000000000000000000000000000",
            "0x000000000000000000000000f92d18cdfa0ee4c76701d54ded6fb20ca635f1a2",
            "0x000000000000000000000000000000000000000000000000000000000000091b"
          ],
          "data": "0x",
          "blockHash": "0x47149e81737423858c825fbe5e9f25254aae28ec23ac9b7b0d9d3cfacc51fc7a",
          "blockNumber": "0x2ab4ae8",
          "transactionHash": "0x5e3a32c4b51f2a4df218c0a5c5af55c532bc08a68a6a546e171bbb275de1612e",
          "transactionIndex": "0x0",
          "logIndex": "0x7",
          "removed": false
        },
        {
          "address": "0x8263007844439F1A1423AE633994B6245e4508Bc",
          "topics": [
            "0xddf252ad1be2c89b69c2b068fc378daa952ba7f163c4a11628f55a4df523b3ef",
            "0x0000000000000000000000000000000000000000000000000000000000000000",
            "0x000000000000000000000000f92d18cdfa0ee4c76701d54ded6fb20ca635f1a2",
            "0x000000000000000000000000000000000000000000000000000000000000091c"
          ],
          "data": "0x",
          "blockHash": "0x47149e81737423858c825fbe5e9f25254aae28ec23ac9b7b0d9d3cfacc51fc7a",
          "blockNumber": "0x2ab4ae8",
          "transactionHash": "0x5e3a32c4b51f2a4df218c0a5c5af55c532bc08a68a6a546e171bbb275de1612e",
          "transactionIndex": "0x0",
          "logIndex": "0x8",
          "removed": false
        },
        {
          "address": "0x8263007844439F1A1423AE633994B6245e4508Bc",
          "topics": [
            "0xddf252ad1be2c89b69c2b068fc378daa952ba7f163c4a11628f55a4df523b3ef",
            "0x0000000000000000000000000000000000000000000000000000000000000000",
            "0x000000000000000000000000f92d18cdfa0ee4c76701d54ded6fb20ca635f1a2",
            "0x000000000000000000000000000000000000000000000000000000000000091d"
          ],
          "data": "0x",
          "blockHash": "0x47149e81737423858c825fbe5e9f25254aae28ec23ac9b7b0d9d3cfacc51fc7a",
          "blockNumber": "0x2ab4ae8",
          "transactionHash": "0x5e3a32c4b51f2a4df218c0a5c5af55c532bc08a68a6a546e171bbb275de1612e",
          "transactionIndex": "0x0",
          "logIndex": "0x9",
          "removed": false
        },
        {
          "address": "0x8263007844439F1A1423AE633994B6245e4508Bc",
          "topics": [
            "0xddf252ad1be2c89b69c2b068fc378daa952ba7f163c4a11628f55a4df523b3ef",
            "0x0000000000000000000000000000000000000000000000000000000000000000",
            "0x000000000000000000000000f92d18cdfa0ee4c76701d54ded6fb20ca635f1a2",
            "0x000000000000000000000000000000000000000000000000000000000000091e"
          ],
          "data": "0x",
          "blockHash": "0x47149e81737423858c825fbe5e9f25254aae28ec23ac9b7b0d9d3cfacc51fc7a",
          "blockNumber": "0x2ab4ae8",
          "transactionHash": "0x5e3a32c4b51f2a4df218c0a5c5af55c532bc08a68a6a546e171bbb275de1612e",
          "transactionIndex": "0x0",
          "logIndex": "0xa",
          "removed": false
        },
        {
          "address": "0x8263007844439F1A1423AE633994B6245e4508Bc",
          "topics": [
            "0xddf252ad1be2c89b69c2b068fc378daa952ba7f163c4a11628f55a4df523b3ef",
            "0x0000000000000000000000000000000000000000000000000000000000000000",
            "0x000000000000000000000000f92d18cdfa0ee4c76701d54ded6fb20ca635f1a2",
            "0x000000000000000000000000000000000000000000000000000000000000091f"
          ],
          "data": "0x",
          "blockHash": "0x47149e81737423858c825fbe5e9f25254aae28ec23ac9b7b0d9d3cfacc51fc7a",
          "blockNumber": "0x2ab4ae8",
          "transactionHash": "0x5e3a32c4b51f2a4df218c0a5c5af55c532bc08a68a6a546e171bbb275de1612e",
          "transactionIndex": "0x0",
          "logIndex": "0xb",
          "removed": false
        },
        {
          "address": "0x8263007844439F1A1423AE633994B6245e4508Bc",
          "topics": [
            "0xddf252ad1be2c89b69c2b068fc378daa952ba7f163c4a11628f55a4df523b3ef",
            "0x0000000000000000000000000000000000000000000000000000000000000000",
            "0x000000000000000000000000f92d18cdfa0ee4c76701d54ded6fb20ca635f1a2",
            "0x0000000000000000000000000000000000000000000000000000000000000920"
          ],
          "data": "0x",
          "blockHash": "0x47149e81737423858c825fbe5e9f25254aae28ec23ac9b7b0d9d3cfacc51fc7a",
          "blockNumber": "0x2ab4ae8",
          "transactionHash": "0x5e3a32c4b51f2a4df218c0a5c5af55c532bc08a68a6a546e171bbb275de1612e",
          "transactionIndex": "0x0",
          "logIndex": "0xc",
          "removed": false
        },
        {
          "address": "0x8263007844439F1A1423AE633994B6245e4508Bc",
          "topics": [
            "0xddf252ad1be2c89b69c2b068fc378daa952ba7f163c4a11628f55a4df523b3ef",
            "0x0000000000000000000000000000000000000000000000000000000000000000",
            "0x000000000000000000000000f92d18cdfa0ee4c76701d54ded6fb20ca635f1a2",
            "0x0000000000000000000000000000000000000000000000000000000000000921"
          ],
          "data": "0x",
          "blockHash": "0x47149e81737423858c825fbe5e9f25254aae28ec23ac9b7b0d9d3cfacc51fc7a",
          "blockNumber": "0x2ab4ae8",
          "transactionHash": "0x5e3a32c4b51f2a4df218c0a5c5af55c532bc08a68a6a546e171bbb275de1612e",
          "transactionIndex": "0x0",
          "logIndex": "0xd",
          "removed": false
        },
        {
          "address": "0x8263007844439F1A1423AE633994B6245e4508Bc",
          "topics": [
            "0xddf252ad1be2c89b69c2b068fc378daa952ba7f163c4a11628f55a4df523b3ef",
            "0x0000000000000000000000000000000000000000000000000000000000000000",
            "0x000000000000000000000000f92d18cdfa0ee4c76701d54ded6fb20ca635f1a2",
            "0x0000000000000000000000000000000000000000000000000000000000000922"
          ],
          "data": "0x",
          "blockHash": "0x47149e81737423858c825fbe5e9f25254aae28ec23ac9b7b0d9d3cfacc51fc7a",
          "blockNumber": "0x2ab4ae8",
          "transactionHash": "0x5e3a32c4b51f2a4df218c0a5c5af55c532bc08a68a6a546e171bbb275de1612e",
          "transactionIndex": "0x0",
          "logIndex": "0xe",
          "removed": false
        },
        {
          "address": "0x0000000000000000000000000000000000001010",
          "topics": [
            "0x4dfe1bbbcf077ddc3e01291eea2d5c70c2b422b415d95645b9adcfd678cb1d63",
            "0x0000000000000000000000000000000000000000000000000000000000001010",
            "0x000000000000000000000000f92d18cdfa0ee4c76701d54ded6fb20ca635f1a2",
            "0x000000000000000000000000f903ba9e006193c1527bfbe65fe2123704ea3f99"
          ],
          "data": "0x00000000000000000000000000000000000000000000000000a1f40d7bd9340000000000000000000000000000000000000000000000000012170939e1a294f00000000000000000000000000000000000000000000012a2407106a72384c65b0000000000000000000000000000000000000000000000001175152c65c960f00000000000000000000000000000000000000000000012a24112fab49f5dfa5b",
          "blockHash": "0x47149e81737423858c825fbe5e9f25254aae28ec23ac9b7b0d9d3cfacc51fc7a",
          "blockNumber": "0x2ab4ae8",
          "transactionHash": "0x5e3a32c4b51f2a4df218c0a5c5af55c532bc08a68a6a546e171bbb275de1612e",
          "transactionIndex": "0x0",
          "logIndex": "0xf",
          "removed": false
        }
      ],
      "status": "0x1",
      "logsBloom": "0x02000000000000000404002000000048040200002000000000000110000004000000000000000020000000100000000020228000800000000008000000000000000000800000400810000208010022800000000000001000000100000000000000000080020000000200000100008800000014200040c00080200012000000008000000000000000000000000000001080000000004000000204060000020000200000000000400000000000000000000410000000000000820000000000004040000002000010000001000000004000000000000000800000928000001020000008000000000100000500000200000000080000000000000000000000100000",
      "type": "0x2",
      "effectiveGasPrice": "0x6fc23ac10"
    },
    {
      "transactionHash": "0x2edfe1a8bf5215d72727b66b3c2373a96f0763228846f532e3dc2d04401f5d00",
      "transactionIndex": "0x2",
      "blockHash": "0x6c617bb1620209d74c2dab3178c0e024dd20e0c45f384de0259c448d35ab0c39",
      "blockNumber": "0x2ab4aeb",
      "from": "0xD4C7E8652c97127EE260057e2dC245D42F21DDA7",
      "to": "0x8263007844439F1A1423AE633994B6245e4508Bc",
      "cumulativeGasUsed": "0x18ac5f",
      "gasUsed": "0x172fa7",
      "contractAddress": null,
      "logs": [
        {
          "address": "0x0000000000000000000000000000000000001010",
          "topics": [
            "0xe6497e3ee548a3372136af2fcb0696db31fc6cf20260707645068bd3fe97f3c4",
            "0x0000000000000000000000000000000000000000000000000000000000001010",
            "0x000000000000000000000000d4c7e8652c97127ee260057e2dc245d42f21dda7",
            "0x0000000000000000000000008263007844439f1a1423ae633994b6245e4508bc"
          ],
          "data": "0x000000000000000000000000000000000000000000000000001b26dee898c9300000000000000000000000000000000000000000000000001a4ae6567297430e00000000000000000000000000000000000000000000000000000000000000000000000000000000000000000000000000000000000000001a2fbf7789fe79de000000000000000000000000000000000000000000000000001b26dee898c930",
          "blockHash": "0x6c617bb1620209d74c2dab3178c0e024dd20e0c45f384de0259c448d35ab0c39",
          "blockNumber": "0x2ab4aeb",
          "transactionHash": "0x2edfe1a8bf5215d72727b66b3c2373a96f0763228846f532e3dc2d04401f5d00",
          "transactionIndex": "0x2",
          "logIndex": "0x5",
          "removed": false
        },
        {
          "address": "0x0000000000000000000000000000000000001010",
          "topics": [
            "0xe6497e3ee548a3372136af2fcb0696db31fc6cf20260707645068bd3fe97f3c4",
            "0x0000000000000000000000000000000000000000000000000000000000001010",
            "0x0000000000000000000000008263007844439f1a1423ae633994b6245e4508bc",
            "0x0000000000000000000000003f512308d9312d184e8e2a13e47c99d1c9a6956a"
          ],
          "data": "0x000000000000000000000000000000000000000000000000001b26dee898c930000000000000000000000000000000000000000000000000001b26dee898c930000000000000000000000000000000000000000000000000130dcf4a4ee7066600000000000000000000000000000000000000000000000000000000000000000000000000000000000000000000000000000000000000001328f629377fcf96",
          "blockHash": "0x6c617bb1620209d74c2dab3178c0e024dd20e0c45f384de0259c448d35ab0c39",
          "blockNumber": "0x2ab4aeb",
          "transactionHash": "0x2edfe1a8bf5215d72727b66b3c2373a96f0763228846f532e3dc2d04401f5d00",
          "transactionIndex": "0x2",
          "logIndex": "0x6",
          "removed": false
        },
        {
          "address": "0x3f512308d9312d184E8E2a13E47C99D1c9A6956A",
          "topics": [
            "0x8e47b87b0ef542cdfa1659c551d88bad38aa7f452d2bbb349ab7530dfec8be8f"
          ],
          "data": "0x0000000000000000000000008263007844439f1a1423ae633994b6245e4508bc000000000000000000000000000000000000000000000000001b26dee898c930",
          "blockHash": "0x6c617bb1620209d74c2dab3178c0e024dd20e0c45f384de0259c448d35ab0c39",
          "blockNumber": "0x2ab4aeb",
          "transactionHash": "0x2edfe1a8bf5215d72727b66b3c2373a96f0763228846f532e3dc2d04401f5d00",
          "transactionIndex": "0x2",
          "logIndex": "0x7",
          "removed": false
        },
        {
          "address": "0x7a1BaC17Ccc5b313516C5E16fb24f7659aA5ebed",
          "topics": [
            "0x63373d1c4696214b898952999c9aaec57dac1ee2723cec59bea6888f489a9772",
            "0x4b09e658ed251bcafeebbc69400383d49f344ace09b9576fe248bb02c003fe9f",
            "0x0000000000000000000000000000000000000000000000000000000000000b33",
            "0x0000000000000000000000008263007844439f1a1423ae633994b6245e4508bc"
          ],
          "data": "0xcedfd50c528fedaafd4cb28d747115f05a8c272ae6bf9a15a4a21d0feb134a6ee000614b1a0cf3dc7bb74422eb82d47edfd69a3c6c394c52c505259267d7d3e0000000000000000000000000000000000000000000000000000000000000000300000000000000000000000000000000000000000000000000000000000f42400000000000000000000000000000000000000000000000000000000000000001",
          "blockHash": "0x6c617bb1620209d74c2dab3178c0e024dd20e0c45f384de0259c448d35ab0c39",
          "blockNumber": "0x2ab4aeb",
          "transactionHash": "0x2edfe1a8bf5215d72727b66b3c2373a96f0763228846f532e3dc2d04401f5d00",
          "transactionIndex": "0x2",
          "logIndex": "0x8",
          "removed": false
        },
        {
          "address": "0x8263007844439F1A1423AE633994B6245e4508Bc",
          "topics": [
            "0xf2dc9a29f1b257c57ef50cb6c0230cacc6af60a01e5e51bde6ee1657f214a347"
          ],
          "data": "0xcedfd50c528fedaafd4cb28d747115f05a8c272ae6bf9a15a4a21d0feb134a6e",
          "blockHash": "0x6c617bb1620209d74c2dab3178c0e024dd20e0c45f384de0259c448d35ab0c39",
          "blockNumber": "0x2ab4aeb",
          "transactionHash": "0x2edfe1a8bf5215d72727b66b3c2373a96f0763228846f532e3dc2d04401f5d00",
          "transactionIndex": "0x2",
          "logIndex": "0x9",
          "removed": false
        },
        {
          "address": "0x8263007844439F1A1423AE633994B6245e4508Bc",
          "topics": [
            "0xddf252ad1be2c89b69c2b068fc378daa952ba7f163c4a11628f55a4df523b3ef",
            "0x0000000000000000000000000000000000000000000000000000000000000000",
            "0x000000000000000000000000d4c7e8652c97127ee260057e2dc245d42f21dda7",
            "0x0000000000000000000000000000000000000000000000000000000000000923"
          ],
          "data": "0x",
          "blockHash": "0x6c617bb1620209d74c2dab3178c0e024dd20e0c45f384de0259c448d35ab0c39",
          "blockNumber": "0x2ab4aeb",
          "transactionHash": "0x2edfe1a8bf5215d72727b66b3c2373a96f0763228846f532e3dc2d04401f5d00",
          "transactionIndex": "0x2",
          "logIndex": "0xa",
          "removed": false
        },
        {
          "address": "0x8263007844439F1A1423AE633994B6245e4508Bc",
          "topics": [
            "0xddf252ad1be2c89b69c2b068fc378daa952ba7f163c4a11628f55a4df523b3ef",
            "0x0000000000000000000000000000000000000000000000000000000000000000",
            "0x000000000000000000000000d4c7e8652c97127ee260057e2dc245d42f21dda7",
            "0x0000000000000000000000000000000000000000000000000000000000000924"
          ],
          "data": "0x",
          "blockHash": "0x6c617bb1620209d74c2dab3178c0e024dd20e0c45f384de0259c448d35ab0c39",
          "blockNumber": "0x2ab4aeb",
          "transactionHash": "0x2edfe1a8bf5215d72727b66b3c2373a96f0763228846f532e3dc2d04401f5d00",
          "transactionIndex": "0x2",
          "logIndex": "0xb",
          "removed": false
        },
        {
          "address": "0x8263007844439F1A1423AE633994B6245e4508Bc",
          "topics": [
            "0xddf252ad1be2c89b69c2b068fc378daa952ba7f163c4a11628f55a4df523b3ef",
            "0x0000000000000000000000000000000000000000000000000000000000000000",
            "0x000000000000000000000000d4c7e8652c97127ee260057e2dc245d42f21dda7",
            "0x0000000000000000000000000000000000000000000000000000000000000925"
          ],
          "data": "0x",
          "blockHash": "0x6c617bb1620209d74c2dab3178c0e024dd20e0c45f384de0259c448d35ab0c39",
          "blockNumber": "0x2ab4aeb",
          "transactionHash": "0x2edfe1a8bf5215d72727b66b3c2373a96f0763228846f532e3dc2d04401f5d00",
          "transactionIndex": "0x2",
          "logIndex": "0xc",
          "removed": false
        },
        {
          "address": "0x8263007844439F1A1423AE633994B6245e4508Bc",
          "topics": [
            "0xddf252ad1be2c89b69c2b068fc378daa952ba7f163c4a11628f55a4df523b3ef",
            "0x0000000000000000000000000000000000000000000000000000000000000000",
            "0x000000000000000000000000d4c7e8652c97127ee260057e2dc245d42f21dda7",
            "0x0000000000000000000000000000000000000000000000000000000000000926"
          ],
          "data": "0x",
          "blockHash": "0x6c617bb1620209d74c2dab3178c0e024dd20e0c45f384de0259c448d35ab0c39",
          "blockNumber": "0x2ab4aeb",
          "transactionHash": "0x2edfe1a8bf5215d72727b66b3c2373a96f0763228846f532e3dc2d04401f5d00",
          "transactionIndex": "0x2",
          "logIndex": "0xd",
          "removed": false
        },
        {
          "address": "0x8263007844439F1A1423AE633994B6245e4508Bc",
          "topics": [
            "0xddf252ad1be2c89b69c2b068fc378daa952ba7f163c4a11628f55a4df523b3ef",
            "0x0000000000000000000000000000000000000000000000000000000000000000",
            "0x000000000000000000000000d4c7e8652c97127ee260057e2dc245d42f21dda7",
            "0x0000000000000000000000000000000000000000000000000000000000000927"
          ],
          "data": "0x",
          "blockHash": "0x6c617bb1620209d74c2dab3178c0e024dd20e0c45f384de0259c448d35ab0c39",
          "blockNumber": "0x2ab4aeb",
          "transactionHash": "0x2edfe1a8bf5215d72727b66b3c2373a96f0763228846f532e3dc2d04401f5d00",
          "transactionIndex": "0x2",
          "logIndex": "0xe",
          "removed": false
        },
        {
          "address": "0x8263007844439F1A1423AE633994B6245e4508Bc",
          "topics": [
            "0xddf252ad1be2c89b69c2b068fc378daa952ba7f163c4a11628f55a4df523b3ef",
            "0x0000000000000000000000000000000000000000000000000000000000000000",
            "0x000000000000000000000000d4c7e8652c97127ee260057e2dc245d42f21dda7",
            "0x0000000000000000000000000000000000000000000000000000000000000928"
          ],
          "data": "0x",
          "blockHash": "0x6c617bb1620209d74c2dab3178c0e024dd20e0c45f384de0259c448d35ab0c39",
          "blockNumber": "0x2ab4aeb",
          "transactionHash": "0x2edfe1a8bf5215d72727b66b3c2373a96f0763228846f532e3dc2d04401f5d00",
          "transactionIndex": "0x2",
          "logIndex": "0xf",
          "removed": false
        },
        {
          "address": "0x8263007844439F1A1423AE633994B6245e4508Bc",
          "topics": [
            "0xddf252ad1be2c89b69c2b068fc378daa952ba7f163c4a11628f55a4df523b3ef",
            "0x0000000000000000000000000000000000000000000000000000000000000000",
            "0x000000000000000000000000d4c7e8652c97127ee260057e2dc245d42f21dda7",
            "0x0000000000000000000000000000000000000000000000000000000000000929"
          ],
          "data": "0x",
          "blockHash": "0x6c617bb1620209d74c2dab3178c0e024dd20e0c45f384de0259c448d35ab0c39",
          "blockNumber": "0x2ab4aeb",
          "transactionHash": "0x2edfe1a8bf5215d72727b66b3c2373a96f0763228846f532e3dc2d04401f5d00",
          "transactionIndex": "0x2",
          "logIndex": "0x10",
          "removed": false
        },
        {
          "address": "0x8263007844439F1A1423AE633994B6245e4508Bc",
          "topics": [
            "0xddf252ad1be2c89b69c2b068fc378daa952ba7f163c4a11628f55a4df523b3ef",
            "0x0000000000000000000000000000000000000000000000000000000000000000",
            "0x000000000000000000000000d4c7e8652c97127ee260057e2dc245d42f21dda7",
            "0x000000000000000000000000000000000000000000000000000000000000092a"
          ],
          "data": "0x",
          "blockHash": "0x6c617bb1620209d74c2dab3178c0e024dd20e0c45f384de0259c448d35ab0c39",
          "blockNumber": "0x2ab4aeb",
          "transactionHash": "0x2edfe1a8bf5215d72727b66b3c2373a96f0763228846f532e3dc2d04401f5d00",
          "transactionIndex": "0x2",
          "logIndex": "0x11",
          "removed": false
        },
        {
          "address": "0x8263007844439F1A1423AE633994B6245e4508Bc",
          "topics": [
            "0xddf252ad1be2c89b69c2b068fc378daa952ba7f163c4a11628f55a4df523b3ef",
            "0x0000000000000000000000000000000000000000000000000000000000000000",
            "0x000000000000000000000000d4c7e8652c97127ee260057e2dc245d42f21dda7",
            "0x000000000000000000000000000000000000000000000000000000000000092b"
          ],
          "data": "0x",
          "blockHash": "0x6c617bb1620209d74c2dab3178c0e024dd20e0c45f384de0259c448d35ab0c39",
          "blockNumber": "0x2ab4aeb",
          "transactionHash": "0x2edfe1a8bf5215d72727b66b3c2373a96f0763228846f532e3dc2d04401f5d00",
          "transactionIndex": "0x2",
          "logIndex": "0x12",
          "removed": false
        },
        {
          "address": "0x8263007844439F1A1423AE633994B6245e4508Bc",
          "topics": [
            "0xddf252ad1be2c89b69c2b068fc378daa952ba7f163c4a11628f55a4df523b3ef",
            "0x0000000000000000000000000000000000000000000000000000000000000000",
            "0x000000000000000000000000d4c7e8652c97127ee260057e2dc245d42f21dda7",
            "0x000000000000000000000000000000000000000000000000000000000000092c"
          ],
          "data": "0x",
          "blockHash": "0x6c617bb1620209d74c2dab3178c0e024dd20e0c45f384de0259c448d35ab0c39",
          "blockNumber": "0x2ab4aeb",
          "transactionHash": "0x2edfe1a8bf5215d72727b66b3c2373a96f0763228846f532e3dc2d04401f5d00",
          "transactionIndex": "0x2",
          "logIndex": "0x13",
          "removed": false
        },
        {
          "address": "0x0000000000000000000000000000000000001010",
          "topics": [
            "0x4dfe1bbbcf077ddc3e01291eea2d5c70c2b422b415d95645b9adcfd678cb1d63",
            "0x0000000000000000000000000000000000000000000000000000000000001010",
            "0x000000000000000000000000d4c7e8652c97127ee260057e2dc245d42f21dda7",
            "0x000000000000000000000000f903ba9e006193c1527bfbe65fe2123704ea3f99"
          ],
          "data": "0x00000000000000000000000000000000000000000000000000a1f40d7bd934000000000000000000000000000000000000000000000000001b2a990468a3d4ee0000000000000000000000000000000000000000000012a24133645d8e58f5780000000000000000000000000000000000000000000000001a88a4f6eccaa0ee0000000000000000000000000000000000000000000012a241d5586b0a322978",
          "blockHash": "0x6c617bb1620209d74c2dab3178c0e024dd20e0c45f384de0259c448d35ab0c39",
          "blockNumber": "0x2ab4aeb",
          "transactionHash": "0x2edfe1a8bf5215d72727b66b3c2373a96f0763228846f532e3dc2d04401f5d00",
          "transactionIndex": "0x2",
          "logIndex": "0x14",
          "removed": false
        }
      ],
      "status": "0x1",
      "logsBloom": "0x020000000000020004040020000000080400020000000000000000100000040000880000000000a00000001000000002200080000000000000080000001000000000008000000008000000080000228000000000000010000001000000000000000000801300080000000001000008000000043000c0000180000012000000000000008000000000000000000800001000000000004000000000100100000000200000000000400400000000000002000010000001000000000000000000004000000002000010000001100001004000000800000000804000128400001020000008000000000100000100000200900000880000000000000000020000100000",
      "type": "0x2",
      "effectiveGasPrice": "0x6fc23ac10"
    },
    {
      "transactionHash": "0x15b04a48ce531a15db0724a086966099fff94fff9af116b68b8a603116715bcf",
      "transactionIndex": "0x0",
      "blockHash": "0xcfbf1eb41d178bea505f86a41039b2f757c8b1b24046af305bbb55cebf83f8f2",
      "blockNumber": "0x2ab4aef",
      "from": "0x298334B4895392b0BA15261194cF1642A4adf9Fc",
      "to": "0x8263007844439F1A1423AE633994B6245e4508Bc",
      "cumulativeGasUsed": "0x172fa7",
      "gasUsed": "0x172fa7",
      "contractAddress": null,
      "logs": [
        {
          "address": "0x0000000000000000000000000000000000001010",
          "topics": [
            "0xe6497e3ee548a3372136af2fcb0696db31fc6cf20260707645068bd3fe97f3c4",
            "0x0000000000000000000000000000000000000000000000000000000000001010",
            "0x000000000000000000000000298334b4895392b0ba15261194cf1642a4adf9fc",
            "0x0000000000000000000000008263007844439f1a1423ae633994b6245e4508bc"
          ],
          "data": "0x000000000000000000000000000000000000000000000000001b26dee898c93000000000000000000000000000000000000000000000000040666b5976ea02e90000000000000000000000000000000000000000000000000000000000000000000000000000000000000000000000000000000000000000404b447a8e5139b9000000000000000000000000000000000000000000000000001b26dee898c930",
          "blockHash": "0xcfbf1eb41d178bea505f86a41039b2f757c8b1b24046af305bbb55cebf83f8f2",
          "blockNumber": "0x2ab4aef",
          "transactionHash": "0x15b04a48ce531a15db0724a086966099fff94fff9af116b68b8a603116715bcf",
          "transactionIndex": "0x0",
          "logIndex": "0x0",
          "removed": false
        },
        {
          "address": "0x0000000000000000000000000000000000001010",
          "topics": [
            "0xe6497e3ee548a3372136af2fcb0696db31fc6cf20260707645068bd3fe97f3c4",
            "0x0000000000000000000000000000000000000000000000000000000000001010",
            "0x0000000000000000000000008263007844439f1a1423ae633994b6245e4508bc",
            "0x0000000000000000000000003f512308d9312d184e8e2a13e47c99d1c9a6956a"
          ],
          "data": "0x000000000000000000000000000000000000000000000000001b26dee898c930000000000000000000000000000000000000000000000000001b26dee898c9300000000000000000000000000000000000000000000000001328f629377fcf96000000000000000000000000000000000000000000000000000000000000000000000000000000000000000000000000000000000000000013441d08201898c6",
          "blockHash": "0xcfbf1eb41d178bea505f86a41039b2f757c8b1b24046af305bbb55cebf83f8f2",
          "blockNumber": "0x2ab4aef",
          "transactionHash": "0x15b04a48ce531a15db0724a086966099fff94fff9af116b68b8a603116715bcf",
          "transactionIndex": "0x0",
          "logIndex": "0x1",
          "removed": false
        },
        {
          "address": "0x3f512308d9312d184E8E2a13E47C99D1c9A6956A",
          "topics": [
            "0x8e47b87b0ef542cdfa1659c551d88bad38aa7f452d2bbb349ab7530dfec8be8f"
          ],
          "data": "0x0000000000000000000000008263007844439f1a1423ae633994b6245e4508bc000000000000000000000000000000000000000000000000001b26dee898c930",
          "blockHash": "0xcfbf1eb41d178bea505f86a41039b2f757c8b1b24046af305bbb55cebf83f8f2",
          "blockNumber": "0x2ab4aef",
          "transactionHash": "0x15b04a48ce531a15db0724a086966099fff94fff9af116b68b8a603116715bcf",
          "transactionIndex": "0x0",
          "logIndex": "0x2",
          "removed": false
        },
        {
          "address": "0x7a1BaC17Ccc5b313516C5E16fb24f7659aA5ebed",
          "topics": [
            "0x63373d1c4696214b898952999c9aaec57dac1ee2723cec59bea6888f489a9772",
            "0x4b09e658ed251bcafeebbc69400383d49f344ace09b9576fe248bb02c003fe9f",
            "0x0000000000000000000000000000000000000000000000000000000000000b33",
            "0x0000000000000000000000008263007844439f1a1423ae633994b6245e4508bc"
          ],
          "data": "0x7b286c5422a8873150d118a8f36d07b7e3345926d4bcef195895dd6f8d0c737dcb62f6a5e9386b0087ea8733b5919bdd829f1d306c26936911062d17a7deab53000000000000000000000000000000000000000000000000000000000000000300000000000000000000000000000000000000000000000000000000000f42400000000000000000000000000000000000000000000000000000000000000001",
          "blockHash": "0xcfbf1eb41d178bea505f86a41039b2f757c8b1b24046af305bbb55cebf83f8f2",
          "blockNumber": "0x2ab4aef",
          "transactionHash": "0x15b04a48ce531a15db0724a086966099fff94fff9af116b68b8a603116715bcf",
          "transactionIndex": "0x0",
          "logIndex": "0x3",
          "removed": false
        },
        {
          "address": "0x8263007844439F1A1423AE633994B6245e4508Bc",
          "topics": [
            "0xf2dc9a29f1b257c57ef50cb6c0230cacc6af60a01e5e51bde6ee1657f214a347"
          ],
          "data": "0x7b286c5422a8873150d118a8f36d07b7e3345926d4bcef195895dd6f8d0c737d",
          "blockHash": "0xcfbf1eb41d178bea505f86a41039b2f757c8b1b24046af305bbb55cebf83f8f2",
          "blockNumber": "0x2ab4aef",
          "transactionHash": "0x15b04a48ce531a15db0724a086966099fff94fff9af116b68b8a603116715bcf",
          "transactionIndex": "0x0",
          "logIndex": "0x4",
          "removed": false
        },
        {
          "address": "0x8263007844439F1A1423AE633994B6245e4508Bc",
          "topics": [
            "0xddf252ad1be2c89b69c2b068fc378daa952ba7f163c4a11628f55a4df523b3ef",
            "0x0000000000000000000000000000000000000000000000000000000000000000",
            "0x000000000000000000000000298334b4895392b0ba15261194cf1642a4adf9fc",
            "0x000000000000000000000000000000000000000000000000000000000000092d"
          ],
          "data": "0x",
          "blockHash": "0xcfbf1eb41d178bea505f86a41039b2f757c8b1b24046af305bbb55cebf83f8f2",
          "blockNumber": "0x2ab4aef",
          "transactionHash": "0x15b04a48ce531a15db0724a086966099fff94fff9af116b68b8a603116715bcf",
          "transactionIndex": "0x0",
          "logIndex": "0x5",
          "removed": false
        },
        {
          "address": "0x8263007844439F1A1423AE633994B6245e4508Bc",
          "topics": [
            "0xddf252ad1be2c89b69c2b068fc378daa952ba7f163c4a11628f55a4df523b3ef",
            "0x0000000000000000000000000000000000000000000000000000000000000000",
            "0x000000000000000000000000298334b4895392b0ba15261194cf1642a4adf9fc",
            "0x000000000000000000000000000000000000000000000000000000000000092e"
          ],
          "data": "0x",
          "blockHash": "0xcfbf1eb41d178bea505f86a41039b2f757c8b1b24046af305bbb55cebf83f8f2",
          "blockNumber": "0x2ab4aef",
          "transactionHash": "0x15b04a48ce531a15db0724a086966099fff94fff9af116b68b8a603116715bcf",
          "transactionIndex": "0x0",
          "logIndex": "0x6",
          "removed": false
        },
        {
          "address": "0x8263007844439F1A1423AE633994B6245e4508Bc",
          "topics": [
            "0xddf252ad1be2c89b69c2b068fc378daa952ba7f163c4a11628f55a4df523b3ef",
            "0x0000000000000000000000000000000000000000000000000000000000000000",
            "0x000000000000000000000000298334b4895392b0ba15261194cf1642a4adf9fc",
            "0x000000000000000000000000000000000000000000000000000000000000092f"
          ],
          "data": "0x",
          "blockHash": "0xcfbf1eb41d178bea505f86a41039b2f757c8b1b24046af305bbb55cebf83f8f2",
          "blockNumber": "0x2ab4aef",
          "transactionHash": "0x15b04a48ce531a15db0724a086966099fff94fff9af116b68b8a603116715bcf",
          "transactionIndex": "0x0",
          "logIndex": "0x7",
          "removed": false
        },
        {
          "address": "0x8263007844439F1A1423AE633994B6245e4508Bc",
          "topics": [
            "0xddf252ad1be2c89b69c2b068fc378daa952ba7f163c4a11628f55a4df523b3ef",
            "0x0000000000000000000000000000000000000000000000000000000000000000",
            "0x000000000000000000000000298334b4895392b0ba15261194cf1642a4adf9fc",
            "0x0000000000000000000000000000000000000000000000000000000000000930"
          ],
          "data": "0x",
          "blockHash": "0xcfbf1eb41d178bea505f86a41039b2f757c8b1b24046af305bbb55cebf83f8f2",
          "blockNumber": "0x2ab4aef",
          "transactionHash": "0x15b04a48ce531a15db0724a086966099fff94fff9af116b68b8a603116715bcf",
          "transactionIndex": "0x0",
          "logIndex": "0x8",
          "removed": false
        },
        {
          "address": "0x8263007844439F1A1423AE633994B6245e4508Bc",
          "topics": [
            "0xddf252ad1be2c89b69c2b068fc378daa952ba7f163c4a11628f55a4df523b3ef",
            "0x0000000000000000000000000000000000000000000000000000000000000000",
            "0x000000000000000000000000298334b4895392b0ba15261194cf1642a4adf9fc",
            "0x0000000000000000000000000000000000000000000000000000000000000931"
          ],
          "data": "0x",
          "blockHash": "0xcfbf1eb41d178bea505f86a41039b2f757c8b1b24046af305bbb55cebf83f8f2",
          "blockNumber": "0x2ab4aef",
          "transactionHash": "0x15b04a48ce531a15db0724a086966099fff94fff9af116b68b8a603116715bcf",
          "transactionIndex": "0x0",
          "logIndex": "0x9",
          "removed": false
        },
        {
          "address": "0x8263007844439F1A1423AE633994B6245e4508Bc",
          "topics": [
            "0xddf252ad1be2c89b69c2b068fc378daa952ba7f163c4a11628f55a4df523b3ef",
            "0x0000000000000000000000000000000000000000000000000000000000000000",
            "0x000000000000000000000000298334b4895392b0ba15261194cf1642a4adf9fc",
            "0x0000000000000000000000000000000000000000000000000000000000000932"
          ],
          "data": "0x",
          "blockHash": "0xcfbf1eb41d178bea505f86a41039b2f757c8b1b24046af305bbb55cebf83f8f2",
          "blockNumber": "0x2ab4aef",
          "transactionHash": "0x15b04a48ce531a15db0724a086966099fff94fff9af116b68b8a603116715bcf",
          "transactionIndex": "0x0",
          "logIndex": "0xa",
          "removed": false
        },
        {
          "address": "0x8263007844439F1A1423AE633994B6245e4508Bc",
          "topics": [
            "0xddf252ad1be2c89b69c2b068fc378daa952ba7f163c4a11628f55a4df523b3ef",
            "0x0000000000000000000000000000000000000000000000000000000000000000",
            "0x000000000000000000000000298334b4895392b0ba15261194cf1642a4adf9fc",
            "0x0000000000000000000000000000000000000000000000000000000000000933"
          ],
          "data": "0x",
          "blockHash": "0xcfbf1eb41d178bea505f86a41039b2f757c8b1b24046af305bbb55cebf83f8f2",
          "blockNumber": "0x2ab4aef",
          "transactionHash": "0x15b04a48ce531a15db0724a086966099fff94fff9af116b68b8a603116715bcf",
          "transactionIndex": "0x0",
          "logIndex": "0xb",
          "removed": false
        },
        {
          "address": "0x8263007844439F1A1423AE633994B6245e4508Bc",
          "topics": [
            "0xddf252ad1be2c89b69c2b068fc378daa952ba7f163c4a11628f55a4df523b3ef",
            "0x0000000000000000000000000000000000000000000000000000000000000000",
            "0x000000000000000000000000298334b4895392b0ba15261194cf1642a4adf9fc",
            "0x0000000000000000000000000000000000000000000000000000000000000934"
          ],
          "data": "0x",
          "blockHash": "0xcfbf1eb41d178bea505f86a41039b2f757c8b1b24046af305bbb55cebf83f8f2",
          "blockNumber": "0x2ab4aef",
          "transactionHash": "0x15b04a48ce531a15db0724a086966099fff94fff9af116b68b8a603116715bcf",
          "transactionIndex": "0x0",
          "logIndex": "0xc",
          "removed": false
        },
        {
          "address": "0x8263007844439F1A1423AE633994B6245e4508Bc",
          "topics": [
            "0xddf252ad1be2c89b69c2b068fc378daa952ba7f163c4a11628f55a4df523b3ef",
            "0x0000000000000000000000000000000000000000000000000000000000000000",
            "0x000000000000000000000000298334b4895392b0ba15261194cf1642a4adf9fc",
            "0x0000000000000000000000000000000000000000000000000000000000000935"
          ],
          "data": "0x",
          "blockHash": "0xcfbf1eb41d178bea505f86a41039b2f757c8b1b24046af305bbb55cebf83f8f2",
          "blockNumber": "0x2ab4aef",
          "transactionHash": "0x15b04a48ce531a15db0724a086966099fff94fff9af116b68b8a603116715bcf",
          "transactionIndex": "0x0",
          "logIndex": "0xd",
          "removed": false
        },
        {
          "address": "0x8263007844439F1A1423AE633994B6245e4508Bc",
          "topics": [
            "0xddf252ad1be2c89b69c2b068fc378daa952ba7f163c4a11628f55a4df523b3ef",
            "0x0000000000000000000000000000000000000000000000000000000000000000",
            "0x000000000000000000000000298334b4895392b0ba15261194cf1642a4adf9fc",
            "0x0000000000000000000000000000000000000000000000000000000000000936"
          ],
          "data": "0x",
          "blockHash": "0xcfbf1eb41d178bea505f86a41039b2f757c8b1b24046af305bbb55cebf83f8f2",
          "blockNumber": "0x2ab4aef",
          "transactionHash": "0x15b04a48ce531a15db0724a086966099fff94fff9af116b68b8a603116715bcf",
          "transactionIndex": "0x0",
          "logIndex": "0xe",
          "removed": false
        },
        {
          "address": "0x0000000000000000000000000000000000001010",
          "topics": [
            "0x4dfe1bbbcf077ddc3e01291eea2d5c70c2b422b415d95645b9adcfd678cb1d63",
            "0x0000000000000000000000000000000000000000000000000000000000001010",
            "0x000000000000000000000000298334b4895392b0ba15261194cf1642a4adf9fc",
            "0x000000000000000000000000f903ba9e006193c1527bfbe65fe2123704ea3f99"
          ],
          "data": "0x00000000000000000000000000000000000000000000000000a1f40d7bd9340000000000000000000000000000000000000000000000000041461e076cf694c90000000000000000000000000000000000000000000012a2424aabb58d848b1400000000000000000000000000000000000000000000000040a429f9f11d60c90000000000000000000000000000000000000000000012a242ec9fc3095dbf14",
          "blockHash": "0xcfbf1eb41d178bea505f86a41039b2f757c8b1b24046af305bbb55cebf83f8f2",
          "blockNumber": "0x2ab4aef",
          "transactionHash": "0x15b04a48ce531a15db0724a086966099fff94fff9af116b68b8a603116715bcf",
          "transactionIndex": "0x0",
          "logIndex": "0xf",
          "removed": false
        }
      ],
      "status": "0x1",
      "logsBloom": "0x0200000000000000040400200000000804000000000000000000001000000400020000000000002000000010400000002000a0040000000080080000000000000000008000080008800000180000228000000000000010000001000000000000000000a0020200000000101100000800000004200080000080000010010000000001000000000000000000000000001200000000004000000000000000400000200000000000400000000000000000020090800000000000002020000040004000001002000010000101000000004000000000020000800000138000001020000048000000000100000108000200000000082000000000010000000000100000",
      "type": "0x2",
      "effectiveGasPrice": "0x6fc23ac10"
    }
  ],
  "libraries": [],
  "pending": [],
  "returns": {},
  "timestamp": 1705273031,
  "chain": 80001,
  "multi": false,
  "commit": "9935aef"
}