{
  "transactions": [
    {
      "hash": "0xc3544df4afe93c868d346b1e0a92dfe04b6dde4591beab9e290fe183d02d942f",
      "transactionType": "CALL",
      "contractName": null,
      "contractAddress": "0x8263007844439F1A1423AE633994B6245e4508Bc",
      "function": "mint(address,uint256)",
      "arguments": [
        "0x298334B4895392b0BA15261194cF1642A4adf9Fc",
        "10"
      ],
      "transaction": {
        "type": "0x02",
        "from": "0x298334b4895392b0ba15261194cf1642a4adf9fc",
        "to": "0x8263007844439f1a1423ae633994b6245e4508bc",
        "gas": "0x20069e",
        "value": "0x1d1f92c056f6a0",
        "data": "0x40c10f19000000000000000000000000298334b4895392b0ba15261194cf1642a4adf9fc000000000000000000000000000000000000000000000000000000000000000a",
        "nonce": "0x61",
        "accessList": []
      },
      "additionalContracts": [],
      "isFixedGasLimit": false
    },
    {
      "hash": "0xcf5eff03b4d955dcf7422c9d2c61d11bd23bb75c2dd5cd22d79e5fcf2c709b37",
      "transactionType": "CALL",
      "contractName": null,
      "contractAddress": "0x8263007844439F1A1423AE633994B6245e4508Bc",
      "function": "mint(address,uint256)",
      "arguments": [
        "0xF92D18CdFa0EE4C76701d54dEd6fB20ca635F1A2",
        "10"
      ],
      "transaction": {
        "type": "0x02",
        "from": "0xf92d18cdfa0ee4c76701d54ded6fb20ca635f1a2",
        "to": "0x8263007844439f1a1423ae633994b6245e4508bc",
        "gas": "0x20069e",
        "value": "0x1d1f92c056f6a0",
        "data": "0x40c10f19000000000000000000000000f92d18cdfa0ee4c76701d54ded6fb20ca635f1a2000000000000000000000000000000000000000000000000000000000000000a",
        "nonce": "0x5a",
        "accessList": []
      },
      "additionalContracts": [],
      "isFixedGasLimit": false
    },
    {
      "hash": null,
      "transactionType": "CALL",
      "contractName": null,
      "contractAddress": "0x8263007844439F1A1423AE633994B6245e4508Bc",
      "function": "mint(address,uint256)",
      "arguments": [
        "0xD4C7E8652c97127EE260057e2dC245D42F21DDA7",
        "10"
      ],
      "transaction": {
        "type": "0x02",
        "from": "0xd4c7e8652c97127ee260057e2dc245d42f21dda7",
        "to": "0x8263007844439f1a1423ae633994b6245e4508bc",
        "gas": "0x20069e",
        "value": "0x1d1f92c056f6a0",
        "data": "0x40c10f19000000000000000000000000d4c7e8652c97127ee260057e2dc245d42f21dda7000000000000000000000000000000000000000000000000000000000000000a",
        "nonce": "0x66",
        "accessList": []
      },
      "additionalContracts": [],
      "isFixedGasLimit": false
    },
    {
      "hash": null,
      "transactionType": "CALL",
      "contractName": null,
      "contractAddress": "0x8263007844439F1A1423AE633994B6245e4508Bc",
      "function": "mint(address,uint256)",
      "arguments": [
        "0x298334B4895392b0BA15261194cF1642A4adf9Fc",
        "10"
      ],
      "transaction": {
        "type": "0x02",
        "from": "0x298334b4895392b0ba15261194cf1642a4adf9fc",
        "to": "0x8263007844439f1a1423ae633994b6245e4508bc",
        "gas": "0x20069e",
        "value": "0x1d1f92c056f6a0",
        "data": "0x40c10f19000000000000000000000000298334b4895392b0ba15261194cf1642a4adf9fc000000000000000000000000000000000000000000000000000000000000000a",
        "nonce": "0x62",
        "accessList": []
      },
      "additionalContracts": [],
      "isFixedGasLimit": false
    },
    {
      "hash": null,
      "transactionType": "CALL",
      "contractName": null,
      "contractAddress": "0x8263007844439F1A1423AE633994B6245e4508Bc",
      "function": "mint(address,uint256)",
      "arguments": [
        "0xF92D18CdFa0EE4C76701d54dEd6fB20ca635F1A2",
        "10"
      ],
      "transaction": {
        "type": "0x02",
        "from": "0xf92d18cdfa0ee4c76701d54ded6fb20ca635f1a2",
        "to": "0x8263007844439f1a1423ae633994b6245e4508bc",
        "gas": "0x20069e",
        "value": "0x1d1f92c056f6a0",
        "data": "0x40c10f19000000000000000000000000f92d18cdfa0ee4c76701d54ded6fb20ca635f1a2000000000000000000000000000000000000000000000000000000000000000a",
        "nonce": "0x5b",
        "accessList": []
      },
      "additionalContracts": [],
      "isFixedGasLimit": false
    },
    {
      "hash": null,
      "transactionType": "CALL",
      "contractName": null,
      "contractAddress": "0x8263007844439F1A1423AE633994B6245e4508Bc",
      "function": "mint(address,uint256)",
      "arguments": [
        "0xD4C7E8652c97127EE260057e2dC245D42F21DDA7",
        "10"
      ],
      "transaction": {
        "type": "0x02",
        "from": "0xd4c7e8652c97127ee260057e2dc245d42f21dda7",
        "to": "0x8263007844439f1a1423ae633994b6245e4508bc",
        "gas": "0x20069e",
        "value": "0x1d1f92c056f6a0",
        "data": "0x40c10f19000000000000000000000000d4c7e8652c97127ee260057e2dc245d42f21dda7000000000000000000000000000000000000000000000000000000000000000a",
        "nonce": "0x67",
        "accessList": []
      },
      "additionalContracts": [],
      "isFixedGasLimit": false
    },
    {
      "hash": null,
      "transactionType": "CALL",
      "contractName": null,
      "contractAddress": "0x8263007844439F1A1423AE633994B6245e4508Bc",
      "function": "mint(address,uint256)",
      "arguments": [
        "0x298334B4895392b0BA15261194cF1642A4adf9Fc",
        "10"
      ],
      "transaction": {
        "type": "0x02",
        "from": "0x298334b4895392b0ba15261194cf1642a4adf9fc",
        "to": "0x8263007844439f1a1423ae633994b6245e4508bc",
        "gas": "0x20069e",
        "value": "0x1d1f92c056f6a0",
        "data": "0x40c10f19000000000000000000000000298334b4895392b0ba15261194cf1642a4adf9fc000000000000000000000000000000000000000000000000000000000000000a",
        "nonce": "0x63",
        "accessList": []
      },
      "additionalContracts": [],
      "isFixedGasLimit": false
    },
    {
      "hash": null,
      "transactionType": "CALL",
      "contractName": null,
      "contractAddress": "0x8263007844439F1A1423AE633994B6245e4508Bc",
      "function": "mint(address,uint256)",
      "arguments": [
        "0xF92D18CdFa0EE4C76701d54dEd6fB20ca635F1A2",
        "10"
      ],
      "transaction": {
        "type": "0x02",
        "from": "0xf92d18cdfa0ee4c76701d54ded6fb20ca635f1a2",
        "to": "0x8263007844439f1a1423ae633994b6245e4508bc",
        "gas": "0x20069e",
        "value": "0x1d1f92c056f6a0",
        "data": "0x40c10f19000000000000000000000000f92d18cdfa0ee4c76701d54ded6fb20ca635f1a2000000000000000000000000000000000000000000000000000000000000000a",
        "nonce": "0x5c",
        "accessList": []
      },
      "additionalContracts": [],
      "isFixedGasLimit": false
    },
    {
      "hash": null,
      "transactionType": "CALL",
      "contractName": null,
      "contractAddress": "0x8263007844439F1A1423AE633994B6245e4508Bc",
      "function": "mint(address,uint256)",
      "arguments": [
        "0xD4C7E8652c97127EE260057e2dC245D42F21DDA7",
        "10"
      ],
      "transaction": {
        "type": "0x02",
        "from": "0xd4c7e8652c97127ee260057e2dc245d42f21dda7",
        "to": "0x8263007844439f1a1423ae633994b6245e4508bc",
        "gas": "0x20069e",
        "value": "0x1d1f92c056f6a0",
        "data": "0x40c10f19000000000000000000000000d4c7e8652c97127ee260057e2dc245d42f21dda7000000000000000000000000000000000000000000000000000000000000000a",
        "nonce": "0x68",
        "accessList": []
      },
      "additionalContracts": [],
      "isFixedGasLimit": false
    }
  ],
  "receipts": [
    {
      "transactionHash": "0xc3544df4afe93c868d346b1e0a92dfe04b6dde4591beab9e290fe183d02d942f",
      "transactionIndex": "0x1",
      "blockHash": "0xc43fb993e91fc8c497c07f029a3fc5215c6f48d7e3c42d572d18cf224c697b7f",
      "blockNumber": "0x2aeb302",
      "from": "0x298334B4895392b0BA15261194cF1642A4adf9Fc",
      "to": "0x8263007844439F1A1423AE633994B6245e4508Bc",
      "cumulativeGasUsed": "0x18eb2a",
      "gasUsed": "0x172fa7",
      "contractAddress": null,
      "logs": [
        {
          "address": "0x0000000000000000000000000000000000001010",
          "topics": [
            "0xe6497e3ee548a3372136af2fcb0696db31fc6cf20260707645068bd3fe97f3c4",
            "0x0000000000000000000000000000000000000000000000000000000000001010",
            "0x000000000000000000000000298334b4895392b0ba15261194cf1642a4adf9fc",
            "0x0000000000000000000000008263007844439f1a1423ae633994b6245e4508bc"
          ],
          "data": "0x000000000000000000000000000000000000000000000000001d1f92c056f6a00000000000000000000000000000000000000000000000001f79249f3c80482300000000000000000000000000000000000000000000000000000000000000000000000000000000000000000000000000000000000000001f5c050c7c295183000000000000000000000000000000000000000000000000001d1f92c056f6a0",
          "blockHash": "0xc43fb993e91fc8c497c07f029a3fc5215c6f48d7e3c42d572d18cf224c697b7f",
          "blockNumber": "0x2aeb302",
          "transactionHash": "0xc3544df4afe93c868d346b1e0a92dfe04b6dde4591beab9e290fe183d02d942f",
          "transactionIndex": "0x1",
          "logIndex": "0x2",
          "removed": false
        },
        {
          "address": "0x0000000000000000000000000000000000001010",
          "topics": [
            "0xe6497e3ee548a3372136af2fcb0696db31fc6cf20260707645068bd3fe97f3c4",
            "0x0000000000000000000000000000000000000000000000000000000000001010",
            "0x0000000000000000000000008263007844439f1a1423ae633994b6245e4508bc",
            "0x0000000000000000000000003f512308d9312d184e8e2a13e47c99d1c9a6956a"
          ],
          "data": "0x000000000000000000000000000000000000000000000000001d1f92c056f6a0000000000000000000000000000000000000000000000000001d1f92c056f6a000000000000000000000000000000000000000000000000021595f3ff6214516000000000000000000000000000000000000000000000000000000000000000000000000000000000000000000000000000000000000000021767ed2b6783bb6",
          "blockHash": "0xc43fb993e91fc8c497c07f029a3fc5215c6f48d7e3c42d572d18cf224c697b7f",
          "blockNumber": "0x2aeb302",
          "transactionHash": "0xc3544df4afe93c868d346b1e0a92dfe04b6dde4591beab9e290fe183d02d942f",
          "transactionIndex": "0x1",
          "logIndex": "0x3",
          "removed": false
        },
        {
          "address": "0x3f512308d9312d184E8E2a13E47C99D1c9A6956A",
          "topics": [
            "0x8e47b87b0ef542cdfa1659c551d88bad38aa7f452d2bbb349ab7530dfec8be8f"
          ],
          "data": "0x0000000000000000000000008263007844439f1a1423ae633994b6245e4508bc000000000000000000000000000000000000000000000000001d1f92c056f6a0",
          "blockHash": "0xc43fb993e91fc8c497c07f029a3fc5215c6f48d7e3c42d572d18cf224c697b7f",
          "blockNumber": "0x2aeb302",
          "transactionHash": "0xc3544df4afe93c868d346b1e0a92dfe04b6dde4591beab9e290fe183d02d942f",
          "transactionIndex": "0x1",
          "logIndex": "0x4",
          "removed": false
        },
        {
          "address": "0x7a1BaC17Ccc5b313516C5E16fb24f7659aA5ebed",
          "topics": [
            "0x63373d1c4696214b898952999c9aaec57dac1ee2723cec59bea6888f489a9772",
            "0x4b09e658ed251bcafeebbc69400383d49f344ace09b9576fe248bb02c003fe9f",
            "0x0000000000000000000000000000000000000000000000000000000000000b33",
            "0x0000000000000000000000008263007844439f1a1423ae633994b6245e4508bc"
          ],
          "data": "0x4b2d2eac92572698dc660a63a8f0e86d6d5dfe36259506114b2a51ff8267f57ced80d092d1f6741daa1826cf6d408a227300c58dd1505f1ffe1c4055cb1e225a000000000000000000000000000000000000000000000000000000000000000300000000000000000000000000000000000000000000000000000000000f42400000000000000000000000000000000000000000000000000000000000000001",
          "blockHash": "0xc43fb993e91fc8c497c07f029a3fc5215c6f48d7e3c42d572d18cf224c697b7f",
          "blockNumber": "0x2aeb302",
          "transactionHash": "0xc3544df4afe93c868d346b1e0a92dfe04b6dde4591beab9e290fe183d02d942f",
          "transactionIndex": "0x1",
          "logIndex": "0x5",
          "removed": false
        },
        {
          "address": "0x8263007844439F1A1423AE633994B6245e4508Bc",
          "topics": [
            "0xf2dc9a29f1b257c57ef50cb6c0230cacc6af60a01e5e51bde6ee1657f214a347"
          ],
          "data": "0x4b2d2eac92572698dc660a63a8f0e86d6d5dfe36259506114b2a51ff8267f57c",
          "blockHash": "0xc43fb993e91fc8c497c07f029a3fc5215c6f48d7e3c42d572d18cf224c697b7f",
          "blockNumber": "0x2aeb302",
          "transactionHash": "0xc3544df4afe93c868d346b1e0a92dfe04b6dde4591beab9e290fe183d02d942f",
          "transactionIndex": "0x1",
          "logIndex": "0x6",
          "removed": false
        },
        {
          "address": "0x8263007844439F1A1423AE633994B6245e4508Bc",
          "topics": [
            "0xddf252ad1be2c89b69c2b068fc378daa952ba7f163c4a11628f55a4df523b3ef",
            "0x0000000000000000000000000000000000000000000000000000000000000000",
            "0x000000000000000000000000298334b4895392b0ba15261194cf1642a4adf9fc",
            "0x0000000000000000000000000000000000000000000000000000000000000e06"
          ],
          "data": "0x",
          "blockHash": "0xc43fb993e91fc8c497c07f029a3fc5215c6f48d7e3c42d572d18cf224c697b7f",
          "blockNumber": "0x2aeb302",
          "transactionHash": "0xc3544df4afe93c868d346b1e0a92dfe04b6dde4591beab9e290fe183d02d942f",
          "transactionIndex": "0x1",
          "logIndex": "0x7",
          "removed": false
        },
        {
          "address": "0x8263007844439F1A1423AE633994B6245e4508Bc",
          "topics": [
            "0xddf252ad1be2c89b69c2b068fc378daa952ba7f163c4a11628f55a4df523b3ef",
            "0x0000000000000000000000000000000000000000000000000000000000000000",
            "0x000000000000000000000000298334b4895392b0ba15261194cf1642a4adf9fc",
            "0x0000000000000000000000000000000000000000000000000000000000000e07"
          ],
          "data": "0x",
          "blockHash": "0xc43fb993e91fc8c497c07f029a3fc5215c6f48d7e3c42d572d18cf224c697b7f",
          "blockNumber": "0x2aeb302",
          "transactionHash": "0xc3544df4afe93c868d346b1e0a92dfe04b6dde4591beab9e290fe183d02d942f",
          "transactionIndex": "0x1",
          "logIndex": "0x8",
          "removed": false
        },
        {
          "address": "0x8263007844439F1A1423AE633994B6245e4508Bc",
          "topics": [
            "0xddf252ad1be2c89b69c2b068fc378daa952ba7f163c4a11628f55a4df523b3ef",
            "0x0000000000000000000000000000000000000000000000000000000000000000",
            "0x000000000000000000000000298334b4895392b0ba15261194cf1642a4adf9fc",
            "0x0000000000000000000000000000000000000000000000000000000000000e08"
          ],
          "data": "0x",
          "blockHash": "0xc43fb993e91fc8c497c07f029a3fc5215c6f48d7e3c42d572d18cf224c697b7f",
          "blockNumber": "0x2aeb302",
          "transactionHash": "0xc3544df4afe93c868d346b1e0a92dfe04b6dde4591beab9e290fe183d02d942f",
          "transactionIndex": "0x1",
          "logIndex": "0x9",
          "removed": false
        },
        {
          "address": "0x8263007844439F1A1423AE633994B6245e4508Bc",
          "topics": [
            "0xddf252ad1be2c89b69c2b068fc378daa952ba7f163c4a11628f55a4df523b3ef",
            "0x0000000000000000000000000000000000000000000000000000000000000000",
            "0x000000000000000000000000298334b4895392b0ba15261194cf1642a4adf9fc",
            "0x0000000000000000000000000000000000000000000000000000000000000e09"
          ],
          "data": "0x",
          "blockHash": "0xc43fb993e91fc8c497c07f029a3fc5215c6f48d7e3c42d572d18cf224c697b7f",
          "blockNumber": "0x2aeb302",
          "transactionHash": "0xc3544df4afe93c868d346b1e0a92dfe04b6dde4591beab9e290fe183d02d942f",
          "transactionIndex": "0x1",
          "logIndex": "0xa",
          "removed": false
        },
        {
          "address": "0x8263007844439F1A1423AE633994B6245e4508Bc",
          "topics": [
            "0xddf252ad1be2c89b69c2b068fc378daa952ba7f163c4a11628f55a4df523b3ef",
            "0x0000000000000000000000000000000000000000000000000000000000000000",
            "0x000000000000000000000000298334b4895392b0ba15261194cf1642a4adf9fc",
            "0x0000000000000000000000000000000000000000000000000000000000000e0a"
          ],
          "data": "0x",
          "blockHash": "0xc43fb993e91fc8c497c07f029a3fc5215c6f48d7e3c42d572d18cf224c697b7f",
          "blockNumber": "0x2aeb302",
          "transactionHash": "0xc3544df4afe93c868d346b1e0a92dfe04b6dde4591beab9e290fe183d02d942f",
          "transactionIndex": "0x1",
          "logIndex": "0xb",
          "removed": false
        },
        {
          "address": "0x8263007844439F1A1423AE633994B6245e4508Bc",
          "topics": [
            "0xddf252ad1be2c89b69c2b068fc378daa952ba7f163c4a11628f55a4df523b3ef",
            "0x0000000000000000000000000000000000000000000000000000000000000000",
            "0x000000000000000000000000298334b4895392b0ba15261194cf1642a4adf9fc",
            "0x0000000000000000000000000000000000000000000000000000000000000e0b"
          ],
          "data": "0x",
          "blockHash": "0xc43fb993e91fc8c497c07f029a3fc5215c6f48d7e3c42d572d18cf224c697b7f",
          "blockNumber": "0x2aeb302",
          "transactionHash": "0xc3544df4afe93c868d346b1e0a92dfe04b6dde4591beab9e290fe183d02d942f",
          "transactionIndex": "0x1",
          "logIndex": "0xc",
          "removed": false
        },
        {
          "address": "0x8263007844439F1A1423AE633994B6245e4508Bc",
          "topics": [
            "0xddf252ad1be2c89b69c2b068fc378daa952ba7f163c4a11628f55a4df523b3ef",
            "0x0000000000000000000000000000000000000000000000000000000000000000",
            "0x000000000000000000000000298334b4895392b0ba15261194cf1642a4adf9fc",
            "0x0000000000000000000000000000000000000000000000000000000000000e0c"
          ],
          "data": "0x",
          "blockHash": "0xc43fb993e91fc8c497c07f029a3fc5215c6f48d7e3c42d572d18cf224c697b7f",
          "blockNumber": "0x2aeb302",
          "transactionHash": "0xc3544df4afe93c868d346b1e0a92dfe04b6dde4591beab9e290fe183d02d942f",
          "transactionIndex": "0x1",
          "logIndex": "0xd",
          "removed": false
        },
        {
          "address": "0x8263007844439F1A1423AE633994B6245e4508Bc",
          "topics": [
            "0xddf252ad1be2c89b69c2b068fc378daa952ba7f163c4a11628f55a4df523b3ef",
            "0x0000000000000000000000000000000000000000000000000000000000000000",
            "0x000000000000000000000000298334b4895392b0ba15261194cf1642a4adf9fc",
            "0x0000000000000000000000000000000000000000000000000000000000000e0d"
          ],
          "data": "0x",
          "blockHash": "0xc43fb993e91fc8c497c07f029a3fc5215c6f48d7e3c42d572d18cf224c697b7f",
          "blockNumber": "0x2aeb302",
          "transactionHash": "0xc3544df4afe93c868d346b1e0a92dfe04b6dde4591beab9e290fe183d02d942f",
          "transactionIndex": "0x1",
          "logIndex": "0xe",
          "removed": false
        },
        {
          "address": "0x8263007844439F1A1423AE633994B6245e4508Bc",
          "topics": [
            "0xddf252ad1be2c89b69c2b068fc378daa952ba7f163c4a11628f55a4df523b3ef",
            "0x0000000000000000000000000000000000000000000000000000000000000000",
            "0x000000000000000000000000298334b4895392b0ba15261194cf1642a4adf9fc",
            "0x0000000000000000000000000000000000000000000000000000000000000e0e"
          ],
          "data": "0x",
          "blockHash": "0xc43fb993e91fc8c497c07f029a3fc5215c6f48d7e3c42d572d18cf224c697b7f",
          "blockNumber": "0x2aeb302",
          "transactionHash": "0xc3544df4afe93c868d346b1e0a92dfe04b6dde4591beab9e290fe183d02d942f",
          "transactionIndex": "0x1",
          "logIndex": "0xf",
          "removed": false
        },
        {
          "address": "0x8263007844439F1A1423AE633994B6245e4508Bc",
          "topics": [
            "0xddf252ad1be2c89b69c2b068fc378daa952ba7f163c4a11628f55a4df523b3ef",
            "0x0000000000000000000000000000000000000000000000000000000000000000",
            "0x000000000000000000000000298334b4895392b0ba15261194cf1642a4adf9fc",
            "0x0000000000000000000000000000000000000000000000000000000000000e0f"
          ],
          "data": "0x",
          "blockHash": "0xc43fb993e91fc8c497c07f029a3fc5215c6f48d7e3c42d572d18cf224c697b7f",
          "blockNumber": "0x2aeb302",
          "transactionHash": "0xc3544df4afe93c868d346b1e0a92dfe04b6dde4591beab9e290fe183d02d942f",
          "transactionIndex": "0x1",
          "logIndex": "0x10",
          "removed": false
        },
        {
          "address": "0x0000000000000000000000000000000000001010",
          "topics": [
            "0x4dfe1bbbcf077ddc3e01291eea2d5c70c2b422b415d95645b9adcfd678cb1d63",
            "0x0000000000000000000000000000000000000000000000000000000000001010",
            "0x000000000000000000000000298334b4895392b0ba15261194cf1642a4adf9fc",
            "0x000000000000000000000000c26880a0af2ea0c7e8130e6ec47af756465452e8"
          ],
          "data": "0x00000000000000000000000000000000000000000000000000a1f40d7bd934000000000000000000000000000000000000000000000000002058d74d328cda0300000000000000000000000000000000000000000000234ce6dc26c3c1befc860000000000000000000000000000000000000000000000001fb6e33fb6b3a60300000000000000000000000000000000000000000000234ce77e1ad13d983086",
          "blockHash": "0xc43fb993e91fc8c497c07f029a3fc5215c6f48d7e3c42d572d18cf224c697b7f",
          "blockNumber": "0x2aeb302",
          "transactionHash": "0xc3544df4afe93c868d346b1e0a92dfe04b6dde4591beab9e290fe183d02d942f",
          "transactionIndex": "0x1",
          "logIndex": "0x11",
          "removed": false
        }
      ],
      "status": "0x1",
      "logsBloom": "0x020000000002000204040032000000080400000000000000000000000000040000000000000000001000001001000000a00080000000000100080000000000000002008000000008000000080020228000200000000010000011000000000000002001a4820000400000000100000820000004200000000280000010000000000000000000000000000000000000001000000000004000000000000000000000200000400000400020000000100000000011000000000080100000000000104000001022400010000001000000004000000001020800800000128000008020000008000000000100000100000200000000080000000000010000000000100000",
      "type": "0x2",
      "effectiveGasPrice": "0x6fc23ac10"
    }
  ],
  "libraries": [],
  "pending": [],
  "returns": {},
  "timestamp": 1705840796,
  "chain": 80001,
  "multi": false,
  "commit": "9935aef"
}