{
  "transactions": [
    {
      "hash": "0x6017ee9d02830618f05db654ce63a238cef791485097395dc2c5250103ee3dd7",
      "transactionType": "CALL",
      "contractName": null,
      "contractAddress": "0x8263007844439F1A1423AE633994B6245e4508Bc",
      "function": "mint(address,uint256)",
      "arguments": [
        "0x298334B4895392b0BA15261194cF1642A4adf9Fc",
        "10"
      ],
      "transaction": {
        "type": "0x02",
        "from": "0x298334b4895392b0ba15261194cf1642a4adf9fc",
        "to": "0x8263007844439f1a1423ae633994b6245e4508bc",
        "gas": "0x20069e",
        "value": "0x1d6cc76e126500",
        "data": "0x40c10f19000000000000000000000000298334b4895392b0ba15261194cf1642a4adf9fc000000000000000000000000000000000000000000000000000000000000000a",
        "nonce": "0x37",
        "accessList": []
      },
      "additionalContracts": [],
      "isFixedGasLimit": false
    },
    {
      "hash": "0x42bb3cd5b86e01cffac852b16508f9b84f110f53298445e60dbbf76abef3d79a",
      "transactionType": "CALL",
      "contractName": null,
      "contractAddress": "0x8263007844439F1A1423AE633994B6245e4508Bc",
      "function": "mint(address,uint256)",
      "arguments": [
        "0xF92D18CdFa0EE4C76701d54dEd6fB20ca635F1A2",
        "10"
      ],
      "transaction": {
        "type": "0x02",
        "from": "0xf92d18cdfa0ee4c76701d54ded6fb20ca635f1a2",
        "to": "0x8263007844439f1a1423ae633994b6245e4508bc",
        "gas": "0x20069e",
        "value": "0x1d6cc76e126500",
        "data": "0x40c10f19000000000000000000000000f92d18cdfa0ee4c76701d54ded6fb20ca635f1a2000000000000000000000000000000000000000000000000000000000000000a",
        "nonce": "0x33",
        "accessList": []
      },
      "additionalContracts": [],
      "isFixedGasLimit": false
    },
    {
      "hash": "0x6762848ac895446f4a67a696ab7d8a342190e659fdc15c79e94e4c25668e8c24",
      "transactionType": "CALL",
      "contractName": null,
      "contractAddress": "0x8263007844439F1A1423AE633994B6245e4508Bc",
      "function": "mint(address,uint256)",
      "arguments": [
        "0xD4C7E8652c97127EE260057e2dC245D42F21DDA7",
        "10"
      ],
      "transaction": {
        "type": "0x02",
        "from": "0xd4c7e8652c97127ee260057e2dc245d42f21dda7",
        "to": "0x8263007844439f1a1423ae633994b6245e4508bc",
        "gas": "0x20069e",
        "value": "0x1d6cc76e126500",
        "data": "0x40c10f19000000000000000000000000d4c7e8652c97127ee260057e2dc245d42f21dda7000000000000000000000000000000000000000000000000000000000000000a",
        "nonce": "0x42",
        "accessList": []
      },
      "additionalContracts": [],
      "isFixedGasLimit": false
    },
    {
      "hash": null,
      "transactionType": "CALL",
      "contractName": null,
      "contractAddress": "0x8263007844439F1A1423AE633994B6245e4508Bc",
      "function": "mint(address,uint256)",
      "arguments": [
        "0x298334B4895392b0BA15261194cF1642A4adf9Fc",
        "10"
      ],
      "transaction": {
        "type": "0x02",
        "from": "0x298334b4895392b0ba15261194cf1642a4adf9fc",
        "to": "0x8263007844439f1a1423ae633994b6245e4508bc",
        "gas": "0x20069e",
        "value": "0x1d6cc76e126500",
        "data": "0x40c10f19000000000000000000000000298334b4895392b0ba15261194cf1642a4adf9fc000000000000000000000000000000000000000000000000000000000000000a",
        "nonce": "0x38",
        "accessList": []
      },
      "additionalContracts": [],
      "isFixedGasLimit": false
    },
    {
      "hash": null,
      "transactionType": "CALL",
      "contractName": null,
      "contractAddress": "0x8263007844439F1A1423AE633994B6245e4508Bc",
      "function": "mint(address,uint256)",
      "arguments": [
        "0xF92D18CdFa0EE4C76701d54dEd6fB20ca635F1A2",
        "10"
      ],
      "transaction": {
        "type": "0x02",
        "from": "0xf92d18cdfa0ee4c76701d54ded6fb20ca635f1a2",
        "to": "0x8263007844439f1a1423ae633994b6245e4508bc",
        "gas": "0x20069e",
        "value": "0x1d6cc76e126500",
        "data": "0x40c10f19000000000000000000000000f92d18cdfa0ee4c76701d54ded6fb20ca635f1a2000000000000000000000000000000000000000000000000000000000000000a",
        "nonce": "0x34",
        "accessList": []
      },
      "additionalContracts": [],
      "isFixedGasLimit": false
    },
    {
      "hash": null,
      "transactionType": "CALL",
      "contractName": null,
      "contractAddress": "0x8263007844439F1A1423AE633994B6245e4508Bc",
      "function": "mint(address,uint256)",
      "arguments": [
        "0xD4C7E8652c97127EE260057e2dC245D42F21DDA7",
        "10"
      ],
      "transaction": {
        "type": "0x02",
        "from": "0xd4c7e8652c97127ee260057e2dc245d42f21dda7",
        "to": "0x8263007844439f1a1423ae633994b6245e4508bc",
        "gas": "0x20069e",
        "value": "0x1d6cc76e126500",
        "data": "0x40c10f19000000000000000000000000d4c7e8652c97127ee260057e2dc245d42f21dda7000000000000000000000000000000000000000000000000000000000000000a",
        "nonce": "0x43",
        "accessList": []
      },
      "additionalContracts": [],
      "isFixedGasLimit": false
    },
    {
      "hash": null,
      "transactionType": "CALL",
      "contractName": null,
      "contractAddress": "0x8263007844439F1A1423AE633994B6245e4508Bc",
      "function": "mint(address,uint256)",
      "arguments": [
        "0x298334B4895392b0BA15261194cF1642A4adf9Fc",
        "10"
      ],
      "transaction": {
        "type": "0x02",
        "from": "0x298334b4895392b0ba15261194cf1642a4adf9fc",
        "to": "0x8263007844439f1a1423ae633994b6245e4508bc",
        "gas": "0x20069e",
        "value": "0x1d6cc76e126500",
        "data": "0x40c10f19000000000000000000000000298334b4895392b0ba15261194cf1642a4adf9fc000000000000000000000000000000000000000000000000000000000000000a",
        "nonce": "0x39",
        "accessList": []
      },
      "additionalContracts": [],
      "isFixedGasLimit": false
    },
    {
      "hash": null,
      "transactionType": "CALL",
      "contractName": null,
      "contractAddress": "0x8263007844439F1A1423AE633994B6245e4508Bc",
      "function": "mint(address,uint256)",
      "arguments": [
        "0xF92D18CdFa0EE4C76701d54dEd6fB20ca635F1A2",
        "10"
      ],
      "transaction": {
        "type": "0x02",
        "from": "0xf92d18cdfa0ee4c76701d54ded6fb20ca635f1a2",
        "to": "0x8263007844439f1a1423ae633994b6245e4508bc",
        "gas": "0x20069e",
        "value": "0x1d6cc76e126500",
        "data": "0x40c10f19000000000000000000000000f92d18cdfa0ee4c76701d54ded6fb20ca635f1a2000000000000000000000000000000000000000000000000000000000000000a",
        "nonce": "0x35",
        "accessList": []
      },
      "additionalContracts": [],
      "isFixedGasLimit": false
    },
    {
      "hash": null,
      "transactionType": "CALL",
      "contractName": null,
      "contractAddress": "0x8263007844439F1A1423AE633994B6245e4508Bc",
      "function": "mint(address,uint256)",
      "arguments": [
        "0xD4C7E8652c97127EE260057e2dC245D42F21DDA7",
        "10"
      ],
      "transaction": {
        "type": "0x02",
        "from": "0xd4c7e8652c97127ee260057e2dc245d42f21dda7",
        "to": "0x8263007844439f1a1423ae633994b6245e4508bc",
        "gas": "0x20069e",
        "value": "0x1d6cc76e126500",
        "data": "0x40c10f19000000000000000000000000d4c7e8652c97127ee260057e2dc245d42f21dda7000000000000000000000000000000000000000000000000000000000000000a",
        "nonce": "0x44",
        "accessList": []
      },
      "additionalContracts": [],
      "isFixedGasLimit": false
    }
  ],
  "receipts": [
    {
      "transactionHash": "0x6017ee9d02830618f05db654ce63a238cef791485097395dc2c5250103ee3dd7",
      "transactionIndex": "0x1",
      "blockHash": "0xbd41a635ee2010a1b6ed3370fafb45253bae0a559cb49857de1912b28116110c",
      "blockNumber": "0x2ae81c1",
      "from": "0x298334B4895392b0BA15261194cF1642A4adf9Fc",
      "to": "0x8263007844439F1A1423AE633994B6245e4508Bc",
      "cumulativeGasUsed": "0x181d1e",
      "gasUsed": "0x172fa7",
      "contractAddress": null,
      "logs": [
        {
          "address": "0x0000000000000000000000000000000000001010",
          "topics": [
            "0xe6497e3ee548a3372136af2fcb0696db31fc6cf20260707645068bd3fe97f3c4",
            "0x0000000000000000000000000000000000000000000000000000000000001010",
            "0x000000000000000000000000298334b4895392b0ba15261194cf1642a4adf9fc",
            "0x0000000000000000000000008263007844439f1a1423ae633994b6245e4508bc"
          ],
          "data": "0x000000000000000000000000000000000000000000000000001d6cc76e1265000000000000000000000000000000000000000000000000003cabd263fe29d97c00000000000000000000000000000000000000000000000000000000000000000000000000000000000000000000000000000000000000003c8e659c9017747c000000000000000000000000000000000000000000000000001d6cc76e126500",
          "blockHash": "0xbd41a635ee2010a1b6ed3370fafb45253bae0a559cb49857de1912b28116110c",
          "blockNumber": "0x2ae81c1",
          "transactionHash": "0x6017ee9d02830618f05db654ce63a238cef791485097395dc2c5250103ee3dd7",
          "transactionIndex": "0x1",
          "logIndex": "0x2",
          "removed": false
        },
        {
          "address": "0x0000000000000000000000000000000000001010",
          "topics": [
            "0xe6497e3ee548a3372136af2fcb0696db31fc6cf20260707645068bd3fe97f3c4",
            "0x0000000000000000000000000000000000000000000000000000000000001010",
            "0x0000000000000000000000008263007844439f1a1423ae633994b6245e4508bc",
            "0x0000000000000000000000003f512308d9312d184e8e2a13e47c99d1c9a6956a"
          ],
          "data": "0x000000000000000000000000000000000000000000000000001d6cc76e126500000000000000000000000000000000000000000000000000001d6cc76e12650000000000000000000000000000000000000000000000000014a31eb3e2021cb6000000000000000000000000000000000000000000000000000000000000000000000000000000000000000000000000000000000000000014c08b7b501481b6",
          "blockHash": "0xbd41a635ee2010a1b6ed3370fafb45253bae0a559cb49857de1912b28116110c",
          "blockNumber": "0x2ae81c1",
          "transactionHash": "0x6017ee9d02830618f05db654ce63a238cef791485097395dc2c5250103ee3dd7",
          "transactionIndex": "0x1",
          "logIndex": "0x3",
          "removed": false
        },
        {
          "address": "0x3f512308d9312d184E8E2a13E47C99D1c9A6956A",
          "topics": [
            "0x8e47b87b0ef542cdfa1659c551d88bad38aa7f452d2bbb349ab7530dfec8be8f"
          ],
          "data": "0x0000000000000000000000008263007844439f1a1423ae633994b6245e4508bc000000000000000000000000000000000000000000000000001d6cc76e126500",
          "blockHash": "0xbd41a635ee2010a1b6ed3370fafb45253bae0a559cb49857de1912b28116110c",
          "blockNumber": "0x2ae81c1",
          "transactionHash": "0x6017ee9d02830618f05db654ce63a238cef791485097395dc2c5250103ee3dd7",
          "transactionIndex": "0x1",
          "logIndex": "0x4",
          "removed": false
        },
        {
          "address": "0x7a1BaC17Ccc5b313516C5E16fb24f7659aA5ebed",
          "topics": [
            "0x63373d1c4696214b898952999c9aaec57dac1ee2723cec59bea6888f489a9772",
            "0x4b09e658ed251bcafeebbc69400383d49f344ace09b9576fe248bb02c003fe9f",
            "0x0000000000000000000000000000000000000000000000000000000000000b33",
            "0x0000000000000000000000008263007844439f1a1423ae633994b6245e4508bc"
          ],
          "data": "0x34f485f4f8f272434e55fa20cfdb239a75dc6d2b7d64258069bdf6ae4fc2a10e336016bab1b9b8441cc5d48459633da837a9f1032e06863e3fd318c655f66553000000000000000000000000000000000000000000000000000000000000000300000000000000000000000000000000000000000000000000000000000f42400000000000000000000000000000000000000000000000000000000000000001",
          "blockHash": "0xbd41a635ee2010a1b6ed3370fafb45253bae0a559cb49857de1912b28116110c",
          "blockNumber": "0x2ae81c1",
          "transactionHash": "0x6017ee9d02830618f05db654ce63a238cef791485097395dc2c5250103ee3dd7",
          "transactionIndex": "0x1",
          "logIndex": "0x5",
          "removed": false
        },
        {
          "address": "0x8263007844439F1A1423AE633994B6245e4508Bc",
          "topics": [
            "0xf2dc9a29f1b257c57ef50cb6c0230cacc6af60a01e5e51bde6ee1657f214a347"
          ],
          "data": "0x34f485f4f8f272434e55fa20cfdb239a75dc6d2b7d64258069bdf6ae4fc2a10e",
          "blockHash": "0xbd41a635ee2010a1b6ed3370fafb45253bae0a559cb49857de1912b28116110c",
          "blockNumber": "0x2ae81c1",
          "transactionHash": "0x6017ee9d02830618f05db654ce63a238cef791485097395dc2c5250103ee3dd7",
          "transactionIndex": "0x1",
          "logIndex": "0x6",
          "removed": false
        },
        {
          "address": "0x8263007844439F1A1423AE633994B6245e4508Bc",
          "topics": [
            "0xddf252ad1be2c89b69c2b068fc378daa952ba7f163c4a11628f55a4df523b3ef",
            "0x0000000000000000000000000000000000000000000000000000000000000000",
            "0x000000000000000000000000298334b4895392b0ba15261194cf1642a4adf9fc",
            "0x00000000000000000000000000000000000000000000000000000000000009b0"
          ],
          "data": "0x",
          "blockHash": "0xbd41a635ee2010a1b6ed3370fafb45253bae0a559cb49857de1912b28116110c",
          "blockNumber": "0x2ae81c1",
          "transactionHash": "0x6017ee9d02830618f05db654ce63a238cef791485097395dc2c5250103ee3dd7",
          "transactionIndex": "0x1",
          "logIndex": "0x7",
          "removed": false
        },
        {
          "address": "0x8263007844439F1A1423AE633994B6245e4508Bc",
          "topics": [
            "0xddf252ad1be2c89b69c2b068fc378daa952ba7f163c4a11628f55a4df523b3ef",
            "0x0000000000000000000000000000000000000000000000000000000000000000",
            "0x000000000000000000000000298334b4895392b0ba15261194cf1642a4adf9fc",
            "0x00000000000000000000000000000000000000000000000000000000000009b1"
          ],
          "data": "0x",
          "blockHash": "0xbd41a635ee2010a1b6ed3370fafb45253bae0a559cb49857de1912b28116110c",
          "blockNumber": "0x2ae81c1",
          "transactionHash": "0x6017ee9d02830618f05db654ce63a238cef791485097395dc2c5250103ee3dd7",
          "transactionIndex": "0x1",
          "logIndex": "0x8",
          "removed": false
        },
        {
          "address": "0x8263007844439F1A1423AE633994B6245e4508Bc",
          "topics": [
            "0xddf252ad1be2c89b69c2b068fc378daa952ba7f163c4a11628f55a4df523b3ef",
            "0x0000000000000000000000000000000000000000000000000000000000000000",
            "0x000000000000000000000000298334b4895392b0ba15261194cf1642a4adf9fc",
            "0x00000000000000000000000000000000000000000000000000000000000009b2"
          ],
          "data": "0x",
          "blockHash": "0xbd41a635ee2010a1b6ed3370fafb45253bae0a559cb49857de1912b28116110c",
          "blockNumber": "0x2ae81c1",
          "transactionHash": "0x6017ee9d02830618f05db654ce63a238cef791485097395dc2c5250103ee3dd7",
          "transactionIndex": "0x1",
          "logIndex": "0x9",
          "removed": false
        },
        {
          "address": "0x8263007844439F1A1423AE633994B6245e4508Bc",
          "topics": [
            "0xddf252ad1be2c89b69c2b068fc378daa952ba7f163c4a11628f55a4df523b3ef",
            "0x0000000000000000000000000000000000000000000000000000000000000000",
            "0x000000000000000000000000298334b4895392b0ba15261194cf1642a4adf9fc",
            "0x00000000000000000000000000000000000000000000000000000000000009b3"
          ],
          "data": "0x",
          "blockHash": "0xbd41a635ee2010a1b6ed3370fafb45253bae0a559cb49857de1912b28116110c",
          "blockNumber": "0x2ae81c1",
          "transactionHash": "0x6017ee9d02830618f05db654ce63a238cef791485097395dc2c5250103ee3dd7",
          "transactionIndex": "0x1",
          "logIndex": "0xa",
          "removed": false
        },
        {
          "address": "0x8263007844439F1A1423AE633994B6245e4508Bc",
          "topics": [
            "0xddf252ad1be2c89b69c2b068fc378daa952ba7f163c4a11628f55a4df523b3ef",
            "0x0000000000000000000000000000000000000000000000000000000000000000",
            "0x000000000000000000000000298334b4895392b0ba15261194cf1642a4adf9fc",
            "0x00000000000000000000000000000000000000000000000000000000000009b4"
          ],
          "data": "0x",
          "blockHash": "0xbd41a635ee2010a1b6ed3370fafb45253bae0a559cb49857de1912b28116110c",
          "blockNumber": "0x2ae81c1",
          "transactionHash": "0x6017ee9d02830618f05db654ce63a238cef791485097395dc2c5250103ee3dd7",
          "transactionIndex": "0x1",
          "logIndex": "0xb",
          "removed": false
        },
        {
          "address": "0x8263007844439F1A1423AE633994B6245e4508Bc",
          "topics": [
            "0xddf252ad1be2c89b69c2b068fc378daa952ba7f163c4a11628f55a4df523b3ef",
            "0x0000000000000000000000000000000000000000000000000000000000000000",
            "0x000000000000000000000000298334b4895392b0ba15261194cf1642a4adf9fc",
            "0x00000000000000000000000000000000000000000000000000000000000009b5"
          ],
          "data": "0x",
          "blockHash": "0xbd41a635ee2010a1b6ed3370fafb45253bae0a559cb49857de1912b28116110c",
          "blockNumber": "0x2ae81c1",
          "transactionHash": "0x6017ee9d02830618f05db654ce63a238cef791485097395dc2c5250103ee3dd7",
          "transactionIndex": "0x1",
          "logIndex": "0xc",
          "removed": false
        },
        {
          "address": "0x8263007844439F1A1423AE633994B6245e4508Bc",
          "topics": [
            "0xddf252ad1be2c89b69c2b068fc378daa952ba7f163c4a11628f55a4df523b3ef",
            "0x0000000000000000000000000000000000000000000000000000000000000000",
            "0x000000000000000000000000298334b4895392b0ba15261194cf1642a4adf9fc",
            "0x00000000000000000000000000000000000000000000000000000000000009b6"
          ],
          "data": "0x",
          "blockHash": "0xbd41a635ee2010a1b6ed3370fafb45253bae0a559cb49857de1912b28116110c",
          "blockNumber": "0x2ae81c1",
          "transactionHash": "0x6017ee9d02830618f05db654ce63a238cef791485097395dc2c5250103ee3dd7",
          "transactionIndex": "0x1",
          "logIndex": "0xd",
          "removed": false
        },
        {
          "address": "0x8263007844439F1A1423AE633994B6245e4508Bc",
          "topics": [
            "0xddf252ad1be2c89b69c2b068fc378daa952ba7f163c4a11628f55a4df523b3ef",
            "0x0000000000000000000000000000000000000000000000000000000000000000",
            "0x000000000000000000000000298334b4895392b0ba15261194cf1642a4adf9fc",
            "0x00000000000000000000000000000000000000000000000000000000000009b7"
          ],
          "data": "0x",
          "blockHash": "0xbd41a635ee2010a1b6ed3370fafb45253bae0a559cb49857de1912b28116110c",
          "blockNumber": "0x2ae81c1",
          "transactionHash": "0x6017ee9d02830618f05db654ce63a238cef791485097395dc2c5250103ee3dd7",
          "transactionIndex": "0x1",
          "logIndex": "0xe",
          "removed": false
        },
        {
          "address": "0x8263007844439F1A1423AE633994B6245e4508Bc",
          "topics": [
            "0xddf252ad1be2c89b69c2b068fc378daa952ba7f163c4a11628f55a4df523b3ef",
            "0x0000000000000000000000000000000000000000000000000000000000000000",
            "0x000000000000000000000000298334b4895392b0ba15261194cf1642a4adf9fc",
            "0x00000000000000000000000000000000000000000000000000000000000009b8"
          ],
          "data": "0x",
          "blockHash": "0xbd41a635ee2010a1b6ed3370fafb45253bae0a559cb49857de1912b28116110c",
          "blockNumber": "0x2ae81c1",
          "transactionHash": "0x6017ee9d02830618f05db654ce63a238cef791485097395dc2c5250103ee3dd7",
          "transactionIndex": "0x1",
          "logIndex": "0xf",
          "removed": false
        },
        {
          "address": "0x8263007844439F1A1423AE633994B6245e4508Bc",
          "topics": [
            "0xddf252ad1be2c89b69c2b068fc378daa952ba7f163c4a11628f55a4df523b3ef",
            "0x0000000000000000000000000000000000000000000000000000000000000000",
            "0x000000000000000000000000298334b4895392b0ba15261194cf1642a4adf9fc",
            "0x00000000000000000000000000000000000000000000000000000000000009b9"
          ],
          "data": "0x",
          "blockHash": "0xbd41a635ee2010a1b6ed3370fafb45253bae0a559cb49857de1912b28116110c",
          "blockNumber": "0x2ae81c1",
          "transactionHash": "0x6017ee9d02830618f05db654ce63a238cef791485097395dc2c5250103ee3dd7",
          "transactionIndex": "0x1",
          "logIndex": "0x10",
          "removed": false
        },
        {
          "address": "0x0000000000000000000000000000000000001010",
          "topics": [
            "0x4dfe1bbbcf077ddc3e01291eea2d5c70c2b422b415d95645b9adcfd678cb1d63",
            "0x0000000000000000000000000000000000000000000000000000000000001010",
            "0x000000000000000000000000298334b4895392b0ba15261194cf1642a4adf9fc",
            "0x000000000000000000000000f903ba9e006193c1527bfbe65fe2123704ea3f99"
          ],
          "data": "0x00000000000000000000000000000000000000000000000000a1f40d7bd934000000000000000000000000000000000000000000000000003d8b8511f41664be0000000000000000000000000000000000000000000012cc684a64d4abfba1860000000000000000000000000000000000000000000000003ce99104783d30be0000000000000000000000000000000000000000000012cc68ec58e227d4d586",
          "blockHash": "0xbd41a635ee2010a1b6ed3370fafb45253bae0a559cb49857de1912b28116110c",
          "blockNumber": "0x2ae81c1",
          "transactionHash": "0x6017ee9d02830618f05db654ce63a238cef791485097395dc2c5250103ee3dd7",
          "transactionIndex": "0x1",
          "logIndex": "0x11",
          "removed": false
        }
      ],
      "status": "0x1",
      "logsBloom": "0x020000040000000004040030000000080400000000000000000000300000040000000000000000200000001000000000200080000000000040080000000000000100008000100008000000080000228000000000000010000001000000000000200000a0020000000000040100000800000004200004040880000010100200000004000400000008000000000400001000000010004400000000008000000000200000000000400000000000000000000010000080000000000000000000004000001002800010000001000000004000000000000000900000128000001020001008000000000300000100000201000000080800010000010000000000105000",
      "type": "0x2",
      "effectiveGasPrice": "0x6fc23ac0f"
    },
    {
      "transactionHash": "0x42bb3cd5b86e01cffac852b16508f9b84f110f53298445e60dbbf76abef3d79a",
      "transactionIndex": "0x1",
      "blockHash": "0xb9f603f1b6fc0f5f18945e84571c81ecf56efa2c3748ae2cad27f83b3c376b1f",
      "blockNumber": "0x2ae81c5",
      "from": "0xF92D18CdFa0EE4C76701d54dEd6fB20ca635F1A2",
      "to": "0x8263007844439F1A1423AE633994B6245e4508Bc",
      "cumulativeGasUsed": "0x18724d",
      "gasUsed": "0x172fa7",
      "contractAddress": null,
      "logs": [
        {
          "address": "0x0000000000000000000000000000000000001010",
          "topics": [
            "0xe6497e3ee548a3372136af2fcb0696db31fc6cf20260707645068bd3fe97f3c4",
            "0x0000000000000000000000000000000000000000000000000000000000001010",
            "0x000000000000000000000000f92d18cdfa0ee4c76701d54ded6fb20ca635f1a2",
            "0x0000000000000000000000008263007844439f1a1423ae633994b6245e4508bc"
          ],
          "data": "0x000000000000000000000000000000000000000000000000001d6cc76e1265000000000000000000000000000000000000000000000000001bebc1599628bb8f00000000000000000000000000000000000000000000000000000000000000000000000000000000000000000000000000000000000000001bce54922816568f000000000000000000000000000000000000000000000000001d6cc76e126500",
          "blockHash": "0xb9f603f1b6fc0f5f18945e84571c81ecf56efa2c3748ae2cad27f83b3c376b1f",
          "blockNumber": "0x2ae81c5",
          "transactionHash": "0x42bb3cd5b86e01cffac852b16508f9b84f110f53298445e60dbbf76abef3d79a",
          "transactionIndex": "0x1",
          "logIndex": "0x3",
          "removed": false
        },
        {
          "address": "0x0000000000000000000000000000000000001010",
          "topics": [
            "0xe6497e3ee548a3372136af2fcb0696db31fc6cf20260707645068bd3fe97f3c4",
            "0x0000000000000000000000000000000000000000000000000000000000001010",
            "0x0000000000000000000000008263007844439f1a1423ae633994b6245e4508bc",
            "0x0000000000000000000000003f512308d9312d184e8e2a13e47c99d1c9a6956a"
          ],
          "data": "0x000000000000000000000000000000000000000000000000001d6cc76e126500000000000000000000000000000000000000000000000000001d6cc76e12650000000000000000000000000000000000000000000000000014c08b7b501481b6000000000000000000000000000000000000000000000000000000000000000000000000000000000000000000000000000000000000000014ddf842be26e6b6",
          "blockHash": "0xb9f603f1b6fc0f5f18945e84571c81ecf56efa2c3748ae2cad27f83b3c376b1f",
          "blockNumber": "0x2ae81c5",
          "transactionHash": "0x42bb3cd5b86e01cffac852b16508f9b84f110f53298445e60dbbf76abef3d79a",
          "transactionIndex": "0x1",
          "logIndex": "0x4",
          "removed": false
        },
        {
          "address": "0x3f512308d9312d184E8E2a13E47C99D1c9A6956A",
          "topics": [
            "0x8e47b87b0ef542cdfa1659c551d88bad38aa7f452d2bbb349ab7530dfec8be8f"
          ],
          "data": "0x0000000000000000000000008263007844439f1a1423ae633994b6245e4508bc000000000000000000000000000000000000000000000000001d6cc76e126500",
          "blockHash": "0xb9f603f1b6fc0f5f18945e84571c81ecf56efa2c3748ae2cad27f83b3c376b1f",
          "blockNumber": "0x2ae81c5",
          "transactionHash": "0x42bb3cd5b86e01cffac852b16508f9b84f110f53298445e60dbbf76abef3d79a",
          "transactionIndex": "0x1",
          "logIndex": "0x5",
          "removed": false
        },
        {
          "address": "0x7a1BaC17Ccc5b313516C5E16fb24f7659aA5ebed",
          "topics": [
            "0x63373d1c4696214b898952999c9aaec57dac1ee2723cec59bea6888f489a9772",
            "0x4b09e658ed251bcafeebbc69400383d49f344ace09b9576fe248bb02c003fe9f",
            "0x0000000000000000000000000000000000000000000000000000000000000b33",
            "0x0000000000000000000000008263007844439f1a1423ae633994b6245e4508bc"
          ],
          "data": "0xe167f8302c10e45eb48ee7e0faa3078d79b63f61af57612349551aa1caa7a99660f4b6aba22f9790b4a5e51fd3fd5011edf41356fdad918df478c99cc3d5a0c8000000000000000000000000000000000000000000000000000000000000000300000000000000000000000000000000000000000000000000000000000f42400000000000000000000000000000000000000000000000000000000000000001",
          "blockHash": "0xb9f603f1b6fc0f5f18945e84571c81ecf56efa2c3748ae2cad27f83b3c376b1f",
          "blockNumber": "0x2ae81c5",
          "transactionHash": "0x42bb3cd5b86e01cffac852b16508f9b84f110f53298445e60dbbf76abef3d79a",
          "transactionIndex": "0x1",
          "logIndex": "0x6",
          "removed": false
        },
        {
          "address": "0x8263007844439F1A1423AE633994B6245e4508Bc",
          "topics": [
            "0xf2dc9a29f1b257c57ef50cb6c0230cacc6af60a01e5e51bde6ee1657f214a347"
          ],
          "data": "0xe167f8302c10e45eb48ee7e0faa3078d79b63f61af57612349551aa1caa7a996",
          "blockHash": "0xb9f603f1b6fc0f5f18945e84571c81ecf56efa2c3748ae2cad27f83b3c376b1f",
          "blockNumber": "0x2ae81c5",
          "transactionHash": "0x42bb3cd5b86e01cffac852b16508f9b84f110f53298445e60dbbf76abef3d79a",
          "transactionIndex": "0x1",
          "logIndex": "0x7",
          "removed": false
        },
        {
          "address": "0x8263007844439F1A1423AE633994B6245e4508Bc",
          "topics": [
            "0xddf252ad1be2c89b69c2b068fc378daa952ba7f163c4a11628f55a4df523b3ef",
            "0x0000000000000000000000000000000000000000000000000000000000000000",
            "0x000000000000000000000000f92d18cdfa0ee4c76701d54ded6fb20ca635f1a2",
            "0x00000000000000000000000000000000000000000000000000000000000009ba"
          ],
          "data": "0x",
          "blockHash": "0xb9f603f1b6fc0f5f18945e84571c81ecf56efa2c3748ae2cad27f83b3c376b1f",
          "blockNumber": "0x2ae81c5",
          "transactionHash": "0x42bb3cd5b86e01cffac852b16508f9b84f110f53298445e60dbbf76abef3d79a",
          "transactionIndex": "0x1",
          "logIndex": "0x8",
          "removed": false
        },
        {
          "address": "0x8263007844439F1A1423AE633994B6245e4508Bc",
          "topics": [
            "0xddf252ad1be2c89b69c2b068fc378daa952ba7f163c4a11628f55a4df523b3ef",
            "0x0000000000000000000000000000000000000000000000000000000000000000",
            "0x000000000000000000000000f92d18cdfa0ee4c76701d54ded6fb20ca635f1a2",
            "0x00000000000000000000000000000000000000000000000000000000000009bb"
          ],
          "data": "0x",
          "blockHash": "0xb9f603f1b6fc0f5f18945e84571c81ecf56efa2c3748ae2cad27f83b3c376b1f",
          "blockNumber": "0x2ae81c5",
          "transactionHash": "0x42bb3cd5b86e01cffac852b16508f9b84f110f53298445e60dbbf76abef3d79a",
          "transactionIndex": "0x1",
          "logIndex": "0x9",
          "removed": false
        },
        {
          "address": "0x8263007844439F1A1423AE633994B6245e4508Bc",
          "topics": [
            "0xddf252ad1be2c89b69c2b068fc378daa952ba7f163c4a11628f55a4df523b3ef",
            "0x0000000000000000000000000000000000000000000000000000000000000000",
            "0x000000000000000000000000f92d18cdfa0ee4c76701d54ded6fb20ca635f1a2",
            "0x00000000000000000000000000000000000000000000000000000000000009bc"
          ],
          "data": "0x",
          "blockHash": "0xb9f603f1b6fc0f5f18945e84571c81ecf56efa2c3748ae2cad27f83b3c376b1f",
          "blockNumber": "0x2ae81c5",
          "transactionHash": "0x42bb3cd5b86e01cffac852b16508f9b84f110f53298445e60dbbf76abef3d79a",
          "transactionIndex": "0x1",
          "logIndex": "0xa",
          "removed": false
        },
        {
          "address": "0x8263007844439F1A1423AE633994B6245e4508Bc",
          "topics": [
            "0xddf252ad1be2c89b69c2b068fc378daa952ba7f163c4a11628f55a4df523b3ef",
            "0x0000000000000000000000000000000000000000000000000000000000000000",
            "0x000000000000000000000000f92d18cdfa0ee4c76701d54ded6fb20ca635f1a2",
            "0x00000000000000000000000000000000000000000000000000000000000009bd"
          ],
          "data": "0x",
          "blockHash": "0xb9f603f1b6fc0f5f18945e84571c81ecf56efa2c3748ae2cad27f83b3c376b1f",
          "blockNumber": "0x2ae81c5",
          "transactionHash": "0x42bb3cd5b86e01cffac852b16508f9b84f110f53298445e60dbbf76abef3d79a",
          "transactionIndex": "0x1",
          "logIndex": "0xb",
          "removed": false
        },
        {
          "address": "0x8263007844439F1A1423AE633994B6245e4508Bc",
          "topics": [
            "0xddf252ad1be2c89b69c2b068fc378daa952ba7f163c4a11628f55a4df523b3ef",
            "0x0000000000000000000000000000000000000000000000000000000000000000",
            "0x000000000000000000000000f92d18cdfa0ee4c76701d54ded6fb20ca635f1a2",
            "0x00000000000000000000000000000000000000000000000000000000000009be"
          ],
          "data": "0x",
          "blockHash": "0xb9f603f1b6fc0f5f18945e84571c81ecf56efa2c3748ae2cad27f83b3c376b1f",
          "blockNumber": "0x2ae81c5",
          "transactionHash": "0x42bb3cd5b86e01cffac852b16508f9b84f110f53298445e60dbbf76abef3d79a",
          "transactionIndex": "0x1",
          "logIndex": "0xc",
          "removed": false
        },
        {
          "address": "0x8263007844439F1A1423AE633994B6245e4508Bc",
          "topics": [
            "0xddf252ad1be2c89b69c2b068fc378daa952ba7f163c4a11628f55a4df523b3ef",
            "0x0000000000000000000000000000000000000000000000000000000000000000",
            "0x000000000000000000000000f92d18cdfa0ee4c76701d54ded6fb20ca635f1a2",
            "0x00000000000000000000000000000000000000000000000000000000000009bf"
          ],
          "data": "0x",
          "blockHash": "0xb9f603f1b6fc0f5f18945e84571c81ecf56efa2c3748ae2cad27f83b3c376b1f",
          "blockNumber": "0x2ae81c5",
          "transactionHash": "0x42bb3cd5b86e01cffac852b16508f9b84f110f53298445e60dbbf76abef3d79a",
          "transactionIndex": "0x1",
          "logIndex": "0xd",
          "removed": false
        },
        {
          "address": "0x8263007844439F1A1423AE633994B6245e4508Bc",
          "topics": [
            "0xddf252ad1be2c89b69c2b068fc378daa952ba7f163c4a11628f55a4df523b3ef",
            "0x0000000000000000000000000000000000000000000000000000000000000000",
            "0x000000000000000000000000f92d18cdfa0ee4c76701d54ded6fb20ca635f1a2",
            "0x00000000000000000000000000000000000000000000000000000000000009c0"
          ],
          "data": "0x",
          "blockHash": "0xb9f603f1b6fc0f5f18945e84571c81ecf56efa2c3748ae2cad27f83b3c376b1f",
          "blockNumber": "0x2ae81c5",
          "transactionHash": "0x42bb3cd5b86e01cffac852b16508f9b84f110f53298445e60dbbf76abef3d79a",
          "transactionIndex": "0x1",
          "logIndex": "0xe",
          "removed": false
        },
        {
          "address": "0x8263007844439F1A1423AE633994B6245e4508Bc",
          "topics": [
            "0xddf252ad1be2c89b69c2b068fc378daa952ba7f163c4a11628f55a4df523b3ef",
            "0x0000000000000000000000000000000000000000000000000000000000000000",
            "0x000000000000000000000000f92d18cdfa0ee4c76701d54ded6fb20ca635f1a2",
            "0x00000000000000000000000000000000000000000000000000000000000009c1"
          ],
          "data": "0x",
          "blockHash": "0xb9f603f1b6fc0f5f18945e84571c81ecf56efa2c3748ae2cad27f83b3c376b1f",
          "blockNumber": "0x2ae81c5",
          "transactionHash": "0x42bb3cd5b86e01cffac852b16508f9b84f110f53298445e60dbbf76abef3d79a",
          "transactionIndex": "0x1",
          "logIndex": "0xf",
          "removed": false
        },
        {
          "address": "0x8263007844439F1A1423AE633994B6245e4508Bc",
          "topics": [
            "0xddf252ad1be2c89b69c2b068fc378daa952ba7f163c4a11628f55a4df523b3ef",
            "0x0000000000000000000000000000000000000000000000000000000000000000",
            "0x000000000000000000000000f92d18cdfa0ee4c76701d54ded6fb20ca635f1a2",
            "0x00000000000000000000000000000000000000000000000000000000000009c2"
          ],
          "data": "0x",
          "blockHash": "0xb9f603f1b6fc0f5f18945e84571c81ecf56efa2c3748ae2cad27f83b3c376b1f",
          "blockNumber": "0x2ae81c5",
          "transactionHash": "0x42bb3cd5b86e01cffac852b16508f9b84f110f53298445e60dbbf76abef3d79a",
          "transactionIndex": "0x1",
          "logIndex": "0x10",
          "removed": false
        },
        {
          "address": "0x8263007844439F1A1423AE633994B6245e4508Bc",
          "topics": [
            "0xddf252ad1be2c89b69c2b068fc378daa952ba7f163c4a11628f55a4df523b3ef",
            "0x0000000000000000000000000000000000000000000000000000000000000000",
            "0x000000000000000000000000f92d18cdfa0ee4c76701d54ded6fb20ca635f1a2",
            "0x00000000000000000000000000000000000000000000000000000000000009c3"
          ],
          "data": "0x",
          "blockHash": "0xb9f603f1b6fc0f5f18945e84571c81ecf56efa2c3748ae2cad27f83b3c376b1f",
          "blockNumber": "0x2ae81c5",
          "transactionHash": "0x42bb3cd5b86e01cffac852b16508f9b84f110f53298445e60dbbf76abef3d79a",
          "transactionIndex": "0x1",
          "logIndex": "0x11",
          "removed": false
        },
        {
          "address": "0x0000000000000000000000000000000000001010",
          "topics": [
            "0x4dfe1bbbcf077ddc3e01291eea2d5c70c2b422b415d95645b9adcfd678cb1d63",
            "0x0000000000000000000000000000000000000000000000000000000000001010",
            "0x000000000000000000000000f92d18cdfa0ee4c76701d54ded6fb20ca635f1a2",
            "0x000000000000000000000000f903ba9e006193c1527bfbe65fe2123704ea3f99"
          ],
          "data": "0x00000000000000000000000000000000000000000000000000a1f40d7bd934000000000000000000000000000000000000000000000000001ccb74078c1546d10000000000000000000000000000000000000000000012cc6967b476646578d50000000000000000000000000000000000000000000000001c297ffa103c12d10000000000000000000000000000000000000000000012cc6a09a883e03eacd5",
          "blockHash": "0xb9f603f1b6fc0f5f18945e84571c81ecf56efa2c3748ae2cad27f83b3c376b1f",
          "blockNumber": "0x2ae81c5",
          "transactionHash": "0x42bb3cd5b86e01cffac852b16508f9b84f110f53298445e60dbbf76abef3d79a",
          "transactionIndex": "0x1",
          "logIndex": "0x12",
          "removed": false
        }
      ],
      "status": "0x1",
      "logsBloom": "0x0300000000000400040400200004000804000001001000001000011000000400000000000000002000200110000000002000800000000000000c000000000000000000800000000800000008002022800000000000001000000500000000001000000080020000800000000140000800000004200000000080000010000000000000000000000000000000000000001000400010004000008000044000000000200000008000480000000000000000000010000000000001000000000000024000000002400010000001000000004000000000000000800000128001001020000008000000000100000100010200002800080002000000000000000000104000",
      "type": "0x2",
      "effectiveGasPrice": "0x6fc23ac0f"
    }
  ],
  "libraries": [],
  "pending": [],
  "returns": {},
  "timestamp": 1705802207,
  "chain": 80001,
  "multi": false,
  "commit": "9935aef"
}