{
  "transactions": [
    {
      "hash": "0x4a1b585c3403fe628a68644e0c3043fe726691170ebcc9ba945aff47c72de029",
      "transactionType": "CALL",
      "contractName": null,
      "contractAddress": "0x8263007844439F1A1423AE633994B6245e4508Bc",
      "function": "mint(address,uint256)",
      "arguments": [
        "0x298334B4895392b0BA15261194cF1642A4adf9Fc",
        "10"
      ],
      "transaction": {
        "type": "0x02",
        "from": "0x298334b4895392b0ba15261194cf1642a4adf9fc",
        "to": "0x8263007844439f1a1423ae633994b6245e4508bc",
        "gas": "0x20069e",
        "value": "0x1d1ae4ed7ae950",
        "data": "0x40c10f19000000000000000000000000298334b4895392b0ba15261194cf1642a4adf9fc000000000000000000000000000000000000000000000000000000000000000a",
        "nonce": "0x65",
        "accessList": []
      },
      "additionalContracts": [],
      "isFixedGasLimit": false
    },
    {
      "hash": "0x1a654d22022b5f4c25e86295f1d0c4aa957ca6ed73f246618a614301ac6ec36f",
      "transactionType": "CALL",
      "contractName": null,
      "contractAddress": "0x8263007844439F1A1423AE633994B6245e4508Bc",
      "function": "mint(address,uint256)",
      "arguments": [
        "0xF92D18CdFa0EE4C76701d54dEd6fB20ca635F1A2",
        "10"
      ],
      "transaction": {
        "type": "0x02",
        "from": "0xf92d18cdfa0ee4c76701d54ded6fb20ca635f1a2",
        "to": "0x8263007844439f1a1423ae633994b6245e4508bc",
        "gas": "0x20069e",
        "value": "0x1d1ae4ed7ae950",
        "data": "0x40c10f19000000000000000000000000f92d18cdfa0ee4c76701d54ded6fb20ca635f1a2000000000000000000000000000000000000000000000000000000000000000a",
        "nonce": "0x5e",
        "accessList": []
      },
      "additionalContracts": [],
      "isFixedGasLimit": false
    },
    {
      "hash": "0x66e9173673a12bd6ad6911d6bffab274fdd54ab83ca5030849d070f77c525be7",
      "transactionType": "CALL",
      "contractName": null,
      "contractAddress": "0x8263007844439F1A1423AE633994B6245e4508Bc",
      "function": "mint(address,uint256)",
      "arguments": [
        "0xD4C7E8652c97127EE260057e2dC245D42F21DDA7",
        "10"
      ],
      "transaction": {
        "type": "0x02",
        "from": "0xd4c7e8652c97127ee260057e2dc245d42f21dda7",
        "to": "0x8263007844439f1a1423ae633994b6245e4508bc",
        "gas": "0x20069e",
        "value": "0x1d1ae4ed7ae950",
        "data": "0x40c10f19000000000000000000000000d4c7e8652c97127ee260057e2dc245d42f21dda7000000000000000000000000000000000000000000000000000000000000000a",
        "nonce": "0x69",
        "accessList": []
      },
      "additionalContracts": [],
      "isFixedGasLimit": false
    },
    {
      "hash": null,
      "transactionType": "CALL",
      "contractName": null,
      "contractAddress": "0x8263007844439F1A1423AE633994B6245e4508Bc",
      "function": "mint(address,uint256)",
      "arguments": [
        "0x298334B4895392b0BA15261194cF1642A4adf9Fc",
        "10"
      ],
      "transaction": {
        "type": "0x02",
        "from": "0x298334b4895392b0ba15261194cf1642a4adf9fc",
        "to": "0x8263007844439f1a1423ae633994b6245e4508bc",
        "gas": "0x20069e",
        "value": "0x1d1ae4ed7ae950",
        "data": "0x40c10f19000000000000000000000000298334b4895392b0ba15261194cf1642a4adf9fc000000000000000000000000000000000000000000000000000000000000000a",
        "nonce": "0x66",
        "accessList": []
      },
      "additionalContracts": [],
      "isFixedGasLimit": false
    },
    {
      "hash": null,
      "transactionType": "CALL",
      "contractName": null,
      "contractAddress": "0x8263007844439F1A1423AE633994B6245e4508Bc",
      "function": "mint(address,uint256)",
      "arguments": [
        "0xF92D18CdFa0EE4C76701d54dEd6fB20ca635F1A2",
        "10"
      ],
      "transaction": {
        "type": "0x02",
        "from": "0xf92d18cdfa0ee4c76701d54ded6fb20ca635f1a2",
        "to": "0x8263007844439f1a1423ae633994b6245e4508bc",
        "gas": "0x20069e",
        "value": "0x1d1ae4ed7ae950",
        "data": "0x40c10f19000000000000000000000000f92d18cdfa0ee4c76701d54ded6fb20ca635f1a2000000000000000000000000000000000000000000000000000000000000000a",
        "nonce": "0x5f",
        "accessList": []
      },
      "additionalContracts": [],
      "isFixedGasLimit": false
    },
    {
      "hash": null,
      "transactionType": "CALL",
      "contractName": null,
      "contractAddress": "0x8263007844439F1A1423AE633994B6245e4508Bc",
      "function": "mint(address,uint256)",
      "arguments": [
        "0xD4C7E8652c97127EE260057e2dC245D42F21DDA7",
        "10"
      ],
      "transaction": {
        "type": "0x02",
        "from": "0xd4c7e8652c97127ee260057e2dc245d42f21dda7",
        "to": "0x8263007844439f1a1423ae633994b6245e4508bc",
        "gas": "0x20069e",
        "value": "0x1d1ae4ed7ae950",
        "data": "0x40c10f19000000000000000000000000d4c7e8652c97127ee260057e2dc245d42f21dda7000000000000000000000000000000000000000000000000000000000000000a",
        "nonce": "0x6a",
        "accessList": []
      },
      "additionalContracts": [],
      "isFixedGasLimit": false
    },
    {
      "hash": null,
      "transactionType": "CALL",
      "contractName": null,
      "contractAddress": "0x8263007844439F1A1423AE633994B6245e4508Bc",
      "function": "mint(address,uint256)",
      "arguments": [
        "0x298334B4895392b0BA15261194cF1642A4adf9Fc",
        "10"
      ],
      "transaction": {
        "type": "0x02",
        "from": "0x298334b4895392b0ba15261194cf1642a4adf9fc",
        "to": "0x8263007844439f1a1423ae633994b6245e4508bc",
        "gas": "0x20069e",
        "value": "0x1d1ae4ed7ae950",
        "data": "0x40c10f19000000000000000000000000298334b4895392b0ba15261194cf1642a4adf9fc000000000000000000000000000000000000000000000000000000000000000a",
        "nonce": "0x67",
        "accessList": []
      },
      "additionalContracts": [],
      "isFixedGasLimit": false
    },
    {
      "hash": null,
      "transactionType": "CALL",
      "contractName": null,
      "contractAddress": "0x8263007844439F1A1423AE633994B6245e4508Bc",
      "function": "mint(address,uint256)",
      "arguments": [
        "0xF92D18CdFa0EE4C76701d54dEd6fB20ca635F1A2",
        "10"
      ],
      "transaction": {
        "type": "0x02",
        "from": "0xf92d18cdfa0ee4c76701d54ded6fb20ca635f1a2",
        "to": "0x8263007844439f1a1423ae633994b6245e4508bc",
        "gas": "0x20069e",
        "value": "0x1d1ae4ed7ae950",
        "data": "0x40c10f19000000000000000000000000f92d18cdfa0ee4c76701d54ded6fb20ca635f1a2000000000000000000000000000000000000000000000000000000000000000a",
        "nonce": "0x60",
        "accessList": []
      },
      "additionalContracts": [],
      "isFixedGasLimit": false
    },
    {
      "hash": null,
      "transactionType": "CALL",
      "contractName": null,
      "contractAddress": "0x8263007844439F1A1423AE633994B6245e4508Bc",
      "function": "mint(address,uint256)",
      "arguments": [
        "0xD4C7E8652c97127EE260057e2dC245D42F21DDA7",
        "10"
      ],
      "transaction": {
        "type": "0x02",
        "from": "0xd4c7e8652c97127ee260057e2dc245d42f21dda7",
        "to": "0x8263007844439f1a1423ae633994b6245e4508bc",
        "gas": "0x20069e",
        "value": "0x1d1ae4ed7ae950",
        "data": "0x40c10f19000000000000000000000000d4c7e8652c97127ee260057e2dc245d42f21dda7000000000000000000000000000000000000000000000000000000000000000a",
        "nonce": "0x6b",
        "accessList": []
      },
      "additionalContracts": [],
      "isFixedGasLimit": false
    }
  ],
  "receipts": [
    {
      "transactionHash": "0x4a1b585c3403fe628a68644e0c3043fe726691170ebcc9ba945aff47c72de029",
      "transactionIndex": "0x0",
      "blockHash": "0x1e49096a2bfc1ebd0bf571324176da908534f898721e38ed148d3e2e4f51ae36",
      "blockNumber": "0x2aeb4bf",
      "from": "0x298334B4895392b0BA15261194cF1642A4adf9Fc",
      "to": "0x8263007844439F1A1423AE633994B6245e4508Bc",
      "cumulativeGasUsed": "0x172fa7",
      "gasUsed": "0x172fa7",
      "contractAddress": null,
      "logs": [
        {
          "address": "0x0000000000000000000000000000000000001010",
          "topics": [
            "0xe6497e3ee548a3372136af2fcb0696db31fc6cf20260707645068bd3fe97f3c4",
            "0x0000000000000000000000000000000000000000000000000000000000001010",
            "0x000000000000000000000000298334b4895392b0ba15261194cf1642a4adf9fc",
            "0x0000000000000000000000008263007844439f1a1423ae633994b6245e4508bc"
          ],
          "data": "0x000000000000000000000000000000000000000000000000001d1ae4ed7ae9500000000000000000000000000000000000000000000000001c7cd09c90386b3300000000000000000000000000000000000000000000000000000000000000000000000000000000000000000000000000000000000000001c5fb5b7a2bd81e3000000000000000000000000000000000000000000000000001d1ae4ed7ae950",
          "blockHash": "0x1e49096a2bfc1ebd0bf571324176da908534f898721e38ed148d3e2e4f51ae36",
          "blockNumber": "0x2aeb4bf",
          "transactionHash": "0x4a1b585c3403fe628a68644e0c3043fe726691170ebcc9ba945aff47c72de029",
          "transactionIndex": "0x0",
          "logIndex": "0x0",
          "removed": false
        },
        {
          "address": "0x0000000000000000000000000000000000001010",
          "topics": [
            "0xe6497e3ee548a3372136af2fcb0696db31fc6cf20260707645068bd3fe97f3c4",
            "0x0000000000000000000000000000000000000000000000000000000000001010",
            "0x0000000000000000000000008263007844439f1a1423ae633994b6245e4508bc",
            "0x0000000000000000000000003f512308d9312d184e8e2a13e47c99d1c9a6956a"
          ],
          "data": "0x000000000000000000000000000000000000000000000000001d1ae4ed7ae950000000000000000000000000000000000000000000000000001d1ae4ed7ae950000000000000000000000000000000000000000000000000227cab809ab8c16600000000000000000000000000000000000000000000000000000000000000000000000000000000000000000000000000000000000000002299c6658833aab6",
          "blockHash": "0x1e49096a2bfc1ebd0bf571324176da908534f898721e38ed148d3e2e4f51ae36",
          "blockNumber": "0x2aeb4bf",
          "transactionHash": "0x4a1b585c3403fe628a68644e0c3043fe726691170ebcc9ba945aff47c72de029",
          "transactionIndex": "0x0",
          "logIndex": "0x1",
          "removed": false
        },
        {
          "address": "0x3f512308d9312d184E8E2a13E47C99D1c9A6956A",
          "topics": [
            "0x8e47b87b0ef542cdfa1659c551d88bad38aa7f452d2bbb349ab7530dfec8be8f"
          ],
          "data": "0x0000000000000000000000008263007844439f1a1423ae633994b6245e4508bc000000000000000000000000000000000000000000000000001d1ae4ed7ae950",
          "blockHash": "0x1e49096a2bfc1ebd0bf571324176da908534f898721e38ed148d3e2e4f51ae36",
          "blockNumber": "0x2aeb4bf",
          "transactionHash": "0x4a1b585c3403fe628a68644e0c3043fe726691170ebcc9ba945aff47c72de029",
          "transactionIndex": "0x0",
          "logIndex": "0x2",
          "removed": false
        },
        {
          "address": "0x7a1BaC17Ccc5b313516C5E16fb24f7659aA5ebed",
          "topics": [
            "0x63373d1c4696214b898952999c9aaec57dac1ee2723cec59bea6888f489a9772",
            "0x4b09e658ed251bcafeebbc69400383d49f344ace09b9576fe248bb02c003fe9f",
            "0x0000000000000000000000000000000000000000000000000000000000000b33",
            "0x0000000000000000000000008263007844439f1a1423ae633994b6245e4508bc"
          ],
          "data": "0x630358934d7896685cf8e7893e558d7dfc27b0d12fe12a769d20ded21659b2d02ade4d3d808c87257644cda82f9877de415a9c70ba6b3f2b2e4c904f0a2a5e57000000000000000000000000000000000000000000000000000000000000000300000000000000000000000000000000000000000000000000000000000f42400000000000000000000000000000000000000000000000000000000000000001",
          "blockHash": "0x1e49096a2bfc1ebd0bf571324176da908534f898721e38ed148d3e2e4f51ae36",
          "blockNumber": "0x2aeb4bf",
          "transactionHash": "0x4a1b585c3403fe628a68644e0c3043fe726691170ebcc9ba945aff47c72de029",
          "transactionIndex": "0x0",
          "logIndex": "0x3",
          "removed": false
        },
        {
          "address": "0x8263007844439F1A1423AE633994B6245e4508Bc",
          "topics": [
            "0xf2dc9a29f1b257c57ef50cb6c0230cacc6af60a01e5e51bde6ee1657f214a347"
          ],
          "data": "0x630358934d7896685cf8e7893e558d7dfc27b0d12fe12a769d20ded21659b2d0",
          "blockHash": "0x1e49096a2bfc1ebd0bf571324176da908534f898721e38ed148d3e2e4f51ae36",
          "blockNumber": "0x2aeb4bf",
          "transactionHash": "0x4a1b585c3403fe628a68644e0c3043fe726691170ebcc9ba945aff47c72de029",
          "transactionIndex": "0x0",
          "logIndex": "0x4",
          "removed": false
        },
        {
          "address": "0x8263007844439F1A1423AE633994B6245e4508Bc",
          "topics": [
            "0xddf252ad1be2c89b69c2b068fc378daa952ba7f163c4a11628f55a4df523b3ef",
            "0x0000000000000000000000000000000000000000000000000000000000000000",
            "0x000000000000000000000000298334b4895392b0ba15261194cf1642a4adf9fc",
            "0x0000000000000000000000000000000000000000000000000000000000000e6a"
          ],
          "data": "0x",
          "blockHash": "0x1e49096a2bfc1ebd0bf571324176da908534f898721e38ed148d3e2e4f51ae36",
          "blockNumber": "0x2aeb4bf",
          "transactionHash": "0x4a1b585c3403fe628a68644e0c3043fe726691170ebcc9ba945aff47c72de029",
          "transactionIndex": "0x0",
          "logIndex": "0x5",
          "removed": false
        },
        {
          "address": "0x8263007844439F1A1423AE633994B6245e4508Bc",
          "topics": [
            "0xddf252ad1be2c89b69c2b068fc378daa952ba7f163c4a11628f55a4df523b3ef",
            "0x0000000000000000000000000000000000000000000000000000000000000000",
            "0x000000000000000000000000298334b4895392b0ba15261194cf1642a4adf9fc",
            "0x0000000000000000000000000000000000000000000000000000000000000e6b"
          ],
          "data": "0x",
          "blockHash": "0x1e49096a2bfc1ebd0bf571324176da908534f898721e38ed148d3e2e4f51ae36",
          "blockNumber": "0x2aeb4bf",
          "transactionHash": "0x4a1b585c3403fe628a68644e0c3043fe726691170ebcc9ba945aff47c72de029",
          "transactionIndex": "0x0",
          "logIndex": "0x6",
          "removed": false
        },
        {
          "address": "0x8263007844439F1A1423AE633994B6245e4508Bc",
          "topics": [
            "0xddf252ad1be2c89b69c2b068fc378daa952ba7f163c4a11628f55a4df523b3ef",
            "0x0000000000000000000000000000000000000000000000000000000000000000",
            "0x000000000000000000000000298334b4895392b0ba15261194cf1642a4adf9fc",
            "0x0000000000000000000000000000000000000000000000000000000000000e6c"
          ],
          "data": "0x",
          "blockHash": "0x1e49096a2bfc1ebd0bf571324176da908534f898721e38ed148d3e2e4f51ae36",
          "blockNumber": "0x2aeb4bf",
          "transactionHash": "0x4a1b585c3403fe628a68644e0c3043fe726691170ebcc9ba945aff47c72de029",
          "transactionIndex": "0x0",
          "logIndex": "0x7",
          "removed": false
        },
        {
          "address": "0x8263007844439F1A1423AE633994B6245e4508Bc",
          "topics": [
            "0xddf252ad1be2c89b69c2b068fc378daa952ba7f163c4a11628f55a4df523b3ef",
            "0x0000000000000000000000000000000000000000000000000000000000000000",
            "0x000000000000000000000000298334b4895392b0ba15261194cf1642a4adf9fc",
            "0x0000000000000000000000000000000000000000000000000000000000000e6d"
          ],
          "data": "0x",
          "blockHash": "0x1e49096a2bfc1ebd0bf571324176da908534f898721e38ed148d3e2e4f51ae36",
          "blockNumber": "0x2aeb4bf",
          "transactionHash": "0x4a1b585c3403fe628a68644e0c3043fe726691170ebcc9ba945aff47c72de029",
          "transactionIndex": "0x0",
          "logIndex": "0x8",
          "removed": false
        },
        {
          "address": "0x8263007844439F1A1423AE633994B6245e4508Bc",
          "topics": [
            "0xddf252ad1be2c89b69c2b068fc378daa952ba7f163c4a11628f55a4df523b3ef",
            "0x0000000000000000000000000000000000000000000000000000000000000000",
            "0x000000000000000000000000298334b4895392b0ba15261194cf1642a4adf9fc",
            "0x0000000000000000000000000000000000000000000000000000000000000e6e"
          ],
          "data": "0x",
          "blockHash": "0x1e49096a2bfc1ebd0bf571324176da908534f898721e38ed148d3e2e4f51ae36",
          "blockNumber": "0x2aeb4bf",
          "transactionHash": "0x4a1b585c3403fe628a68644e0c3043fe726691170ebcc9ba945aff47c72de029",
          "transactionIndex": "0x0",
          "logIndex": "0x9",
          "removed": false
        },
        {
          "address": "0x8263007844439F1A1423AE633994B6245e4508Bc",
          "topics": [
            "0xddf252ad1be2c89b69c2b068fc378daa952ba7f163c4a11628f55a4df523b3ef",
            "0x0000000000000000000000000000000000000000000000000000000000000000",
            "0x000000000000000000000000298334b4895392b0ba15261194cf1642a4adf9fc",
            "0x0000000000000000000000000000000000000000000000000000000000000e6f"
          ],
          "data": "0x",
          "blockHash": "0x1e49096a2bfc1ebd0bf571324176da908534f898721e38ed148d3e2e4f51ae36",
          "blockNumber": "0x2aeb4bf",
          "transactionHash": "0x4a1b585c3403fe628a68644e0c3043fe726691170ebcc9ba945aff47c72de029",
          "transactionIndex": "0x0",
          "logIndex": "0xa",
          "removed": false
        },
        {
          "address": "0x8263007844439F1A1423AE633994B6245e4508Bc",
          "topics": [
            "0xddf252ad1be2c89b69c2b068fc378daa952ba7f163c4a11628f55a4df523b3ef",
            "0x0000000000000000000000000000000000000000000000000000000000000000",
            "0x000000000000000000000000298334b4895392b0ba15261194cf1642a4adf9fc",
            "0x0000000000000000000000000000000000000000000000000000000000000e70"
          ],
          "data": "0x",
          "blockHash": "0x1e49096a2bfc1ebd0bf571324176da908534f898721e38ed148d3e2e4f51ae36",
          "blockNumber": "0x2aeb4bf",
          "transactionHash": "0x4a1b585c3403fe628a68644e0c3043fe726691170ebcc9ba945aff47c72de029",
          "transactionIndex": "0x0",
          "logIndex": "0xb",
          "removed": false
        },
        {
          "address": "0x8263007844439F1A1423AE633994B6245e4508Bc",
          "topics": [
            "0xddf252ad1be2c89b69c2b068fc378daa952ba7f163c4a11628f55a4df523b3ef",
            "0x0000000000000000000000000000000000000000000000000000000000000000",
            "0x000000000000000000000000298334b4895392b0ba15261194cf1642a4adf9fc",
            "0x0000000000000000000000000000000000000000000000000000000000000e71"
          ],
          "data": "0x",
          "blockHash": "0x1e49096a2bfc1ebd0bf571324176da908534f898721e38ed148d3e2e4f51ae36",
          "blockNumber": "0x2aeb4bf",
          "transactionHash": "0x4a1b585c3403fe628a68644e0c3043fe726691170ebcc9ba945aff47c72de029",
          "transactionIndex": "0x0",
          "logIndex": "0xc",
          "removed": false
        },
        {
          "address": "0x8263007844439F1A1423AE633994B6245e4508Bc",
          "topics": [
            "0xddf252ad1be2c89b69c2b068fc378daa952ba7f163c4a11628f55a4df523b3ef",
            "0x0000000000000000000000000000000000000000000000000000000000000000",
            "0x000000000000000000000000298334b4895392b0ba15261194cf1642a4adf9fc",
            "0x0000000000000000000000000000000000000000000000000000000000000e72"
          ],
          "data": "0x",
          "blockHash": "0x1e49096a2bfc1ebd0bf571324176da908534f898721e38ed148d3e2e4f51ae36",
          "blockNumber": "0x2aeb4bf",
          "transactionHash": "0x4a1b585c3403fe628a68644e0c3043fe726691170ebcc9ba945aff47c72de029",
          "transactionIndex": "0x0",
          "logIndex": "0xd",
          "removed": false
        },
        {
          "address": "0x8263007844439F1A1423AE633994B6245e4508Bc",
          "topics": [
            "0xddf252ad1be2c89b69c2b068fc378daa952ba7f163c4a11628f55a4df523b3ef",
            "0x0000000000000000000000000000000000000000000000000000000000000000",
            "0x000000000000000000000000298334b4895392b0ba15261194cf1642a4adf9fc",
            "0x0000000000000000000000000000000000000000000000000000000000000e73"
          ],
          "data": "0x",
          "blockHash": "0x1e49096a2bfc1ebd0bf571324176da908534f898721e38ed148d3e2e4f51ae36",
          "blockNumber": "0x2aeb4bf",
          "transactionHash": "0x4a1b585c3403fe628a68644e0c3043fe726691170ebcc9ba945aff47c72de029",
          "transactionIndex": "0x0",
          "logIndex": "0xe",
          "removed": false
        },
        {
          "address": "0x0000000000000000000000000000000000001010",
          "topics": [
            "0x4dfe1bbbcf077ddc3e01291eea2d5c70c2b422b415d95645b9adcfd678cb1d63",
            "0x0000000000000000000000000000000000000000000000000000000000001010",
            "0x000000000000000000000000298334b4895392b0ba15261194cf1642a4adf9fc",
            "0x000000000000000000000000be188d6641e8b680743a4815dfa0f6208038960f"
          ],
          "data": "0x00000000000000000000000000000000000000000000000000a1f40d7bd934000000000000000000000000000000000000000000000000001d5c834a8644fd130000000000000000000000000000000000000000000035fd527cd9d0f973ff4a0000000000000000000000000000000000000000000000001cba8f3d0a6bc9130000000000000000000000000000000000000000000035fd531ecdde754d334a",
          "blockHash": "0x1e49096a2bfc1ebd0bf571324176da908534f898721e38ed148d3e2e4f51ae36",
          "blockNumber": "0x2aeb4bf",
          "transactionHash": "0x4a1b585c3403fe628a68644e0c3043fe726691170ebcc9ba945aff47c72de029",
          "transactionIndex": "0x0",
          "logIndex": "0xf",
          "removed": false
        }
      ],
      "status": "0x1",
      "logsBloom": "0x020000000000000004040022000000080400000000000000000000010000060000000202000000800000001000000002200080000004000000080000000004000000008000000108000000080000228000000000000010000201000000200040000008a0020000010000000100000800002004200000080080000010000000000000000000000000000800000000001000000004004080080000000000000000600000000000400000000001000800000010002000100000000000000000004010001002000010000001001000004000000400000000800000128040000020000008000000000100008100000200000800080000000000010000000000100000",
      "type": "0x2",
      "effectiveGasPrice": "0x6fc23ac10"
    },
    {
      "transactionHash": "0x1a654d22022b5f4c25e86295f1d0c4aa957ca6ed73f246618a614301ac6ec36f",
      "transactionIndex": "0x0",
      "blockHash": "0xd6a7a9809637c0c8508186646c0c1bf62f2bae77d9406827bdb4d3e33e331481",
      "blockNumber": "0x2aeb4c1",
      "from": "0xF92D18CdFa0EE4C76701d54dEd6fB20ca635F1A2",
      "to": "0x8263007844439F1A1423AE633994B6245e4508Bc",
      "cumulativeGasUsed": "0x172fa7",
      "gasUsed": "0x172fa7",
      "contractAddress": null,
      "logs": [
        {
          "address": "0x0000000000000000000000000000000000001010",
          "topics": [
            "0xe6497e3ee548a3372136af2fcb0696db31fc6cf20260707645068bd3fe97f3c4",
            "0x0000000000000000000000000000000000000000000000000000000000001010",
            "0x000000000000000000000000f92d18cdfa0ee4c76701d54ded6fb20ca635f1a2",
            "0x0000000000000000000000008263007844439f1a1423ae633994b6245e4508bc"
          ],
          "data": "0x000000000000000000000000000000000000000000000000001d1ae4ed7ae9500000000000000000000000000000000000000000000000000bdadd4dbd84003800000000000000000000000000000000000000000000000000000000000000000000000000000000000000000000000000000000000000000bbdc268d00916e8000000000000000000000000000000000000000000000000001d1ae4ed7ae950",
          "blockHash": "0xd6a7a9809637c0c8508186646c0c1bf62f2bae77d9406827bdb4d3e33e331481",
          "blockNumber": "0x2aeb4c1",
          "transactionHash": "0x1a654d22022b5f4c25e86295f1d0c4aa957ca6ed73f246618a614301ac6ec36f",
          "transactionIndex": "0x0",
          "logIndex": "0x0",
          "removed": false
        },
        {
          "address": "0x0000000000000000000000000000000000001010",
          "topics": [
            "0xe6497e3ee548a3372136af2fcb0696db31fc6cf20260707645068bd3fe97f3c4",
            "0x0000000000000000000000000000000000000000000000000000000000001010",
            "0x0000000000000000000000008263007844439f1a1423ae633994b6245e4508bc",
            "0x0000000000000000000000003f512308d9312d184e8e2a13e47c99d1c9a6956a"
          ],
          "data": "0x000000000000000000000000000000000000000000000000001d1ae4ed7ae950000000000000000000000000000000000000000000000000001d1ae4ed7ae9500000000000000000000000000000000000000000000000002299c6658833aab6000000000000000000000000000000000000000000000000000000000000000000000000000000000000000000000000000000000000000022b6e14a75ae9406",
          "blockHash": "0xd6a7a9809637c0c8508186646c0c1bf62f2bae77d9406827bdb4d3e33e331481",
          "blockNumber": "0x2aeb4c1",
          "transactionHash": "0x1a654d22022b5f4c25e86295f1d0c4aa957ca6ed73f246618a614301ac6ec36f",
          "transactionIndex": "0x0",
          "logIndex": "0x1",
          "removed": false
        },
        {
          "address": "0x3f512308d9312d184E8E2a13E47C99D1c9A6956A",
          "topics": [
            "0x8e47b87b0ef542cdfa1659c551d88bad38aa7f452d2bbb349ab7530dfec8be8f"
          ],
          "data": "0x0000000000000000000000008263007844439f1a1423ae633994b6245e4508bc000000000000000000000000000000000000000000000000001d1ae4ed7ae950",
          "blockHash": "0xd6a7a9809637c0c8508186646c0c1bf62f2bae77d9406827bdb4d3e33e331481",
          "blockNumber": "0x2aeb4c1",
          "transactionHash": "0x1a654d22022b5f4c25e86295f1d0c4aa957ca6ed73f246618a614301ac6ec36f",
          "transactionIndex": "0x0",
          "logIndex": "0x2",
          "removed": false
        },
        {
          "address": "0x7a1BaC17Ccc5b313516C5E16fb24f7659aA5ebed",
          "topics": [
            "0x63373d1c4696214b898952999c9aaec57dac1ee2723cec59bea6888f489a9772",
            "0x4b09e658ed251bcafeebbc69400383d49f344ace09b9576fe248bb02c003fe9f",
            "0x0000000000000000000000000000000000000000000000000000000000000b33",
            "0x0000000000000000000000008263007844439f1a1423ae633994b6245e4508bc"
          ],
          "data": "0x1f1af572a0173a87695dee939433213b36c649369175e6e770f290df3a7ad662fb04ec36f43f22023c06d30acb84a274d5fb082623e496ca450bca85f5cd0362000000000000000000000000000000000000000000000000000000000000000300000000000000000000000000000000000000000000000000000000000f42400000000000000000000000000000000000000000000000000000000000000001",
          "blockHash": "0xd6a7a9809637c0c8508186646c0c1bf62f2bae77d9406827bdb4d3e33e331481",
          "blockNumber": "0x2aeb4c1",
          "transactionHash": "0x1a654d22022b5f4c25e86295f1d0c4aa957ca6ed73f246618a614301ac6ec36f",
          "transactionIndex": "0x0",
          "logIndex": "0x3",
          "removed": false
        },
        {
          "address": "0x8263007844439F1A1423AE633994B6245e4508Bc",
          "topics": [
            "0xf2dc9a29f1b257c57ef50cb6c0230cacc6af60a01e5e51bde6ee1657f214a347"
          ],
          "data": "0x1f1af572a0173a87695dee939433213b36c649369175e6e770f290df3a7ad662",
          "blockHash": "0xd6a7a9809637c0c8508186646c0c1bf62f2bae77d9406827bdb4d3e33e331481",
          "blockNumber": "0x2aeb4c1",
          "transactionHash": "0x1a654d22022b5f4c25e86295f1d0c4aa957ca6ed73f246618a614301ac6ec36f",
          "transactionIndex": "0x0",
          "logIndex": "0x4",
          "removed": false
        },
        {
          "address": "0x8263007844439F1A1423AE633994B6245e4508Bc",
          "topics": [
            "0xddf252ad1be2c89b69c2b068fc378daa952ba7f163c4a11628f55a4df523b3ef",
            "0x0000000000000000000000000000000000000000000000000000000000000000",
            "0x000000000000000000000000f92d18cdfa0ee4c76701d54ded6fb20ca635f1a2",
            "0x0000000000000000000000000000000000000000000000000000000000000e74"
          ],
          "data": "0x",
          "blockHash": "0xd6a7a9809637c0c8508186646c0c1bf62f2bae77d9406827bdb4d3e33e331481",
          "blockNumber": "0x2aeb4c1",
          "transactionHash": "0x1a654d22022b5f4c25e86295f1d0c4aa957ca6ed73f246618a614301ac6ec36f",
          "transactionIndex": "0x0",
          "logIndex": "0x5",
          "removed": false
        },
        {
          "address": "0x8263007844439F1A1423AE633994B6245e4508Bc",
          "topics": [
            "0xddf252ad1be2c89b69c2b068fc378daa952ba7f163c4a11628f55a4df523b3ef",
            "0x0000000000000000000000000000000000000000000000000000000000000000",
            "0x000000000000000000000000f92d18cdfa0ee4c76701d54ded6fb20ca635f1a2",
            "0x0000000000000000000000000000000000000000000000000000000000000e75"
          ],
          "data": "0x",
          "blockHash": "0xd6a7a9809637c0c8508186646c0c1bf62f2bae77d9406827bdb4d3e33e331481",
          "blockNumber": "0x2aeb4c1",
          "transactionHash": "0x1a654d22022b5f4c25e86295f1d0c4aa957ca6ed73f246618a614301ac6ec36f",
          "transactionIndex": "0x0",
          "logIndex": "0x6",
          "removed": false
        },
        {
          "address": "0x8263007844439F1A1423AE633994B6245e4508Bc",
          "topics": [
            "0xddf252ad1be2c89b69c2b068fc378daa952ba7f163c4a11628f55a4df523b3ef",
            "0x0000000000000000000000000000000000000000000000000000000000000000",
            "0x000000000000000000000000f92d18cdfa0ee4c76701d54ded6fb20ca635f1a2",
            "0x0000000000000000000000000000000000000000000000000000000000000e76"
          ],
          "data": "0x",
          "blockHash": "0xd6a7a9809637c0c8508186646c0c1bf62f2bae77d9406827bdb4d3e33e331481",
          "blockNumber": "0x2aeb4c1",
          "transactionHash": "0x1a654d22022b5f4c25e86295f1d0c4aa957ca6ed73f246618a614301ac6ec36f",
          "transactionIndex": "0x0",
          "logIndex": "0x7",
          "removed": false
        },
        {
          "address": "0x8263007844439F1A1423AE633994B6245e4508Bc",
          "topics": [
            "0xddf252ad1be2c89b69c2b068fc378daa952ba7f163c4a11628f55a4df523b3ef",
            "0x0000000000000000000000000000000000000000000000000000000000000000",
            "0x000000000000000000000000f92d18cdfa0ee4c76701d54ded6fb20ca635f1a2",
            "0x0000000000000000000000000000000000000000000000000000000000000e77"
          ],
          "data": "0x",
          "blockHash": "0xd6a7a9809637c0c8508186646c0c1bf62f2bae77d9406827bdb4d3e33e331481",
          "blockNumber": "0x2aeb4c1",
          "transactionHash": "0x1a654d22022b5f4c25e86295f1d0c4aa957ca6ed73f246618a614301ac6ec36f",
          "transactionIndex": "0x0",
          "logIndex": "0x8",
          "removed": false
        },
        {
          "address": "0x8263007844439F1A1423AE633994B6245e4508Bc",
          "topics": [
            "0xddf252ad1be2c89b69c2b068fc378daa952ba7f163c4a11628f55a4df523b3ef",
            "0x0000000000000000000000000000000000000000000000000000000000000000",
            "0x000000000000000000000000f92d18cdfa0ee4c76701d54ded6fb20ca635f1a2",
            "0x0000000000000000000000000000000000000000000000000000000000000e78"
          ],
          "data": "0x",
          "blockHash": "0xd6a7a9809637c0c8508186646c0c1bf62f2bae77d9406827bdb4d3e33e331481",
          "blockNumber": "0x2aeb4c1",
          "transactionHash": "0x1a654d22022b5f4c25e86295f1d0c4aa957ca6ed73f246618a614301ac6ec36f",
          "transactionIndex": "0x0",
          "logIndex": "0x9",
          "removed": false
        },
        {
          "address": "0x8263007844439F1A1423AE633994B6245e4508Bc",
          "topics": [
            "0xddf252ad1be2c89b69c2b068fc378daa952ba7f163c4a11628f55a4df523b3ef",
            "0x0000000000000000000000000000000000000000000000000000000000000000",
            "0x000000000000000000000000f92d18cdfa0ee4c76701d54ded6fb20ca635f1a2",
            "0x0000000000000000000000000000000000000000000000000000000000000e79"
          ],
          "data": "0x",
          "blockHash": "0xd6a7a9809637c0c8508186646c0c1bf62f2bae77d9406827bdb4d3e33e331481",
          "blockNumber": "0x2aeb4c1",
          "transactionHash": "0x1a654d22022b5f4c25e86295f1d0c4aa957ca6ed73f246618a614301ac6ec36f",
          "transactionIndex": "0x0",
          "logIndex": "0xa",
          "removed": false
        },
        {
          "address": "0x8263007844439F1A1423AE633994B6245e4508Bc",
          "topics": [
            "0xddf252ad1be2c89b69c2b068fc378daa952ba7f163c4a11628f55a4df523b3ef",
            "0x0000000000000000000000000000000000000000000000000000000000000000",
            "0x000000000000000000000000f92d18cdfa0ee4c76701d54ded6fb20ca635f1a2",
            "0x0000000000000000000000000000000000000000000000000000000000000e7a"
          ],
          "data": "0x",
          "blockHash": "0xd6a7a9809637c0c8508186646c0c1bf62f2bae77d9406827bdb4d3e33e331481",
          "blockNumber": "0x2aeb4c1",
          "transactionHash": "0x1a654d22022b5f4c25e86295f1d0c4aa957ca6ed73f246618a614301ac6ec36f",
          "transactionIndex": "0x0",
          "logIndex": "0xb",
          "removed": false
        },
        {
          "address": "0x8263007844439F1A1423AE633994B6245e4508Bc",
          "topics": [
            "0xddf252ad1be2c89b69c2b068fc378daa952ba7f163c4a11628f55a4df523b3ef",
            "0x0000000000000000000000000000000000000000000000000000000000000000",
            "0x000000000000000000000000f92d18cdfa0ee4c76701d54ded6fb20ca635f1a2",
            "0x0000000000000000000000000000000000000000000000000000000000000e7b"
          ],
          "data": "0x",
          "blockHash": "0xd6a7a9809637c0c8508186646c0c1bf62f2bae77d9406827bdb4d3e33e331481",
          "blockNumber": "0x2aeb4c1",
          "transactionHash": "0x1a654d22022b5f4c25e86295f1d0c4aa957ca6ed73f246618a614301ac6ec36f",
          "transactionIndex": "0x0",
          "logIndex": "0xc",
          "removed": false
        },
        {
          "address": "0x8263007844439F1A1423AE633994B6245e4508Bc",
          "topics": [
            "0xddf252ad1be2c89b69c2b068fc378daa952ba7f163c4a11628f55a4df523b3ef",
            "0x0000000000000000000000000000000000000000000000000000000000000000",
            "0x000000000000000000000000f92d18cdfa0ee4c76701d54ded6fb20ca635f1a2",
            "0x0000000000000000000000000000000000000000000000000000000000000e7c"
          ],
          "data": "0x",
          "blockHash": "0xd6a7a9809637c0c8508186646c0c1bf62f2bae77d9406827bdb4d3e33e331481",
          "blockNumber": "0x2aeb4c1",
          "transactionHash": "0x1a654d22022b5f4c25e86295f1d0c4aa957ca6ed73f246618a614301ac6ec36f",
          "transactionIndex": "0x0",
          "logIndex": "0xd",
          "removed": false
        },
        {
          "address": "0x8263007844439F1A1423AE633994B6245e4508Bc",
          "topics": [
            "0xddf252ad1be2c89b69c2b068fc378daa952ba7f163c4a11628f55a4df523b3ef",
            "0x0000000000000000000000000000000000000000000000000000000000000000",
            "0x000000000000000000000000f92d18cdfa0ee4c76701d54ded6fb20ca635f1a2",
            "0x0000000000000000000000000000000000000000000000000000000000000e7d"
          ],
          "data": "0x",
          "blockHash": "0xd6a7a9809637c0c8508186646c0c1bf62f2bae77d9406827bdb4d3e33e331481",
          "blockNumber": "0x2aeb4c1",
          "transactionHash": "0x1a654d22022b5f4c25e86295f1d0c4aa957ca6ed73f246618a614301ac6ec36f",
          "transactionIndex": "0x0",
          "logIndex": "0xe",
          "removed": false
        },
        {
          "address": "0x0000000000000000000000000000000000001010",
          "topics": [
            "0x4dfe1bbbcf077ddc3e01291eea2d5c70c2b422b415d95645b9adcfd678cb1d63",
            "0x0000000000000000000000000000000000000000000000000000000000001010",
            "0x000000000000000000000000f92d18cdfa0ee4c76701d54ded6fb20ca635f1a2",
            "0x000000000000000000000000c275dc8be39f50d12f66b6a63629c39da5bae5bd"
          ],
          "data": "0x00000000000000000000000000000000000000000000000000a1f40d7bd934000000000000000000000000000000000000000000000000000cba8ffbb39092180000000000000000000000000000000000000000000013f84ee80cf42f714c590000000000000000000000000000000000000000000000000c189bee37b75e180000000000000000000000000000000000000000000013f84f8a0101ab4a8059",
          "blockHash": "0xd6a7a9809637c0c8508186646c0c1bf62f2bae77d9406827bdb4d3e33e331481",
          "blockNumber": "0x2aeb4c1",
          "transactionHash": "0x1a654d22022b5f4c25e86295f1d0c4aa957ca6ed73f246618a614301ac6ec36f",
          "transactionIndex": "0x0",
          "logIndex": "0xf",
          "removed": false
        }
      ],
      "status": "0x1",
      "logsBloom": "0x02000000000000000404002000000008040001000000000000000100000004100000010000000000000000100020180020008000002000000008040000000000000000800000000800000008000022800000000100081000040100000000000000800080020000410000000101080800000004200000003080000010000000000000000000000000000000000008001400000000004000000000040000000000200000008000400000000000000000000011000000800000000040000000004000000002000010000001000000024000000000000000800000128040020020000408000000000110008100000200000000280000200000000002000000100000",
      "type": "0x2",
      "effectiveGasPrice": "0x6fc23ac10"
    }
  ],
  "libraries": [],
  "pending": [],
  "returns": {},
  "timestamp": 1705841843,
  "chain": 80001,
  "multi": false,
  "commit": "9935aef"
}