{
  "transactions": [
    {
      "hash": "0xd4fd30c683248f0dced918cc8f23cd7e8ad2aa376c6f954166b469b3b0f9c5ff",
      "transactionType": "CALL",
      "contractName": null,
      "contractAddress": "0x8263007844439F1A1423AE633994B6245e4508Bc",
      "function": "mint(address,uint256)",
      "arguments": [
        "0x298334B4895392b0BA15261194cF1642A4adf9Fc",
        "10"
      ],
      "transaction": {
        "type": "0x02",
        "from": "0x298334b4895392b0ba15261194cf1642a4adf9fc",
        "to": "0x8263007844439f1a1423ae633994b6245e4508bc",
        "gas": "0x1fe7bc",
        "value": "0x1b084477a5ca60",
        "data": "0x40c10f19000000000000000000000000298334b4895392b0ba15261194cf1642a4adf9fc000000000000000000000000000000000000000000000000000000000000000a",
        "nonce": "0x15",
        "accessList": []
      },
      "additionalContracts": [],
      "isFixedGasLimit": false
    },
    {
      "hash": "0x17500a10ab0ed996bd946da6ca46b922a9e3c562122ee019e20dc6d9bd1dddb8",
      "transactionType": "CALL",
      "contractName": null,
      "contractAddress": "0x8263007844439F1A1423AE633994B6245e4508Bc",
      "function": "mint(address,uint256)",
      "arguments": [
        "0xF92D18CdFa0EE4C76701d54dEd6fB20ca635F1A2",
        "10"
      ],
      "transaction": {
        "type": "0x02",
        "from": "0xf92d18cdfa0ee4c76701d54ded6fb20ca635f1a2",
        "to": "0x8263007844439f1a1423ae633994b6245e4508bc",
        "gas": "0x1fe7bc",
        "value": "0x1b084477a5ca60",
        "data": "0x40c10f19000000000000000000000000f92d18cdfa0ee4c76701d54ded6fb20ca635f1a2000000000000000000000000000000000000000000000000000000000000000a",
        "nonce": "0x14",
        "accessList": []
      },
      "additionalContracts": [],
      "isFixedGasLimit": false
    },
    {
      "hash": "0x3c8fd760efa8308463a30e18a43d6ee71a18ff9e8b6380f901f859d312b6c541",
      "transactionType": "CALL",
      "contractName": null,
      "contractAddress": "0x8263007844439F1A1423AE633994B6245e4508Bc",
      "function": "mint(address,uint256)",
      "arguments": [
        "0xD4C7E8652c97127EE260057e2dC245D42F21DDA7",
        "10"
      ],
      "transaction": {
        "type": "0x02",
        "from": "0xd4c7e8652c97127ee260057e2dc245d42f21dda7",
        "to": "0x8263007844439f1a1423ae633994b6245e4508bc",
        "gas": "0x1fe7bc",
        "value": "0x1b084477a5ca60",
        "data": "0x40c10f19000000000000000000000000d4c7e8652c97127ee260057e2dc245d42f21dda7000000000000000000000000000000000000000000000000000000000000000a",
        "nonce": "0x27",
        "accessList": []
      },
      "additionalContracts": [],
      "isFixedGasLimit": false
    },
    {
      "hash": null,
      "transactionType": "CALL",
      "contractName": null,
      "contractAddress": "0x8263007844439F1A1423AE633994B6245e4508Bc",
      "function": "mint(address,uint256)",
      "arguments": [
        "0x298334B4895392b0BA15261194cF1642A4adf9Fc",
        "10"
      ],
      "transaction": {
        "type": "0x02",
        "from": "0x298334b4895392b0ba15261194cf1642a4adf9fc",
        "to": "0x8263007844439f1a1423ae633994b6245e4508bc",
        "gas": "0x1fe7bc",
        "value": "0x1b084477a5ca60",
        "data": "0x40c10f19000000000000000000000000298334b4895392b0ba15261194cf1642a4adf9fc000000000000000000000000000000000000000000000000000000000000000a",
        "nonce": "0x16",
        "accessList": []
      },
      "additionalContracts": [],
      "isFixedGasLimit": false
    },
    {
      "hash": null,
      "transactionType": "CALL",
      "contractName": null,
      "contractAddress": "0x8263007844439F1A1423AE633994B6245e4508Bc",
      "function": "mint(address,uint256)",
      "arguments": [
        "0xF92D18CdFa0EE4C76701d54dEd6fB20ca635F1A2",
        "10"
      ],
      "transaction": {
        "type": "0x02",
        "from": "0xf92d18cdfa0ee4c76701d54ded6fb20ca635f1a2",
        "to": "0x8263007844439f1a1423ae633994b6245e4508bc",
        "gas": "0x1fe7bc",
        "value": "0x1b084477a5ca60",
        "data": "0x40c10f19000000000000000000000000f92d18cdfa0ee4c76701d54ded6fb20ca635f1a2000000000000000000000000000000000000000000000000000000000000000a",
        "nonce": "0x15",
        "accessList": []
      },
      "additionalContracts": [],
      "isFixedGasLimit": false
    },
    {
      "hash": null,
      "transactionType": "CALL",
      "contractName": null,
      "contractAddress": "0x8263007844439F1A1423AE633994B6245e4508Bc",
      "function": "mint(address,uint256)",
      "arguments": [
        "0xD4C7E8652c97127EE260057e2dC245D42F21DDA7",
        "10"
      ],
      "transaction": {
        "type": "0x02",
        "from": "0xd4c7e8652c97127ee260057e2dc245d42f21dda7",
        "to": "0x8263007844439f1a1423ae633994b6245e4508bc",
        "gas": "0x1fe7bc",
        "value": "0x1b084477a5ca60",
        "data": "0x40c10f19000000000000000000000000d4c7e8652c97127ee260057e2dc245d42f21dda7000000000000000000000000000000000000000000000000000000000000000a",
        "nonce": "0x28",
        "accessList": []
      },
      "additionalContracts": [],
      "isFixedGasLimit": false
    },
    {
      "hash": null,
      "transactionType": "CALL",
      "contractName": null,
      "contractAddress": "0x8263007844439F1A1423AE633994B6245e4508Bc",
      "function": "mint(address,uint256)",
      "arguments": [
        "0x298334B4895392b0BA15261194cF1642A4adf9Fc",
        "10"
      ],
      "transaction": {
        "type": "0x02",
        "from": "0x298334b4895392b0ba15261194cf1642a4adf9fc",
        "to": "0x8263007844439f1a1423ae633994b6245e4508bc",
        "gas": "0x1fe7bc",
        "value": "0x1b084477a5ca60",
        "data": "0x40c10f19000000000000000000000000298334b4895392b0ba15261194cf1642a4adf9fc000000000000000000000000000000000000000000000000000000000000000a",
        "nonce": "0x17",
        "accessList": []
      },
      "additionalContracts": [],
      "isFixedGasLimit": false
    },
    {
      "hash": null,
      "transactionType": "CALL",
      "contractName": null,
      "contractAddress": "0x8263007844439F1A1423AE633994B6245e4508Bc",
      "function": "mint(address,uint256)",
      "arguments": [
        "0xF92D18CdFa0EE4C76701d54dEd6fB20ca635F1A2",
        "10"
      ],
      "transaction": {
        "type": "0x02",
        "from": "0xf92d18cdfa0ee4c76701d54ded6fb20ca635f1a2",
        "to": "0x8263007844439f1a1423ae633994b6245e4508bc",
        "gas": "0x1fe7bc",
        "value": "0x1b084477a5ca60",
        "data": "0x40c10f19000000000000000000000000f92d18cdfa0ee4c76701d54ded6fb20ca635f1a2000000000000000000000000000000000000000000000000000000000000000a",
        "nonce": "0x16",
        "accessList": []
      },
      "additionalContracts": [],
      "isFixedGasLimit": false
    },
    {
      "hash": null,
      "transactionType": "CALL",
      "contractName": null,
      "contractAddress": "0x8263007844439F1A1423AE633994B6245e4508Bc",
      "function": "mint(address,uint256)",
      "arguments": [
        "0xD4C7E8652c97127EE260057e2dC245D42F21DDA7",
        "10"
      ],
      "transaction": {
        "type": "0x02",
        "from": "0xd4c7e8652c97127ee260057e2dc245d42f21dda7",
        "to": "0x8263007844439f1a1423ae633994b6245e4508bc",
        "gas": "0x1fe7bc",
        "value": "0x1b084477a5ca60",
        "data": "0x40c10f19000000000000000000000000d4c7e8652c97127ee260057e2dc245d42f21dda7000000000000000000000000000000000000000000000000000000000000000a",
        "nonce": "0x29",
        "accessList": []
      },
      "additionalContracts": [],
      "isFixedGasLimit": false
    }
  ],
  "receipts": [
    {
      "transactionHash": "0xd4fd30c683248f0dced918cc8f23cd7e8ad2aa376c6f954166b469b3b0f9c5ff",
      "transactionIndex": "0x0",
      "blockHash": "0xb494f98189ef3cd9a315276ca9338102f57f9ca8a5a21b009333c45db15c0a47",
      "blockNumber": "0x2ab3e35",
      "from": "0x298334B4895392b0BA15261194cF1642A4adf9Fc",
      "to": "0x8263007844439F1A1423AE633994B6245e4508Bc",
      "cumulativeGasUsed": "0x17194c",
      "gasUsed": "0x17194c",
      "contractAddress": null,
      "logs": [
        {
          "address": "0x0000000000000000000000000000000000001010",
          "topics": [
            "0xe6497e3ee548a3372136af2fcb0696db31fc6cf20260707645068bd3fe97f3c4",
            "0x0000000000000000000000000000000000000000000000000000000000001010",
            "0x000000000000000000000000298334b4895392b0ba15261194cf1642a4adf9fc",
            "0x0000000000000000000000008263007844439f1a1423ae633994b6245e4508bc"
          ],
          "data": "0x000000000000000000000000000000000000000000000000001b084477a5ca600000000000000000000000000000000000000000000000005231b13db7e200c900000000000000000000000000000000000000000000000000000000000000000000000000000000000000000000000000000000000000005216a8f9403c3669000000000000000000000000000000000000000000000000001b084477a5ca60",
          "blockHash": "0xb494f98189ef3cd9a315276ca9338102f57f9ca8a5a21b009333c45db15c0a47",
          "blockNumber": "0x2ab3e35",
          "transactionHash": "0xd4fd30c683248f0dced918cc8f23cd7e8ad2aa376c6f954166b469b3b0f9c5ff",
          "transactionIndex": "0x0",
          "logIndex": "0x0",
          "removed": false
        },
        {
          "address": "0x0000000000000000000000000000000000001010",
          "topics": [
            "0xe6497e3ee548a3372136af2fcb0696db31fc6cf20260707645068bd3fe97f3c4",
            "0x0000000000000000000000000000000000000000000000000000000000001010",
            "0x0000000000000000000000008263007844439f1a1423ae633994b6245e4508bc",
            "0x0000000000000000000000003f512308d9312d184e8e2a13e47c99d1c9a6956a"
          ],
          "data": "0x000000000000000000000000000000000000000000000000001b084477a5ca60000000000000000000000000000000000000000000000000001b084477a5ca600000000000000000000000000000000000000000000000000ba60cabbb8d61e600000000000000000000000000000000000000000000000000000000000000000000000000000000000000000000000000000000000000000bc114f033332c46",
          "blockHash": "0xb494f98189ef3cd9a315276ca9338102f57f9ca8a5a21b009333c45db15c0a47",
          "blockNumber": "0x2ab3e35",
          "transactionHash": "0xd4fd30c683248f0dced918cc8f23cd7e8ad2aa376c6f954166b469b3b0f9c5ff",
          "transactionIndex": "0x0",
          "logIndex": "0x1",
          "removed": false
        },
        {
          "address": "0x3f512308d9312d184E8E2a13E47C99D1c9A6956A",
          "topics": [
            "0x8e47b87b0ef542cdfa1659c551d88bad38aa7f452d2bbb349ab7530dfec8be8f"
          ],
          "data": "0x0000000000000000000000008263007844439f1a1423ae633994b6245e4508bc000000000000000000000000000000000000000000000000001b084477a5ca60",
          "blockHash": "0xb494f98189ef3cd9a315276ca9338102f57f9ca8a5a21b009333c45db15c0a47",
          "blockNumber": "0x2ab3e35",
          "transactionHash": "0xd4fd30c683248f0dced918cc8f23cd7e8ad2aa376c6f954166b469b3b0f9c5ff",
          "transactionIndex": "0x0",
          "logIndex": "0x2",
          "removed": false
        },
        {
          "address": "0x7a1BaC17Ccc5b313516C5E16fb24f7659aA5ebed",
          "topics": [
            "0x63373d1c4696214b898952999c9aaec57dac1ee2723cec59bea6888f489a9772",
            "0x4b09e658ed251bcafeebbc69400383d49f344ace09b9576fe248bb02c003fe9f",
            "0x0000000000000000000000000000000000000000000000000000000000000b33",
            "0x0000000000000000000000008263007844439f1a1423ae633994b6245e4508bc"
          ],
          "data": "0xdd0421a7a9aa263a29634af295d5466a59acba4092d9d3bab3daab8f811fbfab7bfa40e0b065588f982fc392ee64b1c229cc9f0b82f479e2cfc4f6428cee388e000000000000000000000000000000000000000000000000000000000000000300000000000000000000000000000000000000000000000000000000000f42400000000000000000000000000000000000000000000000000000000000000001",
          "blockHash": "0xb494f98189ef3cd9a315276ca9338102f57f9ca8a5a21b009333c45db15c0a47",
          "blockNumber": "0x2ab3e35",
          "transactionHash": "0xd4fd30c683248f0dced918cc8f23cd7e8ad2aa376c6f954166b469b3b0f9c5ff",
          "transactionIndex": "0x0",
          "logIndex": "0x3",
          "removed": false
        },
        {
          "address": "0x8263007844439F1A1423AE633994B6245e4508Bc",
          "topics": [
            "0xf2dc9a29f1b257c57ef50cb6c0230cacc6af60a01e5e51bde6ee1657f214a347"
          ],
          "data": "0xdd0421a7a9aa263a29634af295d5466a59acba4092d9d3bab3daab8f811fbfab",
          "blockHash": "0xb494f98189ef3cd9a315276ca9338102f57f9ca8a5a21b009333c45db15c0a47",
          "blockNumber": "0x2ab3e35",
          "transactionHash": "0xd4fd30c683248f0dced918cc8f23cd7e8ad2aa376c6f954166b469b3b0f9c5ff",
          "transactionIndex": "0x0",
          "logIndex": "0x4",
          "removed": false
        },
        {
          "address": "0x8263007844439F1A1423AE633994B6245e4508Bc",
          "topics": [
            "0xddf252ad1be2c89b69c2b068fc378daa952ba7f163c4a11628f55a4df523b3ef",
            "0x0000000000000000000000000000000000000000000000000000000000000000",
            "0x000000000000000000000000298334b4895392b0ba15261194cf1642a4adf9fc",
            "0x0000000000000000000000000000000000000000000000000000000000000666"
          ],
          "data": "0x",
          "blockHash": "0xb494f98189ef3cd9a315276ca9338102f57f9ca8a5a21b009333c45db15c0a47",
          "blockNumber": "0x2ab3e35",
          "transactionHash": "0xd4fd30c683248f0dced918cc8f23cd7e8ad2aa376c6f954166b469b3b0f9c5ff",
          "transactionIndex": "0x0",
          "logIndex": "0x5",
          "removed": false
        },
        {
          "address": "0x8263007844439F1A1423AE633994B6245e4508Bc",
          "topics": [
            "0xddf252ad1be2c89b69c2b068fc378daa952ba7f163c4a11628f55a4df523b3ef",
            "0x0000000000000000000000000000000000000000000000000000000000000000",
            "0x000000000000000000000000298334b4895392b0ba15261194cf1642a4adf9fc",
            "0x0000000000000000000000000000000000000000000000000000000000000667"
          ],
          "data": "0x",
          "blockHash": "0xb494f98189ef3cd9a315276ca9338102f57f9ca8a5a21b009333c45db15c0a47",
          "blockNumber": "0x2ab3e35",
          "transactionHash": "0xd4fd30c683248f0dced918cc8f23cd7e8ad2aa376c6f954166b469b3b0f9c5ff",
          "transactionIndex": "0x0",
          "logIndex": "0x6",
          "removed": false
        },
        {
          "address": "0x8263007844439F1A1423AE633994B6245e4508Bc",
          "topics": [
            "0xddf252ad1be2c89b69c2b068fc378daa952ba7f163c4a11628f55a4df523b3ef",
            "0x0000000000000000000000000000000000000000000000000000000000000000",
            "0x000000000000000000000000298334b4895392b0ba15261194cf1642a4adf9fc",
            "0x0000000000000000000000000000000000000000000000000000000000000668"
          ],
          "data": "0x",
          "blockHash": "0xb494f98189ef3cd9a315276ca9338102f57f9ca8a5a21b009333c45db15c0a47",
          "blockNumber": "0x2ab3e35",
          "transactionHash": "0xd4fd30c683248f0dced918cc8f23cd7e8ad2aa376c6f954166b469b3b0f9c5ff",
          "transactionIndex": "0x0",
          "logIndex": "0x7",
          "removed": false
        },
        {
          "address": "0x8263007844439F1A1423AE633994B6245e4508Bc",
          "topics": [
            "0xddf252ad1be2c89b69c2b068fc378daa952ba7f163c4a11628f55a4df523b3ef",
            "0x0000000000000000000000000000000000000000000000000000000000000000",
            "0x000000000000000000000000298334b4895392b0ba15261194cf1642a4adf9fc",
            "0x0000000000000000000000000000000000000000000000000000000000000669"
          ],
          "data": "0x",
          "blockHash": "0xb494f98189ef3cd9a315276ca9338102f57f9ca8a5a21b009333c45db15c0a47",
          "blockNumber": "0x2ab3e35",
          "transactionHash": "0xd4fd30c683248f0dced918cc8f23cd7e8ad2aa376c6f954166b469b3b0f9c5ff",
          "transactionIndex": "0x0",
          "logIndex": "0x8",
          "removed": false
        },
        {
          "address": "0x8263007844439F1A1423AE633994B6245e4508Bc",
          "topics": [
            "0xddf252ad1be2c89b69c2b068fc378daa952ba7f163c4a11628f55a4df523b3ef",
            "0x0000000000000000000000000000000000000000000000000000000000000000",
            "0x000000000000000000000000298334b4895392b0ba15261194cf1642a4adf9fc",
            "0x000000000000000000000000000000000000000000000000000000000000066a"
          ],
          "data": "0x",
          "blockHash": "0xb494f98189ef3cd9a315276ca9338102f57f9ca8a5a21b009333c45db15c0a47",
          "blockNumber": "0x2ab3e35",
          "transactionHash": "0xd4fd30c683248f0dced918cc8f23cd7e8ad2aa376c6f954166b469b3b0f9c5ff",
          "transactionIndex": "0x0",
          "logIndex": "0x9",
          "removed": false
        },
        {
          "address": "0x8263007844439F1A1423AE633994B6245e4508Bc",
          "topics": [
            "0xddf252ad1be2c89b69c2b068fc378daa952ba7f163c4a11628f55a4df523b3ef",
            "0x0000000000000000000000000000000000000000000000000000000000000000",
            "0x000000000000000000000000298334b4895392b0ba15261194cf1642a4adf9fc",
            "0x000000000000000000000000000000000000000000000000000000000000066b"
          ],
          "data": "0x",
          "blockHash": "0xb494f98189ef3cd9a315276ca9338102f57f9ca8a5a21b009333c45db15c0a47",
          "blockNumber": "0x2ab3e35",
          "transactionHash": "0xd4fd30c683248f0dced918cc8f23cd7e8ad2aa376c6f954166b469b3b0f9c5ff",
          "transactionIndex": "0x0",
          "logIndex": "0xa",
          "removed": false
        },
        {
          "address": "0x8263007844439F1A1423AE633994B6245e4508Bc",
          "topics": [
            "0xddf252ad1be2c89b69c2b068fc378daa952ba7f163c4a11628f55a4df523b3ef",
            "0x0000000000000000000000000000000000000000000000000000000000000000",
            "0x000000000000000000000000298334b4895392b0ba15261194cf1642a4adf9fc",
            "0x000000000000000000000000000000000000000000000000000000000000066c"
          ],
          "data": "0x",
          "blockHash": "0xb494f98189ef3cd9a315276ca9338102f57f9ca8a5a21b009333c45db15c0a47",
          "blockNumber": "0x2ab3e35",
          "transactionHash": "0xd4fd30c683248f0dced918cc8f23cd7e8ad2aa376c6f954166b469b3b0f9c5ff",
          "transactionIndex": "0x0",
          "logIndex": "0xb",
          "removed": false
        },
        {
          "address": "0x8263007844439F1A1423AE633994B6245e4508Bc",
          "topics": [
            "0xddf252ad1be2c89b69c2b068fc378daa952ba7f163c4a11628f55a4df523b3ef",
            "0x0000000000000000000000000000000000000000000000000000000000000000",
            "0x000000000000000000000000298334b4895392b0ba15261194cf1642a4adf9fc",
            "0x000000000000000000000000000000000000000000000000000000000000066d"
          ],
          "data": "0x",
          "blockHash": "0xb494f98189ef3cd9a315276ca9338102f57f9ca8a5a21b009333c45db15c0a47",
          "blockNumber": "0x2ab3e35",
          "transactionHash": "0xd4fd30c683248f0dced918cc8f23cd7e8ad2aa376c6f954166b469b3b0f9c5ff",
          "transactionIndex": "0x0",
          "logIndex": "0xc",
          "removed": false
        },
        {
          "address": "0x8263007844439F1A1423AE633994B6245e4508Bc",
          "topics": [
            "0xddf252ad1be2c89b69c2b068fc378daa952ba7f163c4a11628f55a4df523b3ef",
            "0x0000000000000000000000000000000000000000000000000000000000000000",
            "0x000000000000000000000000298334b4895392b0ba15261194cf1642a4adf9fc",
            "0x000000000000000000000000000000000000000000000000000000000000066e"
          ],
          "data": "0x",
          "blockHash": "0xb494f98189ef3cd9a315276ca9338102f57f9ca8a5a21b009333c45db15c0a47",
          "blockNumber": "0x2ab3e35",
          "transactionHash": "0xd4fd30c683248f0dced918cc8f23cd7e8ad2aa376c6f954166b469b3b0f9c5ff",
          "transactionIndex": "0x0",
          "logIndex": "0xd",
          "removed": false
        },
        {
          "address": "0x8263007844439F1A1423AE633994B6245e4508Bc",
          "topics": [
            "0xddf252ad1be2c89b69c2b068fc378daa952ba7f163c4a11628f55a4df523b3ef",
            "0x0000000000000000000000000000000000000000000000000000000000000000",
            "0x000000000000000000000000298334b4895392b0ba15261194cf1642a4adf9fc",
            "0x000000000000000000000000000000000000000000000000000000000000066f"
          ],
          "data": "0x",
          "blockHash": "0xb494f98189ef3cd9a315276ca9338102f57f9ca8a5a21b009333c45db15c0a47",
          "blockNumber": "0x2ab3e35",
          "transactionHash": "0xd4fd30c683248f0dced918cc8f23cd7e8ad2aa376c6f954166b469b3b0f9c5ff",
          "transactionIndex": "0x0",
          "logIndex": "0xe",
          "removed": false
        },
        {
          "address": "0x0000000000000000000000000000000000001010",
          "topics": [
            "0x4dfe1bbbcf077ddc3e01291eea2d5c70c2b422b415d95645b9adcfd678cb1d63",
            "0x0000000000000000000000000000000000000000000000000000000000001010",
            "0x000000000000000000000000298334b4895392b0ba15261194cf1642a4adf9fc",
            "0x000000000000000000000000f903ba9e006193c1527bfbe65fe2123704ea3f99"
          ],
          "data": "0x00000000000000000000000000000000000000000000000000a157e6ca63100000000000000000000000000000000000000000000000000053108c34e846cc890000000000000000000000000000000000000000000012a1f71b81ebbcc22bab000000000000000000000000000000000000000000000000526f344e1de3bc890000000000000000000000000000000000000000000012a1f7bcd9d287253bab",
          "blockHash": "0xb494f98189ef3cd9a315276ca9338102f57f9ca8a5a21b009333c45db15c0a47",
          "blockNumber": "0x2ab3e35",
          "transactionHash": "0xd4fd30c683248f0dced918cc8f23cd7e8ad2aa376c6f954166b469b3b0f9c5ff",
          "transactionIndex": "0x0",
          "logIndex": "0xf",
          "removed": false
        }
      ],
      "status": "0x1",
      "logsBloom": "0x020000000000000004040020000000080400200000000000000000100000040001010002000020200000001000000000200080000000000000080000001000000000008000004008000000080008228000000000000010000001000000040000080000a0020000000004000100000800000004200008000080000070000000000000040000000200000000080000001000000000004000000000200000000000200004000000400000000000000000000410000000080008000000000000004000001002000010000001000000004000000000000000800000128000001020000008000000804900000100000200000020080000000000010000003000108000",
      "type": "0x2",
      "effectiveGasPrice": "0x6fc23ac10"
    },
    {
      "transactionHash": "0x17500a10ab0ed996bd946da6ca46b922a9e3c562122ee019e20dc6d9bd1dddb8",
      "transactionIndex": "0x0",
      "blockHash": "0x96eefcc34e34507b98a02d9ea928c0e1ade48fafc09fe53ca7d4889943bcfd42",
      "blockNumber": "0x2ab3e38",
      "from": "0xF92D18CdFa0EE4C76701d54dEd6fB20ca635F1A2",
      "to": "0x8263007844439F1A1423AE633994B6245e4508Bc",
      "cumulativeGasUsed": "0x17194c",
      "gasUsed": "0x17194c",
      "contractAddress": null,
      "logs": [
        {
          "address": "0x0000000000000000000000000000000000001010",
          "topics": [
            "0xe6497e3ee548a3372136af2fcb0696db31fc6cf20260707645068bd3fe97f3c4",
            "0x0000000000000000000000000000000000000000000000000000000000001010",
            "0x000000000000000000000000f92d18cdfa0ee4c76701d54ded6fb20ca635f1a2",
            "0x0000000000000000000000008263007844439f1a1423ae633994b6245e4508bc"
          ],
          "data": "0x000000000000000000000000000000000000000000000000001b084477a5ca600000000000000000000000000000000000000000000000000675c7e8fb9bcfa00000000000000000000000000000000000000000000000000000000000000000000000000000000000000000000000000000000000000000065abfa483f60540000000000000000000000000000000000000000000000000001b084477a5ca60",
          "blockHash": "0x96eefcc34e34507b98a02d9ea928c0e1ade48fafc09fe53ca7d4889943bcfd42",
          "blockNumber": "0x2ab3e38",
          "transactionHash": "0x17500a10ab0ed996bd946da6ca46b922a9e3c562122ee019e20dc6d9bd1dddb8",
          "transactionIndex": "0x0",
          "logIndex": "0x0",
          "removed": false
        },
        {
          "address": "0x0000000000000000000000000000000000001010",
          "topics": [
            "0xe6497e3ee548a3372136af2fcb0696db31fc6cf20260707645068bd3fe97f3c4",
            "0x0000000000000000000000000000000000000000000000000000000000001010",
            "0x0000000000000000000000008263007844439f1a1423ae633994b6245e4508bc",
            "0x0000000000000000000000003f512308d9312d184e8e2a13e47c99d1c9a6956a"
          ],
          "data": "0x000000000000000000000000000000000000000000000000001b084477a5ca60000000000000000000000000000000000000000000000000001b084477a5ca600000000000000000000000000000000000000000000000000bc114f033332c4600000000000000000000000000000000000000000000000000000000000000000000000000000000000000000000000000000000000000000bdc1d34aad8f6a6",
          "blockHash": "0x96eefcc34e34507b98a02d9ea928c0e1ade48fafc09fe53ca7d4889943bcfd42",
          "blockNumber": "0x2ab3e38",
          "transactionHash": "0x17500a10ab0ed996bd946da6ca46b922a9e3c562122ee019e20dc6d9bd1dddb8",
          "transactionIndex": "0x0",
          "logIndex": "0x1",
          "removed": false
        },
        {
          "address": "0x3f512308d9312d184E8E2a13E47C99D1c9A6956A",
          "topics": [
            "0x8e47b87b0ef542cdfa1659c551d88bad38aa7f452d2bbb349ab7530dfec8be8f"
          ],
          "data": "0x0000000000000000000000008263007844439f1a1423ae633994b6245e4508bc000000000000000000000000000000000000000000000000001b084477a5ca60",
          "blockHash": "0x96eefcc34e34507b98a02d9ea928c0e1ade48fafc09fe53ca7d4889943bcfd42",
          "blockNumber": "0x2ab3e38",
          "transactionHash": "0x17500a10ab0ed996bd946da6ca46b922a9e3c562122ee019e20dc6d9bd1dddb8",
          "transactionIndex": "0x0",
          "logIndex": "0x2",
          "removed": false
        },
        {
          "address": "0x7a1BaC17Ccc5b313516C5E16fb24f7659aA5ebed",
          "topics": [
            "0x63373d1c4696214b898952999c9aaec57dac1ee2723cec59bea6888f489a9772",
            "0x4b09e658ed251bcafeebbc69400383d49f344ace09b9576fe248bb02c003fe9f",
            "0x0000000000000000000000000000000000000000000000000000000000000b33",
            "0x0000000000000000000000008263007844439f1a1423ae633994b6245e4508bc"
          ],
          "data": "0xd3e339d923568917ce688fc948aa67e6aa6d8d0450266db23e4496d96ab62802966988214007870274d39fc0cc684ed0b8c36935808fb34f6bccebdd063688b0000000000000000000000000000000000000000000000000000000000000000300000000000000000000000000000000000000000000000000000000000f42400000000000000000000000000000000000000000000000000000000000000001",
          "blockHash": "0x96eefcc34e34507b98a02d9ea928c0e1ade48fafc09fe53ca7d4889943bcfd42",
          "blockNumber": "0x2ab3e38",
          "transactionHash": "0x17500a10ab0ed996bd946da6ca46b922a9e3c562122ee019e20dc6d9bd1dddb8",
          "transactionIndex": "0x0",
          "logIndex": "0x3",
          "removed": false
        },
        {
          "address": "0x8263007844439F1A1423AE633994B6245e4508Bc",
          "topics": [
            "0xf2dc9a29f1b257c57ef50cb6c0230cacc6af60a01e5e51bde6ee1657f214a347"
          ],
          "data": "0xd3e339d923568917ce688fc948aa67e6aa6d8d0450266db23e4496d96ab62802",
          "blockHash": "0x96eefcc34e34507b98a02d9ea928c0e1ade48fafc09fe53ca7d4889943bcfd42",
          "blockNumber": "0x2ab3e38",
          "transactionHash": "0x17500a10ab0ed996bd946da6ca46b922a9e3c562122ee019e20dc6d9bd1dddb8",
          "transactionIndex": "0x0",
          "logIndex": "0x4",
          "removed": false
        },
        {
          "address": "0x8263007844439F1A1423AE633994B6245e4508Bc",
          "topics": [
            "0xddf252ad1be2c89b69c2b068fc378daa952ba7f163c4a11628f55a4df523b3ef",
            "0x0000000000000000000000000000000000000000000000000000000000000000",
            "0x000000000000000000000000f92d18cdfa0ee4c76701d54ded6fb20ca635f1a2",
            "0x0000000000000000000000000000000000000000000000000000000000000670"
          ],
          "data": "0x",
          "blockHash": "0x96eefcc34e34507b98a02d9ea928c0e1ade48fafc09fe53ca7d4889943bcfd42",
          "blockNumber": "0x2ab3e38",
          "transactionHash": "0x17500a10ab0ed996bd946da6ca46b922a9e3c562122ee019e20dc6d9bd1dddb8",
          "transactionIndex": "0x0",
          "logIndex": "0x5",
          "removed": false
        },
        {
          "address": "0x8263007844439F1A1423AE633994B6245e4508Bc",
          "topics": [
            "0xddf252ad1be2c89b69c2b068fc378daa952ba7f163c4a11628f55a4df523b3ef",
            "0x0000000000000000000000000000000000000000000000000000000000000000",
            "0x000000000000000000000000f92d18cdfa0ee4c76701d54ded6fb20ca635f1a2",
            "0x0000000000000000000000000000000000000000000000000000000000000671"
          ],
          "data": "0x",
          "blockHash": "0x96eefcc34e34507b98a02d9ea928c0e1ade48fafc09fe53ca7d4889943bcfd42",
          "blockNumber": "0x2ab3e38",
          "transactionHash": "0x17500a10ab0ed996bd946da6ca46b922a9e3c562122ee019e20dc6d9bd1dddb8",
          "transactionIndex": "0x0",
          "logIndex": "0x6",
          "removed": false
        },
        {
          "address": "0x8263007844439F1A1423AE633994B6245e4508Bc",
          "topics": [
            "0xddf252ad1be2c89b69c2b068fc378daa952ba7f163c4a11628f55a4df523b3ef",
            "0x0000000000000000000000000000000000000000000000000000000000000000",
            "0x000000000000000000000000f92d18cdfa0ee4c76701d54ded6fb20ca635f1a2",
            "0x0000000000000000000000000000000000000000000000000000000000000672"
          ],
          "data": "0x",
          "blockHash": "0x96eefcc34e34507b98a02d9ea928c0e1ade48fafc09fe53ca7d4889943bcfd42",
          "blockNumber": "0x2ab3e38",
          "transactionHash": "0x17500a10ab0ed996bd946da6ca46b922a9e3c562122ee019e20dc6d9bd1dddb8",
          "transactionIndex": "0x0",
          "logIndex": "0x7",
          "removed": false
        },
        {
          "address": "0x8263007844439F1A1423AE633994B6245e4508Bc",
          "topics": [
            "0xddf252ad1be2c89b69c2b068fc378daa952ba7f163c4a11628f55a4df523b3ef",
            "0x0000000000000000000000000000000000000000000000000000000000000000",
            "0x000000000000000000000000f92d18cdfa0ee4c76701d54ded6fb20ca635f1a2",
            "0x0000000000000000000000000000000000000000000000000000000000000673"
          ],
          "data": "0x",
          "blockHash": "0x96eefcc34e34507b98a02d9ea928c0e1ade48fafc09fe53ca7d4889943bcfd42",
          "blockNumber": "0x2ab3e38",
          "transactionHash": "0x17500a10ab0ed996bd946da6ca46b922a9e3c562122ee019e20dc6d9bd1dddb8",
          "transactionIndex": "0x0",
          "logIndex": "0x8",
          "removed": false
        },
        {
          "address": "0x8263007844439F1A1423AE633994B6245e4508Bc",
          "topics": [
            "0xddf252ad1be2c89b69c2b068fc378daa952ba7f163c4a11628f55a4df523b3ef",
            "0x0000000000000000000000000000000000000000000000000000000000000000",
            "0x000000000000000000000000f92d18cdfa0ee4c76701d54ded6fb20ca635f1a2",
            "0x0000000000000000000000000000000000000000000000000000000000000674"
          ],
          "data": "0x",
          "blockHash": "0x96eefcc34e34507b98a02d9ea928c0e1ade48fafc09fe53ca7d4889943bcfd42",
          "blockNumber": "0x2ab3e38",
          "transactionHash": "0x17500a10ab0ed996bd946da6ca46b922a9e3c562122ee019e20dc6d9bd1dddb8",
          "transactionIndex": "0x0",
          "logIndex": "0x9",
          "removed": false
        },
        {
          "address": "0x8263007844439F1A1423AE633994B6245e4508Bc",
          "topics": [
            "0xddf252ad1be2c89b69c2b068fc378daa952ba7f163c4a11628f55a4df523b3ef",
            "0x0000000000000000000000000000000000000000000000000000000000000000",
            "0x000000000000000000000000f92d18cdfa0ee4c76701d54ded6fb20ca635f1a2",
            "0x0000000000000000000000000000000000000000000000000000000000000675"
          ],
          "data": "0x",
          "blockHash": "0x96eefcc34e34507b98a02d9ea928c0e1ade48fafc09fe53ca7d4889943bcfd42",
          "blockNumber": "0x2ab3e38",
          "transactionHash": "0x17500a10ab0ed996bd946da6ca46b922a9e3c562122ee019e20dc6d9bd1dddb8",
          "transactionIndex": "0x0",
          "logIndex": "0xa",
          "removed": false
        },
        {
          "address": "0x8263007844439F1A1423AE633994B6245e4508Bc",
          "topics": [
            "0xddf252ad1be2c89b69c2b068fc378daa952ba7f163c4a11628f55a4df523b3ef",
            "0x0000000000000000000000000000000000000000000000000000000000000000",
            "0x000000000000000000000000f92d18cdfa0ee4c76701d54ded6fb20ca635f1a2",
            "0x0000000000000000000000000000000000000000000000000000000000000676"
          ],
          "data": "0x",
          "blockHash": "0x96eefcc34e34507b98a02d9ea928c0e1ade48fafc09fe53ca7d4889943bcfd42",
          "blockNumber": "0x2ab3e38",
          "transactionHash": "0x17500a10ab0ed996bd946da6ca46b922a9e3c562122ee019e20dc6d9bd1dddb8",
          "transactionIndex": "0x0",
          "logIndex": "0xb",
          "removed": false
        },
        {
          "address": "0x8263007844439F1A1423AE633994B6245e4508Bc",
          "topics": [
            "0xddf252ad1be2c89b69c2b068fc378daa952ba7f163c4a11628f55a4df523b3ef",
            "0x0000000000000000000000000000000000000000000000000000000000000000",
            "0x000000000000000000000000f92d18cdfa0ee4c76701d54ded6fb20ca635f1a2",
            "0x0000000000000000000000000000000000000000000000000000000000000677"
          ],
          "data": "0x",
          "blockHash": "0x96eefcc34e34507b98a02d9ea928c0e1ade48fafc09fe53ca7d4889943bcfd42",
          "blockNumber": "0x2ab3e38",
          "transactionHash": "0x17500a10ab0ed996bd946da6ca46b922a9e3c562122ee019e20dc6d9bd1dddb8",
          "transactionIndex": "0x0",
          "logIndex": "0xc",
          "removed": false
        },
        {
          "address": "0x8263007844439F1A1423AE633994B6245e4508Bc",
          "topics": [
            "0xddf252ad1be2c89b69c2b068fc378daa952ba7f163c4a11628f55a4df523b3ef",
            "0x0000000000000000000000000000000000000000000000000000000000000000",
            "0x000000000000000000000000f92d18cdfa0ee4c76701d54ded6fb20ca635f1a2",
            "0x0000000000000000000000000000000000000000000000000000000000000678"
          ],
          "data": "0x",
          "blockHash": "0x96eefcc34e34507b98a02d9ea928c0e1ade48fafc09fe53ca7d4889943bcfd42",
          "blockNumber": "0x2ab3e38",
          "transactionHash": "0x17500a10ab0ed996bd946da6ca46b922a9e3c562122ee019e20dc6d9bd1dddb8",
          "transactionIndex": "0x0",
          "logIndex": "0xd",
          "removed": false
        },
        {
          "address": "0x8263007844439F1A1423AE633994B6245e4508Bc",
          "topics": [
            "0xddf252ad1be2c89b69c2b068fc378daa952ba7f163c4a11628f55a4df523b3ef",
            "0x0000000000000000000000000000000000000000000000000000000000000000",
            "0x000000000000000000000000f92d18cdfa0ee4c76701d54ded6fb20ca635f1a2",
            "0x0000000000000000000000000000000000000000000000000000000000000679"
          ],
          "data": "0x",
          "blockHash": "0x96eefcc34e34507b98a02d9ea928c0e1ade48fafc09fe53ca7d4889943bcfd42",
          "blockNumber": "0x2ab3e38",
          "transactionHash": "0x17500a10ab0ed996bd946da6ca46b922a9e3c562122ee019e20dc6d9bd1dddb8",
          "transactionIndex": "0x0",
          "logIndex": "0xe",
          "removed": false
        },
        {
          "address": "0x0000000000000000000000000000000000001010",
          "topics": [
            "0x4dfe1bbbcf077ddc3e01291eea2d5c70c2b422b415d95645b9adcfd678cb1d63",
            "0x0000000000000000000000000000000000000000000000000000000000001010",
            "0x000000000000000000000000f92d18cdfa0ee4c76701d54ded6fb20ca635f1a2",
            "0x000000000000000000000000f903ba9e006193c1527bfbe65fe2123704ea3f99"
          ],
          "data": "0x00000000000000000000000000000000000000000000000000a157e6ca6310000000000000000000000000000000000000000000000000000754a2e02c009b600000000000000000000000000000000000000000000012a1f8100ab39bca95bd00000000000000000000000000000000000000000000000006b34af9619d8b600000000000000000000000000000000000000000000012a1f8b1629a662da5bd",
          "blockHash": "0x96eefcc34e34507b98a02d9ea928c0e1ade48fafc09fe53ca7d4889943bcfd42",
          "blockNumber": "0x2ab3e38",
          "transactionHash": "0x17500a10ab0ed996bd946da6ca46b922a9e3c562122ee019e20dc6d9bd1dddb8",
          "transactionIndex": "0x0",
          "logIndex": "0xf",
          "removed": false
        }
      ],
      "status": "0x1",
      "logsBloom": "0x02000000000000000404002000000008040000000000000000000110000004000001000000000020000000110000000020008000000000000008000000000000000000800000000800000008000022810000000000001000000110000000000000000080020000000000000180000a00020024200000000080000010008000000000000001000000000010000000801000000004016400000000040000800000200200000000400800000000000000001010000200080000080000000000004000000002000010000001000000004000000008000000800000128801001020000008000000000100080100000200000200080000000000000c00000000100000",
      "type": "0x2",
      "effectiveGasPrice": "0x6fc23ac10"
    }
  ],
  "libraries": [],
  "pending": [],
  "returns": {},
  "timestamp": 1705266116,
  "chain": 80001,
  "multi": false,
  "commit": "9935aef"
}