{
  "transactions": [
    {
      "hash": "0x1411ffb222236ad6b8a7b737c39656684bc5599d9ee304931528df3155ec8995",
      "transactionType": "CALL",
      "contractName": null,
      "contractAddress": "0x8263007844439F1A1423AE633994B6245e4508Bc",
      "function": "mint(address,uint256)",
      "arguments": [
        "0x298334B4895392b0BA15261194cF1642A4adf9Fc",
        "10"
      ],
      "transaction": {
        "type": "0x02",
        "from": "0x298334b4895392b0ba15261194cf1642a4adf9fc",
        "to": "0x8263007844439f1a1423ae633994b6245e4508bc",
        "gas": "0x20069e",
        "value": "0x1d24e910fb17c0",
        "data": "0x40c10f19000000000000000000000000298334b4895392b0ba15261194cf1642a4adf9fc000000000000000000000000000000000000000000000000000000000000000a",
        "nonce": "0x5a",
        "accessList": []
      },
      "additionalContracts": [],
      "isFixedGasLimit": false
    },
    {
      "hash": "0xeb26837892be2de11b0e6926fd021c84d21a24e3ebe72b66150136ed93e783be",
      "transactionType": "CALL",
      "contractName": null,
      "contractAddress": "0x8263007844439F1A1423AE633994B6245e4508Bc",
      "function": "mint(address,uint256)",
      "arguments": [
        "0xF92D18CdFa0EE4C76701d54dEd6fB20ca635F1A2",
        "10"
      ],
      "transaction": {
        "type": "0x02",
        "from": "0xf92d18cdfa0ee4c76701d54ded6fb20ca635f1a2",
        "to": "0x8263007844439f1a1423ae633994b6245e4508bc",
        "gas": "0x20069e",
        "value": "0x1d24e910fb17c0",
        "data": "0x40c10f19000000000000000000000000f92d18cdfa0ee4c76701d54ded6fb20ca635f1a2000000000000000000000000000000000000000000000000000000000000000a",
        "nonce": "0x55",
        "accessList": []
      },
      "additionalContracts": [],
      "isFixedGasLimit": false
    },
    {
      "hash": "0x037623db54513e3b76d39789c8558566400618dd8a0219fc0ddf0d2bb6c155ed",
      "transactionType": "CALL",
      "contractName": null,
      "contractAddress": "0x8263007844439F1A1423AE633994B6245e4508Bc",
      "function": "mint(address,uint256)",
      "arguments": [
        "0xD4C7E8652c97127EE260057e2dC245D42F21DDA7",
        "10"
      ],
      "transaction": {
        "type": "0x02",
        "from": "0xd4c7e8652c97127ee260057e2dc245d42f21dda7",
        "to": "0x8263007844439f1a1423ae633994b6245e4508bc",
        "gas": "0x20069e",
        "value": "0x1d24e910fb17c0",
        "data": "0x40c10f19000000000000000000000000d4c7e8652c97127ee260057e2dc245d42f21dda7000000000000000000000000000000000000000000000000000000000000000a",
        "nonce": "0x63",
        "accessList": []
      },
      "additionalContracts": [],
      "isFixedGasLimit": false
    },
    {
      "hash": "0x0847663eee6e41f0aaababff048bf7fe2609bbef029face3e7d88f0d7d1a2826",
      "transactionType": "CALL",
      "contractName": null,
      "contractAddress": "0x8263007844439F1A1423AE633994B6245e4508Bc",
      "function": "mint(address,uint256)",
      "arguments": [
        "0x298334B4895392b0BA15261194cF1642A4adf9Fc",
        "10"
      ],
      "transaction": {
        "type": "0x02",
        "from": "0x298334b4895392b0ba15261194cf1642a4adf9fc",
        "to": "0x8263007844439f1a1423ae633994b6245e4508bc",
        "gas": "0x20069e",
        "value": "0x1d24e910fb17c0",
        "data": "0x40c10f19000000000000000000000000298334b4895392b0ba15261194cf1642a4adf9fc000000000000000000000000000000000000000000000000000000000000000a",
        "nonce": "0x5b",
        "accessList": []
      },
      "additionalContracts": [],
      "isFixedGasLimit": false
    },
    {
      "hash": null,
      "transactionType": "CALL",
      "contractName": null,
      "contractAddress": "0x8263007844439F1A1423AE633994B6245e4508Bc",
      "function": "mint(address,uint256)",
      "arguments": [
        "0xF92D18CdFa0EE4C76701d54dEd6fB20ca635F1A2",
        "10"
      ],
      "transaction": {
        "type": "0x02",
        "from": "0xf92d18cdfa0ee4c76701d54ded6fb20ca635f1a2",
        "to": "0x8263007844439f1a1423ae633994b6245e4508bc",
        "gas": "0x20069e",
        "value": "0x1d24e910fb17c0",
        "data": "0x40c10f19000000000000000000000000f92d18cdfa0ee4c76701d54ded6fb20ca635f1a2000000000000000000000000000000000000000000000000000000000000000a",
        "nonce": "0x56",
        "accessList": []
      },
      "additionalContracts": [],
      "isFixedGasLimit": false
    },
    {
      "hash": null,
      "transactionType": "CALL",
      "contractName": null,
      "contractAddress": "0x8263007844439F1A1423AE633994B6245e4508Bc",
      "function": "mint(address,uint256)",
      "arguments": [
        "0xD4C7E8652c97127EE260057e2dC245D42F21DDA7",
        "10"
      ],
      "transaction": {
        "type": "0x02",
        "from": "0xd4c7e8652c97127ee260057e2dc245d42f21dda7",
        "to": "0x8263007844439f1a1423ae633994b6245e4508bc",
        "gas": "0x20069e",
        "value": "0x1d24e910fb17c0",
        "data": "0x40c10f19000000000000000000000000d4c7e8652c97127ee260057e2dc245d42f21dda7000000000000000000000000000000000000000000000000000000000000000a",
        "nonce": "0x64",
        "accessList": []
      },
      "additionalContracts": [],
      "isFixedGasLimit": false
    },
    {
      "hash": null,
      "transactionType": "CALL",
      "contractName": null,
      "contractAddress": "0x8263007844439F1A1423AE633994B6245e4508Bc",
      "function": "mint(address,uint256)",
      "arguments": [
        "0x298334B4895392b0BA15261194cF1642A4adf9Fc",
        "10"
      ],
      "transaction": {
        "type": "0x02",
        "from": "0x298334b4895392b0ba15261194cf1642a4adf9fc",
        "to": "0x8263007844439f1a1423ae633994b6245e4508bc",
        "gas": "0x20069e",
        "value": "0x1d24e910fb17c0",
        "data": "0x40c10f19000000000000000000000000298334b4895392b0ba15261194cf1642a4adf9fc000000000000000000000000000000000000000000000000000000000000000a",
        "nonce": "0x5c",
        "accessList": []
      },
      "additionalContracts": [],
      "isFixedGasLimit": false
    },
    {
      "hash": null,
      "transactionType": "CALL",
      "contractName": null,
      "contractAddress": "0x8263007844439F1A1423AE633994B6245e4508Bc",
      "function": "mint(address,uint256)",
      "arguments": [
        "0xF92D18CdFa0EE4C76701d54dEd6fB20ca635F1A2",
        "10"
      ],
      "transaction": {
        "type": "0x02",
        "from": "0xf92d18cdfa0ee4c76701d54ded6fb20ca635f1a2",
        "to": "0x8263007844439f1a1423ae633994b6245e4508bc",
        "gas": "0x20069e",
        "value": "0x1d24e910fb17c0",
        "data": "0x40c10f19000000000000000000000000f92d18cdfa0ee4c76701d54ded6fb20ca635f1a2000000000000000000000000000000000000000000000000000000000000000a",
        "nonce": "0x57",
        "accessList": []
      },
      "additionalContracts": [],
      "isFixedGasLimit": false
    },
    {
      "hash": null,
      "transactionType": "CALL",
      "contractName": null,
      "contractAddress": "0x8263007844439F1A1423AE633994B6245e4508Bc",
      "function": "mint(address,uint256)",
      "arguments": [
        "0xD4C7E8652c97127EE260057e2dC245D42F21DDA7",
        "10"
      ],
      "transaction": {
        "type": "0x02",
        "from": "0xd4c7e8652c97127ee260057e2dc245d42f21dda7",
        "to": "0x8263007844439f1a1423ae633994b6245e4508bc",
        "gas": "0x20069e",
        "value": "0x1d24e910fb17c0",
        "data": "0x40c10f19000000000000000000000000d4c7e8652c97127ee260057e2dc245d42f21dda7000000000000000000000000000000000000000000000000000000000000000a",
        "nonce": "0x65",
        "accessList": []
      },
      "additionalContracts": [],
      "isFixedGasLimit": false
    }
  ],
  "receipts": [
    {
      "transactionHash": "0x1411ffb222236ad6b8a7b737c39656684bc5599d9ee304931528df3155ec8995",
      "transactionIndex": "0x0",
      "blockHash": "0xecff762eac2459d75f8c365740a91070a42f5c33483aa65024ec035686c31600",
      "blockNumber": "0x2ae89a0",
      "from": "0x298334B4895392b0BA15261194cF1642A4adf9Fc",
      "to": "0x8263007844439F1A1423AE633994B6245e4508Bc",
      "cumulativeGasUsed": "0x172fa7",
      "gasUsed": "0x172fa7",
      "contractAddress": null,
      "logs": [
        {
          "address": "0x0000000000000000000000000000000000001010",
          "topics": [
            "0xe6497e3ee548a3372136af2fcb0696db31fc6cf20260707645068bd3fe97f3c4",
            "0x0000000000000000000000000000000000000000000000000000000000001010",
            "0x000000000000000000000000298334b4895392b0ba15261194cf1642a4adf9fc",
            "0x0000000000000000000000008263007844439f1a1423ae633994b6245e4508bc"
          ],
          "data": "0x000000000000000000000000000000000000000000000000001d24e910fb17c0000000000000000000000000000000000000000000000000233f120ec928c7ee00000000000000000000000000000000000000000000000000000000000000000000000000000000000000000000000000000000000000002321ed25b82db02e000000000000000000000000000000000000000000000000001d24e910fb17c0",
          "blockHash": "0xecff762eac2459d75f8c365740a91070a42f5c33483aa65024ec035686c31600",
          "blockNumber": "0x2ae89a0",
          "transactionHash": "0x1411ffb222236ad6b8a7b737c39656684bc5599d9ee304931528df3155ec8995",
          "transactionIndex": "0x0",
          "logIndex": "0x0",
          "removed": false
        },
        {
          "address": "0x0000000000000000000000000000000000001010",
          "topics": [
            "0xe6497e3ee548a3372136af2fcb0696db31fc6cf20260707645068bd3fe97f3c4",
            "0x0000000000000000000000000000000000000000000000000000000000001010",
            "0x0000000000000000000000008263007844439f1a1423ae633994b6245e4508bc",
            "0x0000000000000000000000003f512308d9312d184e8e2a13e47c99d1c9a6956a"
          ],
          "data": "0x000000000000000000000000000000000000000000000000001d24e910fb17c0000000000000000000000000000000000000000000000000001d24e910fb17c00000000000000000000000000000000000000000000000002018537b9662dd86000000000000000000000000000000000000000000000000000000000000000000000000000000000000000000000000000000000000000020357864a75df546",
          "blockHash": "0xecff762eac2459d75f8c365740a91070a42f5c33483aa65024ec035686c31600",
          "blockNumber": "0x2ae89a0",
          "transactionHash": "0x1411ffb222236ad6b8a7b737c39656684bc5599d9ee304931528df3155ec8995",
          "transactionIndex": "0x0",
          "logIndex": "0x1",
          "removed": false
        },
        {
          "address": "0x3f512308d9312d184E8E2a13E47C99D1c9A6956A",
          "topics": [
            "0x8e47b87b0ef542cdfa1659c551d88bad38aa7f452d2bbb349ab7530dfec8be8f"
          ],
          "data": "0x0000000000000000000000008263007844439f1a1423ae633994b6245e4508bc000000000000000000000000000000000000000000000000001d24e910fb17c0",
          "blockHash": "0xecff762eac2459d75f8c365740a91070a42f5c33483aa65024ec035686c31600",
          "blockNumber": "0x2ae89a0",
          "transactionHash": "0x1411ffb222236ad6b8a7b737c39656684bc5599d9ee304931528df3155ec8995",
          "transactionIndex": "0x0",
          "logIndex": "0x2",
          "removed": false
        },
        {
          "address": "0x7a1BaC17Ccc5b313516C5E16fb24f7659aA5ebed",
          "topics": [
            "0x63373d1c4696214b898952999c9aaec57dac1ee2723cec59bea6888f489a9772",
            "0x4b09e658ed251bcafeebbc69400383d49f344ace09b9576fe248bb02c003fe9f",
            "0x0000000000000000000000000000000000000000000000000000000000000b33",
            "0x0000000000000000000000008263007844439f1a1423ae633994b6245e4508bc"
          ],
          "data": "0x30e07ef3d89da566e7b7284b7997621fe3dd430fec6e0576d822370e00bd7ae95293c64b06a2ad3e0200ec18f3341c8582730dc8bd6de2b3cc1994a72d0d7917000000000000000000000000000000000000000000000000000000000000000300000000000000000000000000000000000000000000000000000000000f42400000000000000000000000000000000000000000000000000000000000000001",
          "blockHash": "0xecff762eac2459d75f8c365740a91070a42f5c33483aa65024ec035686c31600",
          "blockNumber": "0x2ae89a0",
          "transactionHash": "0x1411ffb222236ad6b8a7b737c39656684bc5599d9ee304931528df3155ec8995",
          "transactionIndex": "0x0",
          "logIndex": "0x3",
          "removed": false
        },
        {
          "address": "0x8263007844439F1A1423AE633994B6245e4508Bc",
          "topics": [
            "0xf2dc9a29f1b257c57ef50cb6c0230cacc6af60a01e5e51bde6ee1657f214a347"
          ],
          "data": "0x30e07ef3d89da566e7b7284b7997621fe3dd430fec6e0576d822370e00bd7ae9",
          "blockHash": "0xecff762eac2459d75f8c365740a91070a42f5c33483aa65024ec035686c31600",
          "blockNumber": "0x2ae89a0",
          "transactionHash": "0x1411ffb222236ad6b8a7b737c39656684bc5599d9ee304931528df3155ec8995",
          "transactionIndex": "0x0",
          "logIndex": "0x4",
          "removed": false
        },
        {
          "address": "0x8263007844439F1A1423AE633994B6245e4508Bc",
          "topics": [
            "0xddf252ad1be2c89b69c2b068fc378daa952ba7f163c4a11628f55a4df523b3ef",
            "0x0000000000000000000000000000000000000000000000000000000000000000",
            "0x000000000000000000000000298334b4895392b0ba15261194cf1642a4adf9fc",
            "0x0000000000000000000000000000000000000000000000000000000000000d98"
          ],
          "data": "0x",
          "blockHash": "0xecff762eac2459d75f8c365740a91070a42f5c33483aa65024ec035686c31600",
          "blockNumber": "0x2ae89a0",
          "transactionHash": "0x1411ffb222236ad6b8a7b737c39656684bc5599d9ee304931528df3155ec8995",
          "transactionIndex": "0x0",
          "logIndex": "0x5",
          "removed": false
        },
        {
          "address": "0x8263007844439F1A1423AE633994B6245e4508Bc",
          "topics": [
            "0xddf252ad1be2c89b69c2b068fc378daa952ba7f163c4a11628f55a4df523b3ef",
            "0x0000000000000000000000000000000000000000000000000000000000000000",
            "0x000000000000000000000000298334b4895392b0ba15261194cf1642a4adf9fc",
            "0x0000000000000000000000000000000000000000000000000000000000000d99"
          ],
          "data": "0x",
          "blockHash": "0xecff762eac2459d75f8c365740a91070a42f5c33483aa65024ec035686c31600",
          "blockNumber": "0x2ae89a0",
          "transactionHash": "0x1411ffb222236ad6b8a7b737c39656684bc5599d9ee304931528df3155ec8995",
          "transactionIndex": "0x0",
          "logIndex": "0x6",
          "removed": false
        },
        {
          "address": "0x8263007844439F1A1423AE633994B6245e4508Bc",
          "topics": [
            "0xddf252ad1be2c89b69c2b068fc378daa952ba7f163c4a11628f55a4df523b3ef",
            "0x0000000000000000000000000000000000000000000000000000000000000000",
            "0x000000000000000000000000298334b4895392b0ba15261194cf1642a4adf9fc",
            "0x0000000000000000000000000000000000000000000000000000000000000d9a"
          ],
          "data": "0x",
          "blockHash": "0xecff762eac2459d75f8c365740a91070a42f5c33483aa65024ec035686c31600",
          "blockNumber": "0x2ae89a0",
          "transactionHash": "0x1411ffb222236ad6b8a7b737c39656684bc5599d9ee304931528df3155ec8995",
          "transactionIndex": "0x0",
          "logIndex": "0x7",
          "removed": false
        },
        {
          "address": "0x8263007844439F1A1423AE633994B6245e4508Bc",
          "topics": [
            "0xddf252ad1be2c89b69c2b068fc378daa952ba7f163c4a11628f55a4df523b3ef",
            "0x0000000000000000000000000000000000000000000000000000000000000000",
            "0x000000000000000000000000298334b4895392b0ba15261194cf1642a4adf9fc",
            "0x0000000000000000000000000000000000000000000000000000000000000d9b"
          ],
          "data": "0x",
          "blockHash": "0xecff762eac2459d75f8c365740a91070a42f5c33483aa65024ec035686c31600",
          "blockNumber": "0x2ae89a0",
          "transactionHash": "0x1411ffb222236ad6b8a7b737c39656684bc5599d9ee304931528df3155ec8995",
          "transactionIndex": "0x0",
          "logIndex": "0x8",
          "removed": false
        },
        {
          "address": "0x8263007844439F1A1423AE633994B6245e4508Bc",
          "topics": [
            "0xddf252ad1be2c89b69c2b068fc378daa952ba7f163c4a11628f55a4df523b3ef",
            "0x0000000000000000000000000000000000000000000000000000000000000000",
            "0x000000000000000000000000298334b4895392b0ba15261194cf1642a4adf9fc",
            "0x0000000000000000000000000000000000000000000000000000000000000d9c"
          ],
          "data": "0x",
          "blockHash": "0xecff762eac2459d75f8c365740a91070a42f5c33483aa65024ec035686c31600",
          "blockNumber": "0x2ae89a0",
          "transactionHash": "0x1411ffb222236ad6b8a7b737c39656684bc5599d9ee304931528df3155ec8995",
          "transactionIndex": "0x0",
          "logIndex": "0x9",
          "removed": false
        },
        {
          "address": "0x8263007844439F1A1423AE633994B6245e4508Bc",
          "topics": [
            "0xddf252ad1be2c89b69c2b068fc378daa952ba7f163c4a11628f55a4df523b3ef",
            "0x0000000000000000000000000000000000000000000000000000000000000000",
            "0x000000000000000000000000298334b4895392b0ba15261194cf1642a4adf9fc",
            "0x0000000000000000000000000000000000000000000000000000000000000d9d"
          ],
          "data": "0x",
          "blockHash": "0xecff762eac2459d75f8c365740a91070a42f5c33483aa65024ec035686c31600",
          "blockNumber": "0x2ae89a0",
          "transactionHash": "0x1411ffb222236ad6b8a7b737c39656684bc5599d9ee304931528df3155ec8995",
          "transactionIndex": "0x0",
          "logIndex": "0xa",
          "removed": false
        },
        {
          "address": "0x8263007844439F1A1423AE633994B6245e4508Bc",
          "topics": [
            "0xddf252ad1be2c89b69c2b068fc378daa952ba7f163c4a11628f55a4df523b3ef",
            "0x0000000000000000000000000000000000000000000000000000000000000000",
            "0x000000000000000000000000298334b4895392b0ba15261194cf1642a4adf9fc",
            "0x0000000000000000000000000000000000000000000000000000000000000d9e"
          ],
          "data": "0x",
          "blockHash": "0xecff762eac2459d75f8c365740a91070a42f5c33483aa65024ec035686c31600",
          "blockNumber": "0x2ae89a0",
          "transactionHash": "0x1411ffb222236ad6b8a7b737c39656684bc5599d9ee304931528df3155ec8995",
          "transactionIndex": "0x0",
          "logIndex": "0xb",
          "removed": false
        },
        {
          "address": "0x8263007844439F1A1423AE633994B6245e4508Bc",
          "topics": [
            "0xddf252ad1be2c89b69c2b068fc378daa952ba7f163c4a11628f55a4df523b3ef",
            "0x0000000000000000000000000000000000000000000000000000000000000000",
            "0x000000000000000000000000298334b4895392b0ba15261194cf1642a4adf9fc",
            "0x0000000000000000000000000000000000000000000000000000000000000d9f"
          ],
          "data": "0x",
          "blockHash": "0xecff762eac2459d75f8c365740a91070a42f5c33483aa65024ec035686c31600",
          "blockNumber": "0x2ae89a0",
          "transactionHash": "0x1411ffb222236ad6b8a7b737c39656684bc5599d9ee304931528df3155ec8995",
          "transactionIndex": "0x0",
          "logIndex": "0xc",
          "removed": false
        },
        {
          "address": "0x8263007844439F1A1423AE633994B6245e4508Bc",
          "topics": [
            "0xddf252ad1be2c89b69c2b068fc378daa952ba7f163c4a11628f55a4df523b3ef",
            "0x0000000000000000000000000000000000000000000000000000000000000000",
            "0x000000000000000000000000298334b4895392b0ba15261194cf1642a4adf9fc",
            "0x0000000000000000000000000000000000000000000000000000000000000da0"
          ],
          "data": "0x",
          "blockHash": "0xecff762eac2459d75f8c365740a91070a42f5c33483aa65024ec035686c31600",
          "blockNumber": "0x2ae89a0",
          "transactionHash": "0x1411ffb222236ad6b8a7b737c39656684bc5599d9ee304931528df3155ec8995",
          "transactionIndex": "0x0",
          "logIndex": "0xd",
          "removed": false
        },
        {
          "address": "0x8263007844439F1A1423AE633994B6245e4508Bc",
          "topics": [
            "0xddf252ad1be2c89b69c2b068fc378daa952ba7f163c4a11628f55a4df523b3ef",
            "0x0000000000000000000000000000000000000000000000000000000000000000",
            "0x000000000000000000000000298334b4895392b0ba15261194cf1642a4adf9fc",
            "0x0000000000000000000000000000000000000000000000000000000000000da1"
          ],
          "data": "0x",
          "blockHash": "0xecff762eac2459d75f8c365740a91070a42f5c33483aa65024ec035686c31600",
          "blockNumber": "0x2ae89a0",
          "transactionHash": "0x1411ffb222236ad6b8a7b737c39656684bc5599d9ee304931528df3155ec8995",
          "transactionIndex": "0x0",
          "logIndex": "0xe",
          "removed": false
        },
        {
          "address": "0x0000000000000000000000000000000000001010",
          "topics": [
            "0x4dfe1bbbcf077ddc3e01291eea2d5c70c2b422b415d95645b9adcfd678cb1d63",
            "0x0000000000000000000000000000000000000000000000000000000000001010",
            "0x000000000000000000000000298334b4895392b0ba15261194cf1642a4adf9fc",
            "0x0000000000000000000000005082f249cdb2f2c1ee035e4f423c46ea2dab3ab1"
          ],
          "data": "0x00000000000000000000000000000000000000000000000000a1f40d7bd93400000000000000000000000000000000000000000000000000241ec4bcbf155330000000000000000000000000000000000000000000000574667744316f2f2b53000000000000000000000000000000000000000000000000237cd0af433c1f300000000000000000000000000000000000000000000005746719383eeb085f53",
          "blockHash": "0xecff762eac2459d75f8c365740a91070a42f5c33483aa65024ec035686c31600",
          "blockNumber": "0x2ae89a0",
          "transactionHash": "0x1411ffb222236ad6b8a7b737c39656684bc5599d9ee304931528df3155ec8995",
          "transactionIndex": "0x0",
          "logIndex": "0xf",
          "removed": false
        }
      ],
      "status": "0x1",
      "logsBloom": "0x020000000000000004040820000000082400000000000400400000010200040000000000020000000044003000000000200080000000000000080000000000000400008000000008000000080100228000000100040010020001000000000000000000a00200000000000001000008000000042002000000800000100000000000000000000000000000000000000010000000010040000c0000400000008000300000200000400000000000000000000010042000000000020000000000004000001002000010000001000000004000000000000000800000128000000020000008000000000180000100000280020000080000002000010000000000100200",
      "type": "0x2",
      "effectiveGasPrice": "0x6fc23ac0f"
    },
    {
      "transactionHash": "0xeb26837892be2de11b0e6926fd021c84d21a24e3ebe72b66150136ed93e783be",
      "transactionIndex": "0x1",
      "blockHash": "0x31cea40a358b653c8523360cbb025c1fb70ace7e85de095c99b4683078f5e536",
      "blockNumber": "0x2ae89a2",
      "from": "0xF92D18CdFa0EE4C76701d54dEd6fB20ca635F1A2",
      "to": "0x8263007844439F1A1423AE633994B6245e4508Bc",
      "cumulativeGasUsed": "0x185a77",
      "gasUsed": "0x172fa7",
      "contractAddress": null,
      "logs": [
        {
          "address": "0x0000000000000000000000000000000000001010",
          "topics": [
            "0xe6497e3ee548a3372136af2fcb0696db31fc6cf20260707645068bd3fe97f3c4",
            "0x0000000000000000000000000000000000000000000000000000000000001010",
            "0x000000000000000000000000f92d18cdfa0ee4c76701d54ded6fb20ca635f1a2",
            "0x0000000000000000000000008263007844439f1a1423ae633994b6245e4508bc"
          ],
          "data": "0x000000000000000000000000000000000000000000000000001d24e910fb17c00000000000000000000000000000000000000000000000001064d13e73e3388100000000000000000000000000000000000000000000000000000000000000000000000000000000000000000000000000000000000000001047ac5562e820c1000000000000000000000000000000000000000000000000001d24e910fb17c0",
          "blockHash": "0x31cea40a358b653c8523360cbb025c1fb70ace7e85de095c99b4683078f5e536",
          "blockNumber": "0x2ae89a2",
          "transactionHash": "0xeb26837892be2de11b0e6926fd021c84d21a24e3ebe72b66150136ed93e783be",
          "transactionIndex": "0x1",
          "logIndex": "0x3",
          "removed": false
        },
        {
          "address": "0x0000000000000000000000000000000000001010",
          "topics": [
            "0xe6497e3ee548a3372136af2fcb0696db31fc6cf20260707645068bd3fe97f3c4",
            "0x0000000000000000000000000000000000000000000000000000000000001010",
            "0x0000000000000000000000008263007844439f1a1423ae633994b6245e4508bc",
            "0x0000000000000000000000003f512308d9312d184e8e2a13e47c99d1c9a6956a"
          ],
          "data": "0x000000000000000000000000000000000000000000000000001d24e910fb17c0000000000000000000000000000000000000000000000000001d24e910fb17c000000000000000000000000000000000000000000000000020357864a75df546000000000000000000000000000000000000000000000000000000000000000000000000000000000000000000000000000000000000000020529d4db8590d06",
          "blockHash": "0x31cea40a358b653c8523360cbb025c1fb70ace7e85de095c99b4683078f5e536",
          "blockNumber": "0x2ae89a2",
          "transactionHash": "0xeb26837892be2de11b0e6926fd021c84d21a24e3ebe72b66150136ed93e783be",
          "transactionIndex": "0x1",
          "logIndex": "0x4",
          "removed": false
        },
        {
          "address": "0x3f512308d9312d184E8E2a13E47C99D1c9A6956A",
          "topics": [
            "0x8e47b87b0ef542cdfa1659c551d88bad38aa7f452d2bbb349ab7530dfec8be8f"
          ],
          "data": "0x0000000000000000000000008263007844439f1a1423ae633994b6245e4508bc000000000000000000000000000000000000000000000000001d24e910fb17c0",
          "blockHash": "0x31cea40a358b653c8523360cbb025c1fb70ace7e85de095c99b4683078f5e536",
          "blockNumber": "0x2ae89a2",
          "transactionHash": "0xeb26837892be2de11b0e6926fd021c84d21a24e3ebe72b66150136ed93e783be",
          "transactionIndex": "0x1",
          "logIndex": "0x5",
          "removed": false
        },
        {
          "address": "0x7a1BaC17Ccc5b313516C5E16fb24f7659aA5ebed",
          "topics": [
            "0x63373d1c4696214b898952999c9aaec57dac1ee2723cec59bea6888f489a9772",
            "0x4b09e658ed251bcafeebbc69400383d49f344ace09b9576fe248bb02c003fe9f",
            "0x0000000000000000000000000000000000000000000000000000000000000b33",
            "0x0000000000000000000000008263007844439f1a1423ae633994b6245e4508bc"
          ],
          "data": "0xaac33092d3c95859475b47ece4c8b08478642c9a8a446d04eb49aa17801830864faa22e96f134f38042b5de982abc09f6fc1f509646ef8fa4212818e593b4620000000000000000000000000000000000000000000000000000000000000000300000000000000000000000000000000000000000000000000000000000f42400000000000000000000000000000000000000000000000000000000000000001",
          "blockHash": "0x31cea40a358b653c8523360cbb025c1fb70ace7e85de095c99b4683078f5e536",
          "blockNumber": "0x2ae89a2",
          "transactionHash": "0xeb26837892be2de11b0e6926fd021c84d21a24e3ebe72b66150136ed93e783be",
          "transactionIndex": "0x1",
          "logIndex": "0x6",
          "removed": false
        },
        {
          "address": "0x8263007844439F1A1423AE633994B6245e4508Bc",
          "topics": [
            "0xf2dc9a29f1b257c57ef50cb6c0230cacc6af60a01e5e51bde6ee1657f214a347"
          ],
          "data": "0xaac33092d3c95859475b47ece4c8b08478642c9a8a446d04eb49aa1780183086",
          "blockHash": "0x31cea40a358b653c8523360cbb025c1fb70ace7e85de095c99b4683078f5e536",
          "blockNumber": "0x2ae89a2",
          "transactionHash": "0xeb26837892be2de11b0e6926fd021c84d21a24e3ebe72b66150136ed93e783be",
          "transactionIndex": "0x1",
          "logIndex": "0x7",
          "removed": false
        },
        {
          "address": "0x8263007844439F1A1423AE633994B6245e4508Bc",
          "topics": [
            "0xddf252ad1be2c89b69c2b068fc378daa952ba7f163c4a11628f55a4df523b3ef",
            "0x0000000000000000000000000000000000000000000000000000000000000000",
            "0x000000000000000000000000f92d18cdfa0ee4c76701d54ded6fb20ca635f1a2",
            "0x0000000000000000000000000000000000000000000000000000000000000da2"
          ],
          "data": "0x",
          "blockHash": "0x31cea40a358b653c8523360cbb025c1fb70ace7e85de095c99b4683078f5e536",
          "blockNumber": "0x2ae89a2",
          "transactionHash": "0xeb26837892be2de11b0e6926fd021c84d21a24e3ebe72b66150136ed93e783be",
          "transactionIndex": "0x1",
          "logIndex": "0x8",
          "removed": false
        },
        {
          "address": "0x8263007844439F1A1423AE633994B6245e4508Bc",
          "topics": [
            "0xddf252ad1be2c89b69c2b068fc378daa952ba7f163c4a11628f55a4df523b3ef",
            "0x0000000000000000000000000000000000000000000000000000000000000000",
            "0x000000000000000000000000f92d18cdfa0ee4c76701d54ded6fb20ca635f1a2",
            "0x0000000000000000000000000000000000000000000000000000000000000da3"
          ],
          "data": "0x",
          "blockHash": "0x31cea40a358b653c8523360cbb025c1fb70ace7e85de095c99b4683078f5e536",
          "blockNumber": "0x2ae89a2",
          "transactionHash": "0xeb26837892be2de11b0e6926fd021c84d21a24e3ebe72b66150136ed93e783be",
          "transactionIndex": "0x1",
          "logIndex": "0x9",
          "removed": false
        },
        {
          "address": "0x8263007844439F1A1423AE633994B6245e4508Bc",
          "topics": [
            "0xddf252ad1be2c89b69c2b068fc378daa952ba7f163c4a11628f55a4df523b3ef",
            "0x0000000000000000000000000000000000000000000000000000000000000000",
            "0x000000000000000000000000f92d18cdfa0ee4c76701d54ded6fb20ca635f1a2",
            "0x0000000000000000000000000000000000000000000000000000000000000da4"
          ],
          "data": "0x",
          "blockHash": "0x31cea40a358b653c8523360cbb025c1fb70ace7e85de095c99b4683078f5e536",
          "blockNumber": "0x2ae89a2",
          "transactionHash": "0xeb26837892be2de11b0e6926fd021c84d21a24e3ebe72b66150136ed93e783be",
          "transactionIndex": "0x1",
          "logIndex": "0xa",
          "removed": false
        },
        {
          "address": "0x8263007844439F1A1423AE633994B6245e4508Bc",
          "topics": [
            "0xddf252ad1be2c89b69c2b068fc378daa952ba7f163c4a11628f55a4df523b3ef",
            "0x0000000000000000000000000000000000000000000000000000000000000000",
            "0x000000000000000000000000f92d18cdfa0ee4c76701d54ded6fb20ca635f1a2",
            "0x0000000000000000000000000000000000000000000000000000000000000da5"
          ],
          "data": "0x",
          "blockHash": "0x31cea40a358b653c8523360cbb025c1fb70ace7e85de095c99b4683078f5e536",
          "blockNumber": "0x2ae89a2",
          "transactionHash": "0xeb26837892be2de11b0e6926fd021c84d21a24e3ebe72b66150136ed93e783be",
          "transactionIndex": "0x1",
          "logIndex": "0xb",
          "removed": false
        },
        {
          "address": "0x8263007844439F1A1423AE633994B6245e4508Bc",
          "topics": [
            "0xddf252ad1be2c89b69c2b068fc378daa952ba7f163c4a11628f55a4df523b3ef",
            "0x0000000000000000000000000000000000000000000000000000000000000000",
            "0x000000000000000000000000f92d18cdfa0ee4c76701d54ded6fb20ca635f1a2",
            "0x0000000000000000000000000000000000000000000000000000000000000da6"
          ],
          "data": "0x",
          "blockHash": "0x31cea40a358b653c8523360cbb025c1fb70ace7e85de095c99b4683078f5e536",
          "blockNumber": "0x2ae89a2",
          "transactionHash": "0xeb26837892be2de11b0e6926fd021c84d21a24e3ebe72b66150136ed93e783be",
          "transactionIndex": "0x1",
          "logIndex": "0xc",
          "removed": false
        },
        {
          "address": "0x8263007844439F1A1423AE633994B6245e4508Bc",
          "topics": [
            "0xddf252ad1be2c89b69c2b068fc378daa952ba7f163c4a11628f55a4df523b3ef",
            "0x0000000000000000000000000000000000000000000000000000000000000000",
            "0x000000000000000000000000f92d18cdfa0ee4c76701d54ded6fb20ca635f1a2",
            "0x0000000000000000000000000000000000000000000000000000000000000da7"
          ],
          "data": "0x",
          "blockHash": "0x31cea40a358b653c8523360cbb025c1fb70ace7e85de095c99b4683078f5e536",
          "blockNumber": "0x2ae89a2",
          "transactionHash": "0xeb26837892be2de11b0e6926fd021c84d21a24e3ebe72b66150136ed93e783be",
          "transactionIndex": "0x1",
          "logIndex": "0xd",
          "removed": false
        },
        {
          "address": "0x8263007844439F1A1423AE633994B6245e4508Bc",
          "topics": [
            "0xddf252ad1be2c89b69c2b068fc378daa952ba7f163c4a11628f55a4df523b3ef",
            "0x0000000000000000000000000000000000000000000000000000000000000000",
            "0x000000000000000000000000f92d18cdfa0ee4c76701d54ded6fb20ca635f1a2",
            "0x0000000000000000000000000000000000000000000000000000000000000da8"
          ],
          "data": "0x",
          "blockHash": "0x31cea40a358b653c8523360cbb025c1fb70ace7e85de095c99b4683078f5e536",
          "blockNumber": "0x2ae89a2",
          "transactionHash": "0xeb26837892be2de11b0e6926fd021c84d21a24e3ebe72b66150136ed93e783be",
          "transactionIndex": "0x1",
          "logIndex": "0xe",
          "removed": false
        },
        {
          "address": "0x8263007844439F1A1423AE633994B6245e4508Bc",
          "topics": [
            "0xddf252ad1be2c89b69c2b068fc378daa952ba7f163c4a11628f55a4df523b3ef",
            "0x0000000000000000000000000000000000000000000000000000000000000000",
            "0x000000000000000000000000f92d18cdfa0ee4c76701d54ded6fb20ca635f1a2",
            "0x0000000000000000000000000000000000000000000000000000000000000da9"
          ],
          "data": "0x",
          "blockHash": "0x31cea40a358b653c8523360cbb025c1fb70ace7e85de095c99b4683078f5e536",
          "blockNumber": "0x2ae89a2",
          "transactionHash": "0xeb26837892be2de11b0e6926fd021c84d21a24e3ebe72b66150136ed93e783be",
          "transactionIndex": "0x1",
          "logIndex": "0xf",
          "removed": false
        },
        {
          "address": "0x8263007844439F1A1423AE633994B6245e4508Bc",
          "topics": [
            "0xddf252ad1be2c89b69c2b068fc378daa952ba7f163c4a11628f55a4df523b3ef",
            "0x0000000000000000000000000000000000000000000000000000000000000000",
            "0x000000000000000000000000f92d18cdfa0ee4c76701d54ded6fb20ca635f1a2",
            "0x0000000000000000000000000000000000000000000000000000000000000daa"
          ],
          "data": "0x",
          "blockHash": "0x31cea40a358b653c8523360cbb025c1fb70ace7e85de095c99b4683078f5e536",
          "blockNumber": "0x2ae89a2",
          "transactionHash": "0xeb26837892be2de11b0e6926fd021c84d21a24e3ebe72b66150136ed93e783be",
          "transactionIndex": "0x1",
          "logIndex": "0x10",
          "removed": false
        },
        {
          "address": "0x8263007844439F1A1423AE633994B6245e4508Bc",
          "topics": [
            "0xddf252ad1be2c89b69c2b068fc378daa952ba7f163c4a11628f55a4df523b3ef",
            "0x0000000000000000000000000000000000000000000000000000000000000000",
            "0x000000000000000000000000f92d18cdfa0ee4c76701d54ded6fb20ca635f1a2",
            "0x0000000000000000000000000000000000000000000000000000000000000dab"
          ],
          "data": "0x",
          "blockHash": "0x31cea40a358b653c8523360cbb025c1fb70ace7e85de095c99b4683078f5e536",
          "blockNumber": "0x2ae89a2",
          "transactionHash": "0xeb26837892be2de11b0e6926fd021c84d21a24e3ebe72b66150136ed93e783be",
          "transactionIndex": "0x1",
          "logIndex": "0x11",
          "removed": false
        },
        {
          "address": "0x0000000000000000000000000000000000001010",
          "topics": [
            "0x4dfe1bbbcf077ddc3e01291eea2d5c70c2b422b415d95645b9adcfd678cb1d63",
            "0x0000000000000000000000000000000000000000000000000000000000001010",
            "0x000000000000000000000000f92d18cdfa0ee4c76701d54ded6fb20ca635f1a2",
            "0x0000000000000000000000005082f249cdb2f2c1ee035e4f423c46ea2dab3ab1"
          ],
          "data": "0x00000000000000000000000000000000000000000000000000a1f40d7bd93400000000000000000000000000000000000000000000000000114483ec69cfc3c30000000000000000000000000000000000000000000005746740086d662efa1500000000000000000000000000000000000000000000000010a28fdeedf68fc300000000000000000000000000000000000000000000057467e1fc7ae2082e15",
          "blockHash": "0x31cea40a358b653c8523360cbb025c1fb70ace7e85de095c99b4683078f5e536",
          "blockNumber": "0x2ae89a2",
          "transactionHash": "0xeb26837892be2de11b0e6926fd021c84d21a24e3ebe72b66150136ed93e783be",
          "transactionIndex": "0x1",
          "logIndex": "0x12",
          "removed": false
        }
      ],
      "status": "0x1",
      "logsBloom": "0x020000000000000004040020000000080400000000000000000001000200040000000000120000000400001800000001204080000000000000080002000000001000008000000808008000080000228000000000000010000001000004000020000000800200000000000001010208000000242000000000a0000010080000800800000000000000000000000800001000000000044000000000040004000400200000000000400000000000000000000010000000800000000000000800004000000002000110000001000000004000000000000000800000128000000420000088000000000180000100000220000400081000000000000000000000100000",
      "type": "0x2",
      "effectiveGasPrice": "0x6fc23ac0f"
    },
    {
      "transactionHash": "0x037623db54513e3b76d39789c8558566400618dd8a0219fc0ddf0d2bb6c155ed",
      "transactionIndex": "0x0",
      "blockHash": "0xef82f718920e71a03089ec178d91220c0121413865e0241657afa64bcbe4eb03",
      "blockNumber": "0x2ae89a6",
      "from": "0xD4C7E8652c97127EE260057e2dC245D42F21DDA7",
      "to": "0x8263007844439F1A1423AE633994B6245e4508Bc",
      "cumulativeGasUsed": "0x172fa7",
      "gasUsed": "0x172fa7",
      "contractAddress": null,
      "logs": [
        {
          "address": "0x0000000000000000000000000000000000001010",
          "topics": [
            "0xe6497e3ee548a3372136af2fcb0696db31fc6cf20260707645068bd3fe97f3c4",
            "0x0000000000000000000000000000000000000000000000000000000000001010",
            "0x000000000000000000000000d4c7e8652c97127ee260057e2dc245d42f21dda7",
            "0x0000000000000000000000008263007844439f1a1423ae633994b6245e4508bc"
          ],
          "data": "0x000000000000000000000000000000000000000000000000001d24e910fb17c00000000000000000000000000000000000000000000000000d420e5b25da9bed00000000000000000000000000000000000000000000000000000000000000000000000000000000000000000000000000000000000000000d24e97214df842d000000000000000000000000000000000000000000000000001d24e910fb17c0",
          "blockHash": "0xef82f718920e71a03089ec178d91220c0121413865e0241657afa64bcbe4eb03",
          "blockNumber": "0x2ae89a6",
          "transactionHash": "0x037623db54513e3b76d39789c8558566400618dd8a0219fc0ddf0d2bb6c155ed",
          "transactionIndex": "0x0",
          "logIndex": "0x0",
          "removed": false
        },
        {
          "address": "0x0000000000000000000000000000000000001010",
          "topics": [
            "0xe6497e3ee548a3372136af2fcb0696db31fc6cf20260707645068bd3fe97f3c4",
            "0x0000000000000000000000000000000000000000000000000000000000001010",
            "0x0000000000000000000000008263007844439f1a1423ae633994b6245e4508bc",
            "0x0000000000000000000000003f512308d9312d184e8e2a13e47c99d1c9a6956a"
          ],
          "data": "0x000000000000000000000000000000000000000000000000001d24e910fb17c0000000000000000000000000000000000000000000000000001d24e910fb17c000000000000000000000000000000000000000000000000020529d4db8590d060000000000000000000000000000000000000000000000000000000000000000000000000000000000000000000000000000000000000000206fc236c95424c6",
          "blockHash": "0xef82f718920e71a03089ec178d91220c0121413865e0241657afa64bcbe4eb03",
          "blockNumber": "0x2ae89a6",
          "transactionHash": "0x037623db54513e3b76d39789c8558566400618dd8a0219fc0ddf0d2bb6c155ed",
          "transactionIndex": "0x0",
          "logIndex": "0x1",
          "removed": false
        },
        {
          "address": "0x3f512308d9312d184E8E2a13E47C99D1c9A6956A",
          "topics": [
            "0x8e47b87b0ef542cdfa1659c551d88bad38aa7f452d2bbb349ab7530dfec8be8f"
          ],
          "data": "0x0000000000000000000000008263007844439f1a1423ae633994b6245e4508bc000000000000000000000000000000000000000000000000001d24e910fb17c0",
          "blockHash": "0xef82f718920e71a03089ec178d91220c0121413865e0241657afa64bcbe4eb03",
          "blockNumber": "0x2ae89a6",
          "transactionHash": "0x037623db54513e3b76d39789c8558566400618dd8a0219fc0ddf0d2bb6c155ed",
          "transactionIndex": "0x0",
          "logIndex": "0x2",
          "removed": false
        },
        {
          "address": "0x7a1BaC17Ccc5b313516C5E16fb24f7659aA5ebed",
          "topics": [
            "0x63373d1c4696214b898952999c9aaec57dac1ee2723cec59bea6888f489a9772",
            "0x4b09e658ed251bcafeebbc69400383d49f344ace09b9576fe248bb02c003fe9f",
            "0x0000000000000000000000000000000000000000000000000000000000000b33",
            "0x0000000000000000000000008263007844439f1a1423ae633994b6245e4508bc"
          ],
          "data": "0xf135be7dfef155a1e7019cbe02fab2cec79405fb85ed1e66dddb613f23a55097a0d2528d2175789d7bbd8f3ed57002eb459ff98bb4eecdab583029ae916b2fb5000000000000000000000000000000000000000000000000000000000000000300000000000000000000000000000000000000000000000000000000000f42400000000000000000000000000000000000000000000000000000000000000001",
          "blockHash": "0xef82f718920e71a03089ec178d91220c0121413865e0241657afa64bcbe4eb03",
          "blockNumber": "0x2ae89a6",
          "transactionHash": "0x037623db54513e3b76d39789c8558566400618dd8a0219fc0ddf0d2bb6c155ed",
          "transactionIndex": "0x0",
          "logIndex": "0x3",
          "removed": false
        },
        {
          "address": "0x8263007844439F1A1423AE633994B6245e4508Bc",
          "topics": [
            "0xf2dc9a29f1b257c57ef50cb6c0230cacc6af60a01e5e51bde6ee1657f214a347"
          ],
          "data": "0xf135be7dfef155a1e7019cbe02fab2cec79405fb85ed1e66dddb613f23a55097",
          "blockHash": "0xef82f718920e71a03089ec178d91220c0121413865e0241657afa64bcbe4eb03",
          "blockNumber": "0x2ae89a6",
          "transactionHash": "0x037623db54513e3b76d39789c8558566400618dd8a0219fc0ddf0d2bb6c155ed",
          "transactionIndex": "0x0",
          "logIndex": "0x4",
          "removed": false
        },
        {
          "address": "0x8263007844439F1A1423AE633994B6245e4508Bc",
          "topics": [
            "0xddf252ad1be2c89b69c2b068fc378daa952ba7f163c4a11628f55a4df523b3ef",
            "0x0000000000000000000000000000000000000000000000000000000000000000",
            "0x000000000000000000000000d4c7e8652c97127ee260057e2dc245d42f21dda7",
            "0x0000000000000000000000000000000000000000000000000000000000000dac"
          ],
          "data": "0x",
          "blockHash": "0xef82f718920e71a03089ec178d91220c0121413865e0241657afa64bcbe4eb03",
          "blockNumber": "0x2ae89a6",
          "transactionHash": "0x037623db54513e3b76d39789c8558566400618dd8a0219fc0ddf0d2bb6c155ed",
          "transactionIndex": "0x0",
          "logIndex": "0x5",
          "removed": false
        },
        {
          "address": "0x8263007844439F1A1423AE633994B6245e4508Bc",
          "topics": [
            "0xddf252ad1be2c89b69c2b068fc378daa952ba7f163c4a11628f55a4df523b3ef",
            "0x0000000000000000000000000000000000000000000000000000000000000000",
            "0x000000000000000000000000d4c7e8652c97127ee260057e2dc245d42f21dda7",
            "0x0000000000000000000000000000000000000000000000000000000000000dad"
          ],
          "data": "0x",
          "blockHash": "0xef82f718920e71a03089ec178d91220c0121413865e0241657afa64bcbe4eb03",
          "blockNumber": "0x2ae89a6",
          "transactionHash": "0x037623db54513e3b76d39789c8558566400618dd8a0219fc0ddf0d2bb6c155ed",
          "transactionIndex": "0x0",
          "logIndex": "0x6",
          "removed": false
        },
        {
          "address": "0x8263007844439F1A1423AE633994B6245e4508Bc",
          "topics": [
            "0xddf252ad1be2c89b69c2b068fc378daa952ba7f163c4a11628f55a4df523b3ef",
            "0x0000000000000000000000000000000000000000000000000000000000000000",
            "0x000000000000000000000000d4c7e8652c97127ee260057e2dc245d42f21dda7",
            "0x0000000000000000000000000000000000000000000000000000000000000dae"
          ],
          "data": "0x",
          "blockHash": "0xef82f718920e71a03089ec178d91220c0121413865e0241657afa64bcbe4eb03",
          "blockNumber": "0x2ae89a6",
          "transactionHash": "0x037623db54513e3b76d39789c8558566400618dd8a0219fc0ddf0d2bb6c155ed",
          "transactionIndex": "0x0",
          "logIndex": "0x7",
          "removed": false
        },
        {
          "address": "0x8263007844439F1A1423AE633994B6245e4508Bc",
          "topics": [
            "0xddf252ad1be2c89b69c2b068fc378daa952ba7f163c4a11628f55a4df523b3ef",
            "0x0000000000000000000000000000000000000000000000000000000000000000",
            "0x000000000000000000000000d4c7e8652c97127ee260057e2dc245d42f21dda7",
            "0x0000000000000000000000000000000000000000000000000000000000000daf"
          ],
          "data": "0x",
          "blockHash": "0xef82f718920e71a03089ec178d91220c0121413865e0241657afa64bcbe4eb03",
          "blockNumber": "0x2ae89a6",
          "transactionHash": "0x037623db54513e3b76d39789c8558566400618dd8a0219fc0ddf0d2bb6c155ed",
          "transactionIndex": "0x0",
          "logIndex": "0x8",
          "removed": false
        },
        {
          "address": "0x8263007844439F1A1423AE633994B6245e4508Bc",
          "topics": [
            "0xddf252ad1be2c89b69c2b068fc378daa952ba7f163c4a11628f55a4df523b3ef",
            "0x0000000000000000000000000000000000000000000000000000000000000000",
            "0x000000000000000000000000d4c7e8652c97127ee260057e2dc245d42f21dda7",
            "0x0000000000000000000000000000000000000000000000000000000000000db0"
          ],
          "data": "0x",
          "blockHash": "0xef82f718920e71a03089ec178d91220c0121413865e0241657afa64bcbe4eb03",
          "blockNumber": "0x2ae89a6",
          "transactionHash": "0x037623db54513e3b76d39789c8558566400618dd8a0219fc0ddf0d2bb6c155ed",
          "transactionIndex": "0x0",
          "logIndex": "0x9",
          "removed": false
        },
        {
          "address": "0x8263007844439F1A1423AE633994B6245e4508Bc",
          "topics": [
            "0xddf252ad1be2c89b69c2b068fc378daa952ba7f163c4a11628f55a4df523b3ef",
            "0x0000000000000000000000000000000000000000000000000000000000000000",
            "0x000000000000000000000000d4c7e8652c97127ee260057e2dc245d42f21dda7",
            "0x0000000000000000000000000000000000000000000000000000000000000db1"
          ],
          "data": "0x",
          "blockHash": "0xef82f718920e71a03089ec178d91220c0121413865e0241657afa64bcbe4eb03",
          "blockNumber": "0x2ae89a6",
          "transactionHash": "0x037623db54513e3b76d39789c8558566400618dd8a0219fc0ddf0d2bb6c155ed",
          "transactionIndex": "0x0",
          "logIndex": "0xa",
          "removed": false
        },
        {
          "address": "0x8263007844439F1A1423AE633994B6245e4508Bc",
          "topics": [
            "0xddf252ad1be2c89b69c2b068fc378daa952ba7f163c4a11628f55a4df523b3ef",
            "0x0000000000000000000000000000000000000000000000000000000000000000",
            "0x000000000000000000000000d4c7e8652c97127ee260057e2dc245d42f21dda7",
            "0x0000000000000000000000000000000000000000000000000000000000000db2"
          ],
          "data": "0x",
          "blockHash": "0xef82f718920e71a03089ec178d91220c0121413865e0241657afa64bcbe4eb03",
          "blockNumber": "0x2ae89a6",
          "transactionHash": "0x037623db54513e3b76d39789c8558566400618dd8a0219fc0ddf0d2bb6c155ed",
          "transactionIndex": "0x0",
          "logIndex": "0xb",
          "removed": false
        },
        {
          "address": "0x8263007844439F1A1423AE633994B6245e4508Bc",
          "topics": [
            "0xddf252ad1be2c89b69c2b068fc378daa952ba7f163c4a11628f55a4df523b3ef",
            "0x0000000000000000000000000000000000000000000000000000000000000000",
            "0x000000000000000000000000d4c7e8652c97127ee260057e2dc245d42f21dda7",
            "0x0000000000000000000000000000000000000000000000000000000000000db3"
          ],
          "data": "0x",
          "blockHash": "0xef82f718920e71a03089ec178d91220c0121413865e0241657afa64bcbe4eb03",
          "blockNumber": "0x2ae89a6",
          "transactionHash": "0x037623db54513e3b76d39789c8558566400618dd8a0219fc0ddf0d2bb6c155ed",
          "transactionIndex": "0x0",
          "logIndex": "0xc",
          "removed": false
        },
        {
          "address": "0x8263007844439F1A1423AE633994B6245e4508Bc",
          "topics": [
            "0xddf252ad1be2c89b69c2b068fc378daa952ba7f163c4a11628f55a4df523b3ef",
            "0x0000000000000000000000000000000000000000000000000000000000000000",
            "0x000000000000000000000000d4c7e8652c97127ee260057e2dc245d42f21dda7",
            "0x0000000000000000000000000000000000000000000000000000000000000db4"
          ],
          "data": "0x",
          "blockHash": "0xef82f718920e71a03089ec178d91220c0121413865e0241657afa64bcbe4eb03",
          "blockNumber": "0x2ae89a6",
          "transactionHash": "0x037623db54513e3b76d39789c8558566400618dd8a0219fc0ddf0d2bb6c155ed",
          "transactionIndex": "0x0",
          "logIndex": "0xd",
          "removed": false
        },
        {
          "address": "0x8263007844439F1A1423AE633994B6245e4508Bc",
          "topics": [
            "0xddf252ad1be2c89b69c2b068fc378daa952ba7f163c4a11628f55a4df523b3ef",
            "0x0000000000000000000000000000000000000000000000000000000000000000",
            "0x000000000000000000000000d4c7e8652c97127ee260057e2dc245d42f21dda7",
            "0x0000000000000000000000000000000000000000000000000000000000000db5"
          ],
          "data": "0x",
          "blockHash": "0xef82f718920e71a03089ec178d91220c0121413865e0241657afa64bcbe4eb03",
          "blockNumber": "0x2ae89a6",
          "transactionHash": "0x037623db54513e3b76d39789c8558566400618dd8a0219fc0ddf0d2bb6c155ed",
          "transactionIndex": "0x0",
          "logIndex": "0xe",
          "removed": false
        },
        {
          "address": "0x0000000000000000000000000000000000001010",
          "topics": [
            "0x4dfe1bbbcf077ddc3e01291eea2d5c70c2b422b415d95645b9adcfd678cb1d63",
            "0x0000000000000000000000000000000000000000000000000000000000001010",
            "0x000000000000000000000000d4c7e8652c97127ee260057e2dc245d42f21dda7",
            "0x0000000000000000000000005082f249cdb2f2c1ee035e4f423c46ea2dab3ab1"
          ],
          "data": "0x00000000000000000000000000000000000000000000000000a1f40d7bd934000000000000000000000000000000000000000000000000000e21c1091bc7272f00000000000000000000000000000000000000000000057467fc2b167b10b2ab0000000000000000000000000000000000000000000000000d7fccfb9fedf32f000000000000000000000000000000000000000000000574689e1f23f6e9e6ab",
          "blockHash": "0xef82f718920e71a03089ec178d91220c0121413865e0241657afa64bcbe4eb03",
          "blockNumber": "0x2ae89a6",
          "transactionHash": "0x037623db54513e3b76d39789c8558566400618dd8a0219fc0ddf0d2bb6c155ed",
          "transactionIndex": "0x0",
          "logIndex": "0xf",
          "removed": false
        }
      ],
      "status": "0x1",
      "logsBloom": "0x020000000000020004040020040000080400010000000000000000000204040020000000020000000000001004000040200080400002000000080000010042000010008000000008000000080000228000000000000010000001000080000000000000800260000000000001000008000000042000800000800001120000000000000080000000000000000000000010000000000040000000000000000000022000000000004000000000000000000000100000000020000400100040000040040000020000100000010000000040000000000000008000001280100000a0021008000000002180000100000200000000080000000000000000000000100000",
      "type": "0x2",
      "effectiveGasPrice": "0x6fc23ac0f"
    }
  ],
  "libraries": [],
  "pending": [],
  "returns": {},
  "timestamp": 1705808043,
  "chain": 80001,
  "multi": false,
  "commit": "9935aef"
}