{
  "transactions": [
    {
      "hash": "0x07c48f98d4d847145219821e3452ef14106935f40044a03fc715b501dcaec833",
      "transactionType": "CALL",
      "contractName": null,
      "contractAddress": "0x8263007844439F1A1423AE633994B6245e4508Bc",
      "function": "mint(address,uint256)",
      "arguments": [
        "0x298334B4895392b0BA15261194cF1642A4adf9Fc",
        "10"
      ],
      "transaction": {
        "type": "0x02",
        "from": "0x298334b4895392b0ba15261194cf1642a4adf9fc",
        "to": "0x8263007844439f1a1423ae633994b6245e4508bc",
        "gas": "0x20069e",
        "value": "0x1d32f4be7d9800",
        "data": "0x40c10f19000000000000000000000000298334b4895392b0ba15261194cf1642a4adf9fc000000000000000000000000000000000000000000000000000000000000000a",
        "nonce": "0x5c",
        "accessList": []
      },
      "additionalContracts": [],
      "isFixedGasLimit": false
    },
    {
      "hash": "0x3559bc9aa7b39806086dd119f44ff7eccd1c95269169e6021fa3f522382a8d26",
      "transactionType": "CALL",
      "contractName": null,
      "contractAddress": "0x8263007844439F1A1423AE633994B6245e4508Bc",
      "function": "mint(address,uint256)",
      "arguments": [
        "0xF92D18CdFa0EE4C76701d54dEd6fB20ca635F1A2",
        "10"
      ],
      "transaction": {
        "type": "0x02",
        "from": "0xf92d18cdfa0ee4c76701d54ded6fb20ca635f1a2",
        "to": "0x8263007844439f1a1423ae633994b6245e4508bc",
        "gas": "0x20069e",
        "value": "0x1d32f4be7d9800",
        "data": "0x40c10f19000000000000000000000000f92d18cdfa0ee4c76701d54ded6fb20ca635f1a2000000000000000000000000000000000000000000000000000000000000000a",
        "nonce": "0x56",
        "accessList": []
      },
      "additionalContracts": [],
      "isFixedGasLimit": false
    },
    {
      "hash": "0x19f85677ac15d261c31fcd7aaa917d001796b602207ab303f0eedee0b227cc45",
      "transactionType": "CALL",
      "contractName": null,
      "contractAddress": "0x8263007844439F1A1423AE633994B6245e4508Bc",
      "function": "mint(address,uint256)",
      "arguments": [
        "0xD4C7E8652c97127EE260057e2dC245D42F21DDA7",
        "10"
      ],
      "transaction": {
        "type": "0x02",
        "from": "0xd4c7e8652c97127ee260057e2dc245d42f21dda7",
        "to": "0x8263007844439f1a1423ae633994b6245e4508bc",
        "gas": "0x20069e",
        "value": "0x1d32f4be7d9800",
        "data": "0x40c10f19000000000000000000000000d4c7e8652c97127ee260057e2dc245d42f21dda7000000000000000000000000000000000000000000000000000000000000000a",
        "nonce": "0x64",
        "accessList": []
      },
      "additionalContracts": [],
      "isFixedGasLimit": false
    },
    {
      "hash": "0xdaa285a30c821ceb6ed2d068aed8a91958405c7470c1762fa053bc6cd849883f",
      "transactionType": "CALL",
      "contractName": null,
      "contractAddress": "0x8263007844439F1A1423AE633994B6245e4508Bc",
      "function": "mint(address,uint256)",
      "arguments": [
        "0x298334B4895392b0BA15261194cF1642A4adf9Fc",
        "10"
      ],
      "transaction": {
        "type": "0x02",
        "from": "0x298334b4895392b0ba15261194cf1642a4adf9fc",
        "to": "0x8263007844439f1a1423ae633994b6245e4508bc",
        "gas": "0x20069e",
        "value": "0x1d32f4be7d9800",
        "data": "0x40c10f19000000000000000000000000298334b4895392b0ba15261194cf1642a4adf9fc000000000000000000000000000000000000000000000000000000000000000a",
        "nonce": "0x5d",
        "accessList": []
      },
      "additionalContracts": [],
      "isFixedGasLimit": false
    },
    {
      "hash": "0xf9171d86605257cbf35e9c5d6ec4f7c29984b90071ed293f7d8fb7724326cd31",
      "transactionType": "CALL",
      "contractName": null,
      "contractAddress": "0x8263007844439F1A1423AE633994B6245e4508Bc",
      "function": "mint(address,uint256)",
      "arguments": [
        "0xF92D18CdFa0EE4C76701d54dEd6fB20ca635F1A2",
        "10"
      ],
      "transaction": {
        "type": "0x02",
        "from": "0xf92d18cdfa0ee4c76701d54ded6fb20ca635f1a2",
        "to": "0x8263007844439f1a1423ae633994b6245e4508bc",
        "gas": "0x20069e",
        "value": "0x1d32f4be7d9800",
        "data": "0x40c10f19000000000000000000000000f92d18cdfa0ee4c76701d54ded6fb20ca635f1a2000000000000000000000000000000000000000000000000000000000000000a",
        "nonce": "0x57",
        "accessList": []
      },
      "additionalContracts": [],
      "isFixedGasLimit": false
    },
    {
      "hash": "0x6e6c339f4640efe4df8a00503411ff570431bacd108f99d4f32608027d2fbc1e",
      "transactionType": "CALL",
      "contractName": null,
      "contractAddress": "0x8263007844439F1A1423AE633994B6245e4508Bc",
      "function": "mint(address,uint256)",
      "arguments": [
        "0xD4C7E8652c97127EE260057e2dC245D42F21DDA7",
        "10"
      ],
      "transaction": {
        "type": "0x02",
        "from": "0xd4c7e8652c97127ee260057e2dc245d42f21dda7",
        "to": "0x8263007844439f1a1423ae633994b6245e4508bc",
        "gas": "0x20069e",
        "value": "0x1d32f4be7d9800",
        "data": "0x40c10f19000000000000000000000000d4c7e8652c97127ee260057e2dc245d42f21dda7000000000000000000000000000000000000000000000000000000000000000a",
        "nonce": "0x65",
        "accessList": []
      },
      "additionalContracts": [],
      "isFixedGasLimit": false
    },
    {
      "hash": "0x7fc8361effb6ca56dd4d75f2a6b3edfc6839ad846cee01ffdfafdfae2f72c1aa",
      "transactionType": "CALL",
      "contractName": null,
      "contractAddress": "0x8263007844439F1A1423AE633994B6245e4508Bc",
      "function": "mint(address,uint256)",
      "arguments": [
        "0x298334B4895392b0BA15261194cF1642A4adf9Fc",
        "10"
      ],
      "transaction": {
        "type": "0x02",
        "from": "0x298334b4895392b0ba15261194cf1642a4adf9fc",
        "to": "0x8263007844439f1a1423ae633994b6245e4508bc",
        "gas": "0x20069e",
        "value": "0x1d32f4be7d9800",
        "data": "0x40c10f19000000000000000000000000298334b4895392b0ba15261194cf1642a4adf9fc000000000000000000000000000000000000000000000000000000000000000a",
        "nonce": "0x5e",
        "accessList": []
      },
      "additionalContracts": [],
      "isFixedGasLimit": false
    },
    {
      "hash": "0xac6a2ff41a67050c2c6dadf2aff5ae4b641b2ae7dfa272ca928970f4f741f8ec",
      "transactionType": "CALL",
      "contractName": null,
      "contractAddress": "0x8263007844439F1A1423AE633994B6245e4508Bc",
      "function": "mint(address,uint256)",
      "arguments": [
        "0xF92D18CdFa0EE4C76701d54dEd6fB20ca635F1A2",
        "10"
      ],
      "transaction": {
        "type": "0x02",
        "from": "0xf92d18cdfa0ee4c76701d54ded6fb20ca635f1a2",
        "to": "0x8263007844439f1a1423ae633994b6245e4508bc",
        "gas": "0x20069e",
        "value": "0x1d32f4be7d9800",
        "data": "0x40c10f19000000000000000000000000f92d18cdfa0ee4c76701d54ded6fb20ca635f1a2000000000000000000000000000000000000000000000000000000000000000a",
        "nonce": "0x58",
        "accessList": []
      },
      "additionalContracts": [],
      "isFixedGasLimit": false
    },
    {
      "hash": null,
      "transactionType": "CALL",
      "contractName": null,
      "contractAddress": "0x8263007844439F1A1423AE633994B6245e4508Bc",
      "function": "mint(address,uint256)",
      "arguments": [
        "0xD4C7E8652c97127EE260057e2dC245D42F21DDA7",
        "10"
      ],
      "transaction": {
        "type": "0x02",
        "from": "0xd4c7e8652c97127ee260057e2dc245d42f21dda7",
        "to": "0x8263007844439f1a1423ae633994b6245e4508bc",
        "gas": "0x20069e",
        "value": "0x1d32f4be7d9800",
        "data": "0x40c10f19000000000000000000000000d4c7e8652c97127ee260057e2dc245d42f21dda7000000000000000000000000000000000000000000000000000000000000000a",
        "nonce": "0x66",
        "accessList": []
      },
      "additionalContracts": [],
      "isFixedGasLimit": false
    }
  ],
  "receipts": [
    {
      "transactionHash": "0x07c48f98d4d847145219821e3452ef14106935f40044a03fc715b501dcaec833",
      "transactionIndex": "0x1",
      "blockHash": "0x7f663c2c7491f7d7f622db56ec576dcfebc83d65326a41e89dfe578cd6517999",
      "blockNumber": "0x2ae89ba",
      "from": "0x298334B4895392b0BA15261194cF1642A4adf9Fc",
      "to": "0x8263007844439F1A1423AE633994B6245e4508Bc",
      "cumulativeGasUsed": "0x185a77",
      "gasUsed": "0x172fa7",
      "contractAddress": null,
      "logs": [
        {
          "address": "0x0000000000000000000000000000000000001010",
          "topics": [
            "0xe6497e3ee548a3372136af2fcb0696db31fc6cf20260707645068bd3fe97f3c4",
            "0x0000000000000000000000000000000000000000000000000000000000001010",
            "0x000000000000000000000000298334b4895392b0ba15261194cf1642a4adf9fc",
            "0x0000000000000000000000008263007844439f1a1423ae633994b6245e4508bc"
          ],
          "data": "0x000000000000000000000000000000000000000000000000001d32f4be7d9800000000000000000000000000000000000000000000000000227adf91cfa1ddcd0000000000000000000000000000000000000000000000000000000000000000000000000000000000000000000000000000000000000000225dac9d112445cd000000000000000000000000000000000000000000000000001d32f4be7d9800",
          "blockHash": "0x7f663c2c7491f7d7f622db56ec576dcfebc83d65326a41e89dfe578cd6517999",
          "blockNumber": "0x2ae89ba",
          "transactionHash": "0x07c48f98d4d847145219821e3452ef14106935f40044a03fc715b501dcaec833",
          "transactionIndex": "0x1",
          "logIndex": "0x3",
          "removed": false
        },
        {
          "address": "0x0000000000000000000000000000000000001010",
          "topics": [
            "0xe6497e3ee548a3372136af2fcb0696db31fc6cf20260707645068bd3fe97f3c4",
            "0x0000000000000000000000000000000000000000000000000000000000001010",
            "0x0000000000000000000000008263007844439f1a1423ae633994b6245e4508bc",
            "0x0000000000000000000000003f512308d9312d184e8e2a13e47c99d1c9a6956a"
          ],
          "data": "0x000000000000000000000000000000000000000000000000001d32f4be7d9800000000000000000000000000000000000000000000000000001d32f4be7d9800000000000000000000000000000000000000000000000000206fc236c95424c60000000000000000000000000000000000000000000000000000000000000000000000000000000000000000000000000000000000000000208cf52b87d1bcc6",
          "blockHash": "0x7f663c2c7491f7d7f622db56ec576dcfebc83d65326a41e89dfe578cd6517999",
          "blockNumber": "0x2ae89ba",
          "transactionHash": "0x07c48f98d4d847145219821e3452ef14106935f40044a03fc715b501dcaec833",
          "transactionIndex": "0x1",
          "logIndex": "0x4",
          "removed": false
        },
        {
          "address": "0x3f512308d9312d184E8E2a13E47C99D1c9A6956A",
          "topics": [
            "0x8e47b87b0ef542cdfa1659c551d88bad38aa7f452d2bbb349ab7530dfec8be8f"
          ],
          "data": "0x0000000000000000000000008263007844439f1a1423ae633994b6245e4508bc000000000000000000000000000000000000000000000000001d32f4be7d9800",
          "blockHash": "0x7f663c2c7491f7d7f622db56ec576dcfebc83d65326a41e89dfe578cd6517999",
          "blockNumber": "0x2ae89ba",
          "transactionHash": "0x07c48f98d4d847145219821e3452ef14106935f40044a03fc715b501dcaec833",
          "transactionIndex": "0x1",
          "logIndex": "0x5",
          "removed": false
        },
        {
          "address": "0x7a1BaC17Ccc5b313516C5E16fb24f7659aA5ebed",
          "topics": [
            "0x63373d1c4696214b898952999c9aaec57dac1ee2723cec59bea6888f489a9772",
            "0x4b09e658ed251bcafeebbc69400383d49f344ace09b9576fe248bb02c003fe9f",
            "0x0000000000000000000000000000000000000000000000000000000000000b33",
            "0x0000000000000000000000008263007844439f1a1423ae633994b6245e4508bc"
          ],
          "data": "0x5cf8521dcdc393ba811d88bc31c57e0872396e2298c012a8bda9d061340615cab7564736d72ac5644f76d47552ff618bc9d44a6187e2738ea92d439d0fea4791000000000000000000000000000000000000000000000000000000000000000300000000000000000000000000000000000000000000000000000000000f42400000000000000000000000000000000000000000000000000000000000000001",
          "blockHash": "0x7f663c2c7491f7d7f622db56ec576dcfebc83d65326a41e89dfe578cd6517999",
          "blockNumber": "0x2ae89ba",
          "transactionHash": "0x07c48f98d4d847145219821e3452ef14106935f40044a03fc715b501dcaec833",
          "transactionIndex": "0x1",
          "logIndex": "0x6",
          "removed": false
        },
        {
          "address": "0x8263007844439F1A1423AE633994B6245e4508Bc",
          "topics": [
            "0xf2dc9a29f1b257c57ef50cb6c0230cacc6af60a01e5e51bde6ee1657f214a347"
          ],
          "data": "0x5cf8521dcdc393ba811d88bc31c57e0872396e2298c012a8bda9d061340615ca",
          "blockHash": "0x7f663c2c7491f7d7f622db56ec576dcfebc83d65326a41e89dfe578cd6517999",
          "blockNumber": "0x2ae89ba",
          "transactionHash": "0x07c48f98d4d847145219821e3452ef14106935f40044a03fc715b501dcaec833",
          "transactionIndex": "0x1",
          "logIndex": "0x7",
          "removed": false
        },
        {
          "address": "0x8263007844439F1A1423AE633994B6245e4508Bc",
          "topics": [
            "0xddf252ad1be2c89b69c2b068fc378daa952ba7f163c4a11628f55a4df523b3ef",
            "0x0000000000000000000000000000000000000000000000000000000000000000",
            "0x000000000000000000000000298334b4895392b0ba15261194cf1642a4adf9fc",
            "0x0000000000000000000000000000000000000000000000000000000000000db6"
          ],
          "data": "0x",
          "blockHash": "0x7f663c2c7491f7d7f622db56ec576dcfebc83d65326a41e89dfe578cd6517999",
          "blockNumber": "0x2ae89ba",
          "transactionHash": "0x07c48f98d4d847145219821e3452ef14106935f40044a03fc715b501dcaec833",
          "transactionIndex": "0x1",
          "logIndex": "0x8",
          "removed": false
        },
        {
          "address": "0x8263007844439F1A1423AE633994B6245e4508Bc",
          "topics": [
            "0xddf252ad1be2c89b69c2b068fc378daa952ba7f163c4a11628f55a4df523b3ef",
            "0x0000000000000000000000000000000000000000000000000000000000000000",
            "0x000000000000000000000000298334b4895392b0ba15261194cf1642a4adf9fc",
            "0x0000000000000000000000000000000000000000000000000000000000000db7"
          ],
          "data": "0x",
          "blockHash": "0x7f663c2c7491f7d7f622db56ec576dcfebc83d65326a41e89dfe578cd6517999",
          "blockNumber": "0x2ae89ba",
          "transactionHash": "0x07c48f98d4d847145219821e3452ef14106935f40044a03fc715b501dcaec833",
          "transactionIndex": "0x1",
          "logIndex": "0x9",
          "removed": false
        },
        {
          "address": "0x8263007844439F1A1423AE633994B6245e4508Bc",
          "topics": [
            "0xddf252ad1be2c89b69c2b068fc378daa952ba7f163c4a11628f55a4df523b3ef",
            "0x0000000000000000000000000000000000000000000000000000000000000000",
            "0x000000000000000000000000298334b4895392b0ba15261194cf1642a4adf9fc",
            "0x0000000000000000000000000000000000000000000000000000000000000db8"
          ],
          "data": "0x",
          "blockHash": "0x7f663c2c7491f7d7f622db56ec576dcfebc83d65326a41e89dfe578cd6517999",
          "blockNumber": "0x2ae89ba",
          "transactionHash": "0x07c48f98d4d847145219821e3452ef14106935f40044a03fc715b501dcaec833",
          "transactionIndex": "0x1",
          "logIndex": "0xa",
          "removed": false
        },
        {
          "address": "0x8263007844439F1A1423AE633994B6245e4508Bc",
          "topics": [
            "0xddf252ad1be2c89b69c2b068fc378daa952ba7f163c4a11628f55a4df523b3ef",
            "0x0000000000000000000000000000000000000000000000000000000000000000",
            "0x000000000000000000000000298334b4895392b0ba15261194cf1642a4adf9fc",
            "0x0000000000000000000000000000000000000000000000000000000000000db9"
          ],
          "data": "0x",
          "blockHash": "0x7f663c2c7491f7d7f622db56ec576dcfebc83d65326a41e89dfe578cd6517999",
          "blockNumber": "0x2ae89ba",
          "transactionHash": "0x07c48f98d4d847145219821e3452ef14106935f40044a03fc715b501dcaec833",
          "transactionIndex": "0x1",
          "logIndex": "0xb",
          "removed": false
        },
        {
          "address": "0x8263007844439F1A1423AE633994B6245e4508Bc",
          "topics": [
            "0xddf252ad1be2c89b69c2b068fc378daa952ba7f163c4a11628f55a4df523b3ef",
            "0x0000000000000000000000000000000000000000000000000000000000000000",
            "0x000000000000000000000000298334b4895392b0ba15261194cf1642a4adf9fc",
            "0x0000000000000000000000000000000000000000000000000000000000000dba"
          ],
          "data": "0x",
          "blockHash": "0x7f663c2c7491f7d7f622db56ec576dcfebc83d65326a41e89dfe578cd6517999",
          "blockNumber": "0x2ae89ba",
          "transactionHash": "0x07c48f98d4d847145219821e3452ef14106935f40044a03fc715b501dcaec833",
          "transactionIndex": "0x1",
          "logIndex": "0xc",
          "removed": false
        },
        {
          "address": "0x8263007844439F1A1423AE633994B6245e4508Bc",
          "topics": [
            "0xddf252ad1be2c89b69c2b068fc378daa952ba7f163c4a11628f55a4df523b3ef",
            "0x0000000000000000000000000000000000000000000000000000000000000000",
            "0x000000000000000000000000298334b4895392b0ba15261194cf1642a4adf9fc",
            "0x0000000000000000000000000000000000000000000000000000000000000dbb"
          ],
          "data": "0x",
          "blockHash": "0x7f663c2c7491f7d7f622db56ec576dcfebc83d65326a41e89dfe578cd6517999",
          "blockNumber": "0x2ae89ba",
          "transactionHash": "0x07c48f98d4d847145219821e3452ef14106935f40044a03fc715b501dcaec833",
          "transactionIndex": "0x1",
          "logIndex": "0xd",
          "removed": false
        },
        {
          "address": "0x8263007844439F1A1423AE633994B6245e4508Bc",
          "topics": [
            "0xddf252ad1be2c89b69c2b068fc378daa952ba7f163c4a11628f55a4df523b3ef",
            "0x0000000000000000000000000000000000000000000000000000000000000000",
            "0x000000000000000000000000298334b4895392b0ba15261194cf1642a4adf9fc",
            "0x0000000000000000000000000000000000000000000000000000000000000dbc"
          ],
          "data": "0x",
          "blockHash": "0x7f663c2c7491f7d7f622db56ec576dcfebc83d65326a41e89dfe578cd6517999",
          "blockNumber": "0x2ae89ba",
          "transactionHash": "0x07c48f98d4d847145219821e3452ef14106935f40044a03fc715b501dcaec833",
          "transactionIndex": "0x1",
          "logIndex": "0xe",
          "removed": false
        },
        {
          "address": "0x8263007844439F1A1423AE633994B6245e4508Bc",
          "topics": [
            "0xddf252ad1be2c89b69c2b068fc378daa952ba7f163c4a11628f55a4df523b3ef",
            "0x0000000000000000000000000000000000000000000000000000000000000000",
            "0x000000000000000000000000298334b4895392b0ba15261194cf1642a4adf9fc",
            "0x0000000000000000000000000000000000000000000000000000000000000dbd"
          ],
          "data": "0x",
          "blockHash": "0x7f663c2c7491f7d7f622db56ec576dcfebc83d65326a41e89dfe578cd6517999",
          "blockNumber": "0x2ae89ba",
          "transactionHash": "0x07c48f98d4d847145219821e3452ef14106935f40044a03fc715b501dcaec833",
          "transactionIndex": "0x1",
          "logIndex": "0xf",
          "removed": false
        },
        {
          "address": "0x8263007844439F1A1423AE633994B6245e4508Bc",
          "topics": [
            "0xddf252ad1be2c89b69c2b068fc378daa952ba7f163c4a11628f55a4df523b3ef",
            "0x0000000000000000000000000000000000000000000000000000000000000000",
            "0x000000000000000000000000298334b4895392b0ba15261194cf1642a4adf9fc",
            "0x0000000000000000000000000000000000000000000000000000000000000dbe"
          ],
          "data": "0x",
          "blockHash": "0x7f663c2c7491f7d7f622db56ec576dcfebc83d65326a41e89dfe578cd6517999",
          "blockNumber": "0x2ae89ba",
          "transactionHash": "0x07c48f98d4d847145219821e3452ef14106935f40044a03fc715b501dcaec833",
          "transactionIndex": "0x1",
          "logIndex": "0x10",
          "removed": false
        },
        {
          "address": "0x8263007844439F1A1423AE633994B6245e4508Bc",
          "topics": [
            "0xddf252ad1be2c89b69c2b068fc378daa952ba7f163c4a11628f55a4df523b3ef",
            "0x0000000000000000000000000000000000000000000000000000000000000000",
            "0x000000000000000000000000298334b4895392b0ba15261194cf1642a4adf9fc",
            "0x0000000000000000000000000000000000000000000000000000000000000dbf"
          ],
          "data": "0x",
          "blockHash": "0x7f663c2c7491f7d7f622db56ec576dcfebc83d65326a41e89dfe578cd6517999",
          "blockNumber": "0x2ae89ba",
          "transactionHash": "0x07c48f98d4d847145219821e3452ef14106935f40044a03fc715b501dcaec833",
          "transactionIndex": "0x1",
          "logIndex": "0x11",
          "removed": false
        },
        {
          "address": "0x0000000000000000000000000000000000001010",
          "topics": [
            "0x4dfe1bbbcf077ddc3e01291eea2d5c70c2b422b415d95645b9adcfd678cb1d63",
            "0x0000000000000000000000000000000000000000000000000000000000001010",
            "0x000000000000000000000000298334b4895392b0ba15261194cf1642a4adf9fc",
            "0x000000000000000000000000244c9aa5d417e0dc869ee5ab9b7430402368e2b2"
          ],
          "data": "0x00000000000000000000000000000000000000000000000000a1f40d7bd93400000000000000000000000000000000000000000000000000235a923fc58e690f000000000000000000000000000000000000000000000021e88c631d423ed12300000000000000000000000000000000000000000000000022b89e3249b5350f000000000000000000000000000000000000000000000021e92e572abe180523",
          "blockHash": "0x7f663c2c7491f7d7f622db56ec576dcfebc83d65326a41e89dfe578cd6517999",
          "blockNumber": "0x2ae89ba",
          "transactionHash": "0x07c48f98d4d847145219821e3452ef14106935f40044a03fc715b501dcaec833",
          "transactionIndex": "0x1",
          "logIndex": "0x12",
          "removed": false
        }
      ],
      "status": "0x1",
      "logsBloom": "0x020000000000400004040020000000080404000000000000000000000002041100000020000000000000021004000000200080000000000002080000000000880000088000000008000000080000228000000000000010000001000000000040000000a0020000000000000100000800000004200000000080000410000200000000000000800000000000000000801000000000004000000000000000100042200000000080400000000000000000000010000000000000000008000000004000001002000090000001000000004000000040800022800010128000000020080088000000000100000100000200000000080000000000014008000000110000",
      "type": "0x2",
      "effectiveGasPrice": "0x6fc23ac0f"
    },
    {
      "transactionHash": "0x3559bc9aa7b39806086dd119f44ff7eccd1c95269169e6021fa3f522382a8d26",
      "transactionIndex": "0x4",
      "blockHash": "0xf14bcc9c1d5f77846e6e94aed0a42af52513fb75c9ce02b25725477bba1cfae2",
      "blockNumber": "0x2ae89bb",
      "from": "0xF92D18CdFa0EE4C76701d54dEd6fB20ca635F1A2",
      "to": "0x8263007844439F1A1423AE633994B6245e4508Bc",
      "cumulativeGasUsed": "0x1c2fb9",
      "gasUsed": "0x172fa7",
      "contractAddress": null,
      "logs": [
        {
          "address": "0x0000000000000000000000000000000000001010",
          "topics": [
            "0xe6497e3ee548a3372136af2fcb0696db31fc6cf20260707645068bd3fe97f3c4",
            "0x0000000000000000000000000000000000000000000000000000000000001010",
            "0x000000000000000000000000f92d18cdfa0ee4c76701d54ded6fb20ca635f1a2",
            "0x0000000000000000000000008263007844439f1a1423ae633994b6245e4508bc"
          ],
          "data": "0x000000000000000000000000000000000000000000000000001d32f4be7d98000000000000000000000000000000000000000000000000000fa5b847e5b321f800000000000000000000000000000000000000000000000000000000000000000000000000000000000000000000000000000000000000000f888553273589f8000000000000000000000000000000000000000000000000001d32f4be7d9800",
          "blockHash": "0xf14bcc9c1d5f77846e6e94aed0a42af52513fb75c9ce02b25725477bba1cfae2",
          "blockNumber": "0x2ae89bb",
          "transactionHash": "0x3559bc9aa7b39806086dd119f44ff7eccd1c95269169e6021fa3f522382a8d26",
          "transactionIndex": "0x4",
          "logIndex": "0x9",
          "removed": false
        },
        {
          "address": "0x0000000000000000000000000000000000001010",
          "topics": [
            "0xe6497e3ee548a3372136af2fcb0696db31fc6cf20260707645068bd3fe97f3c4",
            "0x0000000000000000000000000000000000000000000000000000000000001010",
            "0x0000000000000000000000008263007844439f1a1423ae633994b6245e4508bc",
            "0x0000000000000000000000003f512308d9312d184e8e2a13e47c99d1c9a6956a"
          ],
          "data": "0x000000000000000000000000000000000000000000000000001d32f4be7d9800000000000000000000000000000000000000000000000000001d32f4be7d9800000000000000000000000000000000000000000000000000208cf52b87d1bcc6000000000000000000000000000000000000000000000000000000000000000000000000000000000000000000000000000000000000000020aa2820464f54c6",
          "blockHash": "0xf14bcc9c1d5f77846e6e94aed0a42af52513fb75c9ce02b25725477bba1cfae2",
          "blockNumber": "0x2ae89bb",
          "transactionHash": "0x3559bc9aa7b39806086dd119f44ff7eccd1c95269169e6021fa3f522382a8d26",
          "transactionIndex": "0x4",
          "logIndex": "0xa",
          "removed": false
        },
        {
          "address": "0x3f512308d9312d184E8E2a13E47C99D1c9A6956A",
          "topics": [
            "0x8e47b87b0ef542cdfa1659c551d88bad38aa7f452d2bbb349ab7530dfec8be8f"
          ],
          "data": "0x0000000000000000000000008263007844439f1a1423ae633994b6245e4508bc000000000000000000000000000000000000000000000000001d32f4be7d9800",
          "blockHash": "0xf14bcc9c1d5f77846e6e94aed0a42af52513fb75c9ce02b25725477bba1cfae2",
          "blockNumber": "0x2ae89bb",
          "transactionHash": "0x3559bc9aa7b39806086dd119f44ff7eccd1c95269169e6021fa3f522382a8d26",
          "transactionIndex": "0x4",
          "logIndex": "0xb",
          "removed": false
        },
        {
          "address": "0x7a1BaC17Ccc5b313516C5E16fb24f7659aA5ebed",
          "topics": [
            "0x63373d1c4696214b898952999c9aaec57dac1ee2723cec59bea6888f489a9772",
            "0x4b09e658ed251bcafeebbc69400383d49f344ace09b9576fe248bb02c003fe9f",
            "0x0000000000000000000000000000000000000000000000000000000000000b33",
            "0x0000000000000000000000008263007844439f1a1423ae633994b6245e4508bc"
          ],
          "data": "0x2ec30e2a580b9f9ac76d35924259038f0f35f62b844c81248cf553f4bd8eaa846596dbebb35b097a5a27c4d4a9e7ee4b2bd61bbe5f37c1124cb476933b133a2b000000000000000000000000000000000000000000000000000000000000000300000000000000000000000000000000000000000000000000000000000f42400000000000000000000000000000000000000000000000000000000000000001",
          "blockHash": "0xf14bcc9c1d5f77846e6e94aed0a42af52513fb75c9ce02b25725477bba1cfae2",
          "blockNumber": "0x2ae89bb",
          "transactionHash": "0x3559bc9aa7b39806086dd119f44ff7eccd1c95269169e6021fa3f522382a8d26",
          "transactionIndex": "0x4",
          "logIndex": "0xc",
          "removed": false
        },
        {
          "address": "0x8263007844439F1A1423AE633994B6245e4508Bc",
          "topics": [
            "0xf2dc9a29f1b257c57ef50cb6c0230cacc6af60a01e5e51bde6ee1657f214a347"
          ],
          "data": "0x2ec30e2a580b9f9ac76d35924259038f0f35f62b844c81248cf553f4bd8eaa84",
          "blockHash": "0xf14bcc9c1d5f77846e6e94aed0a42af52513fb75c9ce02b25725477bba1cfae2",
          "blockNumber": "0x2ae89bb",
          "transactionHash": "0x3559bc9aa7b39806086dd119f44ff7eccd1c95269169e6021fa3f522382a8d26",
          "transactionIndex": "0x4",
          "logIndex": "0xd",
          "removed": false
        },
        {
          "address": "0x8263007844439F1A1423AE633994B6245e4508Bc",
          "topics": [
            "0xddf252ad1be2c89b69c2b068fc378daa952ba7f163c4a11628f55a4df523b3ef",
            "0x0000000000000000000000000000000000000000000000000000000000000000",
            "0x000000000000000000000000f92d18cdfa0ee4c76701d54ded6fb20ca635f1a2",
            "0x0000000000000000000000000000000000000000000000000000000000000dc0"
          ],
          "data": "0x",
          "blockHash": "0xf14bcc9c1d5f77846e6e94aed0a42af52513fb75c9ce02b25725477bba1cfae2",
          "blockNumber": "0x2ae89bb",
          "transactionHash": "0x3559bc9aa7b39806086dd119f44ff7eccd1c95269169e6021fa3f522382a8d26",
          "transactionIndex": "0x4",
          "logIndex": "0xe",
          "removed": false
        },
        {
          "address": "0x8263007844439F1A1423AE633994B6245e4508Bc",
          "topics": [
            "0xddf252ad1be2c89b69c2b068fc378daa952ba7f163c4a11628f55a4df523b3ef",
            "0x0000000000000000000000000000000000000000000000000000000000000000",
            "0x000000000000000000000000f92d18cdfa0ee4c76701d54ded6fb20ca635f1a2",
            "0x0000000000000000000000000000000000000000000000000000000000000dc1"
          ],
          "data": "0x",
          "blockHash": "0xf14bcc9c1d5f77846e6e94aed0a42af52513fb75c9ce02b25725477bba1cfae2",
          "blockNumber": "0x2ae89bb",
          "transactionHash": "0x3559bc9aa7b39806086dd119f44ff7eccd1c95269169e6021fa3f522382a8d26",
          "transactionIndex": "0x4",
          "logIndex": "0xf",
          "removed": false
        },
        {
          "address": "0x8263007844439F1A1423AE633994B6245e4508Bc",
          "topics": [
            "0xddf252ad1be2c89b69c2b068fc378daa952ba7f163c4a11628f55a4df523b3ef",
            "0x0000000000000000000000000000000000000000000000000000000000000000",
            "0x000000000000000000000000f92d18cdfa0ee4c76701d54ded6fb20ca635f1a2",
            "0x0000000000000000000000000000000000000000000000000000000000000dc2"
          ],
          "data": "0x",
          "blockHash": "0xf14bcc9c1d5f77846e6e94aed0a42af52513fb75c9ce02b25725477bba1cfae2",
          "blockNumber": "0x2ae89bb",
          "transactionHash": "0x3559bc9aa7b39806086dd119f44ff7eccd1c95269169e6021fa3f522382a8d26",
          "transactionIndex": "0x4",
          "logIndex": "0x10",
          "removed": false
        },
        {
          "address": "0x8263007844439F1A1423AE633994B6245e4508Bc",
          "topics": [
            "0xddf252ad1be2c89b69c2b068fc378daa952ba7f163c4a11628f55a4df523b3ef",
            "0x0000000000000000000000000000000000000000000000000000000000000000",
            "0x000000000000000000000000f92d18cdfa0ee4c76701d54ded6fb20ca635f1a2",
            "0x0000000000000000000000000000000000000000000000000000000000000dc3"
          ],
          "data": "0x",
          "blockHash": "0xf14bcc9c1d5f77846e6e94aed0a42af52513fb75c9ce02b25725477bba1cfae2",
          "blockNumber": "0x2ae89bb",
          "transactionHash": "0x3559bc9aa7b39806086dd119f44ff7eccd1c95269169e6021fa3f522382a8d26",
          "transactionIndex": "0x4",
          "logIndex": "0x11",
          "removed": false
        },
        {
          "address": "0x8263007844439F1A1423AE633994B6245e4508Bc",
          "topics": [
            "0xddf252ad1be2c89b69c2b068fc378daa952ba7f163c4a11628f55a4df523b3ef",
            "0x0000000000000000000000000000000000000000000000000000000000000000",
            "0x000000000000000000000000f92d18cdfa0ee4c76701d54ded6fb20ca635f1a2",
            "0x0000000000000000000000000000000000000000000000000000000000000dc4"
          ],
          "data": "0x",
          "blockHash": "0xf14bcc9c1d5f77846e6e94aed0a42af52513fb75c9ce02b25725477bba1cfae2",
          "blockNumber": "0x2ae89bb",
          "transactionHash": "0x3559bc9aa7b39806086dd119f44ff7eccd1c95269169e6021fa3f522382a8d26",
          "transactionIndex": "0x4",
          "logIndex": "0x12",
          "removed": false
        },
        {
          "address": "0x8263007844439F1A1423AE633994B6245e4508Bc",
          "topics": [
            "0xddf252ad1be2c89b69c2b068fc378daa952ba7f163c4a11628f55a4df523b3ef",
            "0x0000000000000000000000000000000000000000000000000000000000000000",
            "0x000000000000000000000000f92d18cdfa0ee4c76701d54ded6fb20ca635f1a2",
            "0x0000000000000000000000000000000000000000000000000000000000000dc5"
          ],
          "data": "0x",
          "blockHash": "0xf14bcc9c1d5f77846e6e94aed0a42af52513fb75c9ce02b25725477bba1cfae2",
          "blockNumber": "0x2ae89bb",
          "transactionHash": "0x3559bc9aa7b39806086dd119f44ff7eccd1c95269169e6021fa3f522382a8d26",
          "transactionIndex": "0x4",
          "logIndex": "0x13",
          "removed": false
        },
        {
          "address": "0x8263007844439F1A1423AE633994B6245e4508Bc",
          "topics": [
            "0xddf252ad1be2c89b69c2b068fc378daa952ba7f163c4a11628f55a4df523b3ef",
            "0x0000000000000000000000000000000000000000000000000000000000000000",
            "0x000000000000000000000000f92d18cdfa0ee4c76701d54ded6fb20ca635f1a2",
            "0x0000000000000000000000000000000000000000000000000000000000000dc6"
          ],
          "data": "0x",
          "blockHash": "0xf14bcc9c1d5f77846e6e94aed0a42af52513fb75c9ce02b25725477bba1cfae2",
          "blockNumber": "0x2ae89bb",
          "transactionHash": "0x3559bc9aa7b39806086dd119f44ff7eccd1c95269169e6021fa3f522382a8d26",
          "transactionIndex": "0x4",
          "logIndex": "0x14",
          "removed": false
        },
        {
          "address": "0x8263007844439F1A1423AE633994B6245e4508Bc",
          "topics": [
            "0xddf252ad1be2c89b69c2b068fc378daa952ba7f163c4a11628f55a4df523b3ef",
            "0x0000000000000000000000000000000000000000000000000000000000000000",
            "0x000000000000000000000000f92d18cdfa0ee4c76701d54ded6fb20ca635f1a2",
            "0x0000000000000000000000000000000000000000000000000000000000000dc7"
          ],
          "data": "0x",
          "blockHash": "0xf14bcc9c1d5f77846e6e94aed0a42af52513fb75c9ce02b25725477bba1cfae2",
          "blockNumber": "0x2ae89bb",
          "transactionHash": "0x3559bc9aa7b39806086dd119f44ff7eccd1c95269169e6021fa3f522382a8d26",
          "transactionIndex": "0x4",
          "logIndex": "0x15",
          "removed": false
        },
        {
          "address": "0x8263007844439F1A1423AE633994B6245e4508Bc",
          "topics": [
            "0xddf252ad1be2c89b69c2b068fc378daa952ba7f163c4a11628f55a4df523b3ef",
            "0x0000000000000000000000000000000000000000000000000000000000000000",
            "0x000000000000000000000000f92d18cdfa0ee4c76701d54ded6fb20ca635f1a2",
            "0x0000000000000000000000000000000000000000000000000000000000000dc8"
          ],
          "data": "0x",
          "blockHash": "0xf14bcc9c1d5f77846e6e94aed0a42af52513fb75c9ce02b25725477bba1cfae2",
          "blockNumber": "0x2ae89bb",
          "transactionHash": "0x3559bc9aa7b39806086dd119f44ff7eccd1c95269169e6021fa3f522382a8d26",
          "transactionIndex": "0x4",
          "logIndex": "0x16",
          "removed": false
        },
        {
          "address": "0x8263007844439F1A1423AE633994B6245e4508Bc",
          "topics": [
            "0xddf252ad1be2c89b69c2b068fc378daa952ba7f163c4a11628f55a4df523b3ef",
            "0x0000000000000000000000000000000000000000000000000000000000000000",
            "0x000000000000000000000000f92d18cdfa0ee4c76701d54ded6fb20ca635f1a2",
            "0x0000000000000000000000000000000000000000000000000000000000000dc9"
          ],
          "data": "0x",
          "blockHash": "0xf14bcc9c1d5f77846e6e94aed0a42af52513fb75c9ce02b25725477bba1cfae2",
          "blockNumber": "0x2ae89bb",
          "transactionHash": "0x3559bc9aa7b39806086dd119f44ff7eccd1c95269169e6021fa3f522382a8d26",
          "transactionIndex": "0x4",
          "logIndex": "0x17",
          "removed": false
        },
        {
          "address": "0x0000000000000000000000000000000000001010",
          "topics": [
            "0x4dfe1bbbcf077ddc3e01291eea2d5c70c2b422b415d95645b9adcfd678cb1d63",
            "0x0000000000000000000000000000000000000000000000000000000000001010",
            "0x000000000000000000000000f92d18cdfa0ee4c76701d54ded6fb20ca635f1a2",
            "0x000000000000000000000000244c9aa5d417e0dc869ee5ab9b7430402368e2b2"
          ],
          "data": "0x00000000000000000000000000000000000000000000000000a1f40d7bd9340000000000000000000000000000000000000000000000000010856af5db9fad3a000000000000000000000000000000000000000000000021e973c50db57577580000000000000000000000000000000000000000000000000fe376e85fc6793a000000000000000000000000000000000000000000000021ea15b91b314eab58",
          "blockHash": "0xf14bcc9c1d5f77846e6e94aed0a42af52513fb75c9ce02b25725477bba1cfae2",
          "blockNumber": "0x2ae89bb",
          "transactionHash": "0x3559bc9aa7b39806086dd119f44ff7eccd1c95269169e6021fa3f522382a8d26",
          "transactionIndex": "0x4",
          "logIndex": "0x18",
          "removed": false
        }
      ],
      "status": "0x1",
      "logsBloom": "0x02060080080000200404002000004008040000000000001000000500000004100000000000000000020000100000000020008000000000008208000000000000000040800000000800000008000022800000000000009000000100000000000200000080020000000000000100000800400044200000008080000410000000000000000020000200000000000000001000000001006000000000040000000000600000000000400000000082000004000010000000000000000000000000004000000002000010000009000000004000000020000000800000128000000020000008000080040100000140000200000000080000000000000000000002100000",
      "type": "0x2",
      "effectiveGasPrice": "0x6fc23ac0f"
    },
    {
      "transactionHash": "0x19f85677ac15d261c31fcd7aaa917d001796b602207ab303f0eedee0b227cc45",
      "transactionIndex": "0x2",
      "blockHash": "0x838733c380a5d00350ad52c6c51907d21a1bb7cbd43da326e23cf34de98072eb",
      "blockNumber": "0x2ae89bc",
      "from": "0xD4C7E8652c97127EE260057e2dC245D42F21DDA7",
      "to": "0x8263007844439F1A1423AE633994B6245e4508Bc",
      "cumulativeGasUsed": "0x196bd9",
      "gasUsed": "0x172fa7",
      "contractAddress": null,
      "logs": [
        {
          "address": "0x0000000000000000000000000000000000001010",
          "topics": [
            "0xe6497e3ee548a3372136af2fcb0696db31fc6cf20260707645068bd3fe97f3c4",
            "0x0000000000000000000000000000000000000000000000000000000000001010",
            "0x000000000000000000000000d4c7e8652c97127ee260057e2dc245d42f21dda7",
            "0x0000000000000000000000008263007844439f1a1423ae633994b6245e4508bc"
          ],
          "data": "0x000000000000000000000000000000000000000000000000001d32f4be7d98000000000000000000000000000000000000000000000000000c82f56497aa856400000000000000000000000000000000000000000000000000000000000000000000000000000000000000000000000000000000000000000c65c26fd92ced64000000000000000000000000000000000000000000000000001d32f4be7d9800",
          "blockHash": "0x838733c380a5d00350ad52c6c51907d21a1bb7cbd43da326e23cf34de98072eb",
          "blockNumber": "0x2ae89bc",
          "transactionHash": "0x19f85677ac15d261c31fcd7aaa917d001796b602207ab303f0eedee0b227cc45",
          "transactionIndex": "0x2",
          "logIndex": "0x5",
          "removed": false
        },
        {
          "address": "0x0000000000000000000000000000000000001010",
          "topics": [
            "0xe6497e3ee548a3372136af2fcb0696db31fc6cf20260707645068bd3fe97f3c4",
            "0x0000000000000000000000000000000000000000000000000000000000001010",
            "0x0000000000000000000000008263007844439f1a1423ae633994b6245e4508bc",
            "0x0000000000000000000000003f512308d9312d184e8e2a13e47c99d1c9a6956a"
          ],
          "data": "0x000000000000000000000000000000000000000000000000001d32f4be7d9800000000000000000000000000000000000000000000000000001d32f4be7d980000000000000000000000000000000000000000000000000020aa2820464f54c6000000000000000000000000000000000000000000000000000000000000000000000000000000000000000000000000000000000000000020c75b1504ccecc6",
          "blockHash": "0x838733c380a5d00350ad52c6c51907d21a1bb7cbd43da326e23cf34de98072eb",
          "blockNumber": "0x2ae89bc",
          "transactionHash": "0x19f85677ac15d261c31fcd7aaa917d001796b602207ab303f0eedee0b227cc45",
          "transactionIndex": "0x2",
          "logIndex": "0x6",
          "removed": false
        },
        {
          "address": "0x3f512308d9312d184E8E2a13E47C99D1c9A6956A",
          "topics": [
            "0x8e47b87b0ef542cdfa1659c551d88bad38aa7f452d2bbb349ab7530dfec8be8f"
          ],
          "data": "0x0000000000000000000000008263007844439f1a1423ae633994b6245e4508bc000000000000000000000000000000000000000000000000001d32f4be7d9800",
          "blockHash": "0x838733c380a5d00350ad52c6c51907d21a1bb7cbd43da326e23cf34de98072eb",
          "blockNumber": "0x2ae89bc",
          "transactionHash": "0x19f85677ac15d261c31fcd7aaa917d001796b602207ab303f0eedee0b227cc45",
          "transactionIndex": "0x2",
          "logIndex": "0x7",
          "removed": false
        },
        {
          "address": "0x7a1BaC17Ccc5b313516C5E16fb24f7659aA5ebed",
          "topics": [
            "0x63373d1c4696214b898952999c9aaec57dac1ee2723cec59bea6888f489a9772",
            "0x4b09e658ed251bcafeebbc69400383d49f344ace09b9576fe248bb02c003fe9f",
            "0x0000000000000000000000000000000000000000000000000000000000000b33",
            "0x0000000000000000000000008263007844439f1a1423ae633994b6245e4508bc"
          ],
          "data": "0x939fb403cf18d43c8b0943e2ac55b5c5929d47f7ceafd7a20c37fe318614c3a4aa5e09ebecd87b4bbab065a89792f88974c98c8134bda5226d54788660397bb8000000000000000000000000000000000000000000000000000000000000000300000000000000000000000000000000000000000000000000000000000f42400000000000000000000000000000000000000000000000000000000000000001",
          "blockHash": "0x838733c380a5d00350ad52c6c51907d21a1bb7cbd43da326e23cf34de98072eb",
          "blockNumber": "0x2ae89bc",
          "transactionHash": "0x19f85677ac15d261c31fcd7aaa917d001796b602207ab303f0eedee0b227cc45",
          "transactionIndex": "0x2",
          "logIndex": "0x8",
          "removed": false
        },
        {
          "address": "0x8263007844439F1A1423AE633994B6245e4508Bc",
          "topics": [
            "0xf2dc9a29f1b257c57ef50cb6c0230cacc6af60a01e5e51bde6ee1657f214a347"
          ],
          "data": "0x939fb403cf18d43c8b0943e2ac55b5c5929d47f7ceafd7a20c37fe318614c3a4",
          "blockHash": "0x838733c380a5d00350ad52c6c51907d21a1bb7cbd43da326e23cf34de98072eb",
          "blockNumber": "0x2ae89bc",
          "transactionHash": "0x19f85677ac15d261c31fcd7aaa917d001796b602207ab303f0eedee0b227cc45",
          "transactionIndex": "0x2",
          "logIndex": "0x9",
          "removed": false
        },
        {
          "address": "0x8263007844439F1A1423AE633994B6245e4508Bc",
          "topics": [
            "0xddf252ad1be2c89b69c2b068fc378daa952ba7f163c4a11628f55a4df523b3ef",
            "0x0000000000000000000000000000000000000000000000000000000000000000",
            "0x000000000000000000000000d4c7e8652c97127ee260057e2dc245d42f21dda7",
            "0x0000000000000000000000000000000000000000000000000000000000000dca"
          ],
          "data": "0x",
          "blockHash": "0x838733c380a5d00350ad52c6c51907d21a1bb7cbd43da326e23cf34de98072eb",
          "blockNumber": "0x2ae89bc",
          "transactionHash": "0x19f85677ac15d261c31fcd7aaa917d001796b602207ab303f0eedee0b227cc45",
          "transactionIndex": "0x2",
          "logIndex": "0xa",
          "removed": false
        },
        {
          "address": "0x8263007844439F1A1423AE633994B6245e4508Bc",
          "topics": [
            "0xddf252ad1be2c89b69c2b068fc378daa952ba7f163c4a11628f55a4df523b3ef",
            "0x0000000000000000000000000000000000000000000000000000000000000000",
            "0x000000000000000000000000d4c7e8652c97127ee260057e2dc245d42f21dda7",
            "0x0000000000000000000000000000000000000000000000000000000000000dcb"
          ],
          "data": "0x",
          "blockHash": "0x838733c380a5d00350ad52c6c51907d21a1bb7cbd43da326e23cf34de98072eb",
          "blockNumber": "0x2ae89bc",
          "transactionHash": "0x19f85677ac15d261c31fcd7aaa917d001796b602207ab303f0eedee0b227cc45",
          "transactionIndex": "0x2",
          "logIndex": "0xb",
          "removed": false
        },
        {
          "address": "0x8263007844439F1A1423AE633994B6245e4508Bc",
          "topics": [
            "0xddf252ad1be2c89b69c2b068fc378daa952ba7f163c4a11628f55a4df523b3ef",
            "0x0000000000000000000000000000000000000000000000000000000000000000",
            "0x000000000000000000000000d4c7e8652c97127ee260057e2dc245d42f21dda7",
            "0x0000000000000000000000000000000000000000000000000000000000000dcc"
          ],
          "data": "0x",
          "blockHash": "0x838733c380a5d00350ad52c6c51907d21a1bb7cbd43da326e23cf34de98072eb",
          "blockNumber": "0x2ae89bc",
          "transactionHash": "0x19f85677ac15d261c31fcd7aaa917d001796b602207ab303f0eedee0b227cc45",
          "transactionIndex": "0x2",
          "logIndex": "0xc",
          "removed": false
        },
        {
          "address": "0x8263007844439F1A1423AE633994B6245e4508Bc",
          "topics": [
            "0xddf252ad1be2c89b69c2b068fc378daa952ba7f163c4a11628f55a4df523b3ef",
            "0x0000000000000000000000000000000000000000000000000000000000000000",
            "0x000000000000000000000000d4c7e8652c97127ee260057e2dc245d42f21dda7",
            "0x0000000000000000000000000000000000000000000000000000000000000dcd"
          ],
          "data": "0x",
          "blockHash": "0x838733c380a5d00350ad52c6c51907d21a1bb7cbd43da326e23cf34de98072eb",
          "blockNumber": "0x2ae89bc",
          "transactionHash": "0x19f85677ac15d261c31fcd7aaa917d001796b602207ab303f0eedee0b227cc45",
          "transactionIndex": "0x2",
          "logIndex": "0xd",
          "removed": false
        },
        {
          "address": "0x8263007844439F1A1423AE633994B6245e4508Bc",
          "topics": [
            "0xddf252ad1be2c89b69c2b068fc378daa952ba7f163c4a11628f55a4df523b3ef",
            "0x0000000000000000000000000000000000000000000000000000000000000000",
            "0x000000000000000000000000d4c7e8652c97127ee260057e2dc245d42f21dda7",
            "0x0000000000000000000000000000000000000000000000000000000000000dce"
          ],
          "data": "0x",
          "blockHash": "0x838733c380a5d00350ad52c6c51907d21a1bb7cbd43da326e23cf34de98072eb",
          "blockNumber": "0x2ae89bc",
          "transactionHash": "0x19f85677ac15d261c31fcd7aaa917d001796b602207ab303f0eedee0b227cc45",
          "transactionIndex": "0x2",
          "logIndex": "0xe",
          "removed": false
        },
        {
          "address": "0x8263007844439F1A1423AE633994B6245e4508Bc",
          "topics": [
            "0xddf252ad1be2c89b69c2b068fc378daa952ba7f163c4a11628f55a4df523b3ef",
            "0x0000000000000000000000000000000000000000000000000000000000000000",
            "0x000000000000000000000000d4c7e8652c97127ee260057e2dc245d42f21dda7",
            "0x0000000000000000000000000000000000000000000000000000000000000dcf"
          ],
          "data": "0x",
          "blockHash": "0x838733c380a5d00350ad52c6c51907d21a1bb7cbd43da326e23cf34de98072eb",
          "blockNumber": "0x2ae89bc",
          "transactionHash": "0x19f85677ac15d261c31fcd7aaa917d001796b602207ab303f0eedee0b227cc45",
          "transactionIndex": "0x2",
          "logIndex": "0xf",
          "removed": false
        },
        {
          "address": "0x8263007844439F1A1423AE633994B6245e4508Bc",
          "topics": [
            "0xddf252ad1be2c89b69c2b068fc378daa952ba7f163c4a11628f55a4df523b3ef",
            "0x0000000000000000000000000000000000000000000000000000000000000000",
            "0x000000000000000000000000d4c7e8652c97127ee260057e2dc245d42f21dda7",
            "0x0000000000000000000000000000000000000000000000000000000000000dd0"
          ],
          "data": "0x",
          "blockHash": "0x838733c380a5d00350ad52c6c51907d21a1bb7cbd43da326e23cf34de98072eb",
          "blockNumber": "0x2ae89bc",
          "transactionHash": "0x19f85677ac15d261c31fcd7aaa917d001796b602207ab303f0eedee0b227cc45",
          "transactionIndex": "0x2",
          "logIndex": "0x10",
          "removed": false
        },
        {
          "address": "0x8263007844439F1A1423AE633994B6245e4508Bc",
          "topics": [
            "0xddf252ad1be2c89b69c2b068fc378daa952ba7f163c4a11628f55a4df523b3ef",
            "0x0000000000000000000000000000000000000000000000000000000000000000",
            "0x000000000000000000000000d4c7e8652c97127ee260057e2dc245d42f21dda7",
            "0x0000000000000000000000000000000000000000000000000000000000000dd1"
          ],
          "data": "0x",
          "blockHash": "0x838733c380a5d00350ad52c6c51907d21a1bb7cbd43da326e23cf34de98072eb",
          "blockNumber": "0x2ae89bc",
          "transactionHash": "0x19f85677ac15d261c31fcd7aaa917d001796b602207ab303f0eedee0b227cc45",
          "transactionIndex": "0x2",
          "logIndex": "0x11",
          "removed": false
        },
        {
          "address": "0x8263007844439F1A1423AE633994B6245e4508Bc",
          "topics": [
            "0xddf252ad1be2c89b69c2b068fc378daa952ba7f163c4a11628f55a4df523b3ef",
            "0x0000000000000000000000000000000000000000000000000000000000000000",
            "0x000000000000000000000000d4c7e8652c97127ee260057e2dc245d42f21dda7",
            "0x0000000000000000000000000000000000000000000000000000000000000dd2"
          ],
          "data": "0x",
          "blockHash": "0x838733c380a5d00350ad52c6c51907d21a1bb7cbd43da326e23cf34de98072eb",
          "blockNumber": "0x2ae89bc",
          "transactionHash": "0x19f85677ac15d261c31fcd7aaa917d001796b602207ab303f0eedee0b227cc45",
          "transactionIndex": "0x2",
          "logIndex": "0x12",
          "removed": false
        },
        {
          "address": "0x8263007844439F1A1423AE633994B6245e4508Bc",
          "topics": [
            "0xddf252ad1be2c89b69c2b068fc378daa952ba7f163c4a11628f55a4df523b3ef",
            "0x0000000000000000000000000000000000000000000000000000000000000000",
            "0x000000000000000000000000d4c7e8652c97127ee260057e2dc245d42f21dda7",
            "0x0000000000000000000000000000000000000000000000000000000000000dd3"
          ],
          "data": "0x",
          "blockHash": "0x838733c380a5d00350ad52c6c51907d21a1bb7cbd43da326e23cf34de98072eb",
          "blockNumber": "0x2ae89bc",
          "transactionHash": "0x19f85677ac15d261c31fcd7aaa917d001796b602207ab303f0eedee0b227cc45",
          "transactionIndex": "0x2",
          "logIndex": "0x13",
          "removed": false
        },
        {
          "address": "0x0000000000000000000000000000000000001010",
          "topics": [
            "0x4dfe1bbbcf077ddc3e01291eea2d5c70c2b422b415d95645b9adcfd678cb1d63",
            "0x0000000000000000000000000000000000000000000000000000000000001010",
            "0x000000000000000000000000d4c7e8652c97127ee260057e2dc245d42f21dda7",
            "0x000000000000000000000000244c9aa5d417e0dc869ee5ab9b7430402368e2b2"
          ],
          "data": "0x00000000000000000000000000000000000000000000000000a1f40d7bd934000000000000000000000000000000000000000000000000000d62a8128d9710a6000000000000000000000000000000000000000000000021ea38b66171dc67b30000000000000000000000000000000000000000000000000cc0b40511bddca6000000000000000000000000000000000000000000000021eadaaa6eedb59bb3",
          "blockHash": "0x838733c380a5d00350ad52c6c51907d21a1bb7cbd43da326e23cf34de98072eb",
          "blockNumber": "0x2ae89bc",
          "transactionHash": "0x19f85677ac15d261c31fcd7aaa917d001796b602207ab303f0eedee0b227cc45",
          "transactionIndex": "0x2",
          "logIndex": "0x14",
          "removed": false
        }
      ],
      "status": "0x1",
      "logsBloom": "0x0240010000000200040400210000000804000000000000000000002000000410400010000000000000001010000000002000800000001000020800020000000000000080000000280000000800002280000000000000100000010020000000000004008002000000000000010000080000020c20008000008000041200000000000000004000000000000000000200100080002000400000000000000000002020000000000040000000000000000000001000100000000000000000000000408000000200003000000101008c004000000000000000800200128000000020000008000000000100000100000200000001080000000000000000020010100000",
      "type": "0x2",
      "effectiveGasPrice": "0x6fc23ac0f"
    },
    {
      "transactionHash": "0xdaa285a30c821ceb6ed2d068aed8a91958405c7470c1762fa053bc6cd849883f",
      "transactionIndex": "0x5",
      "blockHash": "0x4e845eee2bc1c663ec61175dadb291157a47790e0347c3df8cf4b0ddcba883ce",
      "blockNumber": "0x2ae89bd",
      "from": "0x298334B4895392b0BA15261194cF1642A4adf9Fc",
      "to": "0x8263007844439F1A1423AE633994B6245e4508Bc",
      "cumulativeGasUsed": "0x1b9b51",
      "gasUsed": "0x172fa7",
      "contractAddress": null,
      "logs": [
        {
          "address": "0x0000000000000000000000000000000000001010",
          "topics": [
            "0xe6497e3ee548a3372136af2fcb0696db31fc6cf20260707645068bd3fe97f3c4",
            "0x0000000000000000000000000000000000000000000000000000000000001010",
            "0x000000000000000000000000298334b4895392b0ba15261194cf1642a4adf9fc",
            "0x0000000000000000000000008263007844439f1a1423ae633994b6245e4508bc"
          ],
          "data": "0x000000000000000000000000000000000000000000000000001d32f4be7d980000000000000000000000000000000000000000000000000021bbb88f93ef47040000000000000000000000000000000000000000000000000000000000000000000000000000000000000000000000000000000000000000219e859ad571af04000000000000000000000000000000000000000000000000001d32f4be7d9800",
          "blockHash": "0x4e845eee2bc1c663ec61175dadb291157a47790e0347c3df8cf4b0ddcba883ce",
          "blockNumber": "0x2ae89bd",
          "transactionHash": "0xdaa285a30c821ceb6ed2d068aed8a91958405c7470c1762fa053bc6cd849883f",
          "transactionIndex": "0x5",
          "logIndex": "0xb",
          "removed": false
        },
        {
          "address": "0x0000000000000000000000000000000000001010",
          "topics": [
            "0xe6497e3ee548a3372136af2fcb0696db31fc6cf20260707645068bd3fe97f3c4",
            "0x0000000000000000000000000000000000000000000000000000000000001010",
            "0x0000000000000000000000008263007844439f1a1423ae633994b6245e4508bc",
            "0x0000000000000000000000003f512308d9312d184e8e2a13e47c99d1c9a6956a"
          ],
          "data": "0x000000000000000000000000000000000000000000000000001d32f4be7d9800000000000000000000000000000000000000000000000000001d32f4be7d980000000000000000000000000000000000000000000000000020c75b1504ccecc6000000000000000000000000000000000000000000000000000000000000000000000000000000000000000000000000000000000000000020e48e09c34a84c6",
          "blockHash": "0x4e845eee2bc1c663ec61175dadb291157a47790e0347c3df8cf4b0ddcba883ce",
          "blockNumber": "0x2ae89bd",
          "transactionHash": "0xdaa285a30c821ceb6ed2d068aed8a91958405c7470c1762fa053bc6cd849883f",
          "transactionIndex": "0x5",
          "logIndex": "0xc",
          "removed": false
        },
        {
          "address": "0x3f512308d9312d184E8E2a13E47C99D1c9A6956A",
          "topics": [
            "0x8e47b87b0ef542cdfa1659c551d88bad38aa7f452d2bbb349ab7530dfec8be8f"
          ],
          "data": "0x0000000000000000000000008263007844439f1a1423ae633994b6245e4508bc000000000000000000000000000000000000000000000000001d32f4be7d9800",
          "blockHash": "0x4e845eee2bc1c663ec61175dadb291157a47790e0347c3df8cf4b0ddcba883ce",
          "blockNumber": "0x2ae89bd",
          "transactionHash": "0xdaa285a30c821ceb6ed2d068aed8a91958405c7470c1762fa053bc6cd849883f",
          "transactionIndex": "0x5",
          "logIndex": "0xd",
          "removed": false
        },
        {
          "address": "0x7a1BaC17Ccc5b313516C5E16fb24f7659aA5ebed",
          "topics": [
            "0x63373d1c4696214b898952999c9aaec57dac1ee2723cec59bea6888f489a9772",
            "0x4b09e658ed251bcafeebbc69400383d49f344ace09b9576fe248bb02c003fe9f",
            "0x0000000000000000000000000000000000000000000000000000000000000b33",
            "0x0000000000000000000000008263007844439f1a1423ae633994b6245e4508bc"
          ],
          "data": "0x52b6ad2ea89ecc0d6122d8acc4f0f1eae8dea449b7ac9c1f573ece49d3d91563218b632832ca1282b568e92b23a21ff292c2e0f757b300458f08ce36f16ec3b4000000000000000000000000000000000000000000000000000000000000000300000000000000000000000000000000000000000000000000000000000f42400000000000000000000000000000000000000000000000000000000000000001",
          "blockHash": "0x4e845eee2bc1c663ec61175dadb291157a47790e0347c3df8cf4b0ddcba883ce",
          "blockNumber": "0x2ae89bd",
          "transactionHash": "0xdaa285a30c821ceb6ed2d068aed8a91958405c7470c1762fa053bc6cd849883f",
          "transactionIndex": "0x5",
          "logIndex": "0xe",
          "removed": false
        },
        {
          "address": "0x8263007844439F1A1423AE633994B6245e4508Bc",
          "topics": [
            "0xf2dc9a29f1b257c57ef50cb6c0230cacc6af60a01e5e51bde6ee1657f214a347"
          ],
          "data": "0x52b6ad2ea89ecc0d6122d8acc4f0f1eae8dea449b7ac9c1f573ece49d3d91563",
          "blockHash": "0x4e845eee2bc1c663ec61175dadb291157a47790e0347c3df8cf4b0ddcba883ce",
          "blockNumber": "0x2ae89bd",
          "transactionHash": "0xdaa285a30c821ceb6ed2d068aed8a91958405c7470c1762fa053bc6cd849883f",
          "transactionIndex": "0x5",
          "logIndex": "0xf",
          "removed": false
        },
        {
          "address": "0x8263007844439F1A1423AE633994B6245e4508Bc",
          "topics": [
            "0xddf252ad1be2c89b69c2b068fc378daa952ba7f163c4a11628f55a4df523b3ef",
            "0x0000000000000000000000000000000000000000000000000000000000000000",
            "0x000000000000000000000000298334b4895392b0ba15261194cf1642a4adf9fc",
            "0x0000000000000000000000000000000000000000000000000000000000000dd4"
          ],
          "data": "0x",
          "blockHash": "0x4e845eee2bc1c663ec61175dadb291157a47790e0347c3df8cf4b0ddcba883ce",
          "blockNumber": "0x2ae89bd",
          "transactionHash": "0xdaa285a30c821ceb6ed2d068aed8a91958405c7470c1762fa053bc6cd849883f",
          "transactionIndex": "0x5",
          "logIndex": "0x10",
          "removed": false
        },
        {
          "address": "0x8263007844439F1A1423AE633994B6245e4508Bc",
          "topics": [
            "0xddf252ad1be2c89b69c2b068fc378daa952ba7f163c4a11628f55a4df523b3ef",
            "0x0000000000000000000000000000000000000000000000000000000000000000",
            "0x000000000000000000000000298334b4895392b0ba15261194cf1642a4adf9fc",
            "0x0000000000000000000000000000000000000000000000000000000000000dd5"
          ],
          "data": "0x",
          "blockHash": "0x4e845eee2bc1c663ec61175dadb291157a47790e0347c3df8cf4b0ddcba883ce",
          "blockNumber": "0x2ae89bd",
          "transactionHash": "0xdaa285a30c821ceb6ed2d068aed8a91958405c7470c1762fa053bc6cd849883f",
          "transactionIndex": "0x5",
          "logIndex": "0x11",
          "removed": false
        },
        {
          "address": "0x8263007844439F1A1423AE633994B6245e4508Bc",
          "topics": [
            "0xddf252ad1be2c89b69c2b068fc378daa952ba7f163c4a11628f55a4df523b3ef",
            "0x0000000000000000000000000000000000000000000000000000000000000000",
            "0x000000000000000000000000298334b4895392b0ba15261194cf1642a4adf9fc",
            "0x0000000000000000000000000000000000000000000000000000000000000dd6"
          ],
          "data": "0x",
          "blockHash": "0x4e845eee2bc1c663ec61175dadb291157a47790e0347c3df8cf4b0ddcba883ce",
          "blockNumber": "0x2ae89bd",
          "transactionHash": "0xdaa285a30c821ceb6ed2d068aed8a91958405c7470c1762fa053bc6cd849883f",
          "transactionIndex": "0x5",
          "logIndex": "0x12",
          "removed": false
        },
        {
          "address": "0x8263007844439F1A1423AE633994B6245e4508Bc",
          "topics": [
            "0xddf252ad1be2c89b69c2b068fc378daa952ba7f163c4a11628f55a4df523b3ef",
            "0x0000000000000000000000000000000000000000000000000000000000000000",
            "0x000000000000000000000000298334b4895392b0ba15261194cf1642a4adf9fc",
            "0x0000000000000000000000000000000000000000000000000000000000000dd7"
          ],
          "data": "0x",
          "blockHash": "0x4e845eee2bc1c663ec61175dadb291157a47790e0347c3df8cf4b0ddcba883ce",
          "blockNumber": "0x2ae89bd",
          "transactionHash": "0xdaa285a30c821ceb6ed2d068aed8a91958405c7470c1762fa053bc6cd849883f",
          "transactionIndex": "0x5",
          "logIndex": "0x13",
          "removed": false
        },
        {
          "address": "0x8263007844439F1A1423AE633994B6245e4508Bc",
          "topics": [
            "0xddf252ad1be2c89b69c2b068fc378daa952ba7f163c4a11628f55a4df523b3ef",
            "0x0000000000000000000000000000000000000000000000000000000000000000",
            "0x000000000000000000000000298334b4895392b0ba15261194cf1642a4adf9fc",
            "0x0000000000000000000000000000000000000000000000000000000000000dd8"
          ],
          "data": "0x",
          "blockHash": "0x4e845eee2bc1c663ec61175dadb291157a47790e0347c3df8cf4b0ddcba883ce",
          "blockNumber": "0x2ae89bd",
          "transactionHash": "0xdaa285a30c821ceb6ed2d068aed8a91958405c7470c1762fa053bc6cd849883f",
          "transactionIndex": "0x5",
          "logIndex": "0x14",
          "removed": false
        },
        {
          "address": "0x8263007844439F1A1423AE633994B6245e4508Bc",
          "topics": [
            "0xddf252ad1be2c89b69c2b068fc378daa952ba7f163c4a11628f55a4df523b3ef",
            "0x0000000000000000000000000000000000000000000000000000000000000000",
            "0x000000000000000000000000298334b4895392b0ba15261194cf1642a4adf9fc",
            "0x0000000000000000000000000000000000000000000000000000000000000dd9"
          ],
          "data": "0x",
          "blockHash": "0x4e845eee2bc1c663ec61175dadb291157a47790e0347c3df8cf4b0ddcba883ce",
          "blockNumber": "0x2ae89bd",
          "transactionHash": "0xdaa285a30c821ceb6ed2d068aed8a91958405c7470c1762fa053bc6cd849883f",
          "transactionIndex": "0x5",
          "logIndex": "0x15",
          "removed": false
        },
        {
          "address": "0x8263007844439F1A1423AE633994B6245e4508Bc",
          "topics": [
            "0xddf252ad1be2c89b69c2b068fc378daa952ba7f163c4a11628f55a4df523b3ef",
            "0x0000000000000000000000000000000000000000000000000000000000000000",
            "0x000000000000000000000000298334b4895392b0ba15261194cf1642a4adf9fc",
            "0x0000000000000000000000000000000000000000000000000000000000000dda"
          ],
          "data": "0x",
          "blockHash": "0x4e845eee2bc1c663ec61175dadb291157a47790e0347c3df8cf4b0ddcba883ce",
          "blockNumber": "0x2ae89bd",
          "transactionHash": "0xdaa285a30c821ceb6ed2d068aed8a91958405c7470c1762fa053bc6cd849883f",
          "transactionIndex": "0x5",
          "logIndex": "0x16",
          "removed": false
        },
        {
          "address": "0x8263007844439F1A1423AE633994B6245e4508Bc",
          "topics": [
            "0xddf252ad1be2c89b69c2b068fc378daa952ba7f163c4a11628f55a4df523b3ef",
            "0x0000000000000000000000000000000000000000000000000000000000000000",
            "0x000000000000000000000000298334b4895392b0ba15261194cf1642a4adf9fc",
            "0x0000000000000000000000000000000000000000000000000000000000000ddb"
          ],
          "data": "0x",
          "blockHash": "0x4e845eee2bc1c663ec61175dadb291157a47790e0347c3df8cf4b0ddcba883ce",
          "blockNumber": "0x2ae89bd",
          "transactionHash": "0xdaa285a30c821ceb6ed2d068aed8a91958405c7470c1762fa053bc6cd849883f",
          "transactionIndex": "0x5",
          "logIndex": "0x17",
          "removed": false
        },
        {
          "address": "0x8263007844439F1A1423AE633994B6245e4508Bc",
          "topics": [
            "0xddf252ad1be2c89b69c2b068fc378daa952ba7f163c4a11628f55a4df523b3ef",
            "0x0000000000000000000000000000000000000000000000000000000000000000",
            "0x000000000000000000000000298334b4895392b0ba15261194cf1642a4adf9fc",
            "0x0000000000000000000000000000000000000000000000000000000000000ddc"
          ],
          "data": "0x",
          "blockHash": "0x4e845eee2bc1c663ec61175dadb291157a47790e0347c3df8cf4b0ddcba883ce",
          "blockNumber": "0x2ae89bd",
          "transactionHash": "0xdaa285a30c821ceb6ed2d068aed8a91958405c7470c1762fa053bc6cd849883f",
          "transactionIndex": "0x5",
          "logIndex": "0x18",
          "removed": false
        },
        {
          "address": "0x8263007844439F1A1423AE633994B6245e4508Bc",
          "topics": [
            "0xddf252ad1be2c89b69c2b068fc378daa952ba7f163c4a11628f55a4df523b3ef",
            "0x0000000000000000000000000000000000000000000000000000000000000000",
            "0x000000000000000000000000298334b4895392b0ba15261194cf1642a4adf9fc",
            "0x0000000000000000000000000000000000000000000000000000000000000ddd"
          ],
          "data": "0x",
          "blockHash": "0x4e845eee2bc1c663ec61175dadb291157a47790e0347c3df8cf4b0ddcba883ce",
          "blockNumber": "0x2ae89bd",
          "transactionHash": "0xdaa285a30c821ceb6ed2d068aed8a91958405c7470c1762fa053bc6cd849883f",
          "transactionIndex": "0x5",
          "logIndex": "0x19",
          "removed": false
        },
        {
          "address": "0x0000000000000000000000000000000000001010",
          "topics": [
            "0x4dfe1bbbcf077ddc3e01291eea2d5c70c2b422b415d95645b9adcfd678cb1d63",
            "0x0000000000000000000000000000000000000000000000000000000000001010",
            "0x000000000000000000000000298334b4895392b0ba15261194cf1642a4adf9fc",
            "0x000000000000000000000000244c9aa5d417e0dc869ee5ab9b7430402368e2b2"
          ],
          "data": "0x00000000000000000000000000000000000000000000000000a1f40d7bd93400000000000000000000000000000000000000000000000000229b6b3d89dbd246000000000000000000000000000000000000000000000021eb1382093b47e17400000000000000000000000000000000000000000000000021f977300e029e46000000000000000000000000000000000000000000000021ebb57616b7211574",
          "blockHash": "0x4e845eee2bc1c663ec61175dadb291157a47790e0347c3df8cf4b0ddcba883ce",
          "blockNumber": "0x2ae89bd",
          "transactionHash": "0xdaa285a30c821ceb6ed2d068aed8a91958405c7470c1762fa053bc6cd849883f",
          "transactionIndex": "0x5",
          "logIndex": "0x1a",
          "removed": false
        }
      ],
      "status": "0x1",
      "logsBloom": "0x022000000000000804040020021800080400000000000000008000000000041000000000000001000004001000000000200080000000000002080000080000000000008000000008000000080000229020000000000010000001000000000000008000a002000000000000010000080000000420002000808080041000000000000000000000000000002000000040100000000000400000000000000000000020080000000040000400000c2000000008100000000000000000000000c0004000001002000010200001000000004000000000000000800000128000000020000008000000000100008100000200000000080200000000010000000004100000",
      "type": "0x2",
      "effectiveGasPrice": "0x6fc23ac0f"
    },
    {
      "transactionHash": "0xf9171d86605257cbf35e9c5d6ec4f7c29984b90071ed293f7d8fb7724326cd31",
      "transactionIndex": "0x1",
      "blockHash": "0xb88f2a2ef3ac287b396dc0c3e15d3e3678e7c80341ef34260ad9af396657e5f3",
      "blockNumber": "0x2ae89be",
      "from": "0xF92D18CdFa0EE4C76701d54dEd6fB20ca635F1A2",
      "to": "0x8263007844439F1A1423AE633994B6245e4508Bc",
      "cumulativeGasUsed": "0x18724d",
      "gasUsed": "0x172fa7",
      "contractAddress": null,
      "logs": [
        {
          "address": "0x0000000000000000000000000000000000001010",
          "topics": [
            "0xe6497e3ee548a3372136af2fcb0696db31fc6cf20260707645068bd3fe97f3c4",
            "0x0000000000000000000000000000000000000000000000000000000000001010",
            "0x000000000000000000000000f92d18cdfa0ee4c76701d54ded6fb20ca635f1a2",
            "0x0000000000000000000000008263007844439f1a1423ae633994b6245e4508bc"
          ],
          "data": "0x000000000000000000000000000000000000000000000000001d32f4be7d98000000000000000000000000000000000000000000000000000ee69145aa008b2f00000000000000000000000000000000000000000000000000000000000000000000000000000000000000000000000000000000000000000ec95e50eb82f32f000000000000000000000000000000000000000000000000001d32f4be7d9800",
          "blockHash": "0xb88f2a2ef3ac287b396dc0c3e15d3e3678e7c80341ef34260ad9af396657e5f3",
          "blockNumber": "0x2ae89be",
          "transactionHash": "0xf9171d86605257cbf35e9c5d6ec4f7c29984b90071ed293f7d8fb7724326cd31",
          "transactionIndex": "0x1",
          "logIndex": "0x3",
          "removed": false
        },
        {
          "address": "0x0000000000000000000000000000000000001010",
          "topics": [
            "0xe6497e3ee548a3372136af2fcb0696db31fc6cf20260707645068bd3fe97f3c4",
            "0x0000000000000000000000000000000000000000000000000000000000001010",
            "0x0000000000000000000000008263007844439f1a1423ae633994b6245e4508bc",
            "0x0000000000000000000000003f512308d9312d184e8e2a13e47c99d1c9a6956a"
          ],
          "data": "0x000000000000000000000000000000000000000000000000001d32f4be7d9800000000000000000000000000000000000000000000000000001d32f4be7d980000000000000000000000000000000000000000000000000020e48e09c34a84c600000000000000000000000000000000000000000000000000000000000000000000000000000000000000000000000000000000000000002101c0fe81c81cc6",
          "blockHash": "0xb88f2a2ef3ac287b396dc0c3e15d3e3678e7c80341ef34260ad9af396657e5f3",
          "blockNumber": "0x2ae89be",
          "transactionHash": "0xf9171d86605257cbf35e9c5d6ec4f7c29984b90071ed293f7d8fb7724326cd31",
          "transactionIndex": "0x1",
          "logIndex": "0x4",
          "removed": false
        },
        {
          "address": "0x3f512308d9312d184E8E2a13E47C99D1c9A6956A",
          "topics": [
            "0x8e47b87b0ef542cdfa1659c551d88bad38aa7f452d2bbb349ab7530dfec8be8f"
          ],
          "data": "0x0000000000000000000000008263007844439f1a1423ae633994b6245e4508bc000000000000000000000000000000000000000000000000001d32f4be7d9800",
          "blockHash": "0xb88f2a2ef3ac287b396dc0c3e15d3e3678e7c80341ef34260ad9af396657e5f3",
          "blockNumber": "0x2ae89be",
          "transactionHash": "0xf9171d86605257cbf35e9c5d6ec4f7c29984b90071ed293f7d8fb7724326cd31",
          "transactionIndex": "0x1",
          "logIndex": "0x5",
          "removed": false
        },
        {
          "address": "0x7a1BaC17Ccc5b313516C5E16fb24f7659aA5ebed",
          "topics": [
            "0x63373d1c4696214b898952999c9aaec57dac1ee2723cec59bea6888f489a9772",
            "0x4b09e658ed251bcafeebbc69400383d49f344ace09b9576fe248bb02c003fe9f",
            "0x0000000000000000000000000000000000000000000000000000000000000b33",
            "0x0000000000000000000000008263007844439f1a1423ae633994b6245e4508bc"
          ],
          "data": "0x944f74ea64576643f364a5a7ba9b74ddc87b3c48cd5bb9e07edb077bc0297874da1fd3562ee895c3c2a2ff0bb54f28a7521ed290347518ace36fbb9885798458000000000000000000000000000000000000000000000000000000000000000300000000000000000000000000000000000000000000000000000000000f42400000000000000000000000000000000000000000000000000000000000000001",
          "blockHash": "0xb88f2a2ef3ac287b396dc0c3e15d3e3678e7c80341ef34260ad9af396657e5f3",
          "blockNumber": "0x2ae89be",
          "transactionHash": "0xf9171d86605257cbf35e9c5d6ec4f7c29984b90071ed293f7d8fb7724326cd31",
          "transactionIndex": "0x1",
          "logIndex": "0x6",
          "removed": false
        },
        {
          "address": "0x8263007844439F1A1423AE633994B6245e4508Bc",
          "topics": [
            "0xf2dc9a29f1b257c57ef50cb6c0230cacc6af60a01e5e51bde6ee1657f214a347"
          ],
          "data": "0x944f74ea64576643f364a5a7ba9b74ddc87b3c48cd5bb9e07edb077bc0297874",
          "blockHash": "0xb88f2a2ef3ac287b396dc0c3e15d3e3678e7c80341ef34260ad9af396657e5f3",
          "blockNumber": "0x2ae89be",
          "transactionHash": "0xf9171d86605257cbf35e9c5d6ec4f7c29984b90071ed293f7d8fb7724326cd31",
          "transactionIndex": "0x1",
          "logIndex": "0x7",
          "removed": false
        },
        {
          "address": "0x8263007844439F1A1423AE633994B6245e4508Bc",
          "topics": [
            "0xddf252ad1be2c89b69c2b068fc378daa952ba7f163c4a11628f55a4df523b3ef",
            "0x0000000000000000000000000000000000000000000000000000000000000000",
            "0x000000000000000000000000f92d18cdfa0ee4c76701d54ded6fb20ca635f1a2",
            "0x0000000000000000000000000000000000000000000000000000000000000dde"
          ],
          "data": "0x",
          "blockHash": "0xb88f2a2ef3ac287b396dc0c3e15d3e3678e7c80341ef34260ad9af396657e5f3",
          "blockNumber": "0x2ae89be",
          "transactionHash": "0xf9171d86605257cbf35e9c5d6ec4f7c29984b90071ed293f7d8fb7724326cd31",
          "transactionIndex": "0x1",
          "logIndex": "0x8",
          "removed": false
        },
        {
          "address": "0x8263007844439F1A1423AE633994B6245e4508Bc",
          "topics": [
            "0xddf252ad1be2c89b69c2b068fc378daa952ba7f163c4a11628f55a4df523b3ef",
            "0x0000000000000000000000000000000000000000000000000000000000000000",
            "0x000000000000000000000000f92d18cdfa0ee4c76701d54ded6fb20ca635f1a2",
            "0x0000000000000000000000000000000000000000000000000000000000000ddf"
          ],
          "data": "0x",
          "blockHash": "0xb88f2a2ef3ac287b396dc0c3e15d3e3678e7c80341ef34260ad9af396657e5f3",
          "blockNumber": "0x2ae89be",
          "transactionHash": "0xf9171d86605257cbf35e9c5d6ec4f7c29984b90071ed293f7d8fb7724326cd31",
          "transactionIndex": "0x1",
          "logIndex": "0x9",
          "removed": false
        },
        {
          "address": "0x8263007844439F1A1423AE633994B6245e4508Bc",
          "topics": [
            "0xddf252ad1be2c89b69c2b068fc378daa952ba7f163c4a11628f55a4df523b3ef",
            "0x0000000000000000000000000000000000000000000000000000000000000000",
            "0x000000000000000000000000f92d18cdfa0ee4c76701d54ded6fb20ca635f1a2",
            "0x0000000000000000000000000000000000000000000000000000000000000de0"
          ],
          "data": "0x",
          "blockHash": "0xb88f2a2ef3ac287b396dc0c3e15d3e3678e7c80341ef34260ad9af396657e5f3",
          "blockNumber": "0x2ae89be",
          "transactionHash": "0xf9171d86605257cbf35e9c5d6ec4f7c29984b90071ed293f7d8fb7724326cd31",
          "transactionIndex": "0x1",
          "logIndex": "0xa",
          "removed": false
        },
        {
          "address": "0x8263007844439F1A1423AE633994B6245e4508Bc",
          "topics": [
            "0xddf252ad1be2c89b69c2b068fc378daa952ba7f163c4a11628f55a4df523b3ef",
            "0x0000000000000000000000000000000000000000000000000000000000000000",
            "0x000000000000000000000000f92d18cdfa0ee4c76701d54ded6fb20ca635f1a2",
            "0x0000000000000000000000000000000000000000000000000000000000000de1"
          ],
          "data": "0x",
          "blockHash": "0xb88f2a2ef3ac287b396dc0c3e15d3e3678e7c80341ef34260ad9af396657e5f3",
          "blockNumber": "0x2ae89be",
          "transactionHash": "0xf9171d86605257cbf35e9c5d6ec4f7c29984b90071ed293f7d8fb7724326cd31",
          "transactionIndex": "0x1",
          "logIndex": "0xb",
          "removed": false
        },
        {
          "address": "0x8263007844439F1A1423AE633994B6245e4508Bc",
          "topics": [
            "0xddf252ad1be2c89b69c2b068fc378daa952ba7f163c4a11628f55a4df523b3ef",
            "0x0000000000000000000000000000000000000000000000000000000000000000",
            "0x000000000000000000000000f92d18cdfa0ee4c76701d54ded6fb20ca635f1a2",
            "0x0000000000000000000000000000000000000000000000000000000000000de2"
          ],
          "data": "0x",
          "blockHash": "0xb88f2a2ef3ac287b396dc0c3e15d3e3678e7c80341ef34260ad9af396657e5f3",
          "blockNumber": "0x2ae89be",
          "transactionHash": "0xf9171d86605257cbf35e9c5d6ec4f7c29984b90071ed293f7d8fb7724326cd31",
          "transactionIndex": "0x1",
          "logIndex": "0xc",
          "removed": false
        },
        {
          "address": "0x8263007844439F1A1423AE633994B6245e4508Bc",
          "topics": [
            "0xddf252ad1be2c89b69c2b068fc378daa952ba7f163c4a11628f55a4df523b3ef",
            "0x0000000000000000000000000000000000000000000000000000000000000000",
            "0x000000000000000000000000f92d18cdfa0ee4c76701d54ded6fb20ca635f1a2",
            "0x0000000000000000000000000000000000000000000000000000000000000de3"
          ],
          "data": "0x",
          "blockHash": "0xb88f2a2ef3ac287b396dc0c3e15d3e3678e7c80341ef34260ad9af396657e5f3",
          "blockNumber": "0x2ae89be",
          "transactionHash": "0xf9171d86605257cbf35e9c5d6ec4f7c29984b90071ed293f7d8fb7724326cd31",
          "transactionIndex": "0x1",
          "logIndex": "0xd",
          "removed": false
        },
        {
          "address": "0x8263007844439F1A1423AE633994B6245e4508Bc",
          "topics": [
            "0xddf252ad1be2c89b69c2b068fc378daa952ba7f163c4a11628f55a4df523b3ef",
            "0x0000000000000000000000000000000000000000000000000000000000000000",
            "0x000000000000000000000000f92d18cdfa0ee4c76701d54ded6fb20ca635f1a2",
            "0x0000000000000000000000000000000000000000000000000000000000000de4"
          ],
          "data": "0x",
          "blockHash": "0xb88f2a2ef3ac287b396dc0c3e15d3e3678e7c80341ef34260ad9af396657e5f3",
          "blockNumber": "0x2ae89be",
          "transactionHash": "0xf9171d86605257cbf35e9c5d6ec4f7c29984b90071ed293f7d8fb7724326cd31",
          "transactionIndex": "0x1",
          "logIndex": "0xe",
          "removed": false
        },
        {
          "address": "0x8263007844439F1A1423AE633994B6245e4508Bc",
          "topics": [
            "0xddf252ad1be2c89b69c2b068fc378daa952ba7f163c4a11628f55a4df523b3ef",
            "0x0000000000000000000000000000000000000000000000000000000000000000",
            "0x000000000000000000000000f92d18cdfa0ee4c76701d54ded6fb20ca635f1a2",
            "0x0000000000000000000000000000000000000000000000000000000000000de5"
          ],
          "data": "0x",
          "blockHash": "0xb88f2a2ef3ac287b396dc0c3e15d3e3678e7c80341ef34260ad9af396657e5f3",
          "blockNumber": "0x2ae89be",
          "transactionHash": "0xf9171d86605257cbf35e9c5d6ec4f7c29984b90071ed293f7d8fb7724326cd31",
          "transactionIndex": "0x1",
          "logIndex": "0xf",
          "removed": false
        },
        {
          "address": "0x8263007844439F1A1423AE633994B6245e4508Bc",
          "topics": [
            "0xddf252ad1be2c89b69c2b068fc378daa952ba7f163c4a11628f55a4df523b3ef",
            "0x0000000000000000000000000000000000000000000000000000000000000000",
            "0x000000000000000000000000f92d18cdfa0ee4c76701d54ded6fb20ca635f1a2",
            "0x0000000000000000000000000000000000000000000000000000000000000de6"
          ],
          "data": "0x",
          "blockHash": "0xb88f2a2ef3ac287b396dc0c3e15d3e3678e7c80341ef34260ad9af396657e5f3",
          "blockNumber": "0x2ae89be",
          "transactionHash": "0xf9171d86605257cbf35e9c5d6ec4f7c29984b90071ed293f7d8fb7724326cd31",
          "transactionIndex": "0x1",
          "logIndex": "0x10",
          "removed": false
        },
        {
          "address": "0x8263007844439F1A1423AE633994B6245e4508Bc",
          "topics": [
            "0xddf252ad1be2c89b69c2b068fc378daa952ba7f163c4a11628f55a4df523b3ef",
            "0x0000000000000000000000000000000000000000000000000000000000000000",
            "0x000000000000000000000000f92d18cdfa0ee4c76701d54ded6fb20ca635f1a2",
            "0x0000000000000000000000000000000000000000000000000000000000000de7"
          ],
          "data": "0x",
          "blockHash": "0xb88f2a2ef3ac287b396dc0c3e15d3e3678e7c80341ef34260ad9af396657e5f3",
          "blockNumber": "0x2ae89be",
          "transactionHash": "0xf9171d86605257cbf35e9c5d6ec4f7c29984b90071ed293f7d8fb7724326cd31",
          "transactionIndex": "0x1",
          "logIndex": "0x11",
          "removed": false
        },
        {
          "address": "0x0000000000000000000000000000000000001010",
          "topics": [
            "0x4dfe1bbbcf077ddc3e01291eea2d5c70c2b422b415d95645b9adcfd678cb1d63",
            "0x0000000000000000000000000000000000000000000000000000000000001010",
            "0x000000000000000000000000f92d18cdfa0ee4c76701d54ded6fb20ca635f1a2",
            "0x000000000000000000000000244c9aa5d417e0dc869ee5ab9b7430402368e2b2"
          ],
          "data": "0x00000000000000000000000000000000000000000000000000a1f40d7bd934000000000000000000000000000000000000000000000000000fc643f39fed1671000000000000000000000000000000000000000000000021ebfac81c554641380000000000000000000000000000000000000000000000000f244fe62413e271000000000000000000000000000000000000000000000021ec9cbc29d11f7538",
          "blockHash": "0xb88f2a2ef3ac287b396dc0c3e15d3e3678e7c80341ef34260ad9af396657e5f3",
          "blockNumber": "0x2ae89be",
          "transactionHash": "0xf9171d86605257cbf35e9c5d6ec4f7c29984b90071ed293f7d8fb7724326cd31",
          "transactionIndex": "0x1",
          "logIndex": "0x12",
          "removed": false
        }
      ],
      "status": "0x1",
      "logsBloom": "0x02001010000200000404002000000008040000000000000000000500000004101000000000000000000004100000000020008000004000000208000000000000000000800000000800000008000022810000000020001000000100000000000000002290020000000080100100000800000004200040000080000412000000000000000000000000400000000000201000040000004000000000040000000000200000000000400000000000040000000010000000000000000000000000004000000202000010008001000008004000002000000000800000128000000020080008002000000100000100000200000000080000001000000208000000100000",
      "type": "0x2",
      "effectiveGasPrice": "0x6fc23ac0f"
    },
    {
      "transactionHash": "0x6e6c339f4640efe4df8a00503411ff570431bacd108f99d4f32608027d2fbc1e",
      "transactionIndex": "0x2",
      "blockHash": "0x075345283e9db1b0001b1cc34e109e06a9c52fe15d1b423051f105d86f73958f",
      "blockNumber": "0x2ae89bf",
      "from": "0xD4C7E8652c97127EE260057e2dC245D42F21DDA7",
      "to": "0x8263007844439F1A1423AE633994B6245e4508Bc",
      "cumulativeGasUsed": "0x19cd45",
      "gasUsed": "0x172fa7",
      "contractAddress": null,
      "logs": [
        {
          "address": "0x0000000000000000000000000000000000001010",
          "topics": [
            "0xe6497e3ee548a3372136af2fcb0696db31fc6cf20260707645068bd3fe97f3c4",
            "0x0000000000000000000000000000000000000000000000000000000000001010",
            "0x000000000000000000000000d4c7e8652c97127ee260057e2dc245d42f21dda7",
            "0x0000000000000000000000008263007844439f1a1423ae633994b6245e4508bc"
          ],
          "data": "0x000000000000000000000000000000000000000000000000001d32f4be7d98000000000000000000000000000000000000000000000000000bc3ce625bf7ee9b00000000000000000000000000000000000000000000000000000000000000000000000000000000000000000000000000000000000000000ba69b6d9d7a569b000000000000000000000000000000000000000000000000001d32f4be7d9800",
          "blockHash": "0x075345283e9db1b0001b1cc34e109e06a9c52fe15d1b423051f105d86f73958f",
          "blockNumber": "0x2ae89bf",
          "transactionHash": "0x6e6c339f4640efe4df8a00503411ff570431bacd108f99d4f32608027d2fbc1e",
          "transactionIndex": "0x2",
          "logIndex": "0x5",
          "removed": false
        },
        {
          "address": "0x0000000000000000000000000000000000001010",
          "topics": [
            "0xe6497e3ee548a3372136af2fcb0696db31fc6cf20260707645068bd3fe97f3c4",
            "0x0000000000000000000000000000000000000000000000000000000000001010",
            "0x0000000000000000000000008263007844439f1a1423ae633994b6245e4508bc",
            "0x0000000000000000000000003f512308d9312d184e8e2a13e47c99d1c9a6956a"
          ],
          "data": "0x000000000000000000000000000000000000000000000000001d32f4be7d9800000000000000000000000000000000000000000000000000001d32f4be7d98000000000000000000000000000000000000000000000000002101c0fe81c81cc60000000000000000000000000000000000000000000000000000000000000000000000000000000000000000000000000000000000000000211ef3f34045b4c6",
          "blockHash": "0x075345283e9db1b0001b1cc34e109e06a9c52fe15d1b423051f105d86f73958f",
          "blockNumber": "0x2ae89bf",
          "transactionHash": "0x6e6c339f4640efe4df8a00503411ff570431bacd108f99d4f32608027d2fbc1e",
          "transactionIndex": "0x2",
          "logIndex": "0x6",
          "removed": false
        },
        {
          "address": "0x3f512308d9312d184E8E2a13E47C99D1c9A6956A",
          "topics": [
            "0x8e47b87b0ef542cdfa1659c551d88bad38aa7f452d2bbb349ab7530dfec8be8f"
          ],
          "data": "0x0000000000000000000000008263007844439f1a1423ae633994b6245e4508bc000000000000000000000000000000000000000000000000001d32f4be7d9800",
          "blockHash": "0x075345283e9db1b0001b1cc34e109e06a9c52fe15d1b423051f105d86f73958f",
          "blockNumber": "0x2ae89bf",
          "transactionHash": "0x6e6c339f4640efe4df8a00503411ff570431bacd108f99d4f32608027d2fbc1e",
          "transactionIndex": "0x2",
          "logIndex": "0x7",
          "removed": false
        },
        {
          "address": "0x7a1BaC17Ccc5b313516C5E16fb24f7659aA5ebed",
          "topics": [
            "0x63373d1c4696214b898952999c9aaec57dac1ee2723cec59bea6888f489a9772",
            "0x4b09e658ed251bcafeebbc69400383d49f344ace09b9576fe248bb02c003fe9f",
            "0x0000000000000000000000000000000000000000000000000000000000000b33",
            "0x0000000000000000000000008263007844439f1a1423ae633994b6245e4508bc"
          ],
          "data": "0xca5966692855270e2c15b00cf9bc6255b8d9d5534b07a5e6786520414331aecc3f7f88b07abfb9f13980d7080aebca7ed9f4400c717027ea5d0e0f8eb36c99c3000000000000000000000000000000000000000000000000000000000000000300000000000000000000000000000000000000000000000000000000000f42400000000000000000000000000000000000000000000000000000000000000001",
          "blockHash": "0x075345283e9db1b0001b1cc34e109e06a9c52fe15d1b423051f105d86f73958f",
          "blockNumber": "0x2ae89bf",
          "transactionHash": "0x6e6c339f4640efe4df8a00503411ff570431bacd108f99d4f32608027d2fbc1e",
          "transactionIndex": "0x2",
          "logIndex": "0x8",
          "removed": false
        },
        {
          "address": "0x8263007844439F1A1423AE633994B6245e4508Bc",
          "topics": [
            "0xf2dc9a29f1b257c57ef50cb6c0230cacc6af60a01e5e51bde6ee1657f214a347"
          ],
          "data": "0xca5966692855270e2c15b00cf9bc6255b8d9d5534b07a5e6786520414331aecc",
          "blockHash": "0x075345283e9db1b0001b1cc34e109e06a9c52fe15d1b423051f105d86f73958f",
          "blockNumber": "0x2ae89bf",
          "transactionHash": "0x6e6c339f4640efe4df8a00503411ff570431bacd108f99d4f32608027d2fbc1e",
          "transactionIndex": "0x2",
          "logIndex": "0x9",
          "removed": false
        },
        {
          "address": "0x8263007844439F1A1423AE633994B6245e4508Bc",
          "topics": [
            "0xddf252ad1be2c89b69c2b068fc378daa952ba7f163c4a11628f55a4df523b3ef",
            "0x0000000000000000000000000000000000000000000000000000000000000000",
            "0x000000000000000000000000d4c7e8652c97127ee260057e2dc245d42f21dda7",
            "0x0000000000000000000000000000000000000000000000000000000000000de8"
          ],
          "data": "0x",
          "blockHash": "0x075345283e9db1b0001b1cc34e109e06a9c52fe15d1b423051f105d86f73958f",
          "blockNumber": "0x2ae89bf",
          "transactionHash": "0x6e6c339f4640efe4df8a00503411ff570431bacd108f99d4f32608027d2fbc1e",
          "transactionIndex": "0x2",
          "logIndex": "0xa",
          "removed": false
        },
        {
          "address": "0x8263007844439F1A1423AE633994B6245e4508Bc",
          "topics": [
            "0xddf252ad1be2c89b69c2b068fc378daa952ba7f163c4a11628f55a4df523b3ef",
            "0x0000000000000000000000000000000000000000000000000000000000000000",
            "0x000000000000000000000000d4c7e8652c97127ee260057e2dc245d42f21dda7",
            "0x0000000000000000000000000000000000000000000000000000000000000de9"
          ],
          "data": "0x",
          "blockHash": "0x075345283e9db1b0001b1cc34e109e06a9c52fe15d1b423051f105d86f73958f",
          "blockNumber": "0x2ae89bf",
          "transactionHash": "0x6e6c339f4640efe4df8a00503411ff570431bacd108f99d4f32608027d2fbc1e",
          "transactionIndex": "0x2",
          "logIndex": "0xb",
          "removed": false
        },
        {
          "address": "0x8263007844439F1A1423AE633994B6245e4508Bc",
          "topics": [
            "0xddf252ad1be2c89b69c2b068fc378daa952ba7f163c4a11628f55a4df523b3ef",
            "0x0000000000000000000000000000000000000000000000000000000000000000",
            "0x000000000000000000000000d4c7e8652c97127ee260057e2dc245d42f21dda7",
            "0x0000000000000000000000000000000000000000000000000000000000000dea"
          ],
          "data": "0x",
          "blockHash": "0x075345283e9db1b0001b1cc34e109e06a9c52fe15d1b423051f105d86f73958f",
          "blockNumber": "0x2ae89bf",
          "transactionHash": "0x6e6c339f4640efe4df8a00503411ff570431bacd108f99d4f32608027d2fbc1e",
          "transactionIndex": "0x2",
          "logIndex": "0xc",
          "removed": false
        },
        {
          "address": "0x8263007844439F1A1423AE633994B6245e4508Bc",
          "topics": [
            "0xddf252ad1be2c89b69c2b068fc378daa952ba7f163c4a11628f55a4df523b3ef",
            "0x0000000000000000000000000000000000000000000000000000000000000000",
            "0x000000000000000000000000d4c7e8652c97127ee260057e2dc245d42f21dda7",
            "0x0000000000000000000000000000000000000000000000000000000000000deb"
          ],
          "data": "0x",
          "blockHash": "0x075345283e9db1b0001b1cc34e109e06a9c52fe15d1b423051f105d86f73958f",
          "blockNumber": "0x2ae89bf",
          "transactionHash": "0x6e6c339f4640efe4df8a00503411ff570431bacd108f99d4f32608027d2fbc1e",
          "transactionIndex": "0x2",
          "logIndex": "0xd",
          "removed": false
        },
        {
          "address": "0x8263007844439F1A1423AE633994B6245e4508Bc",
          "topics": [
            "0xddf252ad1be2c89b69c2b068fc378daa952ba7f163c4a11628f55a4df523b3ef",
            "0x0000000000000000000000000000000000000000000000000000000000000000",
            "0x000000000000000000000000d4c7e8652c97127ee260057e2dc245d42f21dda7",
            "0x0000000000000000000000000000000000000000000000000000000000000dec"
          ],
          "data": "0x",
          "blockHash": "0x075345283e9db1b0001b1cc34e109e06a9c52fe15d1b423051f105d86f73958f",
          "blockNumber": "0x2ae89bf",
          "transactionHash": "0x6e6c339f4640efe4df8a00503411ff570431bacd108f99d4f32608027d2fbc1e",
          "transactionIndex": "0x2",
          "logIndex": "0xe",
          "removed": false
        },
        {
          "address": "0x8263007844439F1A1423AE633994B6245e4508Bc",
          "topics": [
            "0xddf252ad1be2c89b69c2b068fc378daa952ba7f163c4a11628f55a4df523b3ef",
            "0x0000000000000000000000000000000000000000000000000000000000000000",
            "0x000000000000000000000000d4c7e8652c97127ee260057e2dc245d42f21dda7",
            "0x0000000000000000000000000000000000000000000000000000000000000ded"
          ],
          "data": "0x",
          "blockHash": "0x075345283e9db1b0001b1cc34e109e06a9c52fe15d1b423051f105d86f73958f",
          "blockNumber": "0x2ae89bf",
          "transactionHash": "0x6e6c339f4640efe4df8a00503411ff570431bacd108f99d4f32608027d2fbc1e",
          "transactionIndex": "0x2",
          "logIndex": "0xf",
          "removed": false
        },
        {
          "address": "0x8263007844439F1A1423AE633994B6245e4508Bc",
          "topics": [
            "0xddf252ad1be2c89b69c2b068fc378daa952ba7f163c4a11628f55a4df523b3ef",
            "0x0000000000000000000000000000000000000000000000000000000000000000",
            "0x000000000000000000000000d4c7e8652c97127ee260057e2dc245d42f21dda7",
            "0x0000000000000000000000000000000000000000000000000000000000000dee"
          ],
          "data": "0x",
          "blockHash": "0x075345283e9db1b0001b1cc34e109e06a9c52fe15d1b423051f105d86f73958f",
          "blockNumber": "0x2ae89bf",
          "transactionHash": "0x6e6c339f4640efe4df8a00503411ff570431bacd108f99d4f32608027d2fbc1e",
          "transactionIndex": "0x2",
          "logIndex": "0x10",
          "removed": false
        },
        {
          "address": "0x8263007844439F1A1423AE633994B6245e4508Bc",
          "topics": [
            "0xddf252ad1be2c89b69c2b068fc378daa952ba7f163c4a11628f55a4df523b3ef",
            "0x0000000000000000000000000000000000000000000000000000000000000000",
            "0x000000000000000000000000d4c7e8652c97127ee260057e2dc245d42f21dda7",
            "0x0000000000000000000000000000000000000000000000000000000000000def"
          ],
          "data": "0x",
          "blockHash": "0x075345283e9db1b0001b1cc34e109e06a9c52fe15d1b423051f105d86f73958f",
          "blockNumber": "0x2ae89bf",
          "transactionHash": "0x6e6c339f4640efe4df8a00503411ff570431bacd108f99d4f32608027d2fbc1e",
          "transactionIndex": "0x2",
          "logIndex": "0x11",
          "removed": false
        },
        {
          "address": "0x8263007844439F1A1423AE633994B6245e4508Bc",
          "topics": [
            "0xddf252ad1be2c89b69c2b068fc378daa952ba7f163c4a11628f55a4df523b3ef",
            "0x0000000000000000000000000000000000000000000000000000000000000000",
            "0x000000000000000000000000d4c7e8652c97127ee260057e2dc245d42f21dda7",
            "0x0000000000000000000000000000000000000000000000000000000000000df0"
          ],
          "data": "0x",
          "blockHash": "0x075345283e9db1b0001b1cc34e109e06a9c52fe15d1b423051f105d86f73958f",
          "blockNumber": "0x2ae89bf",
          "transactionHash": "0x6e6c339f4640efe4df8a00503411ff570431bacd108f99d4f32608027d2fbc1e",
          "transactionIndex": "0x2",
          "logIndex": "0x12",
          "removed": false
        },
        {
          "address": "0x8263007844439F1A1423AE633994B6245e4508Bc",
          "topics": [
            "0xddf252ad1be2c89b69c2b068fc378daa952ba7f163c4a11628f55a4df523b3ef",
            "0x0000000000000000000000000000000000000000000000000000000000000000",
            "0x000000000000000000000000d4c7e8652c97127ee260057e2dc245d42f21dda7",
            "0x0000000000000000000000000000000000000000000000000000000000000df1"
          ],
          "data": "0x",
          "blockHash": "0x075345283e9db1b0001b1cc34e109e06a9c52fe15d1b423051f105d86f73958f",
          "blockNumber": "0x2ae89bf",
          "transactionHash": "0x6e6c339f4640efe4df8a00503411ff570431bacd108f99d4f32608027d2fbc1e",
          "transactionIndex": "0x2",
          "logIndex": "0x13",
          "removed": false
        },
        {
          "address": "0x0000000000000000000000000000000000001010",
          "topics": [
            "0x4dfe1bbbcf077ddc3e01291eea2d5c70c2b422b415d95645b9adcfd678cb1d63",
            "0x0000000000000000000000000000000000000000000000000000000000001010",
            "0x000000000000000000000000d4c7e8652c97127ee260057e2dc245d42f21dda7",
            "0x000000000000000000000000244c9aa5d417e0dc869ee5ab9b7430402368e2b2"
          ],
          "data": "0x00000000000000000000000000000000000000000000000000a1f40d7bd934000000000000000000000000000000000000000000000000000ca3811051e479dd000000000000000000000000000000000000000000000021ecbc5fa594915a670000000000000000000000000000000000000000000000000c018d02d60b45dd000000000000000000000000000000000000000000000021ed5e53b3106a8e67",
          "blockHash": "0x075345283e9db1b0001b1cc34e109e06a9c52fe15d1b423051f105d86f73958f",
          "blockNumber": "0x2ae89bf",
          "transactionHash": "0x6e6c339f4640efe4df8a00503411ff570431bacd108f99d4f32608027d2fbc1e",
          "transactionIndex": "0x2",
          "logIndex": "0x14",
          "removed": false
        }
      ],
      "status": "0x1",
      "logsBloom": "0x0200000200000200040400200002000804000000000000000000000040080410000000000300000001000010000000002000800000004002020800000000000000000080000000080000000800002280000000000000900000010000000400000000008002000000000000010000080000004424008000008000041200000002008000000100000000000040020000120000000000c000000000000000000000200000000000480004010000000000200410000000000000000000000000004000000002000010000001004000004000000000000000800400128000000020000008000000100100000100000200004000080000000000000000000000100000",
      "type": "0x2",
      "effectiveGasPrice": "0x6fc23ac0f"
    },
    {
      "transactionHash": "0x7fc8361effb6ca56dd4d75f2a6b3edfc6839ad846cee01ffdfafdfae2f72c1aa",
      "transactionIndex": "0x1",
      "blockHash": "0x217049dadc2c4d2e8aab563c1a23341074a901f928ea996bccdbf0fbbf45d8f0",
      "blockNumber": "0x2ae89c1",
      "from": "0x298334B4895392b0BA15261194cF1642A4adf9Fc",
      "to": "0x8263007844439F1A1423AE633994B6245e4508Bc",
      "cumulativeGasUsed": "0x186801",
      "gasUsed": "0x172fa7",
      "contractAddress": null,
      "logs": [
        {
          "address": "0x0000000000000000000000000000000000001010",
          "topics": [
            "0xe6497e3ee548a3372136af2fcb0696db31fc6cf20260707645068bd3fe97f3c4",
            "0x0000000000000000000000000000000000000000000000000000000000001010",
            "0x000000000000000000000000298334b4895392b0ba15261194cf1642a4adf9fc",
            "0x0000000000000000000000008263007844439f1a1423ae633994b6245e4508bc"
          ],
          "data": "0x000000000000000000000000000000000000000000000000001d32f4be7d980000000000000000000000000000000000000000000000000020fc918d583cb03b000000000000000000000000000000000000000000000000000000000000000000000000000000000000000000000000000000000000000020df5e9899bf183b000000000000000000000000000000000000000000000000001d32f4be7d9800",
          "blockHash": "0x217049dadc2c4d2e8aab563c1a23341074a901f928ea996bccdbf0fbbf45d8f0",
          "blockNumber": "0x2ae89c1",
          "transactionHash": "0x7fc8361effb6ca56dd4d75f2a6b3edfc6839ad846cee01ffdfafdfae2f72c1aa",
          "transactionIndex": "0x1",
          "logIndex": "0x2",
          "removed": false
        },
        {
          "address": "0x0000000000000000000000000000000000001010",
          "topics": [
            "0xe6497e3ee548a3372136af2fcb0696db31fc6cf20260707645068bd3fe97f3c4",
            "0x0000000000000000000000000000000000000000000000000000000000001010",
            "0x0000000000000000000000008263007844439f1a1423ae633994b6245e4508bc",
            "0x0000000000000000000000003f512308d9312d184e8e2a13e47c99d1c9a6956a"
          ],
          "data": "0x000000000000000000000000000000000000000000000000001d32f4be7d9800000000000000000000000000000000000000000000000000001d32f4be7d9800000000000000000000000000000000000000000000000000211ef3f34045b4c60000000000000000000000000000000000000000000000000000000000000000000000000000000000000000000000000000000000000000213c26e7fec34cc6",
          "blockHash": "0x217049dadc2c4d2e8aab563c1a23341074a901f928ea996bccdbf0fbbf45d8f0",
          "blockNumber": "0x2ae89c1",
          "transactionHash": "0x7fc8361effb6ca56dd4d75f2a6b3edfc6839ad846cee01ffdfafdfae2f72c1aa",
          "transactionIndex": "0x1",
          "logIndex": "0x3",
          "removed": false
        },
        {
          "address": "0x3f512308d9312d184E8E2a13E47C99D1c9A6956A",
          "topics": [
            "0x8e47b87b0ef542cdfa1659c551d88bad38aa7f452d2bbb349ab7530dfec8be8f"
          ],
          "data": "0x0000000000000000000000008263007844439f1a1423ae633994b6245e4508bc000000000000000000000000000000000000000000000000001d32f4be7d9800",
          "blockHash": "0x217049dadc2c4d2e8aab563c1a23341074a901f928ea996bccdbf0fbbf45d8f0",
          "blockNumber": "0x2ae89c1",
          "transactionHash": "0x7fc8361effb6ca56dd4d75f2a6b3edfc6839ad846cee01ffdfafdfae2f72c1aa",
          "transactionIndex": "0x1",
          "logIndex": "0x4",
          "removed": false
        },
        {
          "address": "0x7a1BaC17Ccc5b313516C5E16fb24f7659aA5ebed",
          "topics": [
            "0x63373d1c4696214b898952999c9aaec57dac1ee2723cec59bea6888f489a9772",
            "0x4b09e658ed251bcafeebbc69400383d49f344ace09b9576fe248bb02c003fe9f",
            "0x0000000000000000000000000000000000000000000000000000000000000b33",
            "0x0000000000000000000000008263007844439f1a1423ae633994b6245e4508bc"
          ],
          "data": "0x8787fcaab99d6da1f7145959cd4c7b564494c60ff47cf6ffb920c46f3d5b6b8859b256c4c1ce4923ae4a32b9f4696ca56a823ca84799a6c3008e4fd6c493e3d2000000000000000000000000000000000000000000000000000000000000000300000000000000000000000000000000000000000000000000000000000f42400000000000000000000000000000000000000000000000000000000000000001",
          "blockHash": "0x217049dadc2c4d2e8aab563c1a23341074a901f928ea996bccdbf0fbbf45d8f0",
          "blockNumber": "0x2ae89c1",
          "transactionHash": "0x7fc8361effb6ca56dd4d75f2a6b3edfc6839ad846cee01ffdfafdfae2f72c1aa",
          "transactionIndex": "0x1",
          "logIndex": "0x5",
          "removed": false
        },
        {
          "address": "0x8263007844439F1A1423AE633994B6245e4508Bc",
          "topics": [
            "0xf2dc9a29f1b257c57ef50cb6c0230cacc6af60a01e5e51bde6ee1657f214a347"
          ],
          "data": "0x8787fcaab99d6da1f7145959cd4c7b564494c60ff47cf6ffb920c46f3d5b6b88",
          "blockHash": "0x217049dadc2c4d2e8aab563c1a23341074a901f928ea996bccdbf0fbbf45d8f0",
          "blockNumber": "0x2ae89c1",
          "transactionHash": "0x7fc8361effb6ca56dd4d75f2a6b3edfc6839ad846cee01ffdfafdfae2f72c1aa",
          "transactionIndex": "0x1",
          "logIndex": "0x6",
          "removed": false
        },
        {
          "address": "0x8263007844439F1A1423AE633994B6245e4508Bc",
          "topics": [
            "0xddf252ad1be2c89b69c2b068fc378daa952ba7f163c4a11628f55a4df523b3ef",
            "0x0000000000000000000000000000000000000000000000000000000000000000",
            "0x000000000000000000000000298334b4895392b0ba15261194cf1642a4adf9fc",
            "0x0000000000000000000000000000000000000000000000000000000000000df2"
          ],
          "data": "0x",
          "blockHash": "0x217049dadc2c4d2e8aab563c1a23341074a901f928ea996bccdbf0fbbf45d8f0",
          "blockNumber": "0x2ae89c1",
          "transactionHash": "0x7fc8361effb6ca56dd4d75f2a6b3edfc6839ad846cee01ffdfafdfae2f72c1aa",
          "transactionIndex": "0x1",
          "logIndex": "0x7",
          "removed": false
        },
        {
          "address": "0x8263007844439F1A1423AE633994B6245e4508Bc",
          "topics": [
            "0xddf252ad1be2c89b69c2b068fc378daa952ba7f163c4a11628f55a4df523b3ef",
            "0x0000000000000000000000000000000000000000000000000000000000000000",
            "0x000000000000000000000000298334b4895392b0ba15261194cf1642a4adf9fc",
            "0x0000000000000000000000000000000000000000000000000000000000000df3"
          ],
          "data": "0x",
          "blockHash": "0x217049dadc2c4d2e8aab563c1a23341074a901f928ea996bccdbf0fbbf45d8f0",
          "blockNumber": "0x2ae89c1",
          "transactionHash": "0x7fc8361effb6ca56dd4d75f2a6b3edfc6839ad846cee01ffdfafdfae2f72c1aa",
          "transactionIndex": "0x1",
          "logIndex": "0x8",
          "removed": false
        },
        {
          "address": "0x8263007844439F1A1423AE633994B6245e4508Bc",
          "topics": [
            "0xddf252ad1be2c89b69c2b068fc378daa952ba7f163c4a11628f55a4df523b3ef",
            "0x0000000000000000000000000000000000000000000000000000000000000000",
            "0x000000000000000000000000298334b4895392b0ba15261194cf1642a4adf9fc",
            "0x0000000000000000000000000000000000000000000000000000000000000df4"
          ],
          "data": "0x",
          "blockHash": "0x217049dadc2c4d2e8aab563c1a23341074a901f928ea996bccdbf0fbbf45d8f0",
          "blockNumber": "0x2ae89c1",
          "transactionHash": "0x7fc8361effb6ca56dd4d75f2a6b3edfc6839ad846cee01ffdfafdfae2f72c1aa",
          "transactionIndex": "0x1",
          "logIndex": "0x9",
          "removed": false
        },
        {
          "address": "0x8263007844439F1A1423AE633994B6245e4508Bc",
          "topics": [
            "0xddf252ad1be2c89b69c2b068fc378daa952ba7f163c4a11628f55a4df523b3ef",
            "0x0000000000000000000000000000000000000000000000000000000000000000",
            "0x000000000000000000000000298334b4895392b0ba15261194cf1642a4adf9fc",
            "0x0000000000000000000000000000000000000000000000000000000000000df5"
          ],
          "data": "0x",
          "blockHash": "0x217049dadc2c4d2e8aab563c1a23341074a901f928ea996bccdbf0fbbf45d8f0",
          "blockNumber": "0x2ae89c1",
          "transactionHash": "0x7fc8361effb6ca56dd4d75f2a6b3edfc6839ad846cee01ffdfafdfae2f72c1aa",
          "transactionIndex": "0x1",
          "logIndex": "0xa",
          "removed": false
        },
        {
          "address": "0x8263007844439F1A1423AE633994B6245e4508Bc",
          "topics": [
            "0xddf252ad1be2c89b69c2b068fc378daa952ba7f163c4a11628f55a4df523b3ef",
            "0x0000000000000000000000000000000000000000000000000000000000000000",
            "0x000000000000000000000000298334b4895392b0ba15261194cf1642a4adf9fc",
            "0x0000000000000000000000000000000000000000000000000000000000000df6"
          ],
          "data": "0x",
          "blockHash": "0x217049dadc2c4d2e8aab563c1a23341074a901f928ea996bccdbf0fbbf45d8f0",
          "blockNumber": "0x2ae89c1",
          "transactionHash": "0x7fc8361effb6ca56dd4d75f2a6b3edfc6839ad846cee01ffdfafdfae2f72c1aa",
          "transactionIndex": "0x1",
          "logIndex": "0xb",
          "removed": false
        },
        {
          "address": "0x8263007844439F1A1423AE633994B6245e4508Bc",
          "topics": [
            "0xddf252ad1be2c89b69c2b068fc378daa952ba7f163c4a11628f55a4df523b3ef",
            "0x0000000000000000000000000000000000000000000000000000000000000000",
            "0x000000000000000000000000298334b4895392b0ba15261194cf1642a4adf9fc",
            "0x0000000000000000000000000000000000000000000000000000000000000df7"
          ],
          "data": "0x",
          "blockHash": "0x217049dadc2c4d2e8aab563c1a23341074a901f928ea996bccdbf0fbbf45d8f0",
          "blockNumber": "0x2ae89c1",
          "transactionHash": "0x7fc8361effb6ca56dd4d75f2a6b3edfc6839ad846cee01ffdfafdfae2f72c1aa",
          "transactionIndex": "0x1",
          "logIndex": "0xc",
          "removed": false
        },
        {
          "address": "0x8263007844439F1A1423AE633994B6245e4508Bc",
          "topics": [
            "0xddf252ad1be2c89b69c2b068fc378daa952ba7f163c4a11628f55a4df523b3ef",
            "0x0000000000000000000000000000000000000000000000000000000000000000",
            "0x000000000000000000000000298334b4895392b0ba15261194cf1642a4adf9fc",
            "0x0000000000000000000000000000000000000000000000000000000000000df8"
          ],
          "data": "0x",
          "blockHash": "0x217049dadc2c4d2e8aab563c1a23341074a901f928ea996bccdbf0fbbf45d8f0",
          "blockNumber": "0x2ae89c1",
          "transactionHash": "0x7fc8361effb6ca56dd4d75f2a6b3edfc6839ad846cee01ffdfafdfae2f72c1aa",
          "transactionIndex": "0x1",
          "logIndex": "0xd",
          "removed": false
        },
        {
          "address": "0x8263007844439F1A1423AE633994B6245e4508Bc",
          "topics": [
            "0xddf252ad1be2c89b69c2b068fc378daa952ba7f163c4a11628f55a4df523b3ef",
            "0x0000000000000000000000000000000000000000000000000000000000000000",
            "0x000000000000000000000000298334b4895392b0ba15261194cf1642a4adf9fc",
            "0x0000000000000000000000000000000000000000000000000000000000000df9"
          ],
          "data": "0x",
          "blockHash": "0x217049dadc2c4d2e8aab563c1a23341074a901f928ea996bccdbf0fbbf45d8f0",
          "blockNumber": "0x2ae89c1",
          "transactionHash": "0x7fc8361effb6ca56dd4d75f2a6b3edfc6839ad846cee01ffdfafdfae2f72c1aa",
          "transactionIndex": "0x1",
          "logIndex": "0xe",
          "removed": false
        },
        {
          "address": "0x8263007844439F1A1423AE633994B6245e4508Bc",
          "topics": [
            "0xddf252ad1be2c89b69c2b068fc378daa952ba7f163c4a11628f55a4df523b3ef",
            "0x0000000000000000000000000000000000000000000000000000000000000000",
            "0x000000000000000000000000298334b4895392b0ba15261194cf1642a4adf9fc",
            "0x0000000000000000000000000000000000000000000000000000000000000dfa"
          ],
          "data": "0x",
          "blockHash": "0x217049dadc2c4d2e8aab563c1a23341074a901f928ea996bccdbf0fbbf45d8f0",
          "blockNumber": "0x2ae89c1",
          "transactionHash": "0x7fc8361effb6ca56dd4d75f2a6b3edfc6839ad846cee01ffdfafdfae2f72c1aa",
          "transactionIndex": "0x1",
          "logIndex": "0xf",
          "removed": false
        },
        {
          "address": "0x8263007844439F1A1423AE633994B6245e4508Bc",
          "topics": [
            "0xddf252ad1be2c89b69c2b068fc378daa952ba7f163c4a11628f55a4df523b3ef",
            "0x0000000000000000000000000000000000000000000000000000000000000000",
            "0x000000000000000000000000298334b4895392b0ba15261194cf1642a4adf9fc",
            "0x0000000000000000000000000000000000000000000000000000000000000dfb"
          ],
          "data": "0x",
          "blockHash": "0x217049dadc2c4d2e8aab563c1a23341074a901f928ea996bccdbf0fbbf45d8f0",
          "blockNumber": "0x2ae89c1",
          "transactionHash": "0x7fc8361effb6ca56dd4d75f2a6b3edfc6839ad846cee01ffdfafdfae2f72c1aa",
          "transactionIndex": "0x1",
          "logIndex": "0x10",
          "removed": false
        },
        {
          "address": "0x0000000000000000000000000000000000001010",
          "topics": [
            "0x4dfe1bbbcf077ddc3e01291eea2d5c70c2b422b415d95645b9adcfd678cb1d63",
            "0x0000000000000000000000000000000000000000000000000000000000001010",
            "0x000000000000000000000000298334b4895392b0ba15261194cf1642a4adf9fc",
            "0x000000000000000000000000244c9aa5d417e0dc869ee5ab9b7430402368e2b2"
          ],
          "data": "0x00000000000000000000000000000000000000000000000000a1f40d7bd9340000000000000000000000000000000000000000000000000021dc443b4e293b7d000000000000000000000000000000000000000000000021ed987fa1f1596ea3000000000000000000000000000000000000000000000000213a502dd250077d000000000000000000000000000000000000000000000021ee3a73af6d32a2a3",
          "blockHash": "0x217049dadc2c4d2e8aab563c1a23341074a901f928ea996bccdbf0fbbf45d8f0",
          "blockNumber": "0x2ae89c1",
          "transactionHash": "0x7fc8361effb6ca56dd4d75f2a6b3edfc6839ad846cee01ffdfafdfae2f72c1aa",
          "transactionIndex": "0x1",
          "logIndex": "0x11",
          "removed": false
        }
      ],
      "status": "0x1",
      "logsBloom": "0x420010000000000004040020000200090400000000008100000000000400841000240800000000200000041000010000200080800000000002080000000000000000008000000028000000080000228000000000000010000021000000000000000000a0020000000000000100002801000004280000000080000410000000000000000000000000000000000000001000000000004000000000000000000000200000000400400010000000000000008010000000000000000000000004004000001002000010000001000000004000000000000000800000128000000020000808000000000104000100000200008000080000100000010800000000100000",
      "type": "0x2",
      "effectiveGasPrice": "0x6fc23ac0f"
    }
  ],
  "libraries": [],
  "pending": [],
  "returns": {},
  "timestamp": 1705808201,
  "chain": 80001,
  "multi": false,
  "commit": "9935aef"
}