{
  "transactions": [
    {
      "hash": "0x6c9040c03288ed8249a08aee24c228dc31d2802ae93839186db5fe084f805e06",
      "transactionType": "CALL",
      "contractName": null,
      "contractAddress": "0x8263007844439F1A1423AE633994B6245e4508Bc",
      "function": "mint(address,uint256)",
      "arguments": [
        "0x298334B4895392b0BA15261194cF1642A4adf9Fc",
        "10"
      ],
      "transaction": {
        "type": "0x02",
        "from": "0x298334b4895392b0ba15261194cf1642a4adf9fc",
        "to": "0x8263007844439f1a1423ae633994b6245e4508bc",
        "gas": "0x20069e",
        "value": "0x1d6c2e81da93d0",
        "data": "0x40c10f19000000000000000000000000298334b4895392b0ba15261194cf1642a4adf9fc000000000000000000000000000000000000000000000000000000000000000a",
        "nonce": "0x36",
        "accessList": []
      },
      "additionalContracts": [],
      "isFixedGasLimit": false
    },
    {
      "hash": "0x34294dd51a0ed08d87d1ce056768b1b1d57a618a7013590f1b181861faab4ba5",
      "transactionType": "CALL",
      "contractName": null,
      "contractAddress": "0x8263007844439F1A1423AE633994B6245e4508Bc",
      "function": "mint(address,uint256)",
      "arguments": [
        "0xF92D18CdFa0EE4C76701d54dEd6fB20ca635F1A2",
        "10"
      ],
      "transaction": {
        "type": "0x02",
        "from": "0xf92d18cdfa0ee4c76701d54ded6fb20ca635f1a2",
        "to": "0x8263007844439f1a1423ae633994b6245e4508bc",
        "gas": "0x20069e",
        "value": "0x1d6c2e81da93d0",
        "data": "0x40c10f19000000000000000000000000f92d18cdfa0ee4c76701d54ded6fb20ca635f1a2000000000000000000000000000000000000000000000000000000000000000a",
        "nonce": "0x32",
        "accessList": []
      },
      "additionalContracts": [],
      "isFixedGasLimit": false
    },
    {
      "hash": null,
      "transactionType": "CALL",
      "contractName": null,
      "contractAddress": "0x8263007844439F1A1423AE633994B6245e4508Bc",
      "function": "mint(address,uint256)",
      "arguments": [
        "0xD4C7E8652c97127EE260057e2dC245D42F21DDA7",
        "10"
      ],
      "transaction": {
        "type": "0x02",
        "from": "0xd4c7e8652c97127ee260057e2dc245d42f21dda7",
        "to": "0x8263007844439f1a1423ae633994b6245e4508bc",
        "gas": "0x20069e",
        "value": "0x1d6c2e81da93d0",
        "data": "0x40c10f19000000000000000000000000d4c7e8652c97127ee260057e2dc245d42f21dda7000000000000000000000000000000000000000000000000000000000000000a",
        "nonce": "0x42",
        "accessList": []
      },
      "additionalContracts": [],
      "isFixedGasLimit": false
    },
    {
      "hash": null,
      "transactionType": "CALL",
      "contractName": null,
      "contractAddress": "0x8263007844439F1A1423AE633994B6245e4508Bc",
      "function": "mint(address,uint256)",
      "arguments": [
        "0x298334B4895392b0BA15261194cF1642A4adf9Fc",
        "10"
      ],
      "transaction": {
        "type": "0x02",
        "from": "0x298334b4895392b0ba15261194cf1642a4adf9fc",
        "to": "0x8263007844439f1a1423ae633994b6245e4508bc",
        "gas": "0x20069e",
        "value": "0x1d6c2e81da93d0",
        "data": "0x40c10f19000000000000000000000000298334b4895392b0ba15261194cf1642a4adf9fc000000000000000000000000000000000000000000000000000000000000000a",
        "nonce": "0x37",
        "accessList": []
      },
      "additionalContracts": [],
      "isFixedGasLimit": false
    },
    {
      "hash": null,
      "transactionType": "CALL",
      "contractName": null,
      "contractAddress": "0x8263007844439F1A1423AE633994B6245e4508Bc",
      "function": "mint(address,uint256)",
      "arguments": [
        "0xF92D18CdFa0EE4C76701d54dEd6fB20ca635F1A2",
        "10"
      ],
      "transaction": {
        "type": "0x02",
        "from": "0xf92d18cdfa0ee4c76701d54ded6fb20ca635f1a2",
        "to": "0x8263007844439f1a1423ae633994b6245e4508bc",
        "gas": "0x20069e",
        "value": "0x1d6c2e81da93d0",
        "data": "0x40c10f19000000000000000000000000f92d18cdfa0ee4c76701d54ded6fb20ca635f1a2000000000000000000000000000000000000000000000000000000000000000a",
        "nonce": "0x33",
        "accessList": []
      },
      "additionalContracts": [],
      "isFixedGasLimit": false
    },
    {
      "hash": null,
      "transactionType": "CALL",
      "contractName": null,
      "contractAddress": "0x8263007844439F1A1423AE633994B6245e4508Bc",
      "function": "mint(address,uint256)",
      "arguments": [
        "0xD4C7E8652c97127EE260057e2dC245D42F21DDA7",
        "10"
      ],
      "transaction": {
        "type": "0x02",
        "from": "0xd4c7e8652c97127ee260057e2dc245d42f21dda7",
        "to": "0x8263007844439f1a1423ae633994b6245e4508bc",
        "gas": "0x20069e",
        "value": "0x1d6c2e81da93d0",
        "data": "0x40c10f19000000000000000000000000d4c7e8652c97127ee260057e2dc245d42f21dda7000000000000000000000000000000000000000000000000000000000000000a",
        "nonce": "0x43",
        "accessList": []
      },
      "additionalContracts": [],
      "isFixedGasLimit": false
    },
    {
      "hash": null,
      "transactionType": "CALL",
      "contractName": null,
      "contractAddress": "0x8263007844439F1A1423AE633994B6245e4508Bc",
      "function": "mint(address,uint256)",
      "arguments": [
        "0x298334B4895392b0BA15261194cF1642A4adf9Fc",
        "10"
      ],
      "transaction": {
        "type": "0x02",
        "from": "0x298334b4895392b0ba15261194cf1642a4adf9fc",
        "to": "0x8263007844439f1a1423ae633994b6245e4508bc",
        "gas": "0x20069e",
        "value": "0x1d6c2e81da93d0",
        "data": "0x40c10f19000000000000000000000000298334b4895392b0ba15261194cf1642a4adf9fc000000000000000000000000000000000000000000000000000000000000000a",
        "nonce": "0x38",
        "accessList": []
      },
      "additionalContracts": [],
      "isFixedGasLimit": false
    },
    {
      "hash": null,
      "transactionType": "CALL",
      "contractName": null,
      "contractAddress": "0x8263007844439F1A1423AE633994B6245e4508Bc",
      "function": "mint(address,uint256)",
      "arguments": [
        "0xF92D18CdFa0EE4C76701d54dEd6fB20ca635F1A2",
        "10"
      ],
      "transaction": {
        "type": "0x02",
        "from": "0xf92d18cdfa0ee4c76701d54ded6fb20ca635f1a2",
        "to": "0x8263007844439f1a1423ae633994b6245e4508bc",
        "gas": "0x20069e",
        "value": "0x1d6c2e81da93d0",
        "data": "0x40c10f19000000000000000000000000f92d18cdfa0ee4c76701d54ded6fb20ca635f1a2000000000000000000000000000000000000000000000000000000000000000a",
        "nonce": "0x34",
        "accessList": []
      },
      "additionalContracts": [],
      "isFixedGasLimit": false
    },
    {
      "hash": null,
      "transactionType": "CALL",
      "contractName": null,
      "contractAddress": "0x8263007844439F1A1423AE633994B6245e4508Bc",
      "function": "mint(address,uint256)",
      "arguments": [
        "0xD4C7E8652c97127EE260057e2dC245D42F21DDA7",
        "10"
      ],
      "transaction": {
        "type": "0x02",
        "from": "0xd4c7e8652c97127ee260057e2dc245d42f21dda7",
        "to": "0x8263007844439f1a1423ae633994b6245e4508bc",
        "gas": "0x20069e",
        "value": "0x1d6c2e81da93d0",
        "data": "0x40c10f19000000000000000000000000d4c7e8652c97127ee260057e2dc245d42f21dda7000000000000000000000000000000000000000000000000000000000000000a",
        "nonce": "0x44",
        "accessList": []
      },
      "additionalContracts": [],
      "isFixedGasLimit": false
    }
  ],
  "receipts": [
    {
      "transactionHash": "0x6c9040c03288ed8249a08aee24c228dc31d2802ae93839186db5fe084f805e06",
      "transactionIndex": "0x1",
      "blockHash": "0x8ae91f1ba3980f46d2e8bed1dd7caf01c7aa59ff19a73079c94ef83bd13e0948",
      "blockNumber": "0x2ae8112",
      "from": "0x298334B4895392b0BA15261194cF1642A4adf9Fc",
      "to": "0x8263007844439F1A1423AE633994B6245e4508Bc",
      "cumulativeGasUsed": "0x18724d",
      "gasUsed": "0x172fa7",
      "contractAddress": null,
      "logs": [
        {
          "address": "0x0000000000000000000000000000000000001010",
          "topics": [
            "0xe6497e3ee548a3372136af2fcb0696db31fc6cf20260707645068bd3fe97f3c4",
            "0x0000000000000000000000000000000000000000000000000000000000001010",
            "0x000000000000000000000000298334b4895392b0ba15261194cf1642a4adf9fc",
            "0x0000000000000000000000008263007844439f1a1423ae633994b6245e4508bc"
          ],
          "data": "0x000000000000000000000000000000000000000000000000001d6c2e81da93d00000000000000000000000000000000000000000000000003d6b329ffd30951e00000000000000000000000000000000000000000000000000000000000000000000000000000000000000000000000000000000000000003d4dc6717b56014e000000000000000000000000000000000000000000000000001d6c2e81da93d0",
          "blockHash": "0x8ae91f1ba3980f46d2e8bed1dd7caf01c7aa59ff19a73079c94ef83bd13e0948",
          "blockNumber": "0x2ae8112",
          "transactionHash": "0x6c9040c03288ed8249a08aee24c228dc31d2802ae93839186db5fe084f805e06",
          "transactionIndex": "0x1",
          "logIndex": "0x3",
          "removed": false
        },
        {
          "address": "0x0000000000000000000000000000000000001010",
          "topics": [
            "0xe6497e3ee548a3372136af2fcb0696db31fc6cf20260707645068bd3fe97f3c4",
            "0x0000000000000000000000000000000000000000000000000000000000001010",
            "0x0000000000000000000000008263007844439f1a1423ae633994b6245e4508bc",
            "0x0000000000000000000000003f512308d9312d184e8e2a13e47c99d1c9a6956a"
          ],
          "data": "0x000000000000000000000000000000000000000000000000001d6c2e81da93d0000000000000000000000000000000000000000000000000001d6c2e81da93d00000000000000000000000000000000000000000000000001485b285602788e6000000000000000000000000000000000000000000000000000000000000000000000000000000000000000000000000000000000000000014a31eb3e2021cb6",
          "blockHash": "0x8ae91f1ba3980f46d2e8bed1dd7caf01c7aa59ff19a73079c94ef83bd13e0948",
          "blockNumber": "0x2ae8112",
          "transactionHash": "0x6c9040c03288ed8249a08aee24c228dc31d2802ae93839186db5fe084f805e06",
          "transactionIndex": "0x1",
          "logIndex": "0x4",
          "removed": false
        },
        {
          "address": "0x3f512308d9312d184E8E2a13E47C99D1c9A6956A",
          "topics": [
            "0x8e47b87b0ef542cdfa1659c551d88bad38aa7f452d2bbb349ab7530dfec8be8f"
          ],
          "data": "0x0000000000000000000000008263007844439f1a1423ae633994b6245e4508bc000000000000000000000000000000000000000000000000001d6c2e81da93d0",
          "blockHash": "0x8ae91f1ba3980f46d2e8bed1dd7caf01c7aa59ff19a73079c94ef83bd13e0948",
          "blockNumber": "0x2ae8112",
          "transactionHash": "0x6c9040c03288ed8249a08aee24c228dc31d2802ae93839186db5fe084f805e06",
          "transactionIndex": "0x1",
          "logIndex": "0x5",
          "removed": false
        },
        {
          "address": "0x7a1BaC17Ccc5b313516C5E16fb24f7659aA5ebed",
          "topics": [
            "0x63373d1c4696214b898952999c9aaec57dac1ee2723cec59bea6888f489a9772",
            "0x4b09e658ed251bcafeebbc69400383d49f344ace09b9576fe248bb02c003fe9f",
            "0x0000000000000000000000000000000000000000000000000000000000000b33",
            "0x0000000000000000000000008263007844439f1a1423ae633994b6245e4508bc"
          ],
          "data": "0x1c9b63dea5aeb055e2530f4248a2adbf84b2567b46c463dfc02b407e5af8efd51ae967f66b570d1d6d04f3334045ee08558fcffaeab55ca42fda4eeb50311b16000000000000000000000000000000000000000000000000000000000000000300000000000000000000000000000000000000000000000000000000000f42400000000000000000000000000000000000000000000000000000000000000001",
          "blockHash": "0x8ae91f1ba3980f46d2e8bed1dd7caf01c7aa59ff19a73079c94ef83bd13e0948",
          "blockNumber": "0x2ae8112",
          "transactionHash": "0x6c9040c03288ed8249a08aee24c228dc31d2802ae93839186db5fe084f805e06",
          "transactionIndex": "0x1",
          "logIndex": "0x6",
          "removed": false
        },
        {
          "address": "0x8263007844439F1A1423AE633994B6245e4508Bc",
          "topics": [
            "0xf2dc9a29f1b257c57ef50cb6c0230cacc6af60a01e5e51bde6ee1657f214a347"
          ],
          "data": "0x1c9b63dea5aeb055e2530f4248a2adbf84b2567b46c463dfc02b407e5af8efd5",
          "blockHash": "0x8ae91f1ba3980f46d2e8bed1dd7caf01c7aa59ff19a73079c94ef83bd13e0948",
          "blockNumber": "0x2ae8112",
          "transactionHash": "0x6c9040c03288ed8249a08aee24c228dc31d2802ae93839186db5fe084f805e06",
          "transactionIndex": "0x1",
          "logIndex": "0x7",
          "removed": false
        },
        {
          "address": "0x8263007844439F1A1423AE633994B6245e4508Bc",
          "topics": [
            "0xddf252ad1be2c89b69c2b068fc378daa952ba7f163c4a11628f55a4df523b3ef",
            "0x0000000000000000000000000000000000000000000000000000000000000000",
            "0x000000000000000000000000298334b4895392b0ba15261194cf1642a4adf9fc",
            "0x00000000000000000000000000000000000000000000000000000000000009a6"
          ],
          "data": "0x",
          "blockHash": "0x8ae91f1ba3980f46d2e8bed1dd7caf01c7aa59ff19a73079c94ef83bd13e0948",
          "blockNumber": "0x2ae8112",
          "transactionHash": "0x6c9040c03288ed8249a08aee24c228dc31d2802ae93839186db5fe084f805e06",
          "transactionIndex": "0x1",
          "logIndex": "0x8",
          "removed": false
        },
        {
          "address": "0x8263007844439F1A1423AE633994B6245e4508Bc",
          "topics": [
            "0xddf252ad1be2c89b69c2b068fc378daa952ba7f163c4a11628f55a4df523b3ef",
            "0x0000000000000000000000000000000000000000000000000000000000000000",
            "0x000000000000000000000000298334b4895392b0ba15261194cf1642a4adf9fc",
            "0x00000000000000000000000000000000000000000000000000000000000009a7"
          ],
          "data": "0x",
          "blockHash": "0x8ae91f1ba3980f46d2e8bed1dd7caf01c7aa59ff19a73079c94ef83bd13e0948",
          "blockNumber": "0x2ae8112",
          "transactionHash": "0x6c9040c03288ed8249a08aee24c228dc31d2802ae93839186db5fe084f805e06",
          "transactionIndex": "0x1",
          "logIndex": "0x9",
          "removed": false
        },
        {
          "address": "0x8263007844439F1A1423AE633994B6245e4508Bc",
          "topics": [
            "0xddf252ad1be2c89b69c2b068fc378daa952ba7f163c4a11628f55a4df523b3ef",
            "0x0000000000000000000000000000000000000000000000000000000000000000",
            "0x000000000000000000000000298334b4895392b0ba15261194cf1642a4adf9fc",
            "0x00000000000000000000000000000000000000000000000000000000000009a8"
          ],
          "data": "0x",
          "blockHash": "0x8ae91f1ba3980f46d2e8bed1dd7caf01c7aa59ff19a73079c94ef83bd13e0948",
          "blockNumber": "0x2ae8112",
          "transactionHash": "0x6c9040c03288ed8249a08aee24c228dc31d2802ae93839186db5fe084f805e06",
          "transactionIndex": "0x1",
          "logIndex": "0xa",
          "removed": false
        },
        {
          "address": "0x8263007844439F1A1423AE633994B6245e4508Bc",
          "topics": [
            "0xddf252ad1be2c89b69c2b068fc378daa952ba7f163c4a11628f55a4df523b3ef",
            "0x0000000000000000000000000000000000000000000000000000000000000000",
            "0x000000000000000000000000298334b4895392b0ba15261194cf1642a4adf9fc",
            "0x00000000000000000000000000000000000000000000000000000000000009a9"
          ],
          "data": "0x",
          "blockHash": "0x8ae91f1ba3980f46d2e8bed1dd7caf01c7aa59ff19a73079c94ef83bd13e0948",
          "blockNumber": "0x2ae8112",
          "transactionHash": "0x6c9040c03288ed8249a08aee24c228dc31d2802ae93839186db5fe084f805e06",
          "transactionIndex": "0x1",
          "logIndex": "0xb",
          "removed": false
        },
        {
          "address": "0x8263007844439F1A1423AE633994B6245e4508Bc",
          "topics": [
            "0xddf252ad1be2c89b69c2b068fc378daa952ba7f163c4a11628f55a4df523b3ef",
            "0x0000000000000000000000000000000000000000000000000000000000000000",
            "0x000000000000000000000000298334b4895392b0ba15261194cf1642a4adf9fc",
            "0x00000000000000000000000000000000000000000000000000000000000009aa"
          ],
          "data": "0x",
          "blockHash": "0x8ae91f1ba3980f46d2e8bed1dd7caf01c7aa59ff19a73079c94ef83bd13e0948",
          "blockNumber": "0x2ae8112",
          "transactionHash": "0x6c9040c03288ed8249a08aee24c228dc31d2802ae93839186db5fe084f805e06",
          "transactionIndex": "0x1",
          "logIndex": "0xc",
          "removed": false
        },
        {
          "address": "0x8263007844439F1A1423AE633994B6245e4508Bc",
          "topics": [
            "0xddf252ad1be2c89b69c2b068fc378daa952ba7f163c4a11628f55a4df523b3ef",
            "0x0000000000000000000000000000000000000000000000000000000000000000",
            "0x000000000000000000000000298334b4895392b0ba15261194cf1642a4adf9fc",
            "0x00000000000000000000000000000000000000000000000000000000000009ab"
          ],
          "data": "0x",
          "blockHash": "0x8ae91f1ba3980f46d2e8bed1dd7caf01c7aa59ff19a73079c94ef83bd13e0948",
          "blockNumber": "0x2ae8112",
          "transactionHash": "0x6c9040c03288ed8249a08aee24c228dc31d2802ae93839186db5fe084f805e06",
          "transactionIndex": "0x1",
          "logIndex": "0xd",
          "removed": false
        },
        {
          "address": "0x8263007844439F1A1423AE633994B6245e4508Bc",
          "topics": [
            "0xddf252ad1be2c89b69c2b068fc378daa952ba7f163c4a11628f55a4df523b3ef",
            "0x0000000000000000000000000000000000000000000000000000000000000000",
            "0x000000000000000000000000298334b4895392b0ba15261194cf1642a4adf9fc",
            "0x00000000000000000000000000000000000000000000000000000000000009ac"
          ],
          "data": "0x",
          "blockHash": "0x8ae91f1ba3980f46d2e8bed1dd7caf01c7aa59ff19a73079c94ef83bd13e0948",
          "blockNumber": "0x2ae8112",
          "transactionHash": "0x6c9040c03288ed8249a08aee24c228dc31d2802ae93839186db5fe084f805e06",
          "transactionIndex": "0x1",
          "logIndex": "0xe",
          "removed": false
        },
        {
          "address": "0x8263007844439F1A1423AE633994B6245e4508Bc",
          "topics": [
            "0xddf252ad1be2c89b69c2b068fc378daa952ba7f163c4a11628f55a4df523b3ef",
            "0x0000000000000000000000000000000000000000000000000000000000000000",
            "0x000000000000000000000000298334b4895392b0ba15261194cf1642a4adf9fc",
            "0x00000000000000000000000000000000000000000000000000000000000009ad"
          ],
          "data": "0x",
          "blockHash": "0x8ae91f1ba3980f46d2e8bed1dd7caf01c7aa59ff19a73079c94ef83bd13e0948",
          "blockNumber": "0x2ae8112",
          "transactionHash": "0x6c9040c03288ed8249a08aee24c228dc31d2802ae93839186db5fe084f805e06",
          "transactionIndex": "0x1",
          "logIndex": "0xf",
          "removed": false
        },
        {
          "address": "0x8263007844439F1A1423AE633994B6245e4508Bc",
          "topics": [
            "0xddf252ad1be2c89b69c2b068fc378daa952ba7f163c4a11628f55a4df523b3ef",
            "0x0000000000000000000000000000000000000000000000000000000000000000",
            "0x000000000000000000000000298334b4895392b0ba15261194cf1642a4adf9fc",
            "0x00000000000000000000000000000000000000000000000000000000000009ae"
          ],
          "data": "0x",
          "blockHash": "0x8ae91f1ba3980f46d2e8bed1dd7caf01c7aa59ff19a73079c94ef83bd13e0948",
          "blockNumber": "0x2ae8112",
          "transactionHash": "0x6c9040c03288ed8249a08aee24c228dc31d2802ae93839186db5fe084f805e06",
          "transactionIndex": "0x1",
          "logIndex": "0x10",
          "removed": false
        },
        {
          "address": "0x8263007844439F1A1423AE633994B6245e4508Bc",
          "topics": [
            "0xddf252ad1be2c89b69c2b068fc378daa952ba7f163c4a11628f55a4df523b3ef",
            "0x0000000000000000000000000000000000000000000000000000000000000000",
            "0x000000000000000000000000298334b4895392b0ba15261194cf1642a4adf9fc",
            "0x00000000000000000000000000000000000000000000000000000000000009af"
          ],
          "data": "0x",
          "blockHash": "0x8ae91f1ba3980f46d2e8bed1dd7caf01c7aa59ff19a73079c94ef83bd13e0948",
          "blockNumber": "0x2ae8112",
          "transactionHash": "0x6c9040c03288ed8249a08aee24c228dc31d2802ae93839186db5fe084f805e06",
          "transactionIndex": "0x1",
          "logIndex": "0x11",
          "removed": false
        },
        {
          "address": "0x0000000000000000000000000000000000001010",
          "topics": [
            "0x4dfe1bbbcf077ddc3e01291eea2d5c70c2b422b415d95645b9adcfd678cb1d63",
            "0x0000000000000000000000000000000000000000000000000000000000001010",
            "0x000000000000000000000000298334b4895392b0ba15261194cf1642a4adf9fc",
            "0x000000000000000000000000f903ba9e006193c1527bfbe65fe2123704ea3f99"
          ],
          "data": "0x00000000000000000000000000000000000000000000000000a1f40d7bd934000000000000000000000000000000000000000000000000003e4ae54df33d26fe0000000000000000000000000000000000000000000012cc5e8d5b6eb9db154a0000000000000000000000000000000000000000000000003da8f1407763f2fe0000000000000000000000000000000000000000000012cc5f2f4f7c35b4494a",
          "blockHash": "0x8ae91f1ba3980f46d2e8bed1dd7caf01c7aa59ff19a73079c94ef83bd13e0948",
          "blockNumber": "0x2ae8112",
          "transactionHash": "0x6c9040c03288ed8249a08aee24c228dc31d2802ae93839186db5fe084f805e06",
          "transactionIndex": "0x1",
          "logIndex": "0x12",
          "removed": false
        }
      ],
      "status": "0x1",
      "logsBloom": "0x020008000004000004040020000000080400000040000000000000100000040000000000010008200000001000000000200080100000000000080000000000000000008002004008000000080080268000008020000010000001000020000000000000a0020000200800000100000800000004200000000080000010010000000000000000000000000000000000011000000000004000400000000000000001204000000000400000000000000800000018000000000000000000000002004000001002100012000001000000004000000001000000800000128000001020000018000000000100000100000200000000088001000000010000000000100000",
      "type": "0x2",
      "effectiveGasPrice": "0x6fc23ac10"
    }
  ],
  "libraries": [],
  "pending": [],
  "returns": {},
  "timestamp": 1705801758,
  "chain": 80001,
  "multi": false,
  "commit": "9935aef"
}